

Microchip MPLAB XC8 Assembler V2.05 build -831301201 
                                                                                               Sat Jul 27 23:15:26 2019

Microchip MPLAB XC8 C Compiler v2.05 (Free license) build 20181220022703 Og1 
     1                           	processor	18F4550
     2                           	fnconf	rparam,??,?,0
     3                           	opt	pw 120
     4                           	opt	flic
     5                           	psect	idataBANK0,global,class=CODE,delta=1,noexec
     6                           	psect	smallconst,global,reloc=2,class=SMALLCONST,delta=1,noexec
     7                           	psect	cinit,global,reloc=2,class=CODE,delta=1
     8                           	psect	bssCOMRAM,global,class=COMRAM,space=1,delta=1,noexec
     9                           	psect	bssBANK0,global,class=BANK0,space=1,delta=1,lowdata,noexec
    10                           	psect	dataBANK0,global,class=BANK0,space=1,delta=1,lowdata,noexec
    11                           	psect	bssBANK1,global,class=BANK1,space=1,delta=1,lowdata,noexec
    12                           	psect	bssBIGRAM_1,global,class=BIGRAM,space=1,delta=1,lowdata,noexec
    13                           	psect	cstackBANK0,global,class=BANK0,space=1,delta=1,noexec
    14                           	psect	cstackCOMRAM,global,class=COMRAM,space=1,delta=1,noexec
    15                           	psect	text0,global,reloc=2,class=CODE,delta=1
    16                           	psect	text1,global,reloc=2,class=CODE,delta=1
    17                           	psect	text2,global,reloc=2,class=CODE,delta=1
    18                           	psect	text3,global,reloc=2,class=CODE,delta=1
    19                           	psect	text4,global,reloc=2,class=CODE,delta=1,group=1
    20                           	psect	text5,global,reloc=2,class=CODE,delta=1
    21                           	psect	text6,global,reloc=2,class=CODE,delta=1
    22                           	psect	text7,global,reloc=2,class=CODE,delta=1
    23                           	psect	text8,global,reloc=2,class=CODE,delta=1
    24                           	psect	text9,global,reloc=2,class=CODE,delta=1,group=2
    25                           	psect	text10,global,reloc=2,class=CODE,delta=1,group=2
    26                           	psect	text11,global,reloc=2,class=CODE,delta=1
    27                           	psect	text12,global,reloc=2,class=CODE,delta=1
    28                           	psect	text13,global,reloc=2,class=CODE,delta=1
    29                           	psect	text14,global,reloc=2,class=CODE,delta=1,group=2
    30                           	psect	text15,global,reloc=2,class=CODE,delta=1,group=2
    31                           	psect	text16,global,reloc=2,class=CODE,delta=1,group=2
    32                           	psect	text17,global,reloc=2,class=CODE,delta=1,group=2
    33                           	psect	text18,global,reloc=2,class=CODE,delta=1
    34                           	psect	text19,global,reloc=2,class=CODE,delta=1,group=1
    35                           	psect	text20,global,reloc=2,class=CODE,delta=1,group=1
    36                           	psect	text21,global,reloc=2,class=CODE,delta=1,group=2
    37                           	psect	text22,global,reloc=2,class=CODE,delta=1
    38                           	psect	text23,global,reloc=2,class=CODE,delta=1
    39                           	psect	text24,global,reloc=2,class=CODE,delta=1
    40                           	psect	text25,global,reloc=2,class=CODE,delta=1,group=2
    41                           	psect	text26,global,reloc=2,class=CODE,delta=1,group=1
    42                           	psect	text27,global,reloc=2,class=CODE,delta=1,group=1
    43                           	psect	text28,global,reloc=2,class=CODE,delta=1
    44                           	psect	text29,global,reloc=2,class=CODE,delta=1
    45                           	psect	text30,global,reloc=2,class=CODE,delta=1,group=2
    46                           	psect	text31,global,reloc=2,class=CODE,delta=1,group=2
    47                           	psect	text32,global,reloc=2,class=CODE,delta=1,group=2
    48                           	psect	text33,global,reloc=2,class=CODE,delta=1,group=2
    49                           	psect	text34,global,reloc=2,class=CODE,delta=1,group=2
    50                           	psect	text35,global,reloc=2,class=CODE,delta=1,group=2
    51                           	psect	text36,global,reloc=2,class=CODE,delta=1,group=2
    52                           	psect	text37,global,reloc=2,class=CODE,delta=1,group=1
    53                           	psect	text38,global,reloc=2,class=CODE,delta=1
    54                           	psect	text39,global,reloc=2,class=CODE,delta=1
    55                           	psect	text40,global,reloc=2,class=CODE,delta=1,group=1
    56                           	psect	text41,global,reloc=2,class=CODE,delta=1
    57                           	psect	text42,global,reloc=2,class=CODE,delta=1
    58                           	psect	text43,global,reloc=2,class=CODE,delta=1,inline
    59                           	psect	text44,global,reloc=2,class=CODE,delta=1
    60                           	psect	text45,global,reloc=2,class=CODE,delta=1,inline
    61                           	psect	text46,global,reloc=2,class=CODE,delta=1
    62                           	psect	text47,global,reloc=2,class=CODE,delta=1
    63                           	psect	text48,global,reloc=2,class=CODE,delta=1
    64                           	psect	text49,global,reloc=2,class=CODE,delta=1
    65                           	psect	text50,global,reloc=2,class=CODE,delta=1
    66                           	psect	text51,global,reloc=2,class=CODE,delta=1
    67                           	psect	text52,global,reloc=2,class=CODE,delta=1,inline
    68                           	psect	text53,global,reloc=2,class=CODE,delta=1
    69                           	psect	text54,global,reloc=2,class=CODE,delta=1
    70                           	psect	text55,global,reloc=2,class=CODE,delta=1,inline
    71                           	psect	text56,global,reloc=2,class=CODE,delta=1
    72                           	psect	text57,global,reloc=2,class=CODE,delta=1
    73                           	psect	text58,global,reloc=2,class=CODE,delta=1
    74                           	psect	text59,global,reloc=2,class=CODE,delta=1
    75                           	psect	text60,global,reloc=2,class=CODE,delta=1
    76                           	psect	text61,global,reloc=2,class=CODE,delta=1
    77                           	psect	text62,global,reloc=2,class=CODE,delta=1
    78                           	psect	text63,global,reloc=2,class=CODE,delta=1
    79                           	psect	intcodelo,global,reloc=2,class=CODE,delta=1
    80                           	psect	text65,global,reloc=2,class=CODE,delta=1,inline
    81                           	psect	text66,global,reloc=2,class=CODE,delta=1,inline
    82                           	psect	intcode,global,reloc=2,class=CODE,delta=1
    83                           	psect	intcode_body,global,reloc=2,class=CODE,delta=1
    84                           	psect	text68,global,reloc=2,class=CODE,delta=1,inline
    85                           	psect	text69,global,reloc=2,class=CODE,delta=1,inline
    86                           	psect	intsave_regs,global,class=BIGRAM,space=1,delta=1,noexec
    87                           	psect	text70,global,reloc=2,class=CODE,delta=1,inline
    88                           	psect	rparam,global,class=COMRAM,space=1,delta=1,noexec
    89                           	psect	temp,global,ovrld,common,class=COMRAM,space=1,delta=1
    90  0000                     
    91                           ; Version 2.05
    92                           ; Generated 20/12/2018 GMT
    93                           ; 
    94                           ; Copyright © 2018, Microchip Technology Inc. and its subsidiaries ("Microchip")
    95                           ; All rights reserved.
    96                           ; 
    97                           ; This software is developed by Microchip Technology Inc. and its subsidiaries ("Microch
      +                          ip").
    98                           ; 
    99                           ; Redistribution and use in source and binary forms, with or without modification, are
   100                           ; permitted provided that the following conditions are met:
   101                           ; 
   102                           ;     1. Redistributions of source code must retain the above copyright notice, this lis
      +                          t of
   103                           ;        conditions and the following disclaimer.
   104                           ; 
   105                           ;     2. Redistributions in binary form must reproduce the above copyright notice, this 
      +                          list
   106                           ;        of conditions and the following disclaimer in the documentation and/or other
   107                           ;        materials provided with the distribution.
   108                           ; 
   109                           ;     3. Microchip's name may not be used to endorse or promote products derived from th
      +                          is
   110                           ;        software without specific prior written permission.
   111                           ; 
   112                           ; THIS SOFTWARE IS PROVIDED BY MICROCHIP "AS IS" AND ANY EXPRESS OR IMPLIED WARRANTIES,
   113                           ; INCLUDING, BUT NOT LIMITED TO, THE IMPLIED WARRANTIES OF MERCHANTABILITY AND FITNESS F
      +                          OR
   114                           ; PURPOSE ARE DISCLAIMED.  IN NO EVENT SHALL MICROCHIP BE LIABLE FOR ANY DIRECT, INDIREC
      +                          T,
   115                           ; INCIDENTAL, SPECIAL, EXEMPLARY, OR CONSEQUENTIAL DAMAGES (INCLUDING BUT NOT LIMITED TO
   116                           ; PROCUREMENT OF SUBSTITUTE GOODS OR SERVICES; LOSS OF USE, DATA OR PROFITS; OR BUSINESS
   117                           ; INTERRUPTION) HOWSOEVER CAUSED AND ON ANY THEORY OF LIABILITY, WHETHER IN CONTRACT, ST
      +                          RICT
   118                           ; LIABILITY, OR TORT (INCLUDING NEGLIGENCE OR OTHERWISE) ARISING IN ANY WAY OUT OF THE U
      +                          SE OF
   119                           ; THIS SOFTWARE, EVEN IF ADVISED OF THE POSSIBILITY OF SUCH DAMAGE.
   120                           ; 
   121                           ; 
   122                           ; Code-generator required, PIC18F4550 Definitions
   123                           ; 
   124                           ; SFR Addresses
   125  0000                     
   126                           	psect	idataBANK0
   127  003854                     __pidataBANK0:
   128                           	opt callstack 0
   129                           
   130                           ;initializer for stoa@F1152
   131  003854  28                 	db	40
   132  003855  6E                 	db	110
   133  003856  75                 	db	117
   134  003857  6C                 	db	108
   135  003858  6C                 	db	108
   136  003859  29                 	db	41
   137  00385A  00                 	db	0
   138                           
   139                           ;initializer for _SchedulerState
   140  00385B  02                 	db	2
   141                           
   142                           	psect	smallconst
   143  000800                     __psmallconst:
   144                           	opt callstack 0
   145  000800  00                 	db	0
   146  000801                     _T1FREQ:
   147                           	opt callstack 0
   148  000801  1B00               	dw	6912
   149  000803  00B7               	dw	183
   150  000805                     __end_of_T1FREQ:
   151                           	opt callstack 0
   152  0000                     _PORTBbits	set	3969
   153  0000                     _TRISB	set	3987
   154  0000                     _LATB	set	3978
   155  0000                     _PORTB	set	3969
   156  0000                     _TRISC	set	3988
   157  0000                     _LATC	set	3979
   158  0000                     _PORTC	set	3970
   159  0000                     _TMR3	set	4018
   160  0000                     _TMR1	set	4046
   161  0000                     _RCONbits	set	4048
   162  0000                     _CMCON	set	4020
   163  0000                     _ADCON1	set	4033
   164  0000                     _TMR3L	set	4018
   165  0000                     _TMR3H	set	4019
   166  0000                     _T3CON	set	4017
   167  0000                     _PIE2bits	set	4000
   168  0000                     _IPR2bits	set	4002
   169  0000                     _PIR2bits	set	4001
   170  0000                     _T3CONbits	set	4017
   171  0000                     _T1CON	set	4045
   172  0000                     _TXREG	set	4013
   173  0000                     _RCREG	set	4014
   174  0000                     _PIR1bits	set	3998
   175  0000                     _PIE1bits	set	3997
   176  0000                     _RCSTAbits	set	4011
   177  0000                     _IPR1bits	set	3999
   178  0000                     _SPBRGH	set	4016
   179  0000                     _SPBRG	set	4015
   180  0000                     _BAUDCONbits	set	4024
   181  0000                     _TXSTAbits	set	4012
   182  0000                     _RCSTA	set	4011
   183  0000                     _TXSTA	set	4012
   184  0000                     _BAUDCON	set	4024
   185  0000                     _INTCONbits	set	4082
   186  000805                     STR_1:
   187  000805  25                 	db	37
   188  000806  64                 	db	100	;'d'
   189  000807  20                 	db	32
   190  000808  6D                 	db	109	;'m'
   191  000809  6D                 	db	109	;'m'
   192  00080A  0A                 	db	10
   193  00080B  00                 	db	0
   194  00080C                     STR_78:
   195  00080C  68                 	db	104	;'h'
   196  00080D  68                 	db	104	;'h'
   197  00080E  58                 	db	88	;'X'
   198  00080F  00                 	db	0
   199  000810                     STR_2:
   200  000810  68                 	db	104	;'h'
   201  000811  68                 	db	104	;'h'
   202  000812  64                 	db	100	;'d'
   203  000813  00                 	db	0
   204  000814                     STR_6:
   205  000814  68                 	db	104	;'h'
   206  000815  68                 	db	104	;'h'
   207  000816  69                 	db	105	;'i'
   208  000817  00                 	db	0
   209  000818                     STR_44:
   210  000818  68                 	db	104	;'h'
   211  000819  68                 	db	104	;'h'
   212  00081A  6E                 	db	110	;'n'
   213  00081B  00                 	db	0
   214  00081C                     STR_29:
   215  00081C  68                 	db	104	;'h'
   216  00081D  68                 	db	104	;'h'
   217  00081E  6F                 	db	111	;'o'
   218  00081F  00                 	db	0
   219  000820                     STR_59:
   220  000820  68                 	db	104	;'h'
   221  000821  68                 	db	104	;'h'
   222  000822  75                 	db	117	;'u'
   223  000823  00                 	db	0
   224  000824                     STR_74:
   225  000824  68                 	db	104	;'h'
   226  000825  68                 	db	104	;'h'
   227  000826  78                 	db	120	;'x'
   228  000827  00                 	db	0
   229  000828                     STR_96:
   230  000828  7A                 	db	122	;'z'
   231  000829  58                 	db	88	;'X'
   232  00082A  00                 	db	0
   233  00082B                     STR_20:
   234  00082B  7A                 	db	122	;'z'
   235  00082C  64                 	db	100	;'d'
   236  00082D  00                 	db	0
   237  00082E                     STR_24:
   238  00082E  7A                 	db	122	;'z'
   239  00082F  69                 	db	105	;'i'
   240  000830  00                 	db	0
   241  000831                     STR_54:
   242  000831  7A                 	db	122	;'z'
   243  000832  6E                 	db	110	;'n'
   244  000833  00                 	db	0
   245  000834                     STR_39:
   246  000834  7A                 	db	122	;'z'
   247  000835  6F                 	db	111	;'o'
   248  000836  00                 	db	0
   249  000837                     STR_69:
   250  000837  7A                 	db	122	;'z'
   251  000838  75                 	db	117	;'u'
   252  000839  00                 	db	0
   253  00083A                     STR_92:
   254  00083A  7A                 	db	122	;'z'
   255  00083B  78                 	db	120	;'x'
   256  00083C  00                 	db	0
   257  0000                     
   258                           ; #config settings
   259  00083D  00                 	db	0	; dummy byte at the end
   260  0000                     
   261                           	psect	cinit
   262  00316C                     __pcinit:
   263                           	opt callstack 0
   264  00316C                     start_initialization:
   265                           	opt callstack 0
   266  00316C                     __initialization:
   267                           	opt callstack 0
   268                           
   269                           ; Initialize objects allocated to BANK0 (8 bytes)
   270                           ; load TBLPTR registers with __pidataBANK0
   271  00316C  0E54               	movlw	low __pidataBANK0
   272  00316E  6EF6               	movwf	tblptrl,c
   273  003170  0E38               	movlw	high __pidataBANK0
   274  003172  6EF7               	movwf	tblptrh,c
   275  003174  0E00               	movlw	low (__pidataBANK0 shr (0+16))
   276  003176  6EF8               	movwf	tblptru,c
   277  003178  EE00  F0F4         	lfsr	0,__pdataBANK0
   278  00317C  EE10 F008          	lfsr	1,8
   279  003180                     copy_data0:
   280  003180  0009               	tblrd		*+
   281  003182  CFF5 FFEE          	movff	tablat,postinc0
   282  003186  50E5               	movf	postdec1,w,c
   283  003188  50E1               	movf	fsr1l,w,c
   284  00318A  E1FA               	bnz	copy_data0
   285                           
   286                           ; Clear objects allocated to BIGRAM_1 (1024 bytes)
   287  00318C  EE04  F000         	lfsr	0,__pbssBIGRAM_1
   288  003190  EE14 F000          	lfsr	1,1024
   289  003194                     clear_0:
   290  003194  6AEE               	clrf	postinc0,c
   291  003196  50E5               	movf	postdec1,w,c
   292  003198  50E1               	movf	fsr1l,w,c
   293  00319A  E1FC               	bnz	clear_0
   294  00319C  50E2               	movf	fsr1h,w,c
   295  00319E  E1FA               	bnz	clear_0
   296                           
   297                           ; Clear objects allocated to BANK1 (79 bytes)
   298  0031A0  EE01  F000         	lfsr	0,__pbssBANK1
   299  0031A4  0E4F               	movlw	79
   300  0031A6                     clear_1:
   301  0031A6  6AEE               	clrf	postinc0,c
   302  0031A8  06E8               	decf	wreg,f,c
   303  0031AA  E1FD               	bnz	clear_1
   304                           
   305                           ; Clear objects allocated to BANK0 (73 bytes)
   306  0031AC  EE00  F0AB         	lfsr	0,__pbssBANK0
   307  0031B0  0E49               	movlw	73
   308  0031B2                     clear_2:
   309  0031B2  6AEE               	clrf	postinc0,c
   310  0031B4  06E8               	decf	wreg,f,c
   311  0031B6  E1FD               	bnz	clear_2
   312                           
   313                           ; Clear objects allocated to COMRAM (9 bytes)
   314  0031B8  EE00  F04E         	lfsr	0,__pbssCOMRAM
   315  0031BC  0E09               	movlw	9
   316  0031BE                     clear_3:
   317  0031BE  6AEE               	clrf	postinc0,c
   318  0031C0  06E8               	decf	wreg,f,c
   319  0031C2  E1FD               	bnz	clear_3
   320  0031C4                     end_of_initialization:
   321                           	opt callstack 0
   322  0031C4                     __end_of__initialization:
   323                           	opt callstack 0
   324  0031C4  9057               	bcf	int$flags,0,c	;clear compiler interrupt flag (level 1)
   325  0031C6  9257               	bcf	int$flags,1,c	;clear compiler interrupt flag (level 2)
   326  0031C8  0E00               	movlw	low (__Lmediumconst shr (0+16))
   327  0031CA  6EF8               	movwf	tblptru,c
   328  0031CC  0100               	movlb	0
   329  0031CE  EF4F  F017         	goto	_main	;jump to C main() function
   330                           
   331                           	psect	bssCOMRAM
   332  00004E                     __pbssCOMRAM:
   333                           	opt callstack 0
   334  00004E                     _width:
   335                           	opt callstack 0
   336  00004E                     	ds	2
   337  000050                     _prec:
   338                           	opt callstack 0
   339  000050                     	ds	2
   340  000052                     _flags:
   341                           	opt callstack 0
   342  000052                     	ds	2
   343  000054                     _tskRunning:
   344                           	opt callstack 0
   345  000054                     	ds	2
   346  000056                     _status:
   347                           	opt callstack 0
   348  000056                     	ds	1
   349                           
   350                           	psect	bssBANK0
   351  0000AB                     __pbssBANK0:
   352                           	opt callstack 0
   353  0000AB                     _HEAP_counter:
   354                           	opt callstack 0
   355  0000AB                     	ds	4
   356  0000AF                     _errno:
   357                           	opt callstack 0
   358  0000AF                     	ds	2
   359  0000B1                     _nout:
   360                           	opt callstack 0
   361  0000B1                     	ds	2
   362  0000B3                     _Task1Handler:
   363                           	opt callstack 0
   364  0000B3                     	ds	2
   365  0000B5                     _Task0Handler:
   366                           	opt callstack 0
   367  0000B5                     	ds	2
   368  0000B7                     	ds	2
   369  0000B9                     Scheduler_check@delta:
   370                           	opt callstack 0
   371  0000B9                     	ds	2
   372  0000BB                     Scheduler_check@actual:
   373                           	opt callstack 0
   374  0000BB                     	ds	2
   375  0000BD                     Scheduler_check@ptskNode:
   376                           	opt callstack 0
   377  0000BD                     	ds	2
   378  0000BF                     Scheduler_check@pNode_temp:
   379                           	opt callstack 0
   380  0000BF                     	ds	2
   381  0000C1                     Scheduler_check@pNode:
   382                           	opt callstack 0
   383  0000C1                     	ds	2
   384  0000C3                     ___temp_wreg:
   385                           	opt callstack 0
   386  0000C3                     	ds	2
   387  0000C5                     	ds	2
   388  0000C7                     Scheduler_wait@actual:
   389                           	opt callstack 0
   390  0000C7                     	ds	2
   391  0000C9                     _tskSysTick:
   392                           	opt callstack 0
   393  0000C9                     	ds	2
   394  0000CB                     USensor_measure@tempTime:
   395                           	opt callstack 0
   396  0000CB                     	ds	2
   397  0000CD                     Timer3_capture@time:
   398                           	opt callstack 0
   399  0000CD                     	ds	2
   400  0000CF                     _iRx:
   401                           	opt callstack 0
   402  0000CF                     	ds	2
   403  0000D1                     _iTx:
   404                           	opt callstack 0
   405  0000D1                     	ds	2
   406  0000D3                     _pRx:
   407                           	opt callstack 0
   408  0000D3                     	ds	2
   409  0000D5                     _pTx:
   410                           	opt callstack 0
   411  0000D5                     	ds	2
   412  0000D7                     _USensorMEASFlag:
   413                           	opt callstack 0
   414  0000D7                     	ds	1
   415  0000D8                     _tskDoneQueue:
   416                           	opt callstack 0
   417  0000D8                     	ds	6
   418  0000DE                     _tskBlockedQueue:
   419                           	opt callstack 0
   420  0000DE                     	ds	6
   421  0000E4                     _tskWaitingQueue:
   422                           	opt callstack 0
   423  0000E4                     	ds	6
   424  0000EA                     _tskReadyQueue:
   425                           	opt callstack 0
   426  0000EA                     	ds	6
   427  0000F0                     Task0@data:
   428                           	opt callstack 0
   429  0000F0                     	ds	4
   430                           
   431                           	psect	dataBANK0
   432  0000F4                     __pdataBANK0:
   433                           	opt callstack 0
   434  0000F4                     stoa@F1152:
   435                           	opt callstack 0
   436  0000F4                     	ds	7
   437  0000FB                     _SchedulerState:
   438                           	opt callstack 0
   439  0000FB                     	ds	1
   440                           
   441                           	psect	bssBANK1
   442  000100                     __pbssBANK1:
   443                           	opt callstack 0
   444  000100                     _measure:
   445                           	opt callstack 0
   446  000100                     	ds	32
   447  000120                     _dbuf:
   448                           	opt callstack 0
   449  000120                     	ds	32
   450  000140                     _msg:
   451                           	opt callstack 0
   452  000140                     	ds	15
   453                           
   454                           	psect	bssBIGRAM_1
   455  000400                     __pbssBIGRAM_1:
   456                           	opt callstack 0
   457  000400                     _HEAP:
   458                           	opt callstack 0
   459  000400                     	ds	1024
   460                           
   461                           	psect	cstackBANK0
   462  000060                     __pcstackBANK0:
   463                           	opt callstack 0
   464  000060                     ?_vfpfcnvrt:
   465                           	opt callstack 0
   466  000060                     vfpfcnvrt@fp:
   467                           	opt callstack 0
   468                           
   469                           ; 2 bytes @ 0x0
   470  000060                     	ds	2
   471  000062                     vfpfcnvrt@fmt:
   472                           	opt callstack 0
   473                           
   474                           ; 2 bytes @ 0x2
   475  000062                     	ds	2
   476  000064                     vfpfcnvrt@ap:
   477                           	opt callstack 0
   478                           
   479                           ; 2 bytes @ 0x4
   480  000064                     	ds	2
   481  000066                     vfpfcnvrt@cp:
   482                           	opt callstack 0
   483                           
   484                           ; 2 bytes @ 0x6
   485  000066                     	ds	2
   486  000068                     vfpfcnvrt@done:
   487                           	opt callstack 0
   488                           
   489                           ; 2 bytes @ 0x8
   490  000068                     	ds	2
   491  00006A                     _vfpfcnvrt$1725:
   492                           	opt callstack 0
   493                           
   494                           ; 2 bytes @ 0xA
   495  00006A                     	ds	2
   496  00006C                     _vfpfcnvrt$1726:
   497                           	opt callstack 0
   498                           
   499                           ; 2 bytes @ 0xC
   500  00006C                     	ds	2
   501  00006E                     vfpfcnvrt@ll:
   502                           	opt callstack 0
   503                           
   504                           ; 8 bytes @ 0xE
   505  00006E                     	ds	8
   506  000076                     vfpfcnvrt@vp:
   507                           	opt callstack 0
   508                           
   509                           ; 2 bytes @ 0x16
   510  000076                     	ds	2
   511  000078                     vfpfcnvrt@c:
   512                           	opt callstack 0
   513                           
   514                           ; 1 bytes @ 0x18
   515  000078                     	ds	1
   516  000079                     vfpfcnvrt@llu:
   517                           	opt callstack 0
   518                           
   519                           ; 8 bytes @ 0x19
   520  000079                     	ds	8
   521  000081                     ?_vfprintf:
   522                           	opt callstack 0
   523  000081                     vfprintf@fp:
   524                           	opt callstack 0
   525                           
   526                           ; 2 bytes @ 0x21
   527  000081                     	ds	2
   528  000083                     vfprintf@fmt:
   529                           	opt callstack 0
   530                           
   531                           ; 2 bytes @ 0x23
   532  000083                     	ds	2
   533  000085                     vfprintf@ap:
   534                           	opt callstack 0
   535                           
   536                           ; 2 bytes @ 0x25
   537  000085                     	ds	2
   538  000087                     vfprintf@cfmt:
   539                           	opt callstack 0
   540                           
   541                           ; 2 bytes @ 0x27
   542  000087                     	ds	2
   543  000089                     ?_vsnprintf:
   544                           	opt callstack 0
   545  000089                     vsnprintf@s:
   546                           	opt callstack 0
   547                           
   548                           ; 2 bytes @ 0x29
   549  000089                     	ds	2
   550  00008B                     vsnprintf@n:
   551                           	opt callstack 0
   552                           
   553                           ; 2 bytes @ 0x2B
   554  00008B                     	ds	2
   555  00008D                     vsnprintf@fmt:
   556                           	opt callstack 0
   557                           
   558                           ; 2 bytes @ 0x2D
   559  00008D                     	ds	2
   560  00008F                     vsnprintf@ap:
   561                           	opt callstack 0
   562                           
   563                           ; 2 bytes @ 0x2F
   564  00008F                     	ds	2
   565  000091                     ??_vsnprintf:
   566                           
   567                           ; 1 bytes @ 0x31
   568  000091                     	ds	4
   569  000095                     _vsnprintf$2426:
   570                           	opt callstack 0
   571                           
   572                           ; 2 bytes @ 0x35
   573  000095                     	ds	2
   574  000097                     vsnprintf@cnt:
   575                           	opt callstack 0
   576                           
   577                           ; 2 bytes @ 0x37
   578  000097                     	ds	2
   579  000099                     vsnprintf@f:
   580                           	opt callstack 0
   581                           
   582                           ; 6 bytes @ 0x39
   583  000099                     	ds	6
   584  00009F                     ?_snprintf:
   585                           	opt callstack 0
   586  00009F                     snprintf@s:
   587                           	opt callstack 0
   588                           
   589                           ; 2 bytes @ 0x3F
   590  00009F                     	ds	2
   591  0000A1                     snprintf@n:
   592                           	opt callstack 0
   593                           
   594                           ; 2 bytes @ 0x41
   595  0000A1                     	ds	2
   596  0000A3                     snprintf@fmt:
   597                           	opt callstack 0
   598                           
   599                           ; 2 bytes @ 0x43
   600  0000A3                     	ds	6
   601  0000A9                     snprintf@ap:
   602                           	opt callstack 0
   603                           
   604                           ; 2 bytes @ 0x49
   605  0000A9                     	ds	2
   606                           
   607                           	psect	cstackCOMRAM
   608  000001                     __pcstackCOMRAM:
   609                           	opt callstack 0
   610  000001                     ??_high_isr:
   611  000001                     
   612                           ; 1 bytes @ 0x0
   613  000001                     	ds	2
   614  000003                     i1Timer1_reload@value:
   615                           	opt callstack 0
   616                           
   617                           ; 2 bytes @ 0x2
   618  000003                     	ds	2
   619  000005                     ??_low_isr:
   620  000005                     
   621                           ; 1 bytes @ 0x4
   622  000005                     	ds	3
   623  000008                     ??_Timer1_enable:
   624  000008                     ??_Timer3_enable:
   625  000008                     ?_malloc:
   626                           	opt callstack 0
   627  000008                     ?_strlen:
   628                           	opt callstack 0
   629  000008                     ?_isupper:
   630                           	opt callstack 0
   631  000008                     ?_isalpha:
   632                           	opt callstack 0
   633  000008                     ?_isdigit:
   634                           	opt callstack 0
   635  000008                     ?_strncmp:
   636                           	opt callstack 0
   637  000008                     ?_isspace:
   638                           	opt callstack 0
   639  000008                     ?_islower:
   640                           	opt callstack 0
   641  000008                     ?_Timer3_capture:
   642                           	opt callstack 0
   643  000008                     ?___wmul:
   644                           	opt callstack 0
   645  000008                     ?___lwdiv:
   646                           	opt callstack 0
   647  000008                     ?___lldiv:
   648                           	opt callstack 0
   649  000008                     ?___aodiv:
   650                           	opt callstack 0
   651  000008                     ?___aomod:
   652                           	opt callstack 0
   653  000008                     ?___lodiv:
   654                           	opt callstack 0
   655  000008                     ?___lomod:
   656                           	opt callstack 0
   657  000008                     Timer1_reload@value:
   658                           	opt callstack 0
   659  000008                     Timer3_reload@value:
   660                           	opt callstack 0
   661  000008                     USensor_read@buf:
   662                           	opt callstack 0
   663  000008                     Scheduler_wait@time:
   664                           	opt callstack 0
   665  000008                     vListInitialise@pxList:
   666                           	opt callstack 0
   667  000008                     vListInitialiseItem@pxItem:
   668                           	opt callstack 0
   669  000008                     uxListInsertEnd@pxList:
   670                           	opt callstack 0
   671  000008                     uxListRemove@pxItemToRemove:
   672                           	opt callstack 0
   673  000008                     ___wmul@multiplier:
   674                           	opt callstack 0
   675  000008                     ___lwdiv@dividend:
   676                           	opt callstack 0
   677  000008                     isalpha@c:
   678                           	opt callstack 0
   679  000008                     isdigit@c:
   680                           	opt callstack 0
   681  000008                     isspace@c:
   682                           	opt callstack 0
   683  000008                     isupper@c:
   684                           	opt callstack 0
   685  000008                     fputc@c:
   686                           	opt callstack 0
   687  000008                     strlen@s:
   688                           	opt callstack 0
   689  000008                     strncmp@_l:
   690                           	opt callstack 0
   691  000008                     islower@c:
   692                           	opt callstack 0
   693  000008                     malloc@size:
   694                           	opt callstack 0
   695  000008                     ___lldiv@dividend:
   696                           	opt callstack 0
   697  000008                     ___aodiv@dividend:
   698                           	opt callstack 0
   699  000008                     ___aomod@dividend:
   700                           	opt callstack 0
   701  000008                     ___lodiv@dividend:
   702                           	opt callstack 0
   703  000008                     ___lomod@dividend:
   704                           	opt callstack 0
   705                           
   706                           ; 8 bytes @ 0x7
   707  000008                     	ds	1
   708  000009                     Timer1_enable@priority:
   709                           	opt callstack 0
   710  000009                     Timer3_enable@priority:
   711                           	opt callstack 0
   712                           
   713                           ; 1 bytes @ 0x8
   714  000009                     	ds	1
   715  00000A                     ??_uxListRemove:
   716  00000A                     ??_isupper:
   717  00000A                     ??_isalpha:
   718  00000A                     ??_isdigit:
   719  00000A                     ??_isspace:
   720  00000A                     ??_islower:
   721  00000A                     USensor_init@counter:
   722                           	opt callstack 0
   723  00000A                     USensor_read@index:
   724                           	opt callstack 0
   725  00000A                     uxListInsertEnd@pxNewListItem:
   726                           	opt callstack 0
   727  00000A                     ___wmul@multiplicand:
   728                           	opt callstack 0
   729  00000A                     ___lwdiv@divisor:
   730                           	opt callstack 0
   731  00000A                     fputc@fp:
   732                           	opt callstack 0
   733  00000A                     strlen@a:
   734                           	opt callstack 0
   735  00000A                     strncmp@_r:
   736                           	opt callstack 0
   737                           
   738                           ; 2 bytes @ 0x9
   739  00000A                     	ds	1
   740  00000B                     
   741                           ; 1 bytes @ 0xA
   742  00000B                     	ds	1
   743  00000C                     ??_malloc:
   744  00000C                     ??_fputc:
   745  00000C                     UART_Transmit@buffer:
   746                           	opt callstack 0
   747  00000C                     ___wmul@product:
   748                           	opt callstack 0
   749  00000C                     ___lwdiv@quotient:
   750                           	opt callstack 0
   751  00000C                     strncmp@n:
   752                           	opt callstack 0
   753  00000C                     ___lldiv@divisor:
   754                           	opt callstack 0
   755                           
   756                           ; 4 bytes @ 0xB
   757  00000C                     	ds	2
   758  00000E                     ??_strncmp:
   759  00000E                     ??_Scheduler_check:
   760  00000E                     ?_toupper:
   761                           	opt callstack 0
   762  00000E                     ___lwdiv@counter:
   763                           	opt callstack 0
   764  00000E                     _isspace$2314:
   765                           	opt callstack 0
   766  00000E                     UART_Transmit@size:
   767                           	opt callstack 0
   768  00000E                     Scheduler_suspend@taskH:
   769                           	opt callstack 0
   770  00000E                     toupper@c:
   771                           	opt callstack 0
   772                           
   773                           ; 2 bytes @ 0xD
   774  00000E                     	ds	1
   775  00000F                     ??_USensor_measure:
   776  00000F                     ?_atoi:
   777                           	opt callstack 0
   778  00000F                     atoi@s:
   779                           	opt callstack 0
   780  00000F                     strncmp@l:
   781                           	opt callstack 0
   782                           
   783                           ; 2 bytes @ 0xE
   784  00000F                     	ds	1
   785  000010                     ??_toupper:
   786  000010                     malloc@pvTemp:
   787                           	opt callstack 0
   788  000010                     ___lldiv@quotient:
   789                           	opt callstack 0
   790  000010                     ___aodiv@divisor:
   791                           	opt callstack 0
   792  000010                     ___aomod@divisor:
   793                           	opt callstack 0
   794  000010                     ___lodiv@divisor:
   795                           	opt callstack 0
   796  000010                     ___lomod@divisor:
   797                           	opt callstack 0
   798                           
   799                           ; 8 bytes @ 0xF
   800  000010                     	ds	1
   801  000011                     ??_atoi:
   802  000011                     ?_stoa:
   803                           	opt callstack 0
   804  000011                     USensor_measure@mode:
   805                           	opt callstack 0
   806  000011                     stoa@fp:
   807                           	opt callstack 0
   808  000011                     fputs@s:
   809                           	opt callstack 0
   810  000011                     strncmp@r:
   811                           	opt callstack 0
   812                           
   813                           ; 2 bytes @ 0x10
   814  000011                     	ds	1
   815  000012                     ?_Scheduler_createTask:
   816                           	opt callstack 0
   817  000012                     Scheduler_createTask@taskFxn:
   818                           	opt callstack 0
   819                           
   820                           ; 2 bytes @ 0x11
   821  000012                     	ds	1
   822  000013                     stoa@s:
   823                           	opt callstack 0
   824  000013                     fputs@fp:
   825                           	opt callstack 0
   826                           
   827                           ; 2 bytes @ 0x12
   828  000013                     	ds	1
   829  000014                     ___lldiv@counter:
   830                           	opt callstack 0
   831  000014                     Scheduler_createTask@timeout:
   832                           	opt callstack 0
   833  000014                     _toupper$2394:
   834                           	opt callstack 0
   835                           
   836                           ; 2 bytes @ 0x13
   837  000014                     	ds	1
   838  000015                     ??_stoa:
   839  000015                     fputs@c:
   840                           	opt callstack 0
   841  000015                     atoi@neg:
   842                           	opt callstack 0
   843  000015                     UART_open@baud:
   844                           	opt callstack 0
   845                           
   846                           ; 4 bytes @ 0x14
   847  000015                     	ds	1
   848  000016                     Scheduler_createTask@temp:
   849                           	opt callstack 0
   850  000016                     fputs@i:
   851                           	opt callstack 0
   852  000016                     stoa@nuls:
   853                           	opt callstack 0
   854                           
   855                           ; 7 bytes @ 0x15
   856  000016                     	ds	1
   857  000017                     _atoi$2287:
   858                           	opt callstack 0
   859                           
   860                           ; 2 bytes @ 0x16
   861  000017                     	ds	1
   862  000018                     ?_pad:
   863                           	opt callstack 0
   864  000018                     ___aodiv@counter:
   865                           	opt callstack 0
   866  000018                     ___aomod@counter:
   867                           	opt callstack 0
   868  000018                     ___lomod@counter:
   869                           	opt callstack 0
   870  000018                     pad@fp:
   871                           	opt callstack 0
   872  000018                     ___lodiv@quotient:
   873                           	opt callstack 0
   874                           
   875                           ; 8 bytes @ 0x17
   876  000018                     	ds	1
   877  000019                     UART_open@priority:
   878                           	opt callstack 0
   879  000019                     ___aodiv@sign:
   880                           	opt callstack 0
   881  000019                     ___aomod@sign:
   882                           	opt callstack 0
   883  000019                     _atoi$2289:
   884                           	opt callstack 0
   885                           
   886                           ; 2 bytes @ 0x18
   887  000019                     	ds	1
   888  00001A                     ??_UART_open:
   889  00001A                     ?_abs:
   890                           	opt callstack 0
   891  00001A                     pad@buf:
   892                           	opt callstack 0
   893  00001A                     abs@a:
   894                           	opt callstack 0
   895  00001A                     ___aodiv@quotient:
   896                           	opt callstack 0
   897                           
   898                           ; 8 bytes @ 0x19
   899  00001A                     	ds	1
   900  00001B                     _atoi$2288:
   901                           	opt callstack 0
   902  00001B                     UART_open@buffer:
   903                           	opt callstack 0
   904                           
   905                           ; 2 bytes @ 0x1A
   906  00001B                     	ds	1
   907  00001C                     ??_abs:
   908  00001C                     pad@p:
   909                           	opt callstack 0
   910  00001C                     atoi@n:
   911                           	opt callstack 0
   912                           
   913                           ; 2 bytes @ 0x1B
   914  00001C                     	ds	1
   915  00001D                     stoa@i:
   916                           	opt callstack 0
   917                           
   918                           ; 2 bytes @ 0x1C
   919  00001D                     	ds	1
   920  00001E                     ??_pad:
   921                           
   922                           ; 1 bytes @ 0x1D
   923  00001E                     	ds	1
   924  00001F                     pad@i:
   925                           	opt callstack 0
   926  00001F                     stoa@w:
   927                           	opt callstack 0
   928                           
   929                           ; 2 bytes @ 0x1E
   930  00001F                     	ds	1
   931  000020                     ___lodiv@counter:
   932                           	opt callstack 0
   933                           
   934                           ; 1 bytes @ 0x1F
   935  000020                     	ds	1
   936  000021                     pad@w:
   937                           	opt callstack 0
   938  000021                     stoa@cp:
   939                           	opt callstack 0
   940                           
   941                           ; 2 bytes @ 0x20
   942  000021                     	ds	2
   943  000023                     ?_ctoa:
   944                           	opt callstack 0
   945  000023                     ?_dtoa:
   946                           	opt callstack 0
   947  000023                     ?_otoa:
   948                           	opt callstack 0
   949  000023                     ?_utoa:
   950                           	opt callstack 0
   951  000023                     ?_xtoa:
   952                           	opt callstack 0
   953  000023                     ctoa@fp:
   954                           	opt callstack 0
   955  000023                     dtoa@fp:
   956                           	opt callstack 0
   957  000023                     otoa@fp:
   958                           	opt callstack 0
   959  000023                     stoa@p:
   960                           	opt callstack 0
   961  000023                     utoa@fp:
   962                           	opt callstack 0
   963  000023                     xtoa@fp:
   964                           	opt callstack 0
   965                           
   966                           ; 2 bytes @ 0x22
   967  000023                     	ds	2
   968  000025                     ctoa@c:
   969                           	opt callstack 0
   970  000025                     stoa@l:
   971                           	opt callstack 0
   972  000025                     dtoa@d:
   973                           	opt callstack 0
   974  000025                     otoa@d:
   975                           	opt callstack 0
   976  000025                     utoa@d:
   977                           	opt callstack 0
   978  000025                     xtoa@d:
   979                           	opt callstack 0
   980                           
   981                           ; 8 bytes @ 0x24
   982  000025                     	ds	1
   983  000026                     ctoa@w:
   984                           	opt callstack 0
   985                           
   986                           ; 2 bytes @ 0x25
   987  000026                     	ds	7
   988  00002D                     ??_dtoa:
   989  00002D                     ??_otoa:
   990  00002D                     ??_utoa:
   991  00002D                     xtoa@x:
   992                           	opt callstack 0
   993                           
   994                           ; 1 bytes @ 0x2C
   995  00002D                     	ds	1
   996  00002E                     ??_xtoa:
   997                           
   998                           ; 1 bytes @ 0x2D
   999  00002E                     	ds	7
  1000  000035                     _dtoa$1675:
  1001                           	opt callstack 0
  1002  000035                     otoa@p:
  1003                           	opt callstack 0
  1004  000035                     utoa@p:
  1005                           	opt callstack 0
  1006                           
  1007                           ; 2 bytes @ 0x34
  1008  000035                     	ds	1
  1009  000036                     _xtoa$1710:
  1010                           	opt callstack 0
  1011                           
  1012                           ; 2 bytes @ 0x35
  1013  000036                     	ds	1
  1014  000037                     dtoa@p:
  1015                           	opt callstack 0
  1016  000037                     otoa@t:
  1017                           	opt callstack 0
  1018  000037                     utoa@w:
  1019                           	opt callstack 0
  1020                           
  1021                           ; 2 bytes @ 0x36
  1022  000037                     	ds	1
  1023  000038                     _xtoa$1711:
  1024                           	opt callstack 0
  1025                           
  1026                           ; 2 bytes @ 0x37
  1027  000038                     	ds	1
  1028  000039                     dtoa@w:
  1029                           	opt callstack 0
  1030  000039                     otoa@w:
  1031                           	opt callstack 0
  1032  000039                     utoa@n:
  1033                           	opt callstack 0
  1034                           
  1035                           ; 8 bytes @ 0x38
  1036  000039                     	ds	1
  1037  00003A                     xtoa@p:
  1038                           	opt callstack 0
  1039                           
  1040                           ; 2 bytes @ 0x39
  1041  00003A                     	ds	1
  1042  00003B                     dtoa@s:
  1043                           	opt callstack 0
  1044  00003B                     otoa@n:
  1045                           	opt callstack 0
  1046                           
  1047                           ; 8 bytes @ 0x3A
  1048  00003B                     	ds	1
  1049  00003C                     xtoa@w:
  1050                           	opt callstack 0
  1051                           
  1052                           ; 2 bytes @ 0x3B
  1053  00003C                     	ds	1
  1054  00003D                     dtoa@n:
  1055                           	opt callstack 0
  1056                           
  1057                           ; 8 bytes @ 0x3C
  1058  00003D                     	ds	1
  1059  00003E                     xtoa@n:
  1060                           	opt callstack 0
  1061                           
  1062                           ; 8 bytes @ 0x3D
  1063  00003E                     	ds	3
  1064  000041                     utoa@i:
  1065                           	opt callstack 0
  1066                           
  1067                           ; 2 bytes @ 0x40
  1068  000041                     	ds	2
  1069  000043                     otoa@i:
  1070                           	opt callstack 0
  1071                           
  1072                           ; 2 bytes @ 0x42
  1073  000043                     	ds	2
  1074  000045                     dtoa@i:
  1075                           	opt callstack 0
  1076                           
  1077                           ; 2 bytes @ 0x44
  1078  000045                     	ds	1
  1079  000046                     xtoa@i:
  1080                           	opt callstack 0
  1081                           
  1082                           ; 2 bytes @ 0x45
  1083  000046                     	ds	2
  1084  000048                     xtoa@c:
  1085                           	opt callstack 0
  1086                           
  1087                           ; 2 bytes @ 0x47
  1088  000048                     	ds	2
  1089  00004A                     ??_vfpfcnvrt:
  1090                           
  1091                           ; 1 bytes @ 0x49
  1092  00004A                     	ds	4
  1093  00004E                     
  1094                           ; 1 bytes @ 0x4D
  1095 ;;
  1096 ;;Main: autosize = 0, tempsize = 0, incstack = 0, save=0
  1097 ;;
  1098 ;; *************** function _main *****************
  1099 ;; Defined at:
  1100 ;;		line 23 in file "main.c"
  1101 ;; Parameters:    Size  Location     Type
  1102 ;;		None
  1103 ;; Auto vars:     Size  Location     Type
  1104 ;;		None
  1105 ;; Return value:  Size  Location     Type
  1106 ;;                  1    wreg      void 
  1107 ;; Registers used:
  1108 ;;		wreg, fsr0l, fsr0h, fsr1l, fsr1h, fsr2l, fsr2h, status,2, status,0, tblptrl, tblptrh, tblptru, prodl, prodh, cstack
  1109 ;; Tracked objects:
  1110 ;;		On entry : 0/0
  1111 ;;		On exit  : 0/0
  1112 ;;		Unchanged: 0/0
  1113 ;; Data sizes:     COMRAM   BANK0   BANK1   BANK2   BANK3   BANK4   BANK5   BANK6   BANK7
  1114 ;;      Params:         0       0       0       0       0       0       0       0       0
  1115 ;;      Locals:         0       0       0       0       0       0       0       0       0
  1116 ;;      Temps:          0       0       0       0       0       0       0       0       0
  1117 ;;      Totals:         0       0       0       0       0       0       0       0       0
  1118 ;;Total ram usage:        0 bytes
  1119 ;; Hardware stack levels required when called:   15
  1120 ;; This function calls:
  1121 ;;		_Scheduler_createTask
  1122 ;;		_Scheduler_init
  1123 ;;		_Scheduler_start
  1124 ;;		_Task0
  1125 ;;		_Task1
  1126 ;;		_UART_init
  1127 ;;		_UART_open
  1128 ;;		_USensor_init
  1129 ;; This function is called by:
  1130 ;;		Startup code after reset
  1131 ;; This function uses a non-reentrant model
  1132 ;;
  1133                           
  1134                           	psect	text0
  1135  002E9E                     __ptext0:
  1136                           	opt callstack 0
  1137  002E9E                     _main:
  1138                           	opt callstack 16
  1139                           
  1140                           ;main.c: 24:  INTCONbits.GIE = 1;
  1141                           
  1142                           ;incstack = 0
  1143  002E9E  8EF2               	bsf	4082,7,c	;volatile
  1144                           
  1145                           ;main.c: 25:  INTCONbits.GIEL = 1;
  1146  002EA0  8CF2               	bsf	4082,6,c	;volatile
  1147                           
  1148                           ;main.c: 26:  RCONbits.IPEN = 1;
  1149  002EA2  8ED0               	bsf	4048,7,c	;volatile
  1150                           
  1151                           ;main.c: 28:  UART_init();
  1152  002EA4  EC85  F01B         	call	_UART_init	;wreg free
  1153                           
  1154                           ;main.c: 29:  UART_open(115200 , 1 );
  1155  002EA8  0E00               	movlw	0
  1156  002EAA  6E15               	movwf	UART_open@baud,c
  1157  002EAC  0EC2               	movlw	194
  1158  002EAE  6E16               	movwf	UART_open@baud+1,c
  1159  002EB0  0E01               	movlw	1
  1160  002EB2  6E17               	movwf	UART_open@baud+2,c
  1161  002EB4  0E00               	movlw	0
  1162  002EB6  6E18               	movwf	UART_open@baud+3,c
  1163  002EB8  0E01               	movlw	1
  1164  002EBA  6E19               	movwf	UART_open@priority,c
  1165  002EBC  ECDB  F00E         	call	_UART_open	;wreg free
  1166                           
  1167                           ;main.c: 31:  USensor_init();
  1168  002EC0  ECE9  F018         	call	_USensor_init	;wreg free
  1169                           
  1170                           ;main.c: 33:  Scheduler_init();
  1171  002EC4  EC2E  F01A         	call	_Scheduler_init	;wreg free
  1172                           
  1173                           ;main.c: 34:  Task0Handler = Scheduler_createTask( Task0 , 0 );
  1174  002EC8  0E24               	movlw	low _Task0
  1175  002ECA  6E12               	movwf	Scheduler_createTask@taskFxn,c
  1176  002ECC  0E30               	movlw	high _Task0
  1177  002ECE  6E13               	movwf	Scheduler_createTask@taskFxn+1,c
  1178  002ED0  0E00               	movlw	0
  1179  002ED2  6E15               	movwf	Scheduler_createTask@timeout+1,c
  1180  002ED4  0E00               	movlw	0
  1181  002ED6  6E14               	movwf	Scheduler_createTask@timeout,c
  1182  002ED8  EC56  F013         	call	_Scheduler_createTask	;wreg free
  1183  002EDC  C012  F0B5         	movff	?_Scheduler_createTask,_Task0Handler
  1184  002EE0  C013  F0B6         	movff	?_Scheduler_createTask+1,_Task0Handler+1
  1185                           
  1186                           ;main.c: 35:  if(! Task0Handler ){
  1187  002EE4  0100               	movlb	0	; () banked
  1188  002EE6  51B5               	movf	_Task0Handler& (0+255),w,b
  1189  002EE8  11B6               	iorwf	(_Task0Handler+1)& (0+255),w,b
  1190  002EEA  B4D8               	btfsc	status,2,c
  1191  002EEC                     u6960:
  1192                           
  1193                           ;main.c: 36:   {while(1);};
  1194  002EEC  D7FF               	goto	u6960
  1195                           
  1196                           ; BSR set to: 0
  1197                           ;main.c: 38:  Task1Handler = Scheduler_createTask( Task1 , 0xFFFF );
  1198  002EEE  0E0A               	movlw	low _Task1
  1199  002EF0  6E12               	movwf	Scheduler_createTask@taskFxn,c
  1200  002EF2  0E38               	movlw	high _Task1
  1201  002EF4  6E13               	movwf	Scheduler_createTask@taskFxn+1,c
  1202  002EF6  0EFF               	movlw	255
  1203  002EF8  6E15               	movwf	Scheduler_createTask@timeout+1,c
  1204  002EFA  6814               	setf	Scheduler_createTask@timeout,c
  1205  002EFC  EC56  F013         	call	_Scheduler_createTask	;wreg free
  1206  002F00  C012  F0B3         	movff	?_Scheduler_createTask,_Task1Handler
  1207  002F04  C013  F0B4         	movff	?_Scheduler_createTask+1,_Task1Handler+1
  1208                           
  1209                           ;main.c: 39:  if(! Task1Handler ){
  1210  002F08  0100               	movlb	0	; () banked
  1211  002F0A  51B3               	movf	_Task1Handler& (0+255),w,b
  1212  002F0C  11B4               	iorwf	(_Task1Handler+1)& (0+255),w,b
  1213  002F0E  B4D8               	btfsc	status,2,c
  1214  002F10                     u6970:
  1215                           
  1216                           ;main.c: 40:   {while(1);};
  1217  002F10  D7FF               	goto	u6970
  1218                           
  1219                           ; BSR set to: 0
  1220                           
  1221                           ;main.c: 41:  }
  1222  002F12  8EF2               	bsf	4082,7,c	;# 
  1223  002F14  8CF2               	bsf	4082,6,c	;# 
  1224                           
  1225                           ;main.c: 44:  Scheduler_start();
  1226  002F16  ECDD  F013         	call	_Scheduler_start	;wreg free
  1227                           
  1228                           ;main.c: 46:  Task0();
  1229  002F1A  EC12  F018         	call	_Task0	;wreg free
  1230                           
  1231                           ;main.c: 47:  Task1();
  1232  002F1E  EC05  F01C         	call	_Task1	;wreg free
  1233  002F22  EF1D  F000         	goto	start
  1234  002F26                     __end_of_main:
  1235                           	opt callstack 0
  1236                           
  1237 ;; *************** function _USensor_init *****************
  1238 ;; Defined at:
  1239 ;;		line 10 in file "Drivers/USensor.c"
  1240 ;; Parameters:    Size  Location     Type
  1241 ;;		None
  1242 ;; Auto vars:     Size  Location     Type
  1243 ;;  counter         1    9[COMRAM] unsigned char 
  1244 ;; Return value:  Size  Location     Type
  1245 ;;                  1    wreg      void 
  1246 ;; Registers used:
  1247 ;;		wreg, fsr2l, fsr2h, status,2, status,0, prodl, prodh, cstack
  1248 ;; Tracked objects:
  1249 ;;		On entry : 0/0
  1250 ;;		On exit  : 0/0
  1251 ;;		Unchanged: 0/0
  1252 ;; Data sizes:     COMRAM   BANK0   BANK1   BANK2   BANK3   BANK4   BANK5   BANK6   BANK7
  1253 ;;      Params:         0       0       0       0       0       0       0       0       0
  1254 ;;      Locals:         1       0       0       0       0       0       0       0       0
  1255 ;;      Temps:          0       0       0       0       0       0       0       0       0
  1256 ;;      Totals:         1       0       0       0       0       0       0       0       0
  1257 ;;Total ram usage:        1 bytes
  1258 ;; Hardware stack levels used:    1
  1259 ;; Hardware stack levels required when called:    6
  1260 ;; This function calls:
  1261 ;;		_Timer3_init
  1262 ;;		_Timer3_reload
  1263 ;; This function is called by:
  1264 ;;		_main
  1265 ;; This function uses a non-reentrant model
  1266 ;;
  1267                           
  1268                           	psect	text1
  1269  0031D2                     __ptext1:
  1270                           	opt callstack 0
  1271  0031D2                     _USensor_init:
  1272                           	opt callstack 24
  1273                           
  1274                           ;Drivers/USensor.c: 11:  register uint8_t counter;;Drivers/USensor.c: 12:  PORTB = LATB 
      +                          = 0;
  1275                           
  1276                           ;incstack = 0
  1277  0031D2  0E00               	movlw	0
  1278  0031D4  6E8A               	movwf	3978,c	;volatile
  1279  0031D6  CF8A FF81          	movff	3978,3969	;volatile
  1280                           
  1281                           ;Drivers/USensor.c: 13:     TRISB = 0x01;
  1282  0031DA  0E01               	movlw	1
  1283  0031DC  6E93               	movwf	3987,c	;volatile
  1284                           
  1285                           ;Drivers/USensor.c: 14:     ADCON1 = 0x0F;
  1286  0031DE  0E0F               	movlw	15
  1287  0031E0  6EC1               	movwf	4033,c	;volatile
  1288                           
  1289                           ;Drivers/USensor.c: 15:     CMCON = 0x07;
  1290  0031E2  0E07               	movlw	7
  1291  0031E4  6EB4               	movwf	4020,c	;volatile
  1292                           
  1293                           ;Drivers/USensor.c: 17:  Timer3_init();
  1294  0031E6  EC15  F01C         	call	_Timer3_init	;wreg free
  1295                           
  1296                           ;Drivers/USensor.c: 18:  Timer3_reload( 0 );
  1297  0031EA  0E00               	movlw	0
  1298  0031EC  6E09               	movwf	Timer3_reload@value+1,c
  1299  0031EE  0E00               	movlw	0
  1300  0031F0  6E08               	movwf	Timer3_reload@value,c
  1301  0031F2  EC1B  F01C         	call	_Timer3_reload	;wreg free
  1302                           
  1303                           ;Drivers/USensor.c: 19:  for( counter=0;counter<8;counter++ ){
  1304  0031F6  0E00               	movlw	0
  1305  0031F8  6E0A               	movwf	USensor_init@counter,c
  1306  0031FA                     l4681:
  1307                           
  1308                           ;Drivers/USensor.c: 20:   measure[counter].time = 0xFF;
  1309  0031FA  500A               	movf	USensor_init@counter,w,c
  1310  0031FC  0D04               	mullw	4
  1311  0031FE  0E00               	movlw	low _measure
  1312  003200  24F3               	addwf	prodl,w,c
  1313  003202  6ED9               	movwf	fsr2l,c
  1314  003204  0E01               	movlw	high _measure
  1315  003206  20F4               	addwfc	prodh,w,c
  1316  003208  6EDA               	movwf	fsr2h,c
  1317  00320A  0EFF               	movlw	255
  1318  00320C  6EDE               	movwf	postinc2,c
  1319  00320E  0E00               	movlw	0
  1320  003210  6EDD               	movwf	postdec2,c
  1321                           
  1322                           ;Drivers/USensor.c: 21:   measure[counter].mm = 0xFF;
  1323  003212  500A               	movf	USensor_init@counter,w,c
  1324  003214  0D04               	mullw	4
  1325  003216  0E02               	movlw	low (_measure+2)
  1326  003218  24F3               	addwf	prodl,w,c
  1327  00321A  6ED9               	movwf	fsr2l,c
  1328  00321C  0E01               	movlw	high (_measure+2)
  1329  00321E  20F4               	addwfc	prodh,w,c
  1330  003220  6EDA               	movwf	fsr2h,c
  1331  003222  0EFF               	movlw	255
  1332  003224  6EDE               	movwf	postinc2,c
  1333  003226  0E00               	movlw	0
  1334  003228  6EDD               	movwf	postdec2,c
  1335                           
  1336                           ;Drivers/USensor.c: 22:  }
  1337  00322A  2A0A               	incf	USensor_init@counter,f,c
  1338  00322C  0E07               	movlw	7
  1339  00322E  640A               	cpfsgt	USensor_init@counter,c
  1340  003230  D7E4               	goto	l4681
  1341  003232  0012               	return	
  1342  003234                     __end_of_USensor_init:
  1343                           	opt callstack 0
  1344                           
  1345 ;; *************** function _Timer3_init *****************
  1346 ;; Defined at:
  1347 ;;		line 4 in file "Drivers/Timer3.c"
  1348 ;; Parameters:    Size  Location     Type
  1349 ;;		None
  1350 ;; Auto vars:     Size  Location     Type
  1351 ;;		None
  1352 ;; Return value:  Size  Location     Type
  1353 ;;                  1    wreg      void 
  1354 ;; Registers used:
  1355 ;;		wreg, status,2
  1356 ;; Tracked objects:
  1357 ;;		On entry : 0/0
  1358 ;;		On exit  : 0/0
  1359 ;;		Unchanged: 0/0
  1360 ;; Data sizes:     COMRAM   BANK0   BANK1   BANK2   BANK3   BANK4   BANK5   BANK6   BANK7
  1361 ;;      Params:         0       0       0       0       0       0       0       0       0
  1362 ;;      Locals:         0       0       0       0       0       0       0       0       0
  1363 ;;      Temps:          0       0       0       0       0       0       0       0       0
  1364 ;;      Totals:         0       0       0       0       0       0       0       0       0
  1365 ;;Total ram usage:        0 bytes
  1366 ;; Hardware stack levels used:    1
  1367 ;; Hardware stack levels required when called:    5
  1368 ;; This function calls:
  1369 ;;		Nothing
  1370 ;; This function is called by:
  1371 ;;		_USensor_init
  1372 ;; This function uses a non-reentrant model
  1373 ;;
  1374                           
  1375                           	psect	text2
  1376  00382A                     __ptext2:
  1377                           	opt callstack 0
  1378  00382A                     _Timer3_init:
  1379                           	opt callstack 24
  1380                           
  1381                           ;Drivers/Timer3.c: 6:  T3CONbits.RD16 = 0b01;
  1382                           
  1383                           ;incstack = 0
  1384  00382A  8EB1               	bsf	4017,7,c	;volatile
  1385                           
  1386                           ;Drivers/Timer3.c: 7:     T3CONbits.T3CKPS = 0b10;
  1387  00382C  50B1               	movf	4017,w,c	;volatile
  1388  00382E  0BCF               	andlw	-49
  1389  003830  0920               	iorlw	32
  1390  003832  6EB1               	movwf	4017,c	;volatile
  1391  003834  0012               	return		;funcret
  1392  003836                     __end_of_Timer3_init:
  1393                           	opt callstack 0
  1394                           
  1395 ;; *************** function _UART_open *****************
  1396 ;; Defined at:
  1397 ;;		line 17 in file "Drivers/UART.c"
  1398 ;; Parameters:    Size  Location     Type
  1399 ;;  baud            4   20[COMRAM] unsigned long 
  1400 ;;  priority        1   24[COMRAM] unsigned char 
  1401 ;; Auto vars:     Size  Location     Type
  1402 ;;  buffer          2   26[COMRAM] unsigned short 
  1403 ;; Return value:  Size  Location     Type
  1404 ;;                  1    wreg      void 
  1405 ;; Registers used:
  1406 ;;		wreg, status,2, status,0, cstack
  1407 ;; Tracked objects:
  1408 ;;		On entry : 0/0
  1409 ;;		On exit  : 0/0
  1410 ;;		Unchanged: 0/0
  1411 ;; Data sizes:     COMRAM   BANK0   BANK1   BANK2   BANK3   BANK4   BANK5   BANK6   BANK7
  1412 ;;      Params:         5       0       0       0       0       0       0       0       0
  1413 ;;      Locals:         2       0       0       0       0       0       0       0       0
  1414 ;;      Temps:          1       0       0       0       0       0       0       0       0
  1415 ;;      Totals:         8       0       0       0       0       0       0       0       0
  1416 ;;Total ram usage:        8 bytes
  1417 ;; Hardware stack levels used:    1
  1418 ;; Hardware stack levels required when called:    6
  1419 ;; This function calls:
  1420 ;;		___lldiv
  1421 ;; This function is called by:
  1422 ;;		_main
  1423 ;; This function uses a non-reentrant model
  1424 ;;
  1425                           
  1426                           	psect	text3
  1427  001DB6                     __ptext3:
  1428                           	opt callstack 0
  1429  001DB6                     _UART_open:
  1430                           	opt callstack 24
  1431                           
  1432                           ;Drivers/UART.c: 18:     unsigned short buffer;;Drivers/UART.c: 21:     PORTC = 0;LATC =
      +                           0;TRISC = 0xC0;
  1433                           
  1434                           ;incstack = 0
  1435  001DB6  0E00               	movlw	0
  1436  001DB8  6E82               	movwf	3970,c	;volatile
  1437  001DBA  0E00               	movlw	0
  1438  001DBC  6E8B               	movwf	3979,c	;volatile
  1439  001DBE  0EC0               	movlw	192
  1440  001DC0  6E94               	movwf	3988,c	;volatile
  1441                           
  1442                           ;Drivers/UART.c: 24:     BAUDCON = 0b00001010;
  1443  001DC2  0E0A               	movlw	10
  1444  001DC4  6EB8               	movwf	4024,c	;volatile
  1445                           
  1446                           ;Drivers/UART.c: 26:     TXSTA = 0b00000000;
  1447  001DC6  0E00               	movlw	0
  1448  001DC8  6EAC               	movwf	4012,c	;volatile
  1449                           
  1450                           ;Drivers/UART.c: 28:     RCSTA = 0b00000000;
  1451  001DCA  0E00               	movlw	0
  1452  001DCC  6EAB               	movwf	4011,c	;volatile
  1453                           
  1454                           ;Drivers/UART.c: 34:     if( !TXSTAbits.SYNC ){
  1455  001DCE  B8AC               	btfsc	4012,4,c	;volatile
  1456  001DD0  D080               	goto	l48
  1457                           
  1458                           ;Drivers/UART.c: 35:         if( !BAUDCONbits.BRG16 ){
  1459  001DD2  B6B8               	btfsc	4024,3,c	;volatile
  1460  001DD4  D03A               	goto	l49
  1461                           
  1462                           ;Drivers/UART.c: 36:             if( TXSTAbits.BRGH ){
  1463  001DD6  A4AC               	btfss	4012,2,c	;volatile
  1464  001DD8  D01C               	goto	l4603
  1465                           
  1466                           ;Drivers/UART.c: 37:                 SPBRG = (unsigned char)((48000000/baud/16)-1);
  1467  001DDA  0E00               	movlw	0
  1468  001DDC  6E08               	movwf	___lldiv@dividend,c
  1469  001DDE  0E6C               	movlw	108
  1470  001DE0  6E09               	movwf	___lldiv@dividend+1,c
  1471  001DE2  0EDC               	movlw	220
  1472  001DE4  6E0A               	movwf	___lldiv@dividend+2,c
  1473  001DE6  0E02               	movlw	2
  1474  001DE8  6E0B               	movwf	___lldiv@dividend+3,c
  1475  001DEA  C015  F00C         	movff	UART_open@baud,___lldiv@divisor
  1476  001DEE  C016  F00D         	movff	UART_open@baud+1,___lldiv@divisor+1
  1477  001DF2  C017  F00E         	movff	UART_open@baud+2,___lldiv@divisor+2
  1478  001DF6  C018  F00F         	movff	UART_open@baud+3,___lldiv@divisor+3
  1479  001DFA  EC93  F017         	call	___lldiv	;wreg free
  1480  001DFE  0E05               	movlw	5
  1481  001E00  D005               	goto	u4840
  1482  001E02                     u4845:
  1483  001E02  90D8               	bcf	status,0,c
  1484  001E04  320B               	rrcf	?___lldiv+3,f,c
  1485  001E06  320A               	rrcf	?___lldiv+2,f,c
  1486  001E08  3209               	rrcf	?___lldiv+1,f,c
  1487  001E0A  3208               	rrcf	?___lldiv,f,c
  1488  001E0C                     u4840:
  1489  001E0C  2EE8               	decfsz	wreg,f,c
  1490  001E0E  D7F9               	goto	u4845
  1491  001E10  D07D               	goto	L1
  1492  001E12                     l4603:
  1493                           
  1494                           ;Drivers/UART.c: 39:                 SPBRG = (unsigned char)((48000000/baud/64)-1);
  1495  001E12  0E00               	movlw	0
  1496  001E14  6E08               	movwf	___lldiv@dividend,c
  1497  001E16  0E6C               	movlw	108
  1498  001E18  6E09               	movwf	___lldiv@dividend+1,c
  1499  001E1A  0EDC               	movlw	220
  1500  001E1C  6E0A               	movwf	___lldiv@dividend+2,c
  1501  001E1E  0E02               	movlw	2
  1502  001E20  6E0B               	movwf	___lldiv@dividend+3,c
  1503  001E22  C015  F00C         	movff	UART_open@baud,___lldiv@divisor
  1504  001E26  C016  F00D         	movff	UART_open@baud+1,___lldiv@divisor+1
  1505  001E2A  C017  F00E         	movff	UART_open@baud+2,___lldiv@divisor+2
  1506  001E2E  C018  F00F         	movff	UART_open@baud+3,___lldiv@divisor+3
  1507  001E32  EC93  F017         	call	___lldiv	;wreg free
  1508  001E36  0E07               	movlw	7
  1509  001E38  D005               	goto	u4850
  1510  001E3A                     u4855:
  1511  001E3A  90D8               	bcf	status,0,c
  1512  001E3C  320B               	rrcf	?___lldiv+3,f,c
  1513  001E3E  320A               	rrcf	?___lldiv+2,f,c
  1514  001E40  3209               	rrcf	?___lldiv+1,f,c
  1515  001E42  3208               	rrcf	?___lldiv,f,c
  1516  001E44                     u4850:
  1517  001E44  2EE8               	decfsz	wreg,f,c
  1518  001E46  D7F9               	goto	u4855
  1519  001E48  D061               	goto	L1
  1520  001E4A                     l49:
  1521                           
  1522                           ;Drivers/UART.c: 42:             if( TXSTAbits.BRGH ){
  1523  001E4A  A4AC               	btfss	4012,2,c	;volatile
  1524  001E4C  D026               	goto	l4611
  1525  001E4E                     u4860:
  1526                           
  1527                           ;Drivers/UART.c: 43:                 buffer = (48000000/baud/4)-1;
  1528  001E4E  0E00               	movlw	0
  1529  001E50  6E08               	movwf	___lldiv@dividend,c
  1530  001E52  0E6C               	movlw	108
  1531  001E54  6E09               	movwf	___lldiv@dividend+1,c
  1532  001E56  0EDC               	movlw	220
  1533  001E58  6E0A               	movwf	___lldiv@dividend+2,c
  1534  001E5A  0E02               	movlw	2
  1535  001E5C  6E0B               	movwf	___lldiv@dividend+3,c
  1536  001E5E  C015  F00C         	movff	UART_open@baud,___lldiv@divisor
  1537  001E62  C016  F00D         	movff	UART_open@baud+1,___lldiv@divisor+1
  1538  001E66  C017  F00E         	movff	UART_open@baud+2,___lldiv@divisor+2
  1539  001E6A  C018  F00F         	movff	UART_open@baud+3,___lldiv@divisor+3
  1540  001E6E  EC93  F017         	call	___lldiv	;wreg free
  1541  001E72  0E03               	movlw	3
  1542  001E74  D005               	goto	u4870
  1543  001E76                     u4875:
  1544  001E76  90D8               	bcf	status,0,c
  1545  001E78  320B               	rrcf	?___lldiv+3,f,c
  1546  001E7A  320A               	rrcf	?___lldiv+2,f,c
  1547  001E7C  3209               	rrcf	?___lldiv+1,f,c
  1548  001E7E  3208               	rrcf	?___lldiv,f,c
  1549  001E80                     u4870:
  1550  001E80  2EE8               	decfsz	wreg,f,c
  1551  001E82  D7F9               	goto	u4875
  1552  001E84  0EFF               	movlw	255
  1553  001E86  2408               	addwf	?___lldiv,w,c
  1554  001E88  6E1B               	movwf	UART_open@buffer,c
  1555  001E8A  0EFF               	movlw	255
  1556  001E8C  2009               	addwfc	?___lldiv+1,w,c
  1557  001E8E  6E1C               	movwf	UART_open@buffer+1,c
  1558                           
  1559                           ;Drivers/UART.c: 44:                 SPBRG = buffer & 0xFF;
  1560  001E90  C01B  FFAF         	movff	UART_open@buffer,4015	;volatile
  1561                           
  1562                           ;Drivers/UART.c: 45:                 SPBRGH = buffer >> 8;
  1563  001E94  501C               	movf	UART_open@buffer+1,w,c
  1564  001E96  6EB0               	movwf	4016,c	;volatile
  1565                           
  1566                           ;Drivers/UART.c: 46:             }else{
  1567  001E98  D03B               	goto	l4625
  1568  001E9A                     l4611:
  1569                           
  1570                           ;Drivers/UART.c: 47:                 buffer = (48000000/baud/16)-1;
  1571  001E9A  0E00               	movlw	0
  1572  001E9C  6E08               	movwf	___lldiv@dividend,c
  1573  001E9E  0E6C               	movlw	108
  1574  001EA0  6E09               	movwf	___lldiv@dividend+1,c
  1575  001EA2  0EDC               	movlw	220
  1576  001EA4  6E0A               	movwf	___lldiv@dividend+2,c
  1577  001EA6  0E02               	movlw	2
  1578  001EA8  6E0B               	movwf	___lldiv@dividend+3,c
  1579  001EAA  C015  F00C         	movff	UART_open@baud,___lldiv@divisor
  1580  001EAE  C016  F00D         	movff	UART_open@baud+1,___lldiv@divisor+1
  1581  001EB2  C017  F00E         	movff	UART_open@baud+2,___lldiv@divisor+2
  1582  001EB6  C018  F00F         	movff	UART_open@baud+3,___lldiv@divisor+3
  1583  001EBA  EC93  F017         	call	___lldiv	;wreg free
  1584  001EBE  0E05               	movlw	5
  1585  001EC0  D005               	goto	u4880
  1586  001EC2                     u4885:
  1587  001EC2  90D8               	bcf	status,0,c
  1588  001EC4  320B               	rrcf	?___lldiv+3,f,c
  1589  001EC6  320A               	rrcf	?___lldiv+2,f,c
  1590  001EC8  3209               	rrcf	?___lldiv+1,f,c
  1591  001ECA  3208               	rrcf	?___lldiv,f,c
  1592  001ECC                     u4880:
  1593  001ECC  2EE8               	decfsz	wreg,f,c
  1594  001ECE  D7F9               	goto	u4885
  1595  001ED0  D7D9               	goto	L2
  1596  001ED2                     l48:
  1597                           
  1598                           ;Drivers/UART.c: 53:         if( !BAUDCONbits.BRG16 ){
  1599  001ED2  B6B8               	btfsc	4024,3,c	;volatile
  1600  001ED4  D7BC               	goto	u4860
  1601                           
  1602                           ;Drivers/UART.c: 54:                 SPBRG = (unsigned char)((48000000/baud/4)-1);
  1603  001ED6  0E00               	movlw	0
  1604  001ED8  6E08               	movwf	___lldiv@dividend,c
  1605  001EDA  0E6C               	movlw	108
  1606  001EDC  6E09               	movwf	___lldiv@dividend+1,c
  1607  001EDE  0EDC               	movlw	220
  1608  001EE0  6E0A               	movwf	___lldiv@dividend+2,c
  1609  001EE2  0E02               	movlw	2
  1610  001EE4  6E0B               	movwf	___lldiv@dividend+3,c
  1611  001EE6  C015  F00C         	movff	UART_open@baud,___lldiv@divisor
  1612  001EEA  C016  F00D         	movff	UART_open@baud+1,___lldiv@divisor+1
  1613  001EEE  C017  F00E         	movff	UART_open@baud+2,___lldiv@divisor+2
  1614  001EF2  C018  F00F         	movff	UART_open@baud+3,___lldiv@divisor+3
  1615  001EF6  EC93  F017         	call	___lldiv	;wreg free
  1616  001EFA  0E03               	movlw	3
  1617  001EFC  D005               	goto	u4900
  1618  001EFE                     u4905:
  1619  001EFE  90D8               	bcf	status,0,c
  1620  001F00  320B               	rrcf	?___lldiv+3,f,c
  1621  001F02  320A               	rrcf	?___lldiv+2,f,c
  1622  001F04  3209               	rrcf	?___lldiv+1,f,c
  1623  001F06  3208               	rrcf	?___lldiv,f,c
  1624  001F08                     u4900:
  1625  001F08  2EE8               	decfsz	wreg,f,c
  1626  001F0A  D7F9               	goto	u4905
  1627  001F0C                     L1:
  1628  001F0C  0408               	decf	?___lldiv,w,c
  1629  001F0E  6EAF               	movwf	4015,c	;volatile
  1630  001F10                     l4625:
  1631                           
  1632                           ;Drivers/UART.c: 63:     IPR1bits.TX1IP = priority & 0x01;
  1633  001F10  C019  F01A         	movff	UART_open@priority,??_UART_open
  1634  001F14  0E01               	movlw	1
  1635  001F16  161A               	andwf	??_UART_open,f,c
  1636  001F18  3A1A               	swapf	??_UART_open,f,c
  1637  001F1A  509F               	movf	3999,w,c	;volatile
  1638  001F1C  181A               	xorwf	??_UART_open,w,c
  1639  001F1E  0BEF               	andlw	-17
  1640  001F20  181A               	xorwf	??_UART_open,w,c
  1641  001F22  6E9F               	movwf	3999,c	;volatile
  1642                           
  1643                           ;Drivers/UART.c: 64:     IPR1bits.RC1IP = priority & 0x01;
  1644  001F24  C019  F01A         	movff	UART_open@priority,??_UART_open
  1645  001F28  0E01               	movlw	1
  1646  001F2A  161A               	andwf	??_UART_open,f,c
  1647  001F2C  3A1A               	swapf	??_UART_open,f,c
  1648  001F2E  461A               	rlncf	??_UART_open,f,c
  1649  001F30  509F               	movf	3999,w,c	;volatile
  1650  001F32  181A               	xorwf	??_UART_open,w,c
  1651  001F34  0BDF               	andlw	-33
  1652  001F36  181A               	xorwf	??_UART_open,w,c
  1653  001F38  6E9F               	movwf	3999,c	;volatile
  1654                           
  1655                           ;Drivers/UART.c: 65:     TXSTAbits.TXEN = 1;
  1656  001F3A  8AAC               	bsf	4012,5,c	;volatile
  1657                           
  1658                           ;Drivers/UART.c: 66:     RCSTAbits.CREN = 1;
  1659  001F3C  88AB               	bsf	4011,4,c	;volatile
  1660                           
  1661                           ;Drivers/UART.c: 67:     RCSTAbits.SPEN = 1;
  1662  001F3E  8EAB               	bsf	4011,7,c	;volatile
  1663  001F40  0012               	return		;funcret
  1664  001F42                     __end_of_UART_open:
  1665                           	opt callstack 0
  1666                           
  1667 ;; *************** function ___lldiv *****************
  1668 ;; Defined at:
  1669 ;;		line 7 in file "/opt/microchip/xc8/v2.05/pic/sources/c99/common/__lldiv.c"
  1670 ;; Parameters:    Size  Location     Type
  1671 ;;  dividend        4    7[COMRAM] unsigned long 
  1672 ;;  divisor         4   11[COMRAM] unsigned long 
  1673 ;; Auto vars:     Size  Location     Type
  1674 ;;  quotient        4   15[COMRAM] unsigned long 
  1675 ;;  counter         1   19[COMRAM] unsigned char 
  1676 ;; Return value:  Size  Location     Type
  1677 ;;                  4    7[COMRAM] unsigned long 
  1678 ;; Registers used:
  1679 ;;		wreg, status,2, status,0
  1680 ;; Tracked objects:
  1681 ;;		On entry : 0/0
  1682 ;;		On exit  : 0/0
  1683 ;;		Unchanged: 0/0
  1684 ;; Data sizes:     COMRAM   BANK0   BANK1   BANK2   BANK3   BANK4   BANK5   BANK6   BANK7
  1685 ;;      Params:         8       0       0       0       0       0       0       0       0
  1686 ;;      Locals:         5       0       0       0       0       0       0       0       0
  1687 ;;      Temps:          0       0       0       0       0       0       0       0       0
  1688 ;;      Totals:        13       0       0       0       0       0       0       0       0
  1689 ;;Total ram usage:       13 bytes
  1690 ;; Hardware stack levels used:    1
  1691 ;; Hardware stack levels required when called:    5
  1692 ;; This function calls:
  1693 ;;		Nothing
  1694 ;; This function is called by:
  1695 ;;		_UART_open
  1696 ;; This function uses a non-reentrant model
  1697 ;;
  1698                           
  1699                           	psect	text4
  1700  002F26                     __ptext4:
  1701                           	opt callstack 0
  1702  002F26                     ___lldiv:
  1703                           	opt callstack 24
  1704                           
  1705                           ;incstack = 0
  1706  002F26  0E00               	movlw	0
  1707  002F28  6E10               	movwf	___lldiv@quotient,c
  1708  002F2A  0E00               	movlw	0
  1709  002F2C  6E11               	movwf	___lldiv@quotient+1,c
  1710  002F2E  0E00               	movlw	0
  1711  002F30  6E12               	movwf	___lldiv@quotient+2,c
  1712  002F32  0E00               	movlw	0
  1713  002F34  6E13               	movwf	___lldiv@quotient+3,c
  1714  002F36  500C               	movf	___lldiv@divisor,w,c
  1715  002F38  100D               	iorwf	___lldiv@divisor+1,w,c
  1716  002F3A  100E               	iorwf	___lldiv@divisor+2,w,c
  1717  002F3C  100F               	iorwf	___lldiv@divisor+3,w,c
  1718  002F3E  B4D8               	btfsc	status,2,c
  1719  002F40  D02A               	goto	l818
  1720  002F42  0E01               	movlw	1
  1721  002F44  6E14               	movwf	___lldiv@counter,c
  1722  002F46  D006               	goto	l4569
  1723  002F48                     l4567:
  1724  002F48  90D8               	bcf	status,0,c
  1725  002F4A  360C               	rlcf	___lldiv@divisor,f,c
  1726  002F4C  360D               	rlcf	___lldiv@divisor+1,f,c
  1727  002F4E  360E               	rlcf	___lldiv@divisor+2,f,c
  1728  002F50  360F               	rlcf	___lldiv@divisor+3,f,c
  1729  002F52  2A14               	incf	___lldiv@counter,f,c
  1730  002F54                     l4569:
  1731  002F54  AE0F               	btfss	___lldiv@divisor+3,7,c
  1732  002F56  D7F8               	goto	l4567
  1733  002F58                     u4790:
  1734  002F58  90D8               	bcf	status,0,c
  1735  002F5A  3610               	rlcf	___lldiv@quotient,f,c
  1736  002F5C  3611               	rlcf	___lldiv@quotient+1,f,c
  1737  002F5E  3612               	rlcf	___lldiv@quotient+2,f,c
  1738  002F60  3613               	rlcf	___lldiv@quotient+3,f,c
  1739  002F62  500C               	movf	___lldiv@divisor,w,c
  1740  002F64  5C08               	subwf	___lldiv@dividend,w,c
  1741  002F66  500D               	movf	___lldiv@divisor+1,w,c
  1742  002F68  5809               	subwfb	___lldiv@dividend+1,w,c
  1743  002F6A  500E               	movf	___lldiv@divisor+2,w,c
  1744  002F6C  580A               	subwfb	___lldiv@dividend+2,w,c
  1745  002F6E  500F               	movf	___lldiv@divisor+3,w,c
  1746  002F70  580B               	subwfb	___lldiv@dividend+3,w,c
  1747  002F72  A0D8               	btfss	status,0,c
  1748  002F74  D009               	goto	l4579
  1749  002F76  500C               	movf	___lldiv@divisor,w,c
  1750  002F78  5E08               	subwf	___lldiv@dividend,f,c
  1751  002F7A  500D               	movf	___lldiv@divisor+1,w,c
  1752  002F7C  5A09               	subwfb	___lldiv@dividend+1,f,c
  1753  002F7E  500E               	movf	___lldiv@divisor+2,w,c
  1754  002F80  5A0A               	subwfb	___lldiv@dividend+2,f,c
  1755  002F82  500F               	movf	___lldiv@divisor+3,w,c
  1756  002F84  5A0B               	subwfb	___lldiv@dividend+3,f,c
  1757  002F86  8010               	bsf	___lldiv@quotient,0,c
  1758  002F88                     l4579:
  1759  002F88  90D8               	bcf	status,0,c
  1760  002F8A  320F               	rrcf	___lldiv@divisor+3,f,c
  1761  002F8C  320E               	rrcf	___lldiv@divisor+2,f,c
  1762  002F8E  320D               	rrcf	___lldiv@divisor+1,f,c
  1763  002F90  320C               	rrcf	___lldiv@divisor,f,c
  1764  002F92  2E14               	decfsz	___lldiv@counter,f,c
  1765  002F94  D7E1               	goto	u4790
  1766  002F96                     l818:
  1767  002F96  C010  F008         	movff	___lldiv@quotient,?___lldiv
  1768  002F9A  C011  F009         	movff	___lldiv@quotient+1,?___lldiv+1
  1769  002F9E  C012  F00A         	movff	___lldiv@quotient+2,?___lldiv+2
  1770  002FA2  C013  F00B         	movff	___lldiv@quotient+3,?___lldiv+3
  1771  002FA6  0012               	return		;funcret
  1772  002FA8                     __end_of___lldiv:
  1773                           	opt callstack 0
  1774                           
  1775 ;; *************** function _UART_init *****************
  1776 ;; Defined at:
  1777 ;;		line 11 in file "Drivers/UART.c"
  1778 ;; Parameters:    Size  Location     Type
  1779 ;;		None
  1780 ;; Auto vars:     Size  Location     Type
  1781 ;;		None
  1782 ;; Return value:  Size  Location     Type
  1783 ;;                  1    wreg      void 
  1784 ;; Registers used:
  1785 ;;		wreg, status,2, status,0
  1786 ;; Tracked objects:
  1787 ;;		On entry : 0/0
  1788 ;;		On exit  : 0/0
  1789 ;;		Unchanged: 0/0
  1790 ;; Data sizes:     COMRAM   BANK0   BANK1   BANK2   BANK3   BANK4   BANK5   BANK6   BANK7
  1791 ;;      Params:         0       0       0       0       0       0       0       0       0
  1792 ;;      Locals:         0       0       0       0       0       0       0       0       0
  1793 ;;      Temps:          0       0       0       0       0       0       0       0       0
  1794 ;;      Totals:         0       0       0       0       0       0       0       0       0
  1795 ;;Total ram usage:        0 bytes
  1796 ;; Hardware stack levels used:    1
  1797 ;; Hardware stack levels required when called:    5
  1798 ;; This function calls:
  1799 ;;		Nothing
  1800 ;; This function is called by:
  1801 ;;		_main
  1802 ;; This function uses a non-reentrant model
  1803 ;;
  1804                           
  1805                           	psect	text5
  1806  00370A                     __ptext5:
  1807                           	opt callstack 0
  1808  00370A                     _UART_init:
  1809                           	opt callstack 25
  1810                           
  1811                           ;Drivers/UART.c: 12:     status = 0x00;
  1812                           
  1813                           ;incstack = 0
  1814  00370A  0E00               	movlw	0
  1815  00370C  6E56               	movwf	_status,c	;volatile
  1816                           
  1817                           ;Drivers/UART.c: 13:     pTx = pRx = 0x00;
  1818  00370E  0E00               	movlw	0
  1819  003710  0100               	movlb	0	; () banked
  1820  003712  6FD3               	movwf	_pRx& (0+255),b
  1821  003714  0E00               	movlw	0
  1822  003716  6FD4               	movwf	(_pRx+1)& (0+255),b
  1823  003718  C0D3  F0D5         	movff	_pRx,_pTx
  1824  00371C  C0D4  F0D6         	movff	_pRx+1,_pTx+1
  1825                           
  1826                           ; BSR set to: 0
  1827                           ;Drivers/UART.c: 14:     iTx = iRx = 0x00;
  1828  003720  0E00               	movlw	0
  1829  003722  6FD0               	movwf	(_iRx+1)& (0+255),b	;volatile
  1830  003724  0E00               	movlw	0
  1831  003726  6FCF               	movwf	_iRx& (0+255),b	;volatile
  1832  003728  C0CF  F0D1         	movff	_iRx,_iTx	;volatile
  1833  00372C  C0D0  F0D2         	movff	_iRx+1,_iTx+1	;volatile
  1834                           
  1835                           ; BSR set to: 0
  1836  003730  0012               	return		;funcret
  1837  003732                     __end_of_UART_init:
  1838                           	opt callstack 0
  1839                           
  1840 ;; *************** function _Task1 *****************
  1841 ;; Defined at:
  1842 ;;		line 60 in file "main.c"
  1843 ;; Parameters:    Size  Location     Type
  1844 ;;		None
  1845 ;; Auto vars:     Size  Location     Type
  1846 ;;		None
  1847 ;; Return value:  Size  Location     Type
  1848 ;;                  1    wreg      void 
  1849 ;; Registers used:
  1850 ;;		wreg, fsr0l, fsr0h, fsr1l, fsr1h, fsr2l, fsr2h, status,2, status,0, cstack
  1851 ;; Tracked objects:
  1852 ;;		On entry : 0/0
  1853 ;;		On exit  : 0/0
  1854 ;;		Unchanged: 0/0
  1855 ;; Data sizes:     COMRAM   BANK0   BANK1   BANK2   BANK3   BANK4   BANK5   BANK6   BANK7
  1856 ;;      Params:         0       0       0       0       0       0       0       0       0
  1857 ;;      Locals:         0       0       0       0       0       0       0       0       0
  1858 ;;      Temps:          0       0       0       0       0       0       0       0       0
  1859 ;;      Totals:         0       0       0       0       0       0       0       0       0
  1860 ;;Total ram usage:        0 bytes
  1861 ;; Hardware stack levels used:    1
  1862 ;; Hardware stack levels required when called:    7
  1863 ;; This function calls:
  1864 ;;		_Scheduler_suspend
  1865 ;; This function is called by:
  1866 ;;		_main
  1867 ;; This function uses a non-reentrant model
  1868 ;;
  1869                           
  1870                           	psect	text6
  1871  00380A                     __ptext6:
  1872                           	opt callstack 0
  1873  00380A                     _Task1:
  1874                           	opt callstack 23
  1875                           
  1876                           ;main.c: 61:  Scheduler_suspend( Task1Handler );
  1877                           
  1878                           ; BSR set to: 0
  1879                           ;incstack = 0
  1880  00380A  C0B3  F00E         	movff	_Task1Handler,Scheduler_suspend@taskH
  1881  00380E  C0B4  F00F         	movff	_Task1Handler+1,Scheduler_suspend@taskH+1
  1882  003812  EC99  F019         	call	_Scheduler_suspend	;wreg free
  1883  003816  7889               	btg	3977,4,c	;# 
  1884  003818  0012               	return		;funcret
  1885  00381A                     __end_of_Task1:
  1886                           	opt callstack 0
  1887                           
  1888 ;; *************** function _Scheduler_suspend *****************
  1889 ;; Defined at:
  1890 ;;		line 74 in file "System/Scheduler.c"
  1891 ;; Parameters:    Size  Location     Type
  1892 ;;  taskH           2   13[COMRAM] PTR struct SchedulerTask
  1893 ;;		 -> HEAP(1024), NULL(0), 
  1894 ;; Auto vars:     Size  Location     Type
  1895 ;;		None
  1896 ;; Return value:  Size  Location     Type
  1897 ;;                  1    wreg      void 
  1898 ;; Registers used:
  1899 ;;		wreg, fsr0l, fsr0h, fsr1l, fsr1h, fsr2l, fsr2h, status,2, status,0, cstack
  1900 ;; Tracked objects:
  1901 ;;		On entry : 0/0
  1902 ;;		On exit  : 0/0
  1903 ;;		Unchanged: 0/0
  1904 ;; Data sizes:     COMRAM   BANK0   BANK1   BANK2   BANK3   BANK4   BANK5   BANK6   BANK7
  1905 ;;      Params:         2       0       0       0       0       0       0       0       0
  1906 ;;      Locals:         0       0       0       0       0       0       0       0       0
  1907 ;;      Temps:          0       0       0       0       0       0       0       0       0
  1908 ;;      Totals:         2       0       0       0       0       0       0       0       0
  1909 ;;Total ram usage:        2 bytes
  1910 ;; Hardware stack levels used:    1
  1911 ;; Hardware stack levels required when called:    6
  1912 ;; This function calls:
  1913 ;;		_uxListInsertEnd
  1914 ;;		_uxListRemove
  1915 ;; This function is called by:
  1916 ;;		_Task1
  1917 ;; This function uses a non-reentrant model
  1918 ;;
  1919                           
  1920                           	psect	text7
  1921  003332                     __ptext7:
  1922                           	opt callstack 0
  1923  003332                     _Scheduler_suspend:
  1924                           	opt callstack 23
  1925                           
  1926                           ;System/Scheduler.c: 75:  if( !taskH ){return;}
  1927                           
  1928                           ;incstack = 0
  1929  003332  500E               	movf	Scheduler_suspend@taskH,w,c
  1930  003334  100F               	iorwf	Scheduler_suspend@taskH+1,w,c
  1931  003336  B4D8               	btfsc	status,2,c
  1932  003338  0012               	return	
  1933                           
  1934                           ;System/Scheduler.c: 76:  taskH->state = TaskBlock;
  1935  00333A  EE20 F002          	lfsr	2,2
  1936  00333E  500E               	movf	Scheduler_suspend@taskH,w,c
  1937  003340  26D9               	addwf	fsr2l,f,c
  1938  003342  500F               	movf	Scheduler_suspend@taskH+1,w,c
  1939  003344  22DA               	addwfc	fsr2h,f,c
  1940  003346  0E04               	movlw	4
  1941  003348  6EDF               	movwf	indf2,c
  1942                           
  1943                           ;System/Scheduler.c: 78:  if( tskRunning != taskH ){
  1944  00334A  500E               	movf	Scheduler_suspend@taskH,w,c
  1945  00334C  1854               	xorwf	_tskRunning,w,c	;volatile
  1946  00334E  E104               	bnz	u4730
  1947  003350  500F               	movf	Scheduler_suspend@taskH+1,w,c
  1948  003352  1855               	xorwf	_tskRunning+1,w,c	;volatile
  1949  003354  B4D8               	btfsc	status,2,c
  1950  003356  0012               	return	
  1951  003358                     u4730:
  1952                           
  1953                           ;System/Scheduler.c: 79:      uxListRemove( &taskH->node );
  1954  003358  0E07               	movlw	7
  1955  00335A  240E               	addwf	Scheduler_suspend@taskH,w,c
  1956  00335C  6E08               	movwf	uxListRemove@pxItemToRemove,c
  1957  00335E  0E00               	movlw	0
  1958  003360  200F               	addwfc	Scheduler_suspend@taskH+1,w,c
  1959  003362  6E09               	movwf	uxListRemove@pxItemToRemove+1,c
  1960  003364  EC13  F00D         	call	_uxListRemove	;wreg free
  1961                           
  1962                           ;System/Scheduler.c: 80:      uxListInsertEnd( (List_Handle) &tskBlockedQueue , &taskH->
      +                          node );
  1963  003368  0EDE               	movlw	low _tskBlockedQueue
  1964  00336A  6E08               	movwf	uxListInsertEnd@pxList,c
  1965  00336C  0E00               	movlw	high _tskBlockedQueue
  1966  00336E  6E09               	movwf	uxListInsertEnd@pxList+1,c
  1967  003370  0E07               	movlw	7
  1968  003372  240E               	addwf	Scheduler_suspend@taskH,w,c
  1969  003374  6E0A               	movwf	uxListInsertEnd@pxNewListItem,c
  1970  003376  0E00               	movlw	0
  1971  003378  200F               	addwfc	Scheduler_suspend@taskH+1,w,c
  1972  00337A  6E0B               	movwf	uxListInsertEnd@pxNewListItem+1,c
  1973  00337C  EC5D  F014         	call	_uxListInsertEnd	;wreg free
  1974  003380  0012               	return		;funcret
  1975  003382                     __end_of_Scheduler_suspend:
  1976                           	opt callstack 0
  1977                           
  1978 ;; *************** function _Task0 *****************
  1979 ;; Defined at:
  1980 ;;		line 51 in file "main.c"
  1981 ;; Parameters:    Size  Location     Type
  1982 ;;		None
  1983 ;; Auto vars:     Size  Location     Type
  1984 ;;		None
  1985 ;; Return value:  Size  Location     Type
  1986 ;;                  1    wreg      void 
  1987 ;; Registers used:
  1988 ;;		wreg, fsr1l, fsr1h, fsr2l, fsr2h, status,2, status,0, tblptrl, tblptrh, tblptru, prodl, prodh, cstack
  1989 ;; Tracked objects:
  1990 ;;		On entry : 0/0
  1991 ;;		On exit  : 0/0
  1992 ;;		Unchanged: 0/0
  1993 ;; Data sizes:     COMRAM   BANK0   BANK1   BANK2   BANK3   BANK4   BANK5   BANK6   BANK7
  1994 ;;      Params:         0       0       0       0       0       0       0       0       0
  1995 ;;      Locals:         0       0       0       0       0       0       0       0       0
  1996 ;;      Temps:          0       0       0       0       0       0       0       0       0
  1997 ;;      Totals:         0       0       0       0       0       0       0       0       0
  1998 ;;Total ram usage:        0 bytes
  1999 ;; Hardware stack levels used:    1
  2000 ;; Hardware stack levels required when called:   14
  2001 ;; This function calls:
  2002 ;;		_Scheduler_wait
  2003 ;;		_UART_Transmit
  2004 ;;		_USensor_measure
  2005 ;;		_USensor_read
  2006 ;;		_snprintf
  2007 ;;		_strlen
  2008 ;; This function is called by:
  2009 ;;		_main
  2010 ;; This function uses a non-reentrant model
  2011 ;;
  2012                           
  2013                           	psect	text8
  2014  003024                     __ptext8:
  2015                           	opt callstack 0
  2016  003024                     _Task0:
  2017                           	opt callstack 16
  2018                           
  2019                           ;main.c: 52:  static USensorData data;;main.c: 53:  Scheduler_wait(500);
  2020                           
  2021                           ;incstack = 0
  2022  003024  0E01               	movlw	1
  2023  003026  6E09               	movwf	Scheduler_wait@time+1,c
  2024  003028  0EF4               	movlw	244
  2025  00302A  6E08               	movwf	Scheduler_wait@time,c
  2026  00302C  EC80  F018         	call	_Scheduler_wait	;wreg free
  2027                           
  2028                           ;main.c: 54:  USensor_measure( 0x00 );
  2029  003030  0E00               	movlw	0
  2030  003032  ECCA  F012         	call	_USensor_measure
  2031                           
  2032                           ;main.c: 55:  USensor_read( &data , 0x00 );
  2033  003036  0EF0               	movlw	low Task0@data
  2034  003038  6E08               	movwf	USensor_read@buf,c
  2035  00303A  0E00               	movlw	high Task0@data
  2036  00303C  6E09               	movwf	USensor_read@buf+1,c
  2037  00303E  0E00               	movlw	0
  2038  003040  6E0A               	movwf	USensor_read@index,c
  2039  003042  EC6D  F01A         	call	_USensor_read	;wreg free
  2040                           
  2041                           ;main.c: 56:     snprintf( msg , sizeof(msg) , "%d mm\n" , data.mm );
  2042  003046  0E40               	movlw	low _msg
  2043  003048  0100               	movlb	0	; () banked
  2044  00304A  6F9F               	movwf	snprintf@s& (0+255),b
  2045  00304C  0E01               	movlw	high _msg
  2046  00304E  6FA0               	movwf	(snprintf@s+1)& (0+255),b
  2047  003050  0E00               	movlw	0
  2048  003052  6FA2               	movwf	(snprintf@n+1)& (0+255),b
  2049  003054  0E0F               	movlw	15
  2050  003056  6FA1               	movwf	snprintf@n& (0+255),b
  2051  003058  0E05               	movlw	low STR_1
  2052  00305A  6FA3               	movwf	snprintf@fmt& (0+255),b
  2053  00305C  0E08               	movlw	high STR_1
  2054  00305E  6FA4               	movwf	(snprintf@fmt+1)& (0+255),b
  2055  003060  C0F2  F0A5         	movff	Task0@data+2,?_snprintf+6
  2056  003064  C0F3  F0A6         	movff	Task0@data+3,?_snprintf+7
  2057  003068  EC10  F01B         	call	_snprintf	;wreg free
  2058                           
  2059                           ;main.c: 57:     UART_Transmit( msg , strlen(msg)+1 );
  2060  00306C  0E40               	movlw	low _msg
  2061  00306E  6E0C               	movwf	UART_Transmit@buffer,c
  2062  003070  0E01               	movlw	high _msg
  2063  003072  6E0D               	movwf	UART_Transmit@buffer+1,c
  2064  003074  0E40               	movlw	low _msg
  2065  003076  6E08               	movwf	strlen@s,c
  2066  003078  0E01               	movlw	high _msg
  2067  00307A  6E09               	movwf	strlen@s+1,c
  2068  00307C  EC70  F01B         	call	_strlen	;wreg free
  2069  003080  0E01               	movlw	1
  2070  003082  2408               	addwf	?_strlen,w,c
  2071  003084  6E0E               	movwf	UART_Transmit@size,c
  2072  003086  0E00               	movlw	0
  2073  003088  2009               	addwfc	?_strlen+1,w,c
  2074  00308A  6E0F               	movwf	UART_Transmit@size+1,c
  2075  00308C  ECDD  F01A         	call	_UART_Transmit	;wreg free
  2076  003090  0012               	return		;funcret
  2077  003092                     __end_of_Task0:
  2078                           	opt callstack 0
  2079                           
  2080 ;; *************** function _snprintf *****************
  2081 ;; Defined at:
  2082 ;;		line 4 in file "/opt/microchip/xc8/v2.05/pic/sources/c99/common/snprintf.c"
  2083 ;; Parameters:    Size  Location     Type
  2084 ;;  s               2   63[BANK0 ] PTR unsigned char 
  2085 ;;		 -> msg(15), 
  2086 ;;  n               2   65[BANK0 ] unsigned int 
  2087 ;;  fmt             2   67[BANK0 ] PTR const unsigned char 
  2088 ;;		 -> STR_1(7), 
  2089 ;; Auto vars:     Size  Location     Type
  2090 ;;  ap              2   73[BANK0 ] PTR void [1]
  2091 ;;		 -> ?_snprintf(2), 
  2092 ;;  ret             2    0        int 
  2093 ;; Return value:  Size  Location     Type
  2094 ;;                  2   63[BANK0 ] int 
  2095 ;; Registers used:
  2096 ;;		wreg, fsr1l, fsr1h, fsr2l, fsr2h, status,2, status,0, tblptrl, tblptrh, tblptru, prodl, prodh, cstack
  2097 ;; Tracked objects:
  2098 ;;		On entry : 0/0
  2099 ;;		On exit  : 0/0
  2100 ;;		Unchanged: 0/0
  2101 ;; Data sizes:     COMRAM   BANK0   BANK1   BANK2   BANK3   BANK4   BANK5   BANK6   BANK7
  2102 ;;      Params:         0       8       0       0       0       0       0       0       0
  2103 ;;      Locals:         0       4       0       0       0       0       0       0       0
  2104 ;;      Temps:          0       0       0       0       0       0       0       0       0
  2105 ;;      Totals:         0      12       0       0       0       0       0       0       0
  2106 ;;Total ram usage:       12 bytes
  2107 ;; Hardware stack levels used:    1
  2108 ;; Hardware stack levels required when called:   13
  2109 ;; This function calls:
  2110 ;;		_vsnprintf
  2111 ;; This function is called by:
  2112 ;;		_Task0
  2113 ;; This function uses a non-reentrant model
  2114 ;;
  2115                           
  2116                           	psect	text9
  2117  003620                     __ptext9:
  2118                           	opt callstack 0
  2119  003620                     _snprintf:
  2120                           	opt callstack 16
  2121                           
  2122                           ;incstack = 0
  2123  003620  0EA5               	movlw	low (?_snprintf+6)
  2124  003622  0100               	movlb	0	; () banked
  2125  003624  6FA9               	movwf	snprintf@ap& (0+255),b
  2126  003626  0E00               	movlw	high (?_snprintf+6)
  2127  003628  6FAA               	movwf	(snprintf@ap+1)& (0+255),b
  2128                           
  2129                           ; BSR set to: 0
  2130  00362A  C09F  F089         	movff	snprintf@s,vsnprintf@s
  2131  00362E  C0A0  F08A         	movff	snprintf@s+1,vsnprintf@s+1
  2132  003632  C0A1  F08B         	movff	snprintf@n,vsnprintf@n
  2133  003636  C0A2  F08C         	movff	snprintf@n+1,vsnprintf@n+1
  2134  00363A  C0A3  F08D         	movff	snprintf@fmt,vsnprintf@fmt
  2135  00363E  C0A4  F08E         	movff	snprintf@fmt+1,vsnprintf@fmt+1
  2136  003642  0EA9               	movlw	low snprintf@ap
  2137  003644  6F8F               	movwf	vsnprintf@ap& (0+255),b
  2138  003646  0E00               	movlw	high snprintf@ap
  2139  003648  6F90               	movwf	(vsnprintf@ap+1)& (0+255),b
  2140  00364A  ECDA  F014         	call	_vsnprintf	;wreg free
  2141  00364E  0012               	return		;funcret
  2142  003650                     __end_of_snprintf:
  2143                           	opt callstack 0
  2144                           
  2145 ;; *************** function _vsnprintf *****************
  2146 ;; Defined at:
  2147 ;;		line 11 in file "/opt/microchip/xc8/v2.05/pic/sources/c99/common/nf_vsnprintf.c"
  2148 ;; Parameters:    Size  Location     Type
  2149 ;;  s               2   41[BANK0 ] PTR unsigned char 
  2150 ;;		 -> msg(15), 
  2151 ;;  n               2   43[BANK0 ] unsigned int 
  2152 ;;  fmt             2   45[BANK0 ] PTR const unsigned char 
  2153 ;;		 -> STR_1(7), 
  2154 ;;  ap              2   47[BANK0 ] PTR PTR void 
  2155 ;;		 -> snprintf@ap(2), 
  2156 ;; Auto vars:     Size  Location     Type
  2157 ;;  f               6   57[BANK0 ] struct _IO_FILE
  2158 ;;  cnt             2   55[BANK0 ] int 
  2159 ;; Return value:  Size  Location     Type
  2160 ;;                  2   41[BANK0 ] int 
  2161 ;; Registers used:
  2162 ;;		wreg, fsr1l, fsr1h, fsr2l, fsr2h, status,2, status,0, tblptrl, tblptrh, tblptru, prodl, prodh, cstack
  2163 ;; Tracked objects:
  2164 ;;		On entry : 0/0
  2165 ;;		On exit  : 0/0
  2166 ;;		Unchanged: 0/0
  2167 ;; Data sizes:     COMRAM   BANK0   BANK1   BANK2   BANK3   BANK4   BANK5   BANK6   BANK7
  2168 ;;      Params:         0       8       0       0       0       0       0       0       0
  2169 ;;      Locals:         0      10       0       0       0       0       0       0       0
  2170 ;;      Temps:          0       4       0       0       0       0       0       0       0
  2171 ;;      Totals:         0      22       0       0       0       0       0       0       0
  2172 ;;Total ram usage:       22 bytes
  2173 ;; Hardware stack levels used:    1
  2174 ;; Hardware stack levels required when called:   12
  2175 ;; This function calls:
  2176 ;;		_vfprintf
  2177 ;; This function is called by:
  2178 ;;		_snprintf
  2179 ;; This function uses a non-reentrant model
  2180 ;;
  2181                           
  2182                           	psect	text10
  2183  0029B4                     __ptext10:
  2184                           	opt callstack 0
  2185  0029B4                     _vsnprintf:
  2186                           	opt callstack 16
  2187                           
  2188                           ;incstack = 0
  2189  0029B4  0E80               	movlw	128
  2190  0029B6  0100               	movlb	0	; () banked
  2191  0029B8  5D8C               	subwf	(vsnprintf@n+1)& (0+255),w,b
  2192  0029BA  A0D8               	btfss	status,0,c
  2193  0029BC  D007               	goto	l5913
  2194                           
  2195                           ; BSR set to: 0
  2196  0029BE  0E00               	movlw	0
  2197  0029C0  6FB0               	movwf	(_errno+1)& (0+255),b
  2198  0029C2  0E4B               	movlw	75
  2199  0029C4  6FAF               	movwf	_errno& (0+255),b
  2200                           
  2201                           ; BSR set to: 0
  2202  0029C6  6989               	setf	?_vsnprintf& (0+255),b
  2203  0029C8  698A               	setf	(?_vsnprintf+1)& (0+255),b
  2204  0029CA  0012               	return	
  2205  0029CC                     l5913:
  2206                           
  2207                           ; BSR set to: 0
  2208  0029CC  C089  F099         	movff	vsnprintf@s,vsnprintf@f
  2209  0029D0  C08A  F09A         	movff	vsnprintf@s+1,vsnprintf@f+1
  2210  0029D4  518C               	movf	(vsnprintf@n+1)& (0+255),w,b
  2211  0029D6  E104               	bnz	u6920
  2212  0029D8  0E02               	movlw	2
  2213  0029DA  5D8B               	subwf	vsnprintf@n& (0+255),w,b
  2214  0029DC  A0D8               	btfss	status,0,c
  2215  0029DE  D00A               	goto	l5919
  2216  0029E0                     u6920:
  2217                           
  2218                           ; BSR set to: 0
  2219  0029E0  0EFF               	movlw	255
  2220  0029E2  258B               	addwf	vsnprintf@n& (0+255),w,b
  2221  0029E4  6F9D               	movwf	(vsnprintf@f+4)& (0+255),b
  2222  0029E6  0EFF               	movlw	255
  2223  0029E8  218C               	addwfc	(vsnprintf@n+1)& (0+255),w,b
  2224  0029EA  6F9E               	movwf	(vsnprintf@f+5)& (0+255),b
  2225                           
  2226                           ; BSR set to: 0
  2227  0029EC  0E00               	movlw	0
  2228  0029EE  6F9C               	movwf	(vsnprintf@f+3)& (0+255),b
  2229  0029F0  0E00               	movlw	0
  2230  0029F2  D007               	goto	L3
  2231  0029F4                     l5919:
  2232                           
  2233                           ; BSR set to: 0
  2234  0029F4  0E00               	movlw	0
  2235  0029F6  6F9E               	movwf	(vsnprintf@f+5)& (0+255),b
  2236  0029F8  0E01               	movlw	1
  2237  0029FA  6F9D               	movwf	(vsnprintf@f+4)& (0+255),b
  2238  0029FC  0E00               	movlw	0
  2239  0029FE  6F9C               	movwf	(vsnprintf@f+3)& (0+255),b
  2240  002A00  0E01               	movlw	1
  2241  002A02                     L3:
  2242  002A02  6F9B               	movwf	(vsnprintf@f+2)& (0+255),b
  2243                           
  2244                           ; BSR set to: 0
  2245  002A04  0E99               	movlw	low vsnprintf@f
  2246  002A06  6F81               	movwf	vfprintf@fp& (0+255),b
  2247  002A08  0E00               	movlw	high vsnprintf@f
  2248  002A0A  6F82               	movwf	(vfprintf@fp+1)& (0+255),b
  2249  002A0C  C08D  F083         	movff	vsnprintf@fmt,vfprintf@fmt
  2250  002A10  C08E  F084         	movff	vsnprintf@fmt+1,vfprintf@fmt+1
  2251  002A14  C08F  F085         	movff	vsnprintf@ap,vfprintf@ap
  2252  002A18  C090  F086         	movff	vsnprintf@ap+1,vfprintf@ap+1
  2253  002A1C  EC1A  F019         	call	_vfprintf	;wreg free
  2254  002A20  C081  F097         	movff	?_vfprintf,vsnprintf@cnt
  2255  002A24  C082  F098         	movff	?_vfprintf+1,vsnprintf@cnt+1
  2256  002A28  0100               	movlb	0	; () banked
  2257  002A2A  518B               	movf	vsnprintf@n& (0+255),w,b
  2258  002A2C  118C               	iorwf	(vsnprintf@n+1)& (0+255),w,b
  2259  002A2E  A4D8               	btfss	status,2,c
  2260                           
  2261                           ; BSR set to: 0
  2262  002A30  BF98               	btfsc	(vsnprintf@cnt+1)& (0+255),7,b
  2263  002A32  D025               	goto	l5933
  2264                           
  2265                           ; BSR set to: 0
  2266  002A34  0EFF               	movlw	255
  2267  002A36  6F91               	movwf	??_vsnprintf& (0+255),b
  2268  002A38  0EFF               	movlw	255
  2269  002A3A  6F92               	movwf	(??_vsnprintf+1)& (0+255),b
  2270  002A3C  C08B  F093         	movff	vsnprintf@n,??_vsnprintf+2
  2271  002A40  C08C  F094         	movff	vsnprintf@n+1,??_vsnprintf+3
  2272  002A44  5191               	movf	??_vsnprintf& (0+255),w,b
  2273  002A46  2793               	addwf	(??_vsnprintf+2)& (0+255),f,b
  2274  002A48  5192               	movf	(??_vsnprintf+1)& (0+255),w,b
  2275  002A4A  2394               	addwfc	(??_vsnprintf+3)& (0+255),f,b
  2276  002A4C  5193               	movf	(??_vsnprintf+2)& (0+255),w,b
  2277  002A4E  5D97               	subwf	vsnprintf@cnt& (0+255),w,b
  2278  002A50  5194               	movf	(??_vsnprintf+3)& (0+255),w,b
  2279  002A52  5998               	subwfb	(vsnprintf@cnt+1)& (0+255),w,b
  2280  002A54  A0D8               	btfss	status,0,c
  2281  002A56  D007               	goto	l1603
  2282                           
  2283                           ; BSR set to: 0
  2284  002A58  0EFF               	movlw	255
  2285  002A5A  258B               	addwf	vsnprintf@n& (0+255),w,b
  2286  002A5C  6F95               	movwf	_vsnprintf$2426& (0+255),b
  2287  002A5E  0EFF               	movlw	255
  2288  002A60  218C               	addwfc	(vsnprintf@n+1)& (0+255),w,b
  2289  002A62  6F96               	movwf	(_vsnprintf$2426+1)& (0+255),b
  2290  002A64  D004               	goto	l5931
  2291  002A66                     l1603:
  2292                           
  2293                           ; BSR set to: 0
  2294  002A66  C097  F095         	movff	vsnprintf@cnt,_vsnprintf$2426
  2295  002A6A  C098  F096         	movff	vsnprintf@cnt+1,_vsnprintf$2426+1
  2296  002A6E                     l5931:
  2297                           
  2298                           ; BSR set to: 0
  2299  002A6E  5195               	movf	_vsnprintf$2426& (0+255),w,b
  2300  002A70  2589               	addwf	vsnprintf@s& (0+255),w,b
  2301  002A72  6ED9               	movwf	fsr2l,c
  2302  002A74  5196               	movf	(_vsnprintf$2426+1)& (0+255),w,b
  2303  002A76  218A               	addwfc	(vsnprintf@s+1)& (0+255),w,b
  2304  002A78  6EDA               	movwf	fsr2h,c
  2305  002A7A  0E00               	movlw	0
  2306  002A7C  6EDF               	movwf	indf2,c
  2307  002A7E                     l5933:
  2308                           
  2309                           ; BSR set to: 0
  2310  002A7E  C097  F089         	movff	vsnprintf@cnt,?_vsnprintf
  2311  002A82  C098  F08A         	movff	vsnprintf@cnt+1,?_vsnprintf+1
  2312                           
  2313                           ; BSR set to: 0
  2314  002A86  0012               	return		;funcret
  2315  002A88                     __end_of_vsnprintf:
  2316                           	opt callstack 0
  2317                           
  2318 ;; *************** function _vfprintf *****************
  2319 ;; Defined at:
  2320 ;;		line 1368 in file "/opt/microchip/xc8/v2.05/pic/sources/c99/common/doprnt.c"
  2321 ;; Parameters:    Size  Location     Type
  2322 ;;  fp              2   33[BANK0 ] PTR struct _IO_FILE
  2323 ;;		 -> vsnprintf@f(6), 
  2324 ;;  fmt             2   35[BANK0 ] PTR const unsigned char 
  2325 ;;		 -> STR_1(7), 
  2326 ;;  ap              2   37[BANK0 ] PTR PTR void 
  2327 ;;		 -> snprintf@ap(2), 
  2328 ;; Auto vars:     Size  Location     Type
  2329 ;;  cfmt            2   39[BANK0 ] PTR unsigned char 
  2330 ;;		 -> STR_1(7), 
  2331 ;; Return value:  Size  Location     Type
  2332 ;;                  2   33[BANK0 ] int 
  2333 ;; Registers used:
  2334 ;;		wreg, fsr1l, fsr1h, fsr2l, fsr2h, status,2, status,0, tblptrl, tblptrh, tblptru, prodl, prodh, cstack
  2335 ;; Tracked objects:
  2336 ;;		On entry : 0/0
  2337 ;;		On exit  : 0/0
  2338 ;;		Unchanged: 0/0
  2339 ;; Data sizes:     COMRAM   BANK0   BANK1   BANK2   BANK3   BANK4   BANK5   BANK6   BANK7
  2340 ;;      Params:         0       6       0       0       0       0       0       0       0
  2341 ;;      Locals:         0       2       0       0       0       0       0       0       0
  2342 ;;      Temps:          0       0       0       0       0       0       0       0       0
  2343 ;;      Totals:         0       8       0       0       0       0       0       0       0
  2344 ;;Total ram usage:        8 bytes
  2345 ;; Hardware stack levels used:    1
  2346 ;; Hardware stack levels required when called:   11
  2347 ;; This function calls:
  2348 ;;		_vfpfcnvrt
  2349 ;; This function is called by:
  2350 ;;		_vsnprintf
  2351 ;; This function uses a non-reentrant model
  2352 ;;
  2353                           
  2354                           	psect	text11
  2355  003234                     __ptext11:
  2356                           	opt callstack 0
  2357  003234                     _vfprintf:
  2358                           	opt callstack 16
  2359                           
  2360                           ;/opt/microchip/xc8/v2.05/pic/sources/c99/common/doprnt.c: 1368: int vfprintf(FILE *fp, 
      +                          const char *fmt, va_list ap);/opt/microchip/xc8/v2.05/pic/sources/c99/common/doprnt.c: 1
      +                          369: {;/opt/microchip/xc8/v2.05/pic/sources/c99/common/doprnt.c: 1371:     char *cfmt;;/
      +                          opt/microchip/xc8/v2.05/pic/sources/c99/common/doprnt.c: 1373:     cfmt = (char *)fmt;
  2361                           
  2362                           ; BSR set to: 0
  2363                           ;incstack = 0
  2364  003234  C083  F087         	movff	vfprintf@fmt,vfprintf@cfmt
  2365  003238  C084  F088         	movff	vfprintf@fmt+1,vfprintf@cfmt+1
  2366                           
  2367                           ;/opt/microchip/xc8/v2.05/pic/sources/c99/common/doprnt.c: 1374:     nout = 0;
  2368  00323C  0E00               	movlw	0
  2369  00323E  0100               	movlb	0	; () banked
  2370  003240  6FB2               	movwf	(_nout+1)& (0+255),b
  2371  003242  0E00               	movlw	0
  2372  003244  6FB1               	movwf	_nout& (0+255),b
  2373                           
  2374                           ;/opt/microchip/xc8/v2.05/pic/sources/c99/common/doprnt.c: 1375:     while (*cfmt) {
  2375  003246  D013               	goto	l5903
  2376  003248                     l5901:
  2377                           
  2378                           ; BSR set to: 0
  2379                           ;/opt/microchip/xc8/v2.05/pic/sources/c99/common/doprnt.c: 1376:         nout += vfpfcnv
      +                          rt(fp, &cfmt, ap);
  2380  003248  C081  F060         	movff	vfprintf@fp,vfpfcnvrt@fp
  2381  00324C  C082  F061         	movff	vfprintf@fp+1,vfpfcnvrt@fp+1
  2382  003250  0E87               	movlw	low vfprintf@cfmt
  2383  003252  6F62               	movwf	vfpfcnvrt@fmt& (0+255),b
  2384  003254  0E00               	movlw	high vfprintf@cfmt
  2385  003256  6F63               	movwf	(vfpfcnvrt@fmt+1)& (0+255),b
  2386  003258  C085  F064         	movff	vfprintf@ap,vfpfcnvrt@ap
  2387  00325C  C086  F065         	movff	vfprintf@ap+1,vfpfcnvrt@ap+1
  2388  003260  EC1F  F004         	call	_vfpfcnvrt	;wreg free
  2389  003264  0100               	movlb	0	; () banked
  2390  003266  5160               	movf	?_vfpfcnvrt& (0+255),w,b
  2391  003268  27B1               	addwf	_nout& (0+255),f,b
  2392  00326A  5161               	movf	(?_vfpfcnvrt+1)& (0+255),w,b
  2393  00326C  23B2               	addwfc	(_nout+1)& (0+255),f,b
  2394  00326E                     l5903:
  2395                           
  2396                           ; BSR set to: 0
  2397                           ;/opt/microchip/xc8/v2.05/pic/sources/c99/common/doprnt.c: 1375:     while (*cfmt) {
  2398  00326E  C087  FFF6         	movff	vfprintf@cfmt,tblptrl
  2399  003272  C088  FFF7         	movff	vfprintf@cfmt+1,tblptrh
  2400  003276                     	if	0	;tblptru may be non-zero
  2401  003276                     	endif
  2402  003276                     	if	0	;tblptru may be non-zero
  2403  003276                     	endif
  2404  003276  0008               	tblrd		*
  2405  003278  50F5               	movf	tablat,w,c
  2406  00327A  0900               	iorlw	0
  2407  00327C  A4D8               	btfss	status,2,c
  2408  00327E  D7E4               	goto	l5901
  2409                           
  2410                           ; BSR set to: 0
  2411                           ;/opt/microchip/xc8/v2.05/pic/sources/c99/common/doprnt.c: 1378:     return nout;
  2412  003280  C0B1  F081         	movff	_nout,?_vfprintf
  2413  003284  C0B2  F082         	movff	_nout+1,?_vfprintf+1
  2414                           
  2415                           ; BSR set to: 0
  2416  003288  0012               	return		;funcret
  2417  00328A                     __end_of_vfprintf:
  2418                           	opt callstack 0
  2419                           
  2420 ;; *************** function _vfpfcnvrt *****************
  2421 ;; Defined at:
  2422 ;;		line 670 in file "/opt/microchip/xc8/v2.05/pic/sources/c99/common/doprnt.c"
  2423 ;; Parameters:    Size  Location     Type
  2424 ;;  fp              2    0[BANK0 ] PTR struct _IO_FILE
  2425 ;;		 -> vsnprintf@f(6), 
  2426 ;;  fmt             2    2[BANK0 ] PTR PTR unsigned char 
  2427 ;;		 -> vfprintf@cfmt(2), 
  2428 ;;  ap              2    4[BANK0 ] PTR PTR void 
  2429 ;;		 -> snprintf@ap(2), 
  2430 ;; Auto vars:     Size  Location     Type
  2431 ;;  llu             8   25[BANK0 ] unsigned long long 
  2432 ;;  ll              8   14[BANK0 ] long long 
  2433 ;;  f               4    0        long long 
  2434 ;;  ct              3    0        unsigned char [3]
  2435 ;;  vp              2   22[BANK0 ] PTR void 
  2436 ;;		 -> ?_snprintf(2), 
  2437 ;;  done            2    8[BANK0 ] int 
  2438 ;;  cp              2    6[BANK0 ] PTR unsigned char 
  2439 ;;		 -> ?_snprintf(2), 
  2440 ;;  i               2    0        int 
  2441 ;;  c               1   24[BANK0 ] unsigned char 
  2442 ;; Return value:  Size  Location     Type
  2443 ;;                  2    0[BANK0 ] int 
  2444 ;; Registers used:
  2445 ;;		wreg, fsr1l, fsr1h, fsr2l, fsr2h, status,2, status,0, tblptrl, tblptrh, tblptru, prodl, prodh, cstack
  2446 ;; Tracked objects:
  2447 ;;		On entry : 0/0
  2448 ;;		On exit  : 0/0
  2449 ;;		Unchanged: 0/0
  2450 ;; Data sizes:     COMRAM   BANK0   BANK1   BANK2   BANK3   BANK4   BANK5   BANK6   BANK7
  2451 ;;      Params:         0       6       0       0       0       0       0       0       0
  2452 ;;      Locals:         0      27       0       0       0       0       0       0       0
  2453 ;;      Temps:          4       0       0       0       0       0       0       0       0
  2454 ;;      Totals:         4      33       0       0       0       0       0       0       0
  2455 ;;Total ram usage:       37 bytes
  2456 ;; Hardware stack levels used:    1
  2457 ;; Hardware stack levels required when called:   10
  2458 ;; This function calls:
  2459 ;;		_atoi
  2460 ;;		_ctoa
  2461 ;;		_dtoa
  2462 ;;		_fputc
  2463 ;;		_isdigit
  2464 ;;		_otoa
  2465 ;;		_stoa
  2466 ;;		_strncmp
  2467 ;;		_utoa
  2468 ;;		_xtoa
  2469 ;; This function is called by:
  2470 ;;		_vfprintf
  2471 ;; This function uses a non-reentrant model
  2472 ;;
  2473                           
  2474                           	psect	text12
  2475  00083E                     __ptext12:
  2476                           	opt callstack 0
  2477  00083E                     _vfpfcnvrt:
  2478                           	opt callstack 16
  2479                           
  2480                           ;/opt/microchip/xc8/v2.05/pic/sources/c99/common/doprnt.c: 670: static int vfpfcnvrt(FIL
      +                          E *fp, char *fmt[], va_list ap);/opt/microchip/xc8/v2.05/pic/sources/c99/common/doprnt.c
      +                          : 671: {;/opt/microchip/xc8/v2.05/pic/sources/c99/common/doprnt.c: 672:     char c, *cp,
      +                           ct[3];;/opt/microchip/xc8/v2.05/pic/sources/c99/common/doprnt.c: 673:     int done, i;;
      +                          /opt/microchip/xc8/v2.05/pic/sources/c99/common/doprnt.c: 674:     long long ll;;/opt/mi
      +                          crochip/xc8/v2.05/pic/sources/c99/common/doprnt.c: 675:     unsigned long long llu;
  2481                           
  2482                           ; BSR set to: 0
  2483                           ;incstack = 0
  2484  00083E  C062  FFD9         	movff	vfpfcnvrt@fmt,fsr2l
  2485  000842  C063  FFDA         	movff	vfpfcnvrt@fmt+1,fsr2h
  2486  000846  CFDE FFF6          	movff	postinc2,tblptrl
  2487  00084A  CFDD FFF7          	movff	postdec2,tblptrh
  2488  00084E                     	if	0	;tblptru may be non-zero
  2489  00084E                     	endif
  2490  00084E                     	if	0	;tblptru may be non-zero
  2491  00084E                     	endif
  2492  00084E  0008               	tblrd		*
  2493  000850  50F5               	movf	tablat,w,c
  2494  000852  0A25               	xorlw	37
  2495  000854  A4D8               	btfss	status,2,c
  2496  000856  EFC2  F00A         	goto	l5879
  2497                           
  2498                           ;/opt/microchip/xc8/v2.05/pic/sources/c99/common/doprnt.c: 681:         ++*fmt;
  2499  00085A  C062  FFD9         	movff	vfpfcnvrt@fmt,fsr2l
  2500  00085E  C063  FFDA         	movff	vfpfcnvrt@fmt+1,fsr2h
  2501  000862  2ADE               	incf	postinc2,f,c
  2502  000864  0E00               	movlw	0
  2503  000866  22DD               	addwfc	postdec2,f,c
  2504                           
  2505                           ;/opt/microchip/xc8/v2.05/pic/sources/c99/common/doprnt.c: 683:         flags = width = 
      +                          0;
  2506  000868  0E00               	movlw	0
  2507  00086A  6E4F               	movwf	_width+1,c
  2508  00086C  0E00               	movlw	0
  2509  00086E  6E4E               	movwf	_width,c
  2510  000870  C04E  F052         	movff	_width,_flags
  2511  000874  C04F  F053         	movff	_width+1,_flags+1
  2512                           
  2513                           ;/opt/microchip/xc8/v2.05/pic/sources/c99/common/doprnt.c: 684:         prec = -1;
  2514  000878  6850               	setf	_prec,c
  2515  00087A  6851               	setf	_prec+1,c
  2516                           
  2517                           ;/opt/microchip/xc8/v2.05/pic/sources/c99/common/doprnt.c: 688:         done = 0;
  2518  00087C  0E00               	movlw	0
  2519  00087E  0100               	movlb	0	; () banked
  2520  000880  6F69               	movwf	(vfpfcnvrt@done+1)& (0+255),b
  2521  000882  0E00               	movlw	0
  2522  000884  D014               	goto	L4
  2523  000886                     l5571:
  2524                           
  2525                           ; BSR set to: 0
  2526                           ;/opt/microchip/xc8/v2.05/pic/sources/c99/common/doprnt.c: 692:                     flag
      +                          s |= (1 << 0);
  2527  000886  8052               	bsf	_flags,0,c
  2528  000888                     l5573:
  2529                           
  2530                           ; BSR set to: 0
  2531                           ;/opt/microchip/xc8/v2.05/pic/sources/c99/common/doprnt.c: 693:                     ++*f
      +                          mt;
  2532  000888  C062  FFD9         	movff	vfpfcnvrt@fmt,fsr2l
  2533  00088C  C063  FFDA         	movff	vfpfcnvrt@fmt+1,fsr2h
  2534  000890  2ADE               	incf	postinc2,f,c
  2535  000892  0E00               	movlw	0
  2536  000894  22DD               	addwfc	postdec2,f,c
  2537                           
  2538                           ;/opt/microchip/xc8/v2.05/pic/sources/c99/common/doprnt.c: 694:                     brea
      +                          k;
  2539  000896  D02E               	goto	l5597
  2540  000898                     l5575:
  2541                           
  2542                           ; BSR set to: 0
  2543                           ;/opt/microchip/xc8/v2.05/pic/sources/c99/common/doprnt.c: 696:                     flag
      +                          s |= (1 << 1);
  2544  000898  8252               	bsf	_flags,1,c
  2545  00089A  D7F6               	goto	l5573
  2546  00089C                     l5579:
  2547                           
  2548                           ; BSR set to: 0
  2549                           ;/opt/microchip/xc8/v2.05/pic/sources/c99/common/doprnt.c: 700:                     flag
      +                          s |= (1 << 2);
  2550  00089C  8452               	bsf	_flags,2,c
  2551  00089E  D7F4               	goto	l5573
  2552  0008A0                     l5583:
  2553                           
  2554                           ; BSR set to: 0
  2555                           ;/opt/microchip/xc8/v2.05/pic/sources/c99/common/doprnt.c: 704:                     flag
      +                          s |= (1 << 3);
  2556  0008A0  8652               	bsf	_flags,3,c
  2557  0008A2  D7F2               	goto	l5573
  2558  0008A4                     l5587:
  2559                           
  2560                           ; BSR set to: 0
  2561                           ;/opt/microchip/xc8/v2.05/pic/sources/c99/common/doprnt.c: 708:                     flag
      +                          s |= (1 << 4);
  2562  0008A4  8852               	bsf	_flags,4,c
  2563  0008A6  D7F0               	goto	l5573
  2564  0008A8                     l5591:
  2565                           
  2566                           ; BSR set to: 0
  2567                           ;/opt/microchip/xc8/v2.05/pic/sources/c99/common/doprnt.c: 712:                     done
      +                           = 1;
  2568  0008A8  0E00               	movlw	0
  2569  0008AA  6F69               	movwf	(vfpfcnvrt@done+1)& (0+255),b
  2570  0008AC  0E01               	movlw	1
  2571  0008AE                     L4:
  2572  0008AE  6F68               	movwf	vfpfcnvrt@done& (0+255),b
  2573                           
  2574                           ;/opt/microchip/xc8/v2.05/pic/sources/c99/common/doprnt.c: 713:                     brea
      +                          k;
  2575  0008B0  D021               	goto	l5597
  2576  0008B2                     l5595:
  2577                           
  2578                           ; BSR set to: 0
  2579  0008B2  C062  FFD9         	movff	vfpfcnvrt@fmt,fsr2l
  2580  0008B6  C063  FFDA         	movff	vfpfcnvrt@fmt+1,fsr2h
  2581  0008BA  CFDE FFF6          	movff	postinc2,tblptrl
  2582  0008BE  CFDD FFF7          	movff	postdec2,tblptrh
  2583  0008C2                     	if	0	;tblptru may be non-zero
  2584  0008C2                     	endif
  2585  0008C2                     	if	0	;tblptru may be non-zero
  2586  0008C2                     	endif
  2587  0008C2  0008               	tblrd		*
  2588  0008C4  50F5               	movf	tablat,w,c
  2589  0008C6  6E4A               	movwf	??_vfpfcnvrt& (0+255),c
  2590  0008C8  6A4B               	clrf	(??_vfpfcnvrt+1)& (0+255),c
  2591                           
  2592                           ; Switch on 2 bytes has been partitioned into a top level switch of size 1, and 1 sub-sw
      +                          itches
  2593                           ; Switch size 1, requested type "simple"
  2594                           ; Number of cases is 1, Range of values is 0 to 0
  2595                           ; switch strategies available:
  2596                           ; Name         Instructions Cycles
  2597                           ; simple_byte            4     3 (average)
  2598                           ;	Chosen strategy is simple_byte
  2599  0008CA  504B               	movf	??_vfpfcnvrt+1,w,c
  2600  0008CC  0A00               	xorlw	0	; case 0
  2601  0008CE  A4D8               	btfss	status,2,c
  2602  0008D0  D7EB               	goto	l5591
  2603                           
  2604                           ; BSR set to: 0
  2605                           ; Switch size 1, requested type "simple"
  2606                           ; Number of cases is 5, Range of values is 32 to 48
  2607                           ; switch strategies available:
  2608                           ; Name         Instructions Cycles
  2609                           ; simple_byte           16     9 (average)
  2610                           ;	Chosen strategy is simple_byte
  2611  0008D2  504A               	movf	??_vfpfcnvrt,w,c
  2612  0008D4  0A20               	xorlw	32	; case 32
  2613  0008D6  B4D8               	btfsc	status,2,c
  2614  0008D8  D7E3               	goto	l5583
  2615  0008DA  0A03               	xorlw	3	; case 35
  2616  0008DC  B4D8               	btfsc	status,2,c
  2617  0008DE  D7E2               	goto	l5587
  2618  0008E0  0A08               	xorlw	8	; case 43
  2619  0008E2  B4D8               	btfsc	status,2,c
  2620  0008E4  D7DB               	goto	l5579
  2621  0008E6  0A06               	xorlw	6	; case 45
  2622  0008E8  B4D8               	btfsc	status,2,c
  2623  0008EA  D7CD               	goto	l5571
  2624  0008EC  0A1D               	xorlw	29	; case 48
  2625  0008EE  B4D8               	btfsc	status,2,c
  2626  0008F0  D7D3               	goto	l5575
  2627  0008F2  D7DA               	goto	l5591
  2628  0008F4                     l5597:
  2629                           
  2630                           ; BSR set to: 0
  2631                           ;/opt/microchip/xc8/v2.05/pic/sources/c99/common/doprnt.c: 689:         while (!done) {
  2632  0008F4  5168               	movf	vfpfcnvrt@done& (0+255),w,b
  2633  0008F6  1169               	iorwf	(vfpfcnvrt@done+1)& (0+255),w,b
  2634  0008F8  B4D8               	btfsc	status,2,c
  2635  0008FA  D7DB               	goto	l5595
  2636                           
  2637                           ; BSR set to: 0
  2638                           ;/opt/microchip/xc8/v2.05/pic/sources/c99/common/doprnt.c: 716:         if (flags & (1 <
      +                          < 0)) {
  2639  0008FC  B052               	btfsc	_flags,0,c
  2640                           
  2641                           ; BSR set to: 0
  2642                           ;/opt/microchip/xc8/v2.05/pic/sources/c99/common/doprnt.c: 717:             flags &= ~(1
      +                           << 1);
  2643  0008FE  9252               	bcf	_flags,1,c
  2644                           
  2645                           ; BSR set to: 0
  2646                           ;/opt/microchip/xc8/v2.05/pic/sources/c99/common/doprnt.c: 723:         if ((*fmt)[0] ==
      +                           '*') {
  2647  000900  C062  FFD9         	movff	vfpfcnvrt@fmt,fsr2l
  2648  000904  C063  FFDA         	movff	vfpfcnvrt@fmt+1,fsr2h
  2649  000908  CFDE FFF6          	movff	postinc2,tblptrl
  2650  00090C  CFDD FFF7          	movff	postdec2,tblptrh
  2651  000910                     	if	0	;tblptru may be non-zero
  2652  000910                     	endif
  2653  000910                     	if	0	;tblptru may be non-zero
  2654  000910                     	endif
  2655  000910  0008               	tblrd		*
  2656  000912  50F5               	movf	tablat,w,c
  2657  000914  0A2A               	xorlw	42
  2658  000916  A4D8               	btfss	status,2,c
  2659  000918  D023               	goto	l5609
  2660                           
  2661                           ; BSR set to: 0
  2662                           ;/opt/microchip/xc8/v2.05/pic/sources/c99/common/doprnt.c: 724:             ++*fmt;
  2663  00091A  C062  FFD9         	movff	vfpfcnvrt@fmt,fsr2l
  2664  00091E  C063  FFDA         	movff	vfpfcnvrt@fmt+1,fsr2h
  2665  000922  2ADE               	incf	postinc2,f,c
  2666  000924  0E00               	movlw	0
  2667  000926  22DD               	addwfc	postdec2,f,c
  2668                           
  2669                           ;/opt/microchip/xc8/v2.05/pic/sources/c99/common/doprnt.c: 725:             width = (*(i
      +                          nt *)__va_arg(*(int **)ap, (int)0));
  2670  000928  C064  FFD9         	movff	vfpfcnvrt@ap,fsr2l
  2671  00092C  C065  FFDA         	movff	vfpfcnvrt@ap+1,fsr2h
  2672  000930  CFDF F04A          	movff	indf2,??_vfpfcnvrt
  2673  000934  0E02               	movlw	2
  2674  000936  26DE               	addwf	postinc2,f,c
  2675  000938  CFDF F04B          	movff	indf2,??_vfpfcnvrt+1
  2676  00093C  0E00               	movlw	0
  2677  00093E  22DD               	addwfc	postdec2,f,c
  2678  000940  C04A  FFD9         	movff	??_vfpfcnvrt,fsr2l
  2679  000944  C04B  FFDA         	movff	??_vfpfcnvrt+1,fsr2h
  2680  000948  CFDE F04E          	movff	postinc2,_width
  2681  00094C  CFDD F04F          	movff	postdec2,_width+1
  2682                           
  2683                           ; BSR set to: 0
  2684                           ;/opt/microchip/xc8/v2.05/pic/sources/c99/common/doprnt.c: 726:             if (width < 
      +                          0) {
  2685  000950  AE4F               	btfss	_width+1,7,c
  2686  000952  D040               	goto	u6520
  2687                           
  2688                           ; BSR set to: 0
  2689                           ;/opt/microchip/xc8/v2.05/pic/sources/c99/common/doprnt.c: 727:                 flags |=
      +                           (1 << 0);
  2690  000954  8052               	bsf	_flags,0,c
  2691                           
  2692                           ;/opt/microchip/xc8/v2.05/pic/sources/c99/common/doprnt.c: 728:                 width = 
      +                          -width;
  2693  000956  6C4E               	negf	_width,c
  2694  000958  1E4F               	comf	_width+1,f,c
  2695  00095A  B0D8               	btfsc	status,0,c
  2696  00095C  2A4F               	incf	_width+1,f,c
  2697  00095E  D03A               	goto	u6520
  2698  000960                     l5609:
  2699                           
  2700                           ; BSR set to: 0
  2701                           ;/opt/microchip/xc8/v2.05/pic/sources/c99/common/doprnt.c: 731:             width = atoi
      +                          (*fmt);
  2702  000960  C062  FFD9         	movff	vfpfcnvrt@fmt,fsr2l
  2703  000964  C063  FFDA         	movff	vfpfcnvrt@fmt+1,fsr2h
  2704  000968  CFDE F00F          	movff	postinc2,atoi@s
  2705  00096C  CFDD F010          	movff	postdec2,atoi@s+1
  2706  000970  EC04  F011         	call	_atoi	;wreg free
  2707  000974  C00F  F04E         	movff	?_atoi,_width
  2708  000978  C010  F04F         	movff	?_atoi+1,_width+1
  2709                           
  2710                           ;/opt/microchip/xc8/v2.05/pic/sources/c99/common/doprnt.c: 732:             while ((0 ? 
      +                          isdigit((*fmt)[0]) : ((unsigned)((*fmt)[0])-'0') < 10)) {
  2711  00097C  D007               	goto	l5613
  2712  00097E                     l5611:
  2713                           
  2714                           ; BSR set to: 0
  2715                           ;/opt/microchip/xc8/v2.05/pic/sources/c99/common/doprnt.c: 733:                 ++*fmt;
  2716  00097E  C062  FFD9         	movff	vfpfcnvrt@fmt,fsr2l
  2717  000982  C063  FFDA         	movff	vfpfcnvrt@fmt+1,fsr2h
  2718  000986  2ADE               	incf	postinc2,f,c
  2719  000988  0E00               	movlw	0
  2720  00098A  22DD               	addwfc	postdec2,f,c
  2721  00098C                     l5613:
  2722  00098C  0ED0               	movlw	208
  2723  00098E  6E4A               	movwf	??_vfpfcnvrt& (0+255),c
  2724  000990  0EFF               	movlw	255
  2725  000992  6E4B               	movwf	(??_vfpfcnvrt+1)& (0+255),c
  2726  000994  C062  FFD9         	movff	vfpfcnvrt@fmt,fsr2l
  2727  000998  C063  FFDA         	movff	vfpfcnvrt@fmt+1,fsr2h
  2728  00099C  CFDE FFF6          	movff	postinc2,tblptrl
  2729  0009A0  CFDD FFF7          	movff	postdec2,tblptrh
  2730  0009A4                     	if	0	;tblptru may be non-zero
  2731  0009A4                     	endif
  2732  0009A4                     	if	0	;tblptru may be non-zero
  2733  0009A4                     	endif
  2734  0009A4  0008               	tblrd		*
  2735  0009A6  50F5               	movf	tablat,w,c
  2736  0009A8  6E4C               	movwf	(??_vfpfcnvrt+2)& (0+255),c
  2737  0009AA  6A4D               	clrf	(??_vfpfcnvrt+3)& (0+255),c
  2738  0009AC  504A               	movf	??_vfpfcnvrt,w,c
  2739  0009AE  264C               	addwf	??_vfpfcnvrt+2,f,c
  2740  0009B0  504B               	movf	??_vfpfcnvrt+1,w,c
  2741  0009B2  224D               	addwfc	??_vfpfcnvrt+3,f,c
  2742  0009B4  504D               	movf	??_vfpfcnvrt+3,w,c
  2743  0009B6  E106               	bnz	u6500
  2744  0009B8  0E0A               	movlw	10
  2745  0009BA  5C4C               	subwf	??_vfpfcnvrt+2,w,c
  2746  0009BC  B0D8               	btfsc	status,0,c
  2747  0009BE  D002               	goto	u6500
  2748  0009C0  0E01               	movlw	1
  2749  0009C2  D001               	goto	u6510
  2750  0009C4                     u6500:
  2751  0009C4  0E00               	movlw	0
  2752  0009C6                     u6510:
  2753  0009C6  0100               	movlb	0	; () banked
  2754  0009C8  6F6A               	movwf	_vfpfcnvrt$1725& (0+255),b
  2755  0009CA  6B6B               	clrf	(_vfpfcnvrt$1725+1)& (0+255),b
  2756                           
  2757                           ; BSR set to: 0
  2758  0009CC  516A               	movf	_vfpfcnvrt$1725& (0+255),w,b
  2759  0009CE  116B               	iorwf	(_vfpfcnvrt$1725+1)& (0+255),w,b
  2760  0009D0  A4D8               	btfss	status,2,c
  2761  0009D2  D7D5               	goto	l5611
  2762  0009D4                     u6520:
  2763                           
  2764                           ; BSR set to: 0
  2765                           ;/opt/microchip/xc8/v2.05/pic/sources/c99/common/doprnt.c: 740:         if ((*fmt)[0] ==
      +                           '.') {
  2766  0009D4  C062  FFD9         	movff	vfpfcnvrt@fmt,fsr2l
  2767  0009D8  C063  FFDA         	movff	vfpfcnvrt@fmt+1,fsr2h
  2768  0009DC  CFDE FFF6          	movff	postinc2,tblptrl
  2769  0009E0  CFDD FFF7          	movff	postdec2,tblptrh
  2770  0009E4                     	if	0	;tblptru may be non-zero
  2771  0009E4                     	endif
  2772  0009E4                     	if	0	;tblptru may be non-zero
  2773  0009E4                     	endif
  2774  0009E4  0008               	tblrd		*
  2775  0009E6  50F5               	movf	tablat,w,c
  2776  0009E8  0A2E               	xorlw	46
  2777  0009EA  A4D8               	btfss	status,2,c
  2778  0009EC  D06E               	goto	u6570
  2779                           
  2780                           ; BSR set to: 0
  2781                           ;/opt/microchip/xc8/v2.05/pic/sources/c99/common/doprnt.c: 741:             prec = 0;
  2782  0009EE  0E00               	movlw	0
  2783  0009F0  6E51               	movwf	_prec+1,c
  2784  0009F2  0E00               	movlw	0
  2785  0009F4  6E50               	movwf	_prec,c
  2786                           
  2787                           ; BSR set to: 0
  2788                           ;/opt/microchip/xc8/v2.05/pic/sources/c99/common/doprnt.c: 742:             ++*fmt;
  2789  0009F6  C062  FFD9         	movff	vfpfcnvrt@fmt,fsr2l
  2790  0009FA  C063  FFDA         	movff	vfpfcnvrt@fmt+1,fsr2h
  2791  0009FE  2ADE               	incf	postinc2,f,c
  2792  000A00  0E00               	movlw	0
  2793  000A02  22DD               	addwfc	postdec2,f,c
  2794                           
  2795                           ; BSR set to: 0
  2796                           ;/opt/microchip/xc8/v2.05/pic/sources/c99/common/doprnt.c: 743:             if ((*fmt)[0
      +                          ] == '*') {
  2797  000A04  C062  FFD9         	movff	vfpfcnvrt@fmt,fsr2l
  2798  000A08  C063  FFDA         	movff	vfpfcnvrt@fmt+1,fsr2h
  2799  000A0C  CFDE FFF6          	movff	postinc2,tblptrl
  2800  000A10  CFDD FFF7          	movff	postdec2,tblptrh
  2801  000A14                     	if	0	;tblptru may be non-zero
  2802  000A14                     	endif
  2803  000A14                     	if	0	;tblptru may be non-zero
  2804  000A14                     	endif
  2805  000A14  0008               	tblrd		*
  2806  000A16  50F5               	movf	tablat,w,c
  2807  000A18  0A2A               	xorlw	42
  2808  000A1A  A4D8               	btfss	status,2,c
  2809  000A1C  D01C               	goto	l5629
  2810                           
  2811                           ; BSR set to: 0
  2812                           ;/opt/microchip/xc8/v2.05/pic/sources/c99/common/doprnt.c: 744:                 ++*fmt;
  2813  000A1E  C062  FFD9         	movff	vfpfcnvrt@fmt,fsr2l
  2814  000A22  C063  FFDA         	movff	vfpfcnvrt@fmt+1,fsr2h
  2815  000A26  2ADE               	incf	postinc2,f,c
  2816  000A28  0E00               	movlw	0
  2817  000A2A  22DD               	addwfc	postdec2,f,c
  2818                           
  2819                           ;/opt/microchip/xc8/v2.05/pic/sources/c99/common/doprnt.c: 745:                 prec = (
      +                          *(int *)__va_arg(*(int **)ap, (int)0));
  2820  000A2C  C064  FFD9         	movff	vfpfcnvrt@ap,fsr2l
  2821  000A30  C065  FFDA         	movff	vfpfcnvrt@ap+1,fsr2h
  2822  000A34  CFDF F04A          	movff	indf2,??_vfpfcnvrt
  2823  000A38  0E02               	movlw	2
  2824  000A3A  26DE               	addwf	postinc2,f,c
  2825  000A3C  CFDF F04B          	movff	indf2,??_vfpfcnvrt+1
  2826  000A40  0E00               	movlw	0
  2827  000A42  22DD               	addwfc	postdec2,f,c
  2828  000A44  C04A  FFD9         	movff	??_vfpfcnvrt,fsr2l
  2829  000A48  C04B  FFDA         	movff	??_vfpfcnvrt+1,fsr2h
  2830  000A4C  CFDE F050          	movff	postinc2,_prec
  2831  000A50  CFDD F051          	movff	postdec2,_prec+1
  2832                           
  2833                           ;/opt/microchip/xc8/v2.05/pic/sources/c99/common/doprnt.c: 746:             } else {
  2834  000A54  D03A               	goto	u6570
  2835  000A56                     l5629:
  2836                           
  2837                           ; BSR set to: 0
  2838                           ;/opt/microchip/xc8/v2.05/pic/sources/c99/common/doprnt.c: 747:                 prec = a
      +                          toi(*fmt);
  2839  000A56  C062  FFD9         	movff	vfpfcnvrt@fmt,fsr2l
  2840  000A5A  C063  FFDA         	movff	vfpfcnvrt@fmt+1,fsr2h
  2841  000A5E  CFDE F00F          	movff	postinc2,atoi@s
  2842  000A62  CFDD F010          	movff	postdec2,atoi@s+1
  2843  000A66  EC04  F011         	call	_atoi	;wreg free
  2844  000A6A  C00F  F050         	movff	?_atoi,_prec
  2845  000A6E  C010  F051         	movff	?_atoi+1,_prec+1
  2846                           
  2847                           ;/opt/microchip/xc8/v2.05/pic/sources/c99/common/doprnt.c: 748:                 while ((
      +                          0 ? isdigit((*fmt)[0]) : ((unsigned)((*fmt)[0])-'0') < 10)) {
  2848  000A72  D007               	goto	l5633
  2849  000A74                     l5631:
  2850                           
  2851                           ; BSR set to: 0
  2852                           ;/opt/microchip/xc8/v2.05/pic/sources/c99/common/doprnt.c: 749:                     ++*f
      +                          mt;
  2853  000A74  C062  FFD9         	movff	vfpfcnvrt@fmt,fsr2l
  2854  000A78  C063  FFDA         	movff	vfpfcnvrt@fmt+1,fsr2h
  2855  000A7C  2ADE               	incf	postinc2,f,c
  2856  000A7E  0E00               	movlw	0
  2857  000A80  22DD               	addwfc	postdec2,f,c
  2858  000A82                     l5633:
  2859  000A82  0ED0               	movlw	208
  2860  000A84  6E4A               	movwf	??_vfpfcnvrt& (0+255),c
  2861  000A86  0EFF               	movlw	255
  2862  000A88  6E4B               	movwf	(??_vfpfcnvrt+1)& (0+255),c
  2863  000A8A  C062  FFD9         	movff	vfpfcnvrt@fmt,fsr2l
  2864  000A8E  C063  FFDA         	movff	vfpfcnvrt@fmt+1,fsr2h
  2865  000A92  CFDE FFF6          	movff	postinc2,tblptrl
  2866  000A96  CFDD FFF7          	movff	postdec2,tblptrh
  2867  000A9A                     	if	0	;tblptru may be non-zero
  2868  000A9A                     	endif
  2869  000A9A                     	if	0	;tblptru may be non-zero
  2870  000A9A                     	endif
  2871  000A9A  0008               	tblrd		*
  2872  000A9C  50F5               	movf	tablat,w,c
  2873  000A9E  6E4C               	movwf	(??_vfpfcnvrt+2)& (0+255),c
  2874  000AA0  6A4D               	clrf	(??_vfpfcnvrt+3)& (0+255),c
  2875  000AA2  504A               	movf	??_vfpfcnvrt,w,c
  2876  000AA4  264C               	addwf	??_vfpfcnvrt+2,f,c
  2877  000AA6  504B               	movf	??_vfpfcnvrt+1,w,c
  2878  000AA8  224D               	addwfc	??_vfpfcnvrt+3,f,c
  2879  000AAA  504D               	movf	??_vfpfcnvrt+3,w,c
  2880  000AAC  E106               	bnz	u6550
  2881  000AAE  0E0A               	movlw	10
  2882  000AB0  5C4C               	subwf	??_vfpfcnvrt+2,w,c
  2883  000AB2  B0D8               	btfsc	status,0,c
  2884  000AB4  D002               	goto	u6550
  2885  000AB6  0E01               	movlw	1
  2886  000AB8  D001               	goto	u6560
  2887  000ABA                     u6550:
  2888  000ABA  0E00               	movlw	0
  2889  000ABC                     u6560:
  2890  000ABC  0100               	movlb	0	; () banked
  2891  000ABE  6F6C               	movwf	_vfpfcnvrt$1726& (0+255),b
  2892  000AC0  6B6D               	clrf	(_vfpfcnvrt$1726+1)& (0+255),b
  2893                           
  2894                           ; BSR set to: 0
  2895  000AC2  516C               	movf	_vfpfcnvrt$1726& (0+255),w,b
  2896  000AC4  116D               	iorwf	(_vfpfcnvrt$1726+1)& (0+255),w,b
  2897  000AC6  A4D8               	btfss	status,2,c
  2898  000AC8  D7D5               	goto	l5631
  2899  000ACA                     u6570:
  2900                           
  2901                           ; BSR set to: 0
  2902                           ;/opt/microchip/xc8/v2.05/pic/sources/c99/common/doprnt.c: 792:         if (*fmt[0] == '
      +                          c') {
  2903  000ACA  C062  FFD9         	movff	vfpfcnvrt@fmt,fsr2l
  2904  000ACE  C063  FFDA         	movff	vfpfcnvrt@fmt+1,fsr2h
  2905  000AD2  CFDE FFF6          	movff	postinc2,tblptrl
  2906  000AD6  CFDD FFF7          	movff	postdec2,tblptrh
  2907  000ADA                     	if	0	;tblptru may be non-zero
  2908  000ADA                     	endif
  2909  000ADA                     	if	0	;tblptru may be non-zero
  2910  000ADA                     	endif
  2911  000ADA  0008               	tblrd		*
  2912  000ADC  50F5               	movf	tablat,w,c
  2913  000ADE  0A63               	xorlw	99
  2914  000AE0  A4D8               	btfss	status,2,c
  2915  000AE2  D026               	goto	l5647
  2916                           
  2917                           ; BSR set to: 0
  2918                           ;/opt/microchip/xc8/v2.05/pic/sources/c99/common/doprnt.c: 793:             ++*fmt;
  2919  000AE4  C062  FFD9         	movff	vfpfcnvrt@fmt,fsr2l
  2920  000AE8  C063  FFDA         	movff	vfpfcnvrt@fmt+1,fsr2h
  2921  000AEC  2ADE               	incf	postinc2,f,c
  2922  000AEE  0E00               	movlw	0
  2923  000AF0  22DD               	addwfc	postdec2,f,c
  2924                           
  2925                           ;/opt/microchip/xc8/v2.05/pic/sources/c99/common/doprnt.c: 794:             c = (unsigne
      +                          d char)(*(int *)__va_arg(*(int **)ap, (int)0));
  2926  000AF2  C064  FFD9         	movff	vfpfcnvrt@ap,fsr2l
  2927  000AF6  C065  FFDA         	movff	vfpfcnvrt@ap+1,fsr2h
  2928  000AFA  CFDF F04A          	movff	indf2,??_vfpfcnvrt
  2929  000AFE  0E02               	movlw	2
  2930  000B00  26DE               	addwf	postinc2,f,c
  2931  000B02  CFDF F04B          	movff	indf2,??_vfpfcnvrt+1
  2932  000B06  0E00               	movlw	0
  2933  000B08  22DD               	addwfc	postdec2,f,c
  2934  000B0A  C04A  FFD9         	movff	??_vfpfcnvrt,fsr2l
  2935  000B0E  C04B  FFDA         	movff	??_vfpfcnvrt+1,fsr2h
  2936  000B12  50DF               	movf	indf2,w,c
  2937  000B14  6F78               	movwf	vfpfcnvrt@c& (0+255),b
  2938                           
  2939                           ; BSR set to: 0
  2940                           ;/opt/microchip/xc8/v2.05/pic/sources/c99/common/doprnt.c: 795:             return ctoa(
      +                          fp, c);
  2941  000B16  C060  F023         	movff	vfpfcnvrt@fp,ctoa@fp
  2942  000B1A  C061  F024         	movff	vfpfcnvrt@fp+1,ctoa@fp+1
  2943  000B1E  C078  F025         	movff	vfpfcnvrt@c,ctoa@c
  2944  000B22  ECC1  F019         	call	_ctoa	;wreg free
  2945  000B26  C023  F060         	movff	?_ctoa,?_vfpfcnvrt
  2946  000B2A  C024  F061         	movff	?_ctoa+1,?_vfpfcnvrt+1
  2947  000B2E  0012               	return	
  2948  000B30                     l5647:
  2949                           
  2950                           ; BSR set to: 0
  2951                           ;/opt/microchip/xc8/v2.05/pic/sources/c99/common/doprnt.c: 802:         if (!strncmp(*fm
      +                          t, "hhd", ((sizeof("hhd")/sizeof("hhd"[0]))-1)) || !strncmp(*fmt, "hhi", ((sizeof("hhi")
      +                          /sizeof("hhi"[0]))-1))) {
  2952  000B30  C062  FFD9         	movff	vfpfcnvrt@fmt,fsr2l
  2953  000B34  C063  FFDA         	movff	vfpfcnvrt@fmt+1,fsr2h
  2954  000B38  CFDE F008          	movff	postinc2,strncmp@_l
  2955  000B3C  CFDD F009          	movff	postdec2,strncmp@_l+1
  2956  000B40  0E10               	movlw	low STR_2
  2957  000B42  6E0A               	movwf	strncmp@_r,c
  2958  000B44  0E08               	movlw	high STR_2
  2959  000B46  6E0B               	movwf	strncmp@_r+1,c
  2960  000B48  0E00               	movlw	0
  2961  000B4A  6E0D               	movwf	strncmp@n+1,c
  2962  000B4C  0E03               	movlw	3
  2963  000B4E  6E0C               	movwf	strncmp@n,c
  2964  000B50  EC5F  F016         	call	_strncmp	;wreg free
  2965  000B54  5008               	movf	?_strncmp,w,c
  2966  000B56  1009               	iorwf	?_strncmp+1,w,c
  2967  000B58  B4D8               	btfsc	status,2,c
  2968  000B5A  D016               	goto	u6600
  2969  000B5C  C062  FFD9         	movff	vfpfcnvrt@fmt,fsr2l
  2970  000B60  C063  FFDA         	movff	vfpfcnvrt@fmt+1,fsr2h
  2971  000B64  CFDE F008          	movff	postinc2,strncmp@_l
  2972  000B68  CFDD F009          	movff	postdec2,strncmp@_l+1
  2973  000B6C  0E14               	movlw	low STR_6
  2974  000B6E  6E0A               	movwf	strncmp@_r,c
  2975  000B70  0E08               	movlw	high STR_6
  2976  000B72  6E0B               	movwf	strncmp@_r+1,c
  2977  000B74  0E00               	movlw	0
  2978  000B76  6E0D               	movwf	strncmp@n+1,c
  2979  000B78  0E03               	movlw	3
  2980  000B7A  6E0C               	movwf	strncmp@n,c
  2981  000B7C  EC5F  F016         	call	_strncmp	;wreg free
  2982  000B80  5008               	movf	?_strncmp,w,c
  2983  000B82  1009               	iorwf	?_strncmp+1,w,c
  2984  000B84  A4D8               	btfss	status,2,c
  2985  000B86  D040               	goto	l5657
  2986  000B88                     u6600:
  2987                           
  2988                           ;/opt/microchip/xc8/v2.05/pic/sources/c99/common/doprnt.c: 803: ;/opt/microchip/xc8/v2.0
      +                          5/pic/sources/c99/common/doprnt.c: 805:             *fmt += ((sizeof("hhd")/sizeof("hhd"
      +                          [0]))-1);
  2989  000B88  0E03               	movlw	3
  2990  000B8A  C062  FFD9         	movff	vfpfcnvrt@fmt,fsr2l
  2991  000B8E  C063  FFDA         	movff	vfpfcnvrt@fmt+1,fsr2h
  2992  000B92  26DE               	addwf	postinc2,f,c
  2993  000B94  0E00               	movlw	0
  2994  000B96  22DD               	addwfc	postdec2,f,c
  2995                           
  2996                           ;/opt/microchip/xc8/v2.05/pic/sources/c99/common/doprnt.c: 806:             ll = (long l
      +                          ong)(signed char)(*(int *)__va_arg(*(int **)ap, (int)0));
  2997  000B98  C064  FFD9         	movff	vfpfcnvrt@ap,fsr2l
  2998  000B9C  C065  FFDA         	movff	vfpfcnvrt@ap+1,fsr2h
  2999  000BA0  CFDF F04A          	movff	indf2,??_vfpfcnvrt
  3000  000BA4  0E02               	movlw	2
  3001  000BA6  26DE               	addwf	postinc2,f,c
  3002  000BA8  CFDF F04B          	movff	indf2,??_vfpfcnvrt+1
  3003  000BAC  0E00               	movlw	0
  3004  000BAE  22DD               	addwfc	postdec2,f,c
  3005  000BB0  C04A  FFD9         	movff	??_vfpfcnvrt,fsr2l
  3006  000BB4  C04B  FFDA         	movff	??_vfpfcnvrt+1,fsr2h
  3007  000BB8  50DF               	movf	indf2,w,c
  3008  000BBA  0100               	movlb	0	; () banked
  3009  000BBC  6F6E               	movwf	vfpfcnvrt@ll& (0+255),b
  3010  000BBE  0E00               	movlw	0
  3011  000BC0  BF6E               	btfsc	vfpfcnvrt@ll& (0+255),7,b
  3012  000BC2  0EFF               	movlw	-1
  3013  000BC4  6F6F               	movwf	(vfpfcnvrt@ll+1)& (0+255),b
  3014  000BC6                     L5:
  3015  000BC6  6F70               	movwf	(vfpfcnvrt@ll+2)& (0+255),b
  3016  000BC8  6F71               	movwf	(vfpfcnvrt@ll+3)& (0+255),b
  3017  000BCA  6F72               	movwf	(vfpfcnvrt@ll+4)& (0+255),b
  3018  000BCC  6F73               	movwf	(vfpfcnvrt@ll+5)& (0+255),b
  3019  000BCE  6F74               	movwf	(vfpfcnvrt@ll+6)& (0+255),b
  3020  000BD0  6F75               	movwf	(vfpfcnvrt@ll+7)& (0+255),b
  3021  000BD2                     l5653:
  3022                           
  3023                           ; BSR set to: 0
  3024                           ;/opt/microchip/xc8/v2.05/pic/sources/c99/common/doprnt.c: 808:             return dtoa(
      +                          fp, ll);
  3025  000BD2  C060  F023         	movff	vfpfcnvrt@fp,dtoa@fp
  3026  000BD6  C061  F024         	movff	vfpfcnvrt@fp+1,dtoa@fp+1
  3027  000BDA  C06E  F025         	movff	vfpfcnvrt@ll,dtoa@d
  3028  000BDE  C06F  F026         	movff	vfpfcnvrt@ll+1,dtoa@d+1
  3029  000BE2  C070  F027         	movff	vfpfcnvrt@ll+2,dtoa@d+2
  3030  000BE6  C071  F028         	movff	vfpfcnvrt@ll+3,dtoa@d+3
  3031  000BEA  C072  F029         	movff	vfpfcnvrt@ll+4,dtoa@d+4
  3032  000BEE  C073  F02A         	movff	vfpfcnvrt@ll+5,dtoa@d+5
  3033  000BF2  C074  F02B         	movff	vfpfcnvrt@ll+6,dtoa@d+6
  3034  000BF6  C075  F02C         	movff	vfpfcnvrt@ll+7,dtoa@d+7
  3035  000BFA  ECDC  F00A         	call	_dtoa	;wreg free
  3036  000BFE  C023  F060         	movff	?_dtoa,?_vfpfcnvrt
  3037  000C02  C024  F061         	movff	?_dtoa+1,?_vfpfcnvrt+1
  3038  000C06  0012               	return	
  3039  000C08                     l5657:
  3040                           
  3041                           ;/opt/microchip/xc8/v2.05/pic/sources/c99/common/doprnt.c: 814:         if (!strncmp(*fm
      +                          t, "hd", ((sizeof("hd")/sizeof("hd"[0]))-1)) || !strncmp(*fmt, "hi", ((sizeof("hi")/size
      +                          of("hi"[0]))-1))) {
  3042  000C08  C062  FFD9         	movff	vfpfcnvrt@fmt,fsr2l
  3043  000C0C  C063  FFDA         	movff	vfpfcnvrt@fmt+1,fsr2h
  3044  000C10  CFDE F008          	movff	postinc2,strncmp@_l
  3045  000C14  CFDD F009          	movff	postdec2,strncmp@_l+1
  3046  000C18  0E11               	movlw	low (STR_2+1)
  3047  000C1A  6E0A               	movwf	strncmp@_r,c
  3048  000C1C  0E08               	movlw	high (STR_2+1)
  3049  000C1E  6E0B               	movwf	strncmp@_r+1,c
  3050  000C20  0E00               	movlw	0
  3051  000C22  6E0D               	movwf	strncmp@n+1,c
  3052  000C24  0E02               	movlw	2
  3053  000C26  6E0C               	movwf	strncmp@n,c
  3054  000C28  EC5F  F016         	call	_strncmp	;wreg free
  3055  000C2C  5008               	movf	?_strncmp,w,c
  3056  000C2E  1009               	iorwf	?_strncmp+1,w,c
  3057  000C30  B4D8               	btfsc	status,2,c
  3058  000C32  D016               	goto	u6620
  3059  000C34  C062  FFD9         	movff	vfpfcnvrt@fmt,fsr2l
  3060  000C38  C063  FFDA         	movff	vfpfcnvrt@fmt+1,fsr2h
  3061  000C3C  CFDE F008          	movff	postinc2,strncmp@_l
  3062  000C40  CFDD F009          	movff	postdec2,strncmp@_l+1
  3063  000C44  0E15               	movlw	low (STR_6+1)
  3064  000C46  6E0A               	movwf	strncmp@_r,c
  3065  000C48  0E08               	movlw	high (STR_6+1)
  3066  000C4A  6E0B               	movwf	strncmp@_r+1,c
  3067  000C4C  0E00               	movlw	0
  3068  000C4E  6E0D               	movwf	strncmp@n+1,c
  3069  000C50  0E02               	movlw	2
  3070  000C52  6E0C               	movwf	strncmp@n,c
  3071  000C54  EC5F  F016         	call	_strncmp	;wreg free
  3072  000C58  5008               	movf	?_strncmp,w,c
  3073  000C5A  1009               	iorwf	?_strncmp+1,w,c
  3074  000C5C  A4D8               	btfss	status,2,c
  3075  000C5E  D007               	goto	l5667
  3076  000C60                     u6620:
  3077                           
  3078                           ;/opt/microchip/xc8/v2.05/pic/sources/c99/common/doprnt.c: 815: ;/opt/microchip/xc8/v2.0
      +                          5/pic/sources/c99/common/doprnt.c: 817:             *fmt += ((sizeof("hd")/sizeof("hd"[0
      +                          ]))-1);
  3079  000C60  0E02               	movlw	2
  3080  000C62  C062  FFD9         	movff	vfpfcnvrt@fmt,fsr2l
  3081  000C66  C063  FFDA         	movff	vfpfcnvrt@fmt+1,fsr2h
  3082  000C6A  26DE               	addwf	postinc2,f,c
  3083  000C6C  D01F               	goto	L10
  3084  000C6E                     l5667:
  3085                           
  3086                           ;/opt/microchip/xc8/v2.05/pic/sources/c99/common/doprnt.c: 825:         if ((*fmt[0] == 
      +                          'd') || (*fmt[0] == 'i')) {
  3087  000C6E  C062  FFD9         	movff	vfpfcnvrt@fmt,fsr2l
  3088  000C72  C063  FFDA         	movff	vfpfcnvrt@fmt+1,fsr2h
  3089  000C76  CFDE FFF6          	movff	postinc2,tblptrl
  3090  000C7A  CFDD FFF7          	movff	postdec2,tblptrh
  3091  000C7E                     	if	0	;tblptru may be non-zero
  3092  000C7E                     	endif
  3093  000C7E                     	if	0	;tblptru may be non-zero
  3094  000C7E                     	endif
  3095  000C7E  0008               	tblrd		*
  3096  000C80  50F5               	movf	tablat,w,c
  3097  000C82  0A64               	xorlw	100
  3098  000C84  B4D8               	btfsc	status,2,c
  3099  000C86  D00D               	goto	u6640
  3100  000C88  C062  FFD9         	movff	vfpfcnvrt@fmt,fsr2l
  3101  000C8C  C063  FFDA         	movff	vfpfcnvrt@fmt+1,fsr2h
  3102  000C90  CFDE FFF6          	movff	postinc2,tblptrl
  3103  000C94  CFDD FFF7          	movff	postdec2,tblptrh
  3104  000C98                     	if	0	;tblptru may be non-zero
  3105  000C98                     	endif
  3106  000C98                     	if	0	;tblptru may be non-zero
  3107  000C98                     	endif
  3108  000C98  0008               	tblrd		*
  3109  000C9A  50F5               	movf	tablat,w,c
  3110  000C9C  0A69               	xorlw	105
  3111  000C9E  A4D8               	btfss	status,2,c
  3112  000CA0  D020               	goto	l5677
  3113  000CA2                     u6640:
  3114                           
  3115                           ;/opt/microchip/xc8/v2.05/pic/sources/c99/common/doprnt.c: 827:             ++*fmt;
  3116  000CA2  C062  FFD9         	movff	vfpfcnvrt@fmt,fsr2l
  3117  000CA6  C063  FFDA         	movff	vfpfcnvrt@fmt+1,fsr2h
  3118  000CAA  2ADE               	incf	postinc2,f,c
  3119  000CAC                     L10:
  3120  000CAC  0E00               	movlw	0
  3121  000CAE  22DD               	addwfc	postdec2,f,c
  3122                           
  3123                           ;/opt/microchip/xc8/v2.05/pic/sources/c99/common/doprnt.c: 828:             ll = (long l
      +                          ong)(*(int *)__va_arg(*(int **)ap, (int)0));
  3124  000CB0  C064  FFD9         	movff	vfpfcnvrt@ap,fsr2l
  3125  000CB4  C065  FFDA         	movff	vfpfcnvrt@ap+1,fsr2h
  3126  000CB8  CFDF F04A          	movff	indf2,??_vfpfcnvrt
  3127  000CBC  0E02               	movlw	2
  3128  000CBE  26DE               	addwf	postinc2,f,c
  3129  000CC0  CFDF F04B          	movff	indf2,??_vfpfcnvrt+1
  3130  000CC4  0E00               	movlw	0
  3131  000CC6  22DD               	addwfc	postdec2,f,c
  3132  000CC8  C04A  FFD9         	movff	??_vfpfcnvrt,fsr2l
  3133  000CCC  C04B  FFDA         	movff	??_vfpfcnvrt+1,fsr2h
  3134  000CD0  CFDE F06E          	movff	postinc2,vfpfcnvrt@ll
  3135  000CD4  CFDD F06F          	movff	postdec2,vfpfcnvrt@ll+1
  3136  000CD8  0100               	movlb	0	; () banked
  3137  000CDA  0E00               	movlw	0
  3138  000CDC  BF6F               	btfsc	(vfpfcnvrt@ll+1)& (0+255),7,b
  3139  000CDE  0EFF               	movlw	-1
  3140  000CE0  D772               	goto	L5
  3141  000CE2                     l5677:
  3142                           
  3143                           ;/opt/microchip/xc8/v2.05/pic/sources/c99/common/doprnt.c: 883:         if (!strncmp(*fm
      +                          t, "zd", ((sizeof("zd")/sizeof("zd"[0]))-1)) || !strncmp(*fmt, "zi", ((sizeof("zi")/size
      +                          of("zi"[0]))-1))) {
  3144  000CE2  C062  FFD9         	movff	vfpfcnvrt@fmt,fsr2l
  3145  000CE6  C063  FFDA         	movff	vfpfcnvrt@fmt+1,fsr2h
  3146  000CEA  CFDE F008          	movff	postinc2,strncmp@_l
  3147  000CEE  CFDD F009          	movff	postdec2,strncmp@_l+1
  3148  000CF2  0E2B               	movlw	low STR_20
  3149  000CF4  6E0A               	movwf	strncmp@_r,c
  3150  000CF6  0E08               	movlw	high STR_20
  3151  000CF8  6E0B               	movwf	strncmp@_r+1,c
  3152  000CFA  0E00               	movlw	0
  3153  000CFC  6E0D               	movwf	strncmp@n+1,c
  3154  000CFE  0E02               	movlw	2
  3155  000D00  6E0C               	movwf	strncmp@n,c
  3156  000D02  EC5F  F016         	call	_strncmp	;wreg free
  3157  000D06  5008               	movf	?_strncmp,w,c
  3158  000D08  1009               	iorwf	?_strncmp+1,w,c
  3159  000D0A  B4D8               	btfsc	status,2,c
  3160  000D0C  D016               	goto	u6660
  3161  000D0E  C062  FFD9         	movff	vfpfcnvrt@fmt,fsr2l
  3162  000D12  C063  FFDA         	movff	vfpfcnvrt@fmt+1,fsr2h
  3163  000D16  CFDE F008          	movff	postinc2,strncmp@_l
  3164  000D1A  CFDD F009          	movff	postdec2,strncmp@_l+1
  3165  000D1E  0E2E               	movlw	low STR_24
  3166  000D20  6E0A               	movwf	strncmp@_r,c
  3167  000D22  0E08               	movlw	high STR_24
  3168  000D24  6E0B               	movwf	strncmp@_r+1,c
  3169  000D26  0E00               	movlw	0
  3170  000D28  6E0D               	movwf	strncmp@n+1,c
  3171  000D2A  0E02               	movlw	2
  3172  000D2C  6E0C               	movwf	strncmp@n,c
  3173  000D2E  EC5F  F016         	call	_strncmp	;wreg free
  3174  000D32  5008               	movf	?_strncmp,w,c
  3175  000D34  1009               	iorwf	?_strncmp+1,w,c
  3176  000D36  A4D8               	btfss	status,2,c
  3177  000D38  D028               	goto	l5687
  3178  000D3A                     u6660:
  3179                           
  3180                           ;/opt/microchip/xc8/v2.05/pic/sources/c99/common/doprnt.c: 884: ;/opt/microchip/xc8/v2.0
      +                          5/pic/sources/c99/common/doprnt.c: 886:             *fmt += ((sizeof("zd")/sizeof("zd"[0
      +                          ]))-1);
  3181  000D3A  0E02               	movlw	2
  3182  000D3C  C062  FFD9         	movff	vfpfcnvrt@fmt,fsr2l
  3183  000D40  C063  FFDA         	movff	vfpfcnvrt@fmt+1,fsr2h
  3184  000D44  26DE               	addwf	postinc2,f,c
  3185  000D46  0E00               	movlw	0
  3186  000D48  22DD               	addwfc	postdec2,f,c
  3187                           
  3188                           ;/opt/microchip/xc8/v2.05/pic/sources/c99/common/doprnt.c: 887:             ll = (long l
      +                          ong)(*(size_t *)__va_arg(*(size_t **)ap, (size_t)0));
  3189  000D4A  C064  FFD9         	movff	vfpfcnvrt@ap,fsr2l
  3190  000D4E  C065  FFDA         	movff	vfpfcnvrt@ap+1,fsr2h
  3191  000D52  CFDF F04A          	movff	indf2,??_vfpfcnvrt
  3192  000D56  0E02               	movlw	2
  3193  000D58  26DE               	addwf	postinc2,f,c
  3194  000D5A  CFDF F04B          	movff	indf2,??_vfpfcnvrt+1
  3195  000D5E  0E00               	movlw	0
  3196  000D60  22DD               	addwfc	postdec2,f,c
  3197  000D62  C04A  FFD9         	movff	??_vfpfcnvrt,fsr2l
  3198  000D66  C04B  FFDA         	movff	??_vfpfcnvrt+1,fsr2h
  3199  000D6A  CFDE F04C          	movff	postinc2,??_vfpfcnvrt+2
  3200  000D6E  CFDD F04D          	movff	postdec2,??_vfpfcnvrt+3
  3201  000D72  C04C  F06E         	movff	??_vfpfcnvrt+2,vfpfcnvrt@ll
  3202  000D76  C04D  F06F         	movff	??_vfpfcnvrt+3,vfpfcnvrt@ll+1
  3203  000D7A  0100               	movlb	0	; () banked
  3204  000D7C  6B70               	clrf	(vfpfcnvrt@ll+2)& (0+255),b
  3205  000D7E  6B71               	clrf	(vfpfcnvrt@ll+3)& (0+255),b
  3206  000D80  6B72               	clrf	(vfpfcnvrt@ll+4)& (0+255),b
  3207  000D82  6B73               	clrf	(vfpfcnvrt@ll+5)& (0+255),b
  3208  000D84  6B74               	clrf	(vfpfcnvrt@ll+6)& (0+255),b
  3209  000D86  6B75               	clrf	(vfpfcnvrt@ll+7)& (0+255),b
  3210  000D88  D724               	goto	l5653
  3211  000D8A                     l5687:
  3212                           
  3213                           ;/opt/microchip/xc8/v2.05/pic/sources/c99/common/doprnt.c: 969:         if (!strncmp(*fm
      +                          t, "hho", ((sizeof("hho")/sizeof("hho"[0]))-1))) {
  3214  000D8A  C062  FFD9         	movff	vfpfcnvrt@fmt,fsr2l
  3215  000D8E  C063  FFDA         	movff	vfpfcnvrt@fmt+1,fsr2h
  3216  000D92  CFDE F008          	movff	postinc2,strncmp@_l
  3217  000D96  CFDD F009          	movff	postdec2,strncmp@_l+1
  3218  000D9A  0E1C               	movlw	low STR_29
  3219  000D9C  6E0A               	movwf	strncmp@_r,c
  3220  000D9E  0E08               	movlw	high STR_29
  3221  000DA0  6E0B               	movwf	strncmp@_r+1,c
  3222  000DA2  0E00               	movlw	0
  3223  000DA4  6E0D               	movwf	strncmp@n+1,c
  3224  000DA6  0E03               	movlw	3
  3225  000DA8  6E0C               	movwf	strncmp@n,c
  3226  000DAA  EC5F  F016         	call	_strncmp	;wreg free
  3227  000DAE  5008               	movf	?_strncmp,w,c
  3228  000DB0  1009               	iorwf	?_strncmp+1,w,c
  3229  000DB2  A4D8               	btfss	status,2,c
  3230  000DB4  D03F               	goto	l5695
  3231                           
  3232                           ;/opt/microchip/xc8/v2.05/pic/sources/c99/common/doprnt.c: 971:             *fmt += ((si
      +                          zeof("hho")/sizeof("hho"[0]))-1);
  3233  000DB6  0E03               	movlw	3
  3234  000DB8  C062  FFD9         	movff	vfpfcnvrt@fmt,fsr2l
  3235  000DBC  C063  FFDA         	movff	vfpfcnvrt@fmt+1,fsr2h
  3236  000DC0  26DE               	addwf	postinc2,f,c
  3237  000DC2  0E00               	movlw	0
  3238  000DC4  22DD               	addwfc	postdec2,f,c
  3239                           
  3240                           ;/opt/microchip/xc8/v2.05/pic/sources/c99/common/doprnt.c: 972:             llu = (unsig
      +                          ned long long)(unsigned char)(*(int *)__va_arg(*(int **)ap, (int)0));
  3241  000DC6  C064  FFD9         	movff	vfpfcnvrt@ap,fsr2l
  3242  000DCA  C065  FFDA         	movff	vfpfcnvrt@ap+1,fsr2h
  3243  000DCE  CFDF F04A          	movff	indf2,??_vfpfcnvrt
  3244  000DD2  0E02               	movlw	2
  3245  000DD4  26DE               	addwf	postinc2,f,c
  3246  000DD6  CFDF F04B          	movff	indf2,??_vfpfcnvrt+1
  3247  000DDA  0E00               	movlw	0
  3248  000DDC  22DD               	addwfc	postdec2,f,c
  3249  000DDE  C04A  FFD9         	movff	??_vfpfcnvrt,fsr2l
  3250  000DE2  C04B  FFDA         	movff	??_vfpfcnvrt+1,fsr2h
  3251  000DE6  50DF               	movf	indf2,w,c
  3252  000DE8  6E4C               	movwf	(??_vfpfcnvrt+2)& (0+255),c
  3253  000DEA  504C               	movf	??_vfpfcnvrt+2,w,c
  3254  000DEC  0100               	movlb	0	; () banked
  3255  000DEE  6F79               	movwf	vfpfcnvrt@llu& (0+255),b
  3256  000DF0  6B7A               	clrf	(vfpfcnvrt@llu+1)& (0+255),b
  3257  000DF2                     L6:
  3258  000DF2  6B7B               	clrf	(vfpfcnvrt@llu+2)& (0+255),b
  3259  000DF4  6B7C               	clrf	(vfpfcnvrt@llu+3)& (0+255),b
  3260  000DF6  6B7D               	clrf	(vfpfcnvrt@llu+4)& (0+255),b
  3261  000DF8  6B7E               	clrf	(vfpfcnvrt@llu+5)& (0+255),b
  3262  000DFA  6B7F               	clrf	(vfpfcnvrt@llu+6)& (0+255),b
  3263  000DFC  6B80               	clrf	(vfpfcnvrt@llu+7)& (0+255),b
  3264                           
  3265                           ; BSR set to: 0
  3266                           ;/opt/microchip/xc8/v2.05/pic/sources/c99/common/doprnt.c: 974:             return otoa(
      +                          fp, llu);
  3267  000DFE  C060  F023         	movff	vfpfcnvrt@fp,otoa@fp
  3268  000E02  C061  F024         	movff	vfpfcnvrt@fp+1,otoa@fp+1
  3269  000E06  C079  F025         	movff	vfpfcnvrt@llu,otoa@d
  3270  000E0A  C07A  F026         	movff	vfpfcnvrt@llu+1,otoa@d+1
  3271  000E0E  C07B  F027         	movff	vfpfcnvrt@llu+2,otoa@d+2
  3272  000E12  C07C  F028         	movff	vfpfcnvrt@llu+3,otoa@d+3
  3273  000E16  C07D  F029         	movff	vfpfcnvrt@llu+4,otoa@d+4
  3274  000E1A  C07E  F02A         	movff	vfpfcnvrt@llu+5,otoa@d+5
  3275  000E1E  C07F  F02B         	movff	vfpfcnvrt@llu+6,otoa@d+6
  3276  000E22  C080  F02C         	movff	vfpfcnvrt@llu+7,otoa@d+7
  3277  000E26  ECA1  F00F         	call	_otoa	;wreg free
  3278  000E2A  C023  F060         	movff	?_otoa,?_vfpfcnvrt
  3279  000E2E  C024  F061         	movff	?_otoa+1,?_vfpfcnvrt+1
  3280  000E32  0012               	return	
  3281  000E34                     l5695:
  3282                           
  3283                           ;/opt/microchip/xc8/v2.05/pic/sources/c99/common/doprnt.c: 980:         if (!strncmp(*fm
      +                          t, "ho", ((sizeof("ho")/sizeof("ho"[0]))-1))) {
  3284  000E34  C062  FFD9         	movff	vfpfcnvrt@fmt,fsr2l
  3285  000E38  C063  FFDA         	movff	vfpfcnvrt@fmt+1,fsr2h
  3286  000E3C  CFDE F008          	movff	postinc2,strncmp@_l
  3287  000E40  CFDD F009          	movff	postdec2,strncmp@_l+1
  3288  000E44  0E1D               	movlw	low (STR_29+1)
  3289  000E46  6E0A               	movwf	strncmp@_r,c
  3290  000E48  0E08               	movlw	high (STR_29+1)
  3291  000E4A  6E0B               	movwf	strncmp@_r+1,c
  3292  000E4C  0E00               	movlw	0
  3293  000E4E  6E0D               	movwf	strncmp@n+1,c
  3294  000E50  0E02               	movlw	2
  3295  000E52  6E0C               	movwf	strncmp@n,c
  3296  000E54  EC5F  F016         	call	_strncmp	;wreg free
  3297  000E58  5008               	movf	?_strncmp,w,c
  3298  000E5A  1009               	iorwf	?_strncmp+1,w,c
  3299  000E5C  B4D8               	btfsc	status,2,c
  3300  000E5E  D029               	goto	u6700
  3301                           
  3302                           ;/opt/microchip/xc8/v2.05/pic/sources/c99/common/doprnt.c: 990:         if (*fmt[0] == '
      +                          o') {
  3303                           
  3304                           ;/opt/microchip/xc8/v2.05/pic/sources/c99/common/doprnt.c: 983:             llu = (unsig
      +                          ned long long)(unsigned short)(*(int *)__va_arg(*(int **)ap, (int)0));
  3305                           
  3306                           ;/opt/microchip/xc8/v2.05/pic/sources/c99/common/doprnt.c: 982:             *fmt += ((si
      +                          zeof("ho")/sizeof("ho"[0]))-1);
  3307  000E60  C062  FFD9         	movff	vfpfcnvrt@fmt,fsr2l
  3308  000E64  C063  FFDA         	movff	vfpfcnvrt@fmt+1,fsr2h
  3309  000E68  CFDE FFF6          	movff	postinc2,tblptrl
  3310  000E6C  CFDD FFF7          	movff	postdec2,tblptrh
  3311  000E70                     	if	0	;tblptru may be non-zero
  3312  000E70                     	endif
  3313  000E70                     	if	0	;tblptru may be non-zero
  3314  000E70                     	endif
  3315  000E70  0008               	tblrd		*
  3316  000E72  50F5               	movf	tablat,w,c
  3317  000E74  0A6F               	xorlw	111
  3318  000E76  A4D8               	btfss	status,2,c
  3319  000E78  D006               	goto	l5711
  3320                           
  3321                           ;/opt/microchip/xc8/v2.05/pic/sources/c99/common/doprnt.c: 992:             ++*fmt;
  3322  000E7A  C062  FFD9         	movff	vfpfcnvrt@fmt,fsr2l
  3323  000E7E  C063  FFDA         	movff	vfpfcnvrt@fmt+1,fsr2h
  3324  000E82  2ADE               	incf	postinc2,f,c
  3325  000E84  D01C               	goto	L12
  3326  000E86                     l5711:
  3327                           
  3328                           ;/opt/microchip/xc8/v2.05/pic/sources/c99/common/doprnt.c: 1044:         if (!strncmp(*f
      +                          mt, "zo", ((sizeof("zo")/sizeof("zo"[0]))-1))) {
  3329  000E86  C062  FFD9         	movff	vfpfcnvrt@fmt,fsr2l
  3330  000E8A  C063  FFDA         	movff	vfpfcnvrt@fmt+1,fsr2h
  3331  000E8E  CFDE F008          	movff	postinc2,strncmp@_l
  3332  000E92  CFDD F009          	movff	postdec2,strncmp@_l+1
  3333  000E96  0E34               	movlw	low STR_39
  3334  000E98  6E0A               	movwf	strncmp@_r,c
  3335  000E9A  0E08               	movlw	high STR_39
  3336  000E9C  6E0B               	movwf	strncmp@_r+1,c
  3337  000E9E  0E00               	movlw	0
  3338  000EA0  6E0D               	movwf	strncmp@n+1,c
  3339  000EA2  0E02               	movlw	2
  3340  000EA4  6E0C               	movwf	strncmp@n,c
  3341  000EA6  EC5F  F016         	call	_strncmp	;wreg free
  3342  000EAA  5008               	movf	?_strncmp,w,c
  3343  000EAC  1009               	iorwf	?_strncmp+1,w,c
  3344  000EAE  A4D8               	btfss	status,2,c
  3345  000EB0  D022               	goto	l5719
  3346  000EB2                     u6700:
  3347                           
  3348                           ;/opt/microchip/xc8/v2.05/pic/sources/c99/common/doprnt.c: 1046:             *fmt += ((s
      +                          izeof("zo")/sizeof("zo"[0]))-1);
  3349  000EB2  0E02               	movlw	2
  3350  000EB4  C062  FFD9         	movff	vfpfcnvrt@fmt,fsr2l
  3351  000EB8  C063  FFDA         	movff	vfpfcnvrt@fmt+1,fsr2h
  3352  000EBC  26DE               	addwf	postinc2,f,c
  3353  000EBE                     L12:
  3354  000EBE  0E00               	movlw	0
  3355  000EC0  22DD               	addwfc	postdec2,f,c
  3356                           
  3357                           ;/opt/microchip/xc8/v2.05/pic/sources/c99/common/doprnt.c: 1047:             llu = (unsi
      +                          gned long long)(*(size_t *)__va_arg(*(size_t **)ap, (size_t)0));
  3358  000EC2  C064  FFD9         	movff	vfpfcnvrt@ap,fsr2l
  3359  000EC6  C065  FFDA         	movff	vfpfcnvrt@ap+1,fsr2h
  3360  000ECA  CFDF F04A          	movff	indf2,??_vfpfcnvrt
  3361  000ECE  0E02               	movlw	2
  3362  000ED0  26DE               	addwf	postinc2,f,c
  3363  000ED2  CFDF F04B          	movff	indf2,??_vfpfcnvrt+1
  3364  000ED6  0E00               	movlw	0
  3365  000ED8  22DD               	addwfc	postdec2,f,c
  3366  000EDA  C04A  FFD9         	movff	??_vfpfcnvrt,fsr2l
  3367  000EDE  C04B  FFDA         	movff	??_vfpfcnvrt+1,fsr2h
  3368  000EE2  CFDE F04C          	movff	postinc2,??_vfpfcnvrt+2
  3369  000EE6  CFDD F04D          	movff	postdec2,??_vfpfcnvrt+3
  3370  000EEA  C04C  F079         	movff	??_vfpfcnvrt+2,vfpfcnvrt@llu
  3371  000EEE  C04D  F07A         	movff	??_vfpfcnvrt+3,vfpfcnvrt@llu+1
  3372  000EF2  0100               	movlb	0	; () banked
  3373  000EF4  D77E               	goto	L6
  3374  000EF6                     l5719:
  3375                           
  3376                           ;/opt/microchip/xc8/v2.05/pic/sources/c99/common/doprnt.c: 1058:         if (!strncmp(*f
      +                          mt, "hhn", ((sizeof("hhn")/sizeof("hhn"[0]))-1))) {
  3377  000EF6  C062  FFD9         	movff	vfpfcnvrt@fmt,fsr2l
  3378  000EFA  C063  FFDA         	movff	vfpfcnvrt@fmt+1,fsr2h
  3379  000EFE  CFDE F008          	movff	postinc2,strncmp@_l
  3380  000F02  CFDD F009          	movff	postdec2,strncmp@_l+1
  3381  000F06  0E18               	movlw	low STR_44
  3382  000F08  6E0A               	movwf	strncmp@_r,c
  3383  000F0A  0E08               	movlw	high STR_44
  3384  000F0C  6E0B               	movwf	strncmp@_r+1,c
  3385  000F0E  0E00               	movlw	0
  3386  000F10  6E0D               	movwf	strncmp@n+1,c
  3387  000F12  0E03               	movlw	3
  3388  000F14  6E0C               	movwf	strncmp@n,c
  3389  000F16  EC5F  F016         	call	_strncmp	;wreg free
  3390  000F1A  5008               	movf	?_strncmp,w,c
  3391  000F1C  1009               	iorwf	?_strncmp+1,w,c
  3392  000F1E  A4D8               	btfss	status,2,c
  3393  000F20  D028               	goto	l5729
  3394                           
  3395                           ;/opt/microchip/xc8/v2.05/pic/sources/c99/common/doprnt.c: 1060:             *fmt += ((s
      +                          izeof("hhn")/sizeof("hhn"[0]))-1);
  3396  000F22  0E03               	movlw	3
  3397  000F24  C062  FFD9         	movff	vfpfcnvrt@fmt,fsr2l
  3398  000F28  C063  FFDA         	movff	vfpfcnvrt@fmt+1,fsr2h
  3399  000F2C  26DE               	addwf	postinc2,f,c
  3400  000F2E  0E00               	movlw	0
  3401  000F30  22DD               	addwfc	postdec2,f,c
  3402                           
  3403                           ;/opt/microchip/xc8/v2.05/pic/sources/c99/common/doprnt.c: 1061:             vp = (void 
      +                          *)(*(char * *)__va_arg(*(char * **)ap, (char *)0));
  3404  000F32  C064  FFD9         	movff	vfpfcnvrt@ap,fsr2l
  3405  000F36  C065  FFDA         	movff	vfpfcnvrt@ap+1,fsr2h
  3406  000F3A  CFDF F04A          	movff	indf2,??_vfpfcnvrt
  3407  000F3E  0E02               	movlw	2
  3408  000F40  26DE               	addwf	postinc2,f,c
  3409  000F42  CFDF F04B          	movff	indf2,??_vfpfcnvrt+1
  3410  000F46  0E00               	movlw	0
  3411  000F48  22DD               	addwfc	postdec2,f,c
  3412  000F4A  C04A  FFD9         	movff	??_vfpfcnvrt,fsr2l
  3413  000F4E  C04B  FFDA         	movff	??_vfpfcnvrt+1,fsr2h
  3414  000F52  CFDE F076          	movff	postinc2,vfpfcnvrt@vp
  3415  000F56  CFDD F077          	movff	postdec2,vfpfcnvrt@vp+1
  3416                           
  3417                           ;/opt/microchip/xc8/v2.05/pic/sources/c99/common/doprnt.c: 1062:             *(char *)vp
      +                           = (char)nout;
  3418  000F5A  C076  FFD9         	movff	vfpfcnvrt@vp,fsr2l
  3419  000F5E  C077  FFDA         	movff	vfpfcnvrt@vp+1,fsr2h
  3420  000F62  C0B1  FFDF         	movff	_nout,indf2
  3421  000F66                     l5725:
  3422                           
  3423                           ;/opt/microchip/xc8/v2.05/pic/sources/c99/common/doprnt.c: 1063:             return 0;
  3424  000F66  0E00               	movlw	0
  3425  000F68  0100               	movlb	0	; () banked
  3426  000F6A  6F61               	movwf	(?_vfpfcnvrt+1)& (0+255),b
  3427  000F6C  0E00               	movlw	0
  3428  000F6E  6F60               	movwf	?_vfpfcnvrt& (0+255),b
  3429  000F70  0012               	return	
  3430  000F72                     l5729:
  3431                           
  3432                           ;/opt/microchip/xc8/v2.05/pic/sources/c99/common/doprnt.c: 1068:         if (!strncmp(*f
      +                          mt, "hn", ((sizeof("hn")/sizeof("hn"[0]))-1))) {
  3433  000F72  C062  FFD9         	movff	vfpfcnvrt@fmt,fsr2l
  3434  000F76  C063  FFDA         	movff	vfpfcnvrt@fmt+1,fsr2h
  3435  000F7A  CFDE F008          	movff	postinc2,strncmp@_l
  3436  000F7E  CFDD F009          	movff	postdec2,strncmp@_l+1
  3437  000F82  0E19               	movlw	low (STR_44+1)
  3438  000F84  6E0A               	movwf	strncmp@_r,c
  3439  000F86  0E08               	movlw	high (STR_44+1)
  3440  000F88  6E0B               	movwf	strncmp@_r+1,c
  3441  000F8A  0E00               	movlw	0
  3442  000F8C  6E0D               	movwf	strncmp@n+1,c
  3443  000F8E  0E02               	movlw	2
  3444  000F90  6E0C               	movwf	strncmp@n,c
  3445  000F92  EC5F  F016         	call	_strncmp	;wreg free
  3446  000F96  5008               	movf	?_strncmp,w,c
  3447  000F98  1009               	iorwf	?_strncmp+1,w,c
  3448  000F9A  A4D8               	btfss	status,2,c
  3449  000F9C  D00A               	goto	l5739
  3450  000F9E  D032               	goto	u6740
  3451  000FA0                     l5733:
  3452                           
  3453                           ;/opt/microchip/xc8/v2.05/pic/sources/c99/common/doprnt.c: 1072:             *(short *)v
      +                          p = (short)nout;
  3454  000FA0  C076  FFD9         	movff	vfpfcnvrt@vp,fsr2l
  3455  000FA4  C077  FFDA         	movff	vfpfcnvrt@vp+1,fsr2h
  3456  000FA8  C0B1  FFDE         	movff	_nout,postinc2
  3457  000FAC  C0B2  FFDD         	movff	_nout+1,postdec2
  3458  000FB0  D7DA               	goto	l5725
  3459  000FB2                     l5739:
  3460                           
  3461                           ;/opt/microchip/xc8/v2.05/pic/sources/c99/common/doprnt.c: 1077:         if (*fmt[0] == 
      +                          'n') {
  3462  000FB2  C062  FFD9         	movff	vfpfcnvrt@fmt,fsr2l
  3463  000FB6  C063  FFDA         	movff	vfpfcnvrt@fmt+1,fsr2h
  3464  000FBA  CFDE FFF6          	movff	postinc2,tblptrl
  3465  000FBE  CFDD FFF7          	movff	postdec2,tblptrh
  3466  000FC2                     	if	0	;tblptru may be non-zero
  3467  000FC2                     	endif
  3468  000FC2                     	if	0	;tblptru may be non-zero
  3469  000FC2                     	endif
  3470  000FC2  0008               	tblrd		*
  3471  000FC4  50F5               	movf	tablat,w,c
  3472  000FC6  0A6E               	xorlw	110
  3473  000FC8  A4D8               	btfss	status,2,c
  3474  000FCA  D006               	goto	l5749
  3475                           
  3476                           ;/opt/microchip/xc8/v2.05/pic/sources/c99/common/doprnt.c: 1078:             ++*fmt;
  3477  000FCC  C062  FFD9         	movff	vfpfcnvrt@fmt,fsr2l
  3478  000FD0  C063  FFDA         	movff	vfpfcnvrt@fmt+1,fsr2h
  3479  000FD4  2ADE               	incf	postinc2,f,c
  3480  000FD6  D01C               	goto	L13
  3481  000FD8                     l5749:
  3482                           
  3483                           ;/opt/microchip/xc8/v2.05/pic/sources/c99/common/doprnt.c: 1125:         if (!strncmp(*f
      +                          mt, "zn", ((sizeof("zn")/sizeof("zn"[0]))-1))) {
  3484  000FD8  C062  FFD9         	movff	vfpfcnvrt@fmt,fsr2l
  3485  000FDC  C063  FFDA         	movff	vfpfcnvrt@fmt+1,fsr2h
  3486  000FE0  CFDE F008          	movff	postinc2,strncmp@_l
  3487  000FE4  CFDD F009          	movff	postdec2,strncmp@_l+1
  3488  000FE8  0E31               	movlw	low STR_54
  3489  000FEA  6E0A               	movwf	strncmp@_r,c
  3490  000FEC  0E08               	movlw	high STR_54
  3491  000FEE  6E0B               	movwf	strncmp@_r+1,c
  3492  000FF0  0E00               	movlw	0
  3493  000FF2  6E0D               	movwf	strncmp@n+1,c
  3494  000FF4  0E02               	movlw	2
  3495  000FF6  6E0C               	movwf	strncmp@n,c
  3496  000FF8  EC5F  F016         	call	_strncmp	;wreg free
  3497  000FFC  5008               	movf	?_strncmp,w,c
  3498  000FFE  1009               	iorwf	?_strncmp+1,w,c
  3499  001000  A4D8               	btfss	status,2,c
  3500  001002  D01D               	goto	l5759
  3501  001004                     u6740:
  3502                           
  3503                           ;/opt/microchip/xc8/v2.05/pic/sources/c99/common/doprnt.c: 1127:             *fmt += ((s
      +                          izeof("zn")/sizeof("zn"[0]))-1);
  3504  001004  0E02               	movlw	2
  3505  001006  C062  FFD9         	movff	vfpfcnvrt@fmt,fsr2l
  3506  00100A  C063  FFDA         	movff	vfpfcnvrt@fmt+1,fsr2h
  3507  00100E  26DE               	addwf	postinc2,f,c
  3508  001010                     L13:
  3509  001010  0E00               	movlw	0
  3510  001012  22DD               	addwfc	postdec2,f,c
  3511                           
  3512                           ;/opt/microchip/xc8/v2.05/pic/sources/c99/common/doprnt.c: 1128:             vp = (void 
      +                          *)(*(size_t * *)__va_arg(*(size_t * **)ap, (size_t *)0));
  3513  001014  C064  FFD9         	movff	vfpfcnvrt@ap,fsr2l
  3514  001018  C065  FFDA         	movff	vfpfcnvrt@ap+1,fsr2h
  3515  00101C  CFDF F04A          	movff	indf2,??_vfpfcnvrt
  3516  001020  0E02               	movlw	2
  3517  001022  26DE               	addwf	postinc2,f,c
  3518  001024  CFDF F04B          	movff	indf2,??_vfpfcnvrt+1
  3519  001028  0E00               	movlw	0
  3520  00102A  22DD               	addwfc	postdec2,f,c
  3521  00102C  C04A  FFD9         	movff	??_vfpfcnvrt,fsr2l
  3522  001030  C04B  FFDA         	movff	??_vfpfcnvrt+1,fsr2h
  3523  001034  CFDE F076          	movff	postinc2,vfpfcnvrt@vp
  3524  001038  CFDD F077          	movff	postdec2,vfpfcnvrt@vp+1
  3525  00103C  D7B1               	goto	l5733
  3526  00103E                     l5759:
  3527                           
  3528                           ;/opt/microchip/xc8/v2.05/pic/sources/c99/common/doprnt.c: 1138:         if (*fmt[0] == 
      +                          'p') {
  3529  00103E  C062  FFD9         	movff	vfpfcnvrt@fmt,fsr2l
  3530  001042  C063  FFDA         	movff	vfpfcnvrt@fmt+1,fsr2h
  3531  001046  CFDE FFF6          	movff	postinc2,tblptrl
  3532  00104A  CFDD FFF7          	movff	postdec2,tblptrh
  3533  00104E                     	if	0	;tblptru may be non-zero
  3534  00104E                     	endif
  3535  00104E                     	if	0	;tblptru may be non-zero
  3536  00104E                     	endif
  3537  00104E  0008               	tblrd		*
  3538  001050  50F5               	movf	tablat,w,c
  3539  001052  0A70               	xorlw	112
  3540  001054  A4D8               	btfss	status,2,c
  3541  001056  D043               	goto	l5767
  3542                           
  3543                           ;/opt/microchip/xc8/v2.05/pic/sources/c99/common/doprnt.c: 1140:             ++*fmt;
  3544  001058  C062  FFD9         	movff	vfpfcnvrt@fmt,fsr2l
  3545  00105C  C063  FFDA         	movff	vfpfcnvrt@fmt+1,fsr2h
  3546  001060  2ADE               	incf	postinc2,f,c
  3547  001062  0E00               	movlw	0
  3548  001064  22DD               	addwfc	postdec2,f,c
  3549                           
  3550                           ;/opt/microchip/xc8/v2.05/pic/sources/c99/common/doprnt.c: 1141:             llu = (unsi
      +                          gned long long)(size_t)(*(void * *)__va_arg(*(void * **)ap, (void *)0));
  3551  001066  C064  FFD9         	movff	vfpfcnvrt@ap,fsr2l
  3552  00106A  C065  FFDA         	movff	vfpfcnvrt@ap+1,fsr2h
  3553  00106E  CFDF F04A          	movff	indf2,??_vfpfcnvrt
  3554  001072  0E02               	movlw	2
  3555  001074  26DE               	addwf	postinc2,f,c
  3556  001076  CFDF F04B          	movff	indf2,??_vfpfcnvrt+1
  3557  00107A  0E00               	movlw	0
  3558  00107C  22DD               	addwfc	postdec2,f,c
  3559  00107E  C04A  FFD9         	movff	??_vfpfcnvrt,fsr2l
  3560  001082  C04B  FFDA         	movff	??_vfpfcnvrt+1,fsr2h
  3561  001086  CFDE F04C          	movff	postinc2,??_vfpfcnvrt+2
  3562  00108A  CFDD F04D          	movff	postdec2,??_vfpfcnvrt+3
  3563  00108E  C04C  F079         	movff	??_vfpfcnvrt+2,vfpfcnvrt@llu
  3564  001092  C04D  F07A         	movff	??_vfpfcnvrt+3,vfpfcnvrt@llu+1
  3565  001096  0100               	movlb	0	; () banked
  3566  001098  6B7B               	clrf	(vfpfcnvrt@llu+2)& (0+255),b
  3567  00109A  6B7C               	clrf	(vfpfcnvrt@llu+3)& (0+255),b
  3568  00109C  6B7D               	clrf	(vfpfcnvrt@llu+4)& (0+255),b
  3569  00109E  6B7E               	clrf	(vfpfcnvrt@llu+5)& (0+255),b
  3570  0010A0  6B7F               	clrf	(vfpfcnvrt@llu+6)& (0+255),b
  3571  0010A2  6B80               	clrf	(vfpfcnvrt@llu+7)& (0+255),b
  3572                           
  3573                           ; BSR set to: 0
  3574                           ;/opt/microchip/xc8/v2.05/pic/sources/c99/common/doprnt.c: 1143:             return xtoa
      +                          (fp, llu, 'x');
  3575  0010A4  C060  F023         	movff	vfpfcnvrt@fp,xtoa@fp
  3576  0010A8  C061  F024         	movff	vfpfcnvrt@fp+1,xtoa@fp+1
  3577  0010AC  C079  F025         	movff	vfpfcnvrt@llu,xtoa@d
  3578  0010B0  C07A  F026         	movff	vfpfcnvrt@llu+1,xtoa@d+1
