Microchip MPLAB XC8 Compiler V2.05 ()

Linker command line:

-W-3 --edf=/opt/microchip/xc8/v2.05/pic/dat/en_msgs.txt -cs \
  -h+dist/default/debug/UMultiSensor.X.debug.sym \
  --cmf=dist/default/debug/UMultiSensor.X.debug.cmf -z -Q18F4550 \
  -o/tmp/xcXavdyBU --defsym=__MPLAB_BUILD=1 \
  -Mdist/default/debug/UMultiSensor.X.debug.map -E1 -ver=XC8 --acfsm=1493 \
  -ASTACK=014Fh-03F3h -pstack=STACK -ACODE=00h-07DBFh -ACONST=00h-07DBFh \
  -ASMALLCONST=0800h-08FFhx117,07D00h-07DBFh -AMEDIUMCONST=0800h-07DBFh \
  -ACOMRAM=01h-05Fh -AABS1=00h-03F3h,0400h-07FFh \
  -ABIGRAM=01h-03F3h,0400h-07FFh \
  -ARAM=060h-0FFh,0100h-01FFhx2,0300h-03F3h,0400h-04FFhx4 -ABANK0=060h-0FFh \
  -ABANK1=0100h-01FFh -ABANK2=0200h-02FFh -ABANK3=0300h-03F3h \
  -ABANK4=0400h-04FFh -ABANK5=0500h-05FFh -ABANK6=0600h-06FFh \
  -ABANK7=0700h-07FFh \
  -ASFR=0F60h-0F9Bh,0F9Dh-0FD3h,0FD5h-0FDAh,0FE0h-0FE2h,0FE8h-0FEAh,0FF0h-0FFCh \
  -preset_vec=00h,intcode=08h,intcodelo=018h,powerup,init -pramtop=0800h \
  -psmallconst=SMALLCONST -pmediumconst=MEDIUMCONST -pconst=CONST \
  -AFARRAM=00h-00h -ACONFIG=0300000h-030000Dh -pconfig=CONFIG \
  -AIDLOC=0200000h-0200007h -pidloc=IDLOC -AEEDATA=0F00000h-0F000FFh \
  -peeprom_data=EEDATA \
  -prdata=COMRAM,nvrram=COMRAM,nvbit=COMRAM,rbss=COMRAM,rbit=COMRAM \
  -pfarbss=FARRAM,fardata=FARRAM,nvFARRAM=FARRAM \
  -pintsave_regs=BIGRAM,bigbss=BIGRAM,bigdata=BIGRAM -pbss=RAM \
  -pidata=CODE,irdata=CODE,ibigdata=CODE,ifardata=CODE -prparam=COMRAM \
  /tmp/xcXW8fsrG.o dist/default/debug/UMultiSensor.X.debug.o 

Object code version is 3.11

Machine type is 18F4550

Call graph: (short form)




                Name                               Link     Load   Length Selector   Space Scale
/tmp/xcXW8fsrG.o
                init                                 3A       3A        4        C       0
                reset_vec                             0        0        4        0       0
                idloc                            200000   200000        8   200000       0
                config                           300000   300000        E   300000       0
dist/default/debug/UMultiSensor.X.debug.o
                intcodelo                            18       18       22        C       0
                intcode                               8        8        6        4       0
                temp                                 57       57        1        1       1
                smallconst                          800      800       3E      400       0
                text69                             3092     3092       6E      41F       0
                text68                             381A     381A       10      41F       0
                intcode_body                       379C     379C       1E      41F       0
                text66                             384A     384A        A      41F       0
                text65                             377E     377E       1E      41F       0
                text63                             2FA8     2FA8       7C      41F       0
                text62                             28BA     28BA       FA      41F       0
                text61                             328A     328A       56      41F       0
                text60                             26AC     26AC      10E      41F       0
                text59                             3862     3862        6      41F       0
                text58                             341A     341A       42      41F       0
                text57                             345C     345C       40      41F       0
                text56                             1A26     1A26      1E2      41F       0
                text55                             2B56     2B56       BA      41F       0
                text54                             3872     3872        2      41F       0
                text53                             37F0     37F0       1A      41F       0
                text52                             3840     3840        A      41F       0
                text51                             386C     386C        4      41F       0
                text50                             3758     3758       26      41F       0
                text49                             3514     3514       3A      41F       0
                text48                             27BA     27BA      100      41F       0
                text47                             3100     3100       6C      41F       0
                text46                             35BA     35BA       34      41F       0
                text45                             37D6     37D6       1A      41F       0
                text44                             37BA     37BA       1C      41F       0
                text43                             3836     3836        A      41F       0
                text42                             3868     3868        4      41F       0
                text41                             385C     385C        6      41F       0
                text40                             32E0     32E0       52      41F       0
                text39                             2594     2594      118      41F       0
                text38                             34DA     34DA       3A      41F       0
                text37                             3732     3732       26      41F       0
                text36                             36B0     36B0       30      41F       0
                text35                             349C     349C       3E      41F       0
                text34                             2208     2208      140      41F       0
                text33                             3870     3870        2      41F       0
                text32                             2D68     2D68       A0      41F       0
                text31                             354E     354E       38      41F       0
                text30                             36E0     36E0       2A      41F       0
                text29                             2E08     2E08       96      41F       0
                text28                             3382     3382       4E      41F       0
                text27                             20C0     20C0      148      41F       0
                text26                             2470     2470      124      41F       0
                text25                             35EE     35EE       32      41F       0
                text24                             15B8     15B8      242      41F       0
                text23                             1F42     1F42      17E      41F       0
                text22                             2348     2348      128      41F       0
                text21                             2CBE     2CBE       AA      41F       0
                text20                             2A88     2A88       CE      41F       0
                text19                             2C10     2C10       AE      41F       0
                text18                             1C08     1C08      1AE      41F       0
                text17                             3586     3586       34      41F       0
                text16                             3680     3680       30      41F       0
                text15                             3650     3650       30      41F       0
                text14                             33D0     33D0       4A      41F       0
                text13                             17FA     17FA      22C      41F       0
                text12                              83E      83E      D7A      41F       0
                text11                             3234     3234       56      41F       0
                text10                             29B4     29B4       D4      41F       0
                text9                              3620     3620       30      41F       0
                text8                              3024     3024       6E      41F       0
                text7                              3332     3332       50      41F       0
                text6                              380A     380A       10      41F       0
                text5                              370A     370A       28      41F       0
                text4                              2F26     2F26       82      41F       0
                text3                              1DB6     1DB6      18C      41F       0
                text2                              382A     382A        C      41F       0
                text1                              31D2     31D2       62      41F       0
                text0                              2E9E     2E9E       88      41F       0
                cstackCOMRAM                          1        1       4D        1       1
                cstackBANK0                          60       60       4B       60       1
                bssBIGRAM_1                         400      400      400      400       1
                bssBANK1                            100      100       4F      100       1
                dataBANK0                            F4       F4        8       60       1
                bssBANK0                             AB       AB       49       60       1
                bssCOMRAM                            4E       4E        9        1       1
                cinit                              316C     316C       66      41F       0
                idataBANK0                         3854     3854        8      41F       0

TOTAL           Name                               Link     Load   Length     Space
        CLASS   STACK          

        CLASS   CODE           
                intcodelo                            18       18       22         0
                intcode                               8        8        6         0
                init                                 3A       3A        4         0
                reset_vec                             0        0        4         0
                text69                             3092     3092       6E         0
                text68                             381A     381A       10         0
                intcode_body                       379C     379C       1E         0
                text66                             384A     384A        A         0
                text65                             377E     377E       1E         0
                text63                             2FA8     2FA8       7C         0
                text62                             28BA     28BA       FA         0
                text61                             328A     328A       56         0
                text60                             26AC     26AC      10E         0
                text59                             3862     3862        6         0
                text58                             341A     341A       42         0
                text57                             345C     345C       40         0
                text56                             1A26     1A26      1E2         0
                text55                             2B56     2B56       BA         0
                text54                             3872     3872        2         0
                text53                             37F0     37F0       1A         0
                text52                             3840     3840        A         0
                text51                             386C     386C        4         0
                text50                             3758     3758       26         0
                text49                             3514     3514       3A         0
                text48                             27BA     27BA      100         0
                text47                             3100     3100       6C         0
                text46                             35BA     35BA       34         0
                text45                             37D6     37D6       1A         0
                text44                             37BA     37BA       1C         0
                text43                             3836     3836        A         0
                text42                             3868     3868        4         0
                text41                             385C     385C        6         0
                text40                             32E0     32E0       52         0
                text39                             2594     2594      118         0
                text38                             34DA     34DA       3A         0
                text37                             3732     3732       26         0
                text36                             36B0     36B0       30         0
                text35                             349C     349C       3E         0
                text34                             2208     2208      140         0
                text33                             3870     3870        2         0
                text32                             2D68     2D68       A0         0
                text31                             354E     354E       38         0
                text30                             36E0     36E0       2A         0
                text29                             2E08     2E08       96         0
                text28                             3382     3382       4E         0
                text27                             20C0     20C0      148         0
                text26                             2470     2470      124         0
                text25                             35EE     35EE       32         0
                text24                             15B8     15B8      242         0
                text23                             1F42     1F42      17E         0
                text22                             2348     2348      128         0
                text21                             2CBE     2CBE       AA         0
                text20                             2A88     2A88       CE         0
                text19                             2C10     2C10       AE         0
                text18                             1C08     1C08      1AE         0
                text17                             3586     3586       34         0
                text16                             3680     3680       30         0
                text15                             3650     3650       30         0
                text14                             33D0     33D0       4A         0
                text13                             17FA     17FA      22C         0
                text12                              83E      83E      D7A         0
                text11                             3234     3234       56         0
                text10                             29B4     29B4       D4         0
                text9                              3620     3620       30         0
                text8                              3024     3024       6E         0
                text7                              3332     3332       50         0
                text6                              380A     380A       10         0
                text5                              370A     370A       28         0
                text4                              2F26     2F26       82         0
                text3                              1DB6     1DB6      18C         0
                text2                              382A     382A        C         0
                text1                              31D2     31D2       62         0
                text0                              2E9E     2E9E       88         0
                cinit                              316C     316C       66         0
                idataBANK0                         3854     3854        8         0

        CLASS   CONST          

        CLASS   SMALLCONST     
                smallconst                          800      800       3E         0

        CLASS   MEDIUMCONST    

        CLASS   COMRAM         
                temp                                 57       57        1         1
                cstackCOMRAM                          1        1       4D         1
                bssCOMRAM                            4E       4E        9         1

        CLASS   ABS1           

        CLASS   BIGRAM         
                bssBIGRAM_1                         400      400      400         1

        CLASS   RAM            

        CLASS   BANK0          
                cstackBANK0                          60       60       4B         1
                dataBANK0                            F4       F4        8         1
                bssBANK0                             AB       AB       49         1

        CLASS   BANK1          
                bssBANK1                            100      100       4F         1

        CLASS   BANK2          

        CLASS   BANK3          

        CLASS   BANK4          

        CLASS   BANK5          

        CLASS   BANK6          

        CLASS   BANK7          

        CLASS   SFR            

        CLASS   FARRAM         

        CLASS   CONFIG         
                config                           300000   300000        E         0

        CLASS   IDLOC          
                idloc                            200000   200000        8         0

        CLASS   EEDATA         



SEGMENTS        Name                           Load    Length   Top    Selector   Space  Class

                reset_vec                      000000  000004  000004         0       0  CODE    
                cstackCOMRAM                   000001  000057  000058         1       1  COMRAM  
                intcode                        000008  000006  00000E         4       0  CODE    
                intcodelo                      000018  000026  00003E         C       0  CODE    
                cstackBANK0                    000060  00009C  0000FC        60       1  BANK0   
                bssBANK1                       000100  00004F  00014F       100       1  BANK1   
                bssBIGRAM_1                    000400  000400  000800       400       1  BIGRAM  
                smallconst                     000800  00003E  00083E       400       0  SMALLCON
                text12                         00083E  003036  003874       41F       0  CODE    
                idloc                          200000  000008  200008    200000       0  IDLOC   
                config                         300000  00000E  30000E    300000       0  CONFIG  


UNUSED ADDRESS RANGES

        Name                Unused          Largest block    Delta
        BANK0            0000FC-0000FF                4
        BANK1            00014F-0001FF               B1
        BANK2            000200-0002FF              100
        BANK3            000300-0003F3               F4
        BIGRAM           000058-00005F                8
                         0000FC-0000FF                4
                         00014F-0003F3              2A5
        CODE             000004-000007                4
                         00000E-000017                A
                         00003E-0007FF              7C2
                         003874-007DBF             454C
        COMRAM           000058-00005F                8
        CONST            000004-000007                4
                         00000E-000017                A
                         00003E-0007FF              7C2
                         003874-007DBF             454C
        EEDATA           F00000-F000FF              100
        MEDIUMCONST      003874-007DBF             454C
        RAM              0000FC-0000FF                4
                         00014F-0003F3              100
        SFR              000F60-000F9B               3C
                         000F9D-000FD3               37
                         000FD5-000FDA                6
                         000FE0-000FE2                3
                         000FE8-000FEA                3
                         000FF0-000FFC                D
        SMALLCONST       003874-007DBF              100
        STACK            00014F-0003F3              2A5

                                  Symbol Table

?_Scheduler_createTask         cstackCOMRAM 000012
?_Timer3_capture               cstackCOMRAM 000008
?___aodiv                      cstackCOMRAM 000008
?___aomod                      cstackCOMRAM 000008
?___lldiv                      cstackCOMRAM 000008
?___lodiv                      cstackCOMRAM 000008
?___lomod                      cstackCOMRAM 000008
?___lwdiv                      cstackCOMRAM 000008
?___wmul                       cstackCOMRAM 000008
?_abs                          cstackCOMRAM 00001A
?_atoi                         cstackCOMRAM 00000F
?_ctoa                         cstackCOMRAM 000023
?_dtoa                         cstackCOMRAM 000023
?_isalpha                      cstackCOMRAM 000008
?_isdigit                      cstackCOMRAM 000008
?_islower                      cstackCOMRAM 000008
?_isspace                      cstackCOMRAM 000008
?_isupper                      cstackCOMRAM 000008
?_malloc                       cstackCOMRAM 000008
?_otoa                         cstackCOMRAM 000023
?_pad                          cstackCOMRAM 000018
?_snprintf                     cstackBANK0  00009F
?_stoa                         cstackCOMRAM 000011
?_strlen                       cstackCOMRAM 000008
?_strncmp                      cstackCOMRAM 000008
?_toupper                      cstackCOMRAM 00000E
?_utoa                         cstackCOMRAM 000023
?_vfpfcnvrt                    cstackBANK0  000060
?_vfprintf                     cstackBANK0  000081
?_vsnprintf                    cstackBANK0  000089
?_xtoa                         cstackCOMRAM 000023
Scheduler_check@actual         bssBANK0     0000BB
Scheduler_check@delta          bssBANK0     0000B9
Scheduler_check@pNode          bssBANK0     0000C1
Scheduler_check@pNode_temp     bssBANK0     0000BF
Scheduler_check@ptskNode       bssBANK0     0000BD
Scheduler_createTask@taskFxn   cstackCOMRAM 000012
Scheduler_createTask@temp      cstackCOMRAM 000016
Scheduler_createTask@timeout   cstackCOMRAM 000014
Scheduler_suspend@taskH        cstackCOMRAM 00000E
Scheduler_wait@actual          bssBANK0     0000C7
Scheduler_wait@time            cstackCOMRAM 000008
Task0@data                     bssBANK0     0000F0
Timer1_enable@priority         cstackCOMRAM 000009
Timer1_reload@value            cstackCOMRAM 000008
Timer3_capture@time            bssBANK0     0000CD
Timer3_enable@priority         cstackCOMRAM 000009
Timer3_reload@value            cstackCOMRAM 000008
UART_Transmit@buffer           cstackCOMRAM 00000C
UART_Transmit@size             cstackCOMRAM 00000E
UART_open@baud                 cstackCOMRAM 000015
UART_open@buffer               cstackCOMRAM 00001B
UART_open@priority             cstackCOMRAM 000019
USensor_init@counter           cstackCOMRAM 00000A
USensor_measure@mode           cstackCOMRAM 000011
USensor_measure@tempTime       bssBANK0     0000CB
USensor_read@buf               cstackCOMRAM 000008
USensor_read@index             cstackCOMRAM 00000A
_ADCON1                        (abs)        000FC1
_BAUDCON                       (abs)        000FB8
_BAUDCONbits                   (abs)        000FB8
_CMCON                         (abs)        000FB4
_HEAP                          bssBIGRAM_1  000400
_HEAP_counter                  bssBANK0     0000AB
_INTCONbits                    (abs)        000FF2
_IPR1bits                      (abs)        000F9F
_IPR2bits                      (abs)        000FA2
_LATB                          (abs)        000F8A
_LATC                          (abs)        000F8B
_PIE1bits                      (abs)        000F9D
_PIE2bits                      (abs)        000FA0
_PIR1bits                      (abs)        000F9E
_PIR2bits                      (abs)        000FA1
_PORTB                         (abs)        000F81
_PORTBbits                     (abs)        000F81
_PORTC                         (abs)        000F82
_RCONbits                      (abs)        000FD0
_RCREG                         (abs)        000FAE
_RCSTA                         (abs)        000FAB
_RCSTAbits                     (abs)        000FAB
_SPBRG                         (abs)        000FAF
_SPBRGH                        (abs)        000FB0
_SchedulerState                dataBANK0    0000FB
_Scheduler_check               text55       002B56
_Scheduler_createTask          text60       0026AC
_Scheduler_init                text57       00345C
_Scheduler_sort                text54       003872
_Scheduler_start               text48       0027BA
_Scheduler_suspend             text7        003332
_Scheduler_wait                text47       003100
_T1CON                         (abs)        000FCD
_T1FREQ                        smallconst   000801
_T3CON                         (abs)        000FB1
_T3CONbits                     (abs)        000FB1
_TMR1                          (abs)        000FCE
_TMR3                          (abs)        000FB2
_TMR3H                         (abs)        000FB3
_TMR3L                         (abs)        000FB2
_TRISB                         (abs)        000F93
_TRISC                         (abs)        000F94
_TXREG                         (abs)        000FAD
_TXSTA                         (abs)        000FAC
_TXSTAbits                     (abs)        000FAC
_Task0                         text8        003024
_Task0Handler                  bssBANK0     0000B5
_Task1                         text6        00380A
_Task1Handler                  bssBANK0     0000B3
_Timer1_ISR                    text65       00377E
_Timer1_enable                 text53       0037F0
_Timer1_init                   text59       003862
_Timer1_reload                 text52       003840
_Timer1_start                  text51       00386C
_Timer3_capture                text45       0037D6
_Timer3_enable                 text44       0037BA
_Timer3_init                   text2        00382A
_Timer3_reload                 text43       003836
_Timer3_start                  text42       003868
_Timer3_stop                   text41       00385C
_UART_ISR                      text69       003092
_UART_Transmit                 text46       0035BA
_UART_init                     text5        00370A
_UART_open                     text3        001DB6
_USensorMEASFlag               bssBANK0     0000D7
_USensor_ISR                   text68       00381A
_USensor_init                  text1        0031D2
_USensor_measure               text39       002594
_USensor_read                  text38       0034DA
__CFG_BOR$ON                   (abs)        000000
__CFG_BORV$3                   (abs)        000000
__CFG_CCP2MX$ON                (abs)        000000
__CFG_CP0$OFF                  (abs)        000000
__CFG_CP1$OFF                  (abs)        000000
__CFG_CP2$OFF                  (abs)        000000
__CFG_CP3$OFF                  (abs)        000000
__CFG_CPB$OFF                  (abs)        000000
__CFG_CPD$OFF                  (abs)        000000
__CFG_CPUDIV$OSC1_PLL2         (abs)        000000
__CFG_EBTR0$OFF                (abs)        000000
__CFG_EBTR1$OFF                (abs)        000000
__CFG_EBTR2$OFF                (abs)        000000
__CFG_EBTR3$OFF                (abs)        000000
__CFG_EBTRB$OFF                (abs)        000000
__CFG_FCMEN$OFF                (abs)        000000
__CFG_FOSC$HSPLL_HS            (abs)        000000
__CFG_ICPRT$OFF                (abs)        000000
__CFG_IESO$OFF                 (abs)        000000
__CFG_LPT1OSC$OFF              (abs)        000000
__CFG_LVP$OFF                  (abs)        000000
__CFG_MCLRE$ON                 (abs)        000000
__CFG_PBADEN$OFF               (abs)        000000
__CFG_PLLDIV$5                 (abs)        000000
__CFG_PWRT$OFF                 (abs)        000000
__CFG_STVREN$ON                (abs)        000000
__CFG_USBDIV$1                 (abs)        000000
__CFG_VREGEN$OFF               (abs)        000000
__CFG_WDT$OFF                  (abs)        000000
__CFG_WDTPS$32768              (abs)        000000
__CFG_WRT0$OFF                 (abs)        000000
__CFG_WRT1$OFF                 (abs)        000000
__CFG_WRT2$OFF                 (abs)        000000
__CFG_WRT3$OFF                 (abs)        000000
__CFG_WRTB$OFF                 (abs)        000000
__CFG_WRTC$OFF                 (abs)        000000
__CFG_WRTD$OFF                 (abs)        000000
__CFG_XINST$OFF                (abs)        000000
__HRAM                         (abs)        000000
__Habs1                        abs1         000000
__Hbank0                       bank0        000000
__Hbank1                       bank1        000000
__Hbank2                       bank2        000000
__Hbank3                       bank3        000000
__Hbank4                       bank4        000000
__Hbank5                       bank5        000000
__Hbank6                       bank6        000000
__Hbank7                       bank7        000000
__Hbigbss                      bigbss       000000
__Hbigdata                     bigdata      000000
__Hbigram                      bigram       000000
__Hbss                         bss          000000
__HbssBANK0                    bssBANK0     000000
__HbssBANK1                    bssBANK1     000000
__HbssBIGRAM_1                 bssBIGRAM_1  000000
__HbssCOMRAM                   bssCOMRAM    000000
__Hcinit                       cinit        000000
__Hclrtext                     clrtext      000000
__Hcomram                      comram       000000
__Hconfig                      config       30000E
__Hconst                       const        000000
__HcstackBANK0                 cstackBANK0  000000
__HcstackCOMRAM                cstackCOMRAM 000000
__Hdata                        data         000000
__HdataBANK0                   dataBANK0    000000
__Heeprom_data                 eeprom_data  000000
__Hfarbss                      farbss       000000
__Hfardata                     fardata      000000
__Hibigdata                    ibigdata     000000
__Hidata                       idata        000000
__HidataBANK0                  idataBANK0   000000
__Hidloc                       idloc        200008
__Hifardata                    ifardata     000000
__Hinit                        init         00003E
__Hintcode                     intcode      00000E
__Hintcode_body                intcode_body 000000
__Hintcodelo                   intcodelo    00003A
__Hintentry                    intentry     000000
__Hintret                      intret       000000
__Hintsave_regs                intsave_regs 000000
__Hirdata                      irdata       000000
__Hmediumconst                 mediumconst  000000
__HnvFARRAM                    nvFARRAM     000000
__Hnvbit                       nvbit        000000
__Hnvrram                      nvrram       000000
__Hparam                       rparam       000000
__Hpowerup                     powerup      00003A
__Hram                         ram          000000
__Hramtop                      ramtop       000800
__Hrbit                        rbit         000000
__Hrbss                        rbss         000000
__Hrdata                       rdata        000000
__Hreset_vec                   reset_vec    000004
__Hrparam                      rparam       000000
__Hsfr                         sfr          000000
__Hsmallconst                  smallconst   00083E
__Hspace_0                     (abs)        30000E
__Hspace_1                     (abs)        000800
__Hspace_2                     (abs)        000000
__Hstack                       stack        000000
__Hstruct                      struct       000000
__Htemp                        temp         000058
__Htext                        text         000000
__Htext0                       text0        000000
__Htext1                       text1        000000
__Htext10                      text10       000000
__Htext11                      text11       000000
__Htext12                      text12       000000
__Htext13                      text13       000000
__Htext14                      text14       000000
__Htext15                      text15       000000
__Htext16                      text16       000000
__Htext17                      text17       000000
__Htext18                      text18       000000
__Htext19                      text19       000000
__Htext2                       text2        000000
__Htext20                      text20       000000
__Htext21                      text21       000000
__Htext22                      text22       000000
__Htext23                      text23       000000
__Htext24                      text24       000000
__Htext25                      text25       000000
__Htext26                      text26       000000
__Htext27                      text27       000000
__Htext28                      text28       000000
__Htext29                      text29       000000
__Htext3                       text3        000000
__Htext30                      text30       000000
__Htext31                      text31       000000
__Htext32                      text32       000000
__Htext33                      text33       000000
__Htext34                      text34       000000
__Htext35                      text35       000000
__Htext36                      text36       000000
__Htext37                      text37       000000
__Htext38                      text38       000000
__Htext39                      text39       000000
__Htext4                       text4        000000
__Htext40                      text40       000000
__Htext41                      text41       000000
__Htext42                      text42       000000
__Htext43                      text43       000000
__Htext44                      text44       000000
__Htext45                      text45       000000
__Htext46                      text46       000000
__Htext47                      text47       000000
__Htext48                      text48       000000
__Htext49                      text49       000000
__Htext5                       text5        000000
__Htext50                      text50       000000
__Htext51                      text51       000000
__Htext52                      text52       000000
__Htext53                      text53       000000
__Htext54                      text54       000000
__Htext55                      text55       000000
__Htext56                      text56       000000
__Htext57                      text57       000000
__Htext58                      text58       000000
__Htext59                      text59       000000
__Htext6                       text6        000000
__Htext60                      text60       000000
__Htext61                      text61       000000
__Htext62                      text62       000000
__Htext63                      text63       000000
__Htext65                      text65       000000
__Htext66                      text66       000000
__Htext68                      text68       000000
__Htext69                      text69       000000
__Htext7                       text7        000000
__Htext70                      text70       000000
__Htext8                       text8        000000
__Htext9                       text9        000000
__LRAM                         (abs)        000001
__Labs1                        abs1         000000
__Lbank0                       bank0        000000
__Lbank1                       bank1        000000
__Lbank2                       bank2        000000
__Lbank3                       bank3        000000
__Lbank4                       bank4        000000
__Lbank5                       bank5        000000
__Lbank6                       bank6        000000
__Lbank7                       bank7        000000
__Lbigbss                      bigbss       000000
__Lbigdata                     bigdata      000000
__Lbigram                      bigram       000000
__Lbss                         bss          000000
__LbssBANK0                    bssBANK0     000000
__LbssBANK1                    bssBANK1     000000
__LbssBIGRAM_1                 bssBIGRAM_1  000000
__LbssCOMRAM                   bssCOMRAM    000000
__Lcinit                       cinit        000000
__Lclrtext                     clrtext      000000
__Lcomram                      comram       000000
__Lconfig                      config       300000
__Lconst                       const        000000
__LcstackBANK0                 cstackBANK0  000000
__LcstackCOMRAM                cstackCOMRAM 000000
__Ldata                        data         000000
__LdataBANK0                   dataBANK0    000000
__Leeprom_data                 eeprom_data  000000
__Lfarbss                      farbss       000000
__Lfardata                     fardata      000000
__Libigdata                    ibigdata     000000
__Lidata                       idata        000000
__LidataBANK0                  idataBANK0   000000
__Lidloc                       idloc        200000
__Lifardata                    ifardata     000000
__Linit                        init         00003A
__Lintcode                     intcode      000008
__Lintcode_body                intcode_body 000000
__Lintcodelo                   intcodelo    000018
__Lintentry                    intentry     000000
__Lintret                      intret       000000
__Lintsave_regs                intsave_regs 000000
__Lirdata                      irdata       000000
__Lmediumconst                 mediumconst  000000
__LnvFARRAM                    nvFARRAM     000000
__Lnvbit                       nvbit        000000
__Lnvrram                      nvrram       000000
__Lparam                       rparam       000000
__Lpowerup                     powerup      00003A
__Lram                         ram          000000
__Lramtop                      ramtop       000800
__Lrbit                        rbit         000000
__Lrbss                        rbss         000000
__Lrdata                       rdata        000000
__Lreset_vec                   reset_vec    000000
__Lrparam                      rparam       000000
__Lsfr                         sfr          000000
__Lsmallconst                  smallconst   000800
__Lspace_0                     (abs)        000000
__Lspace_1                     (abs)        000000
__Lspace_2                     (abs)        000000
__Lstack                       stack        000000
__Lstruct                      struct       000000
__Ltemp                        temp         000057
__Ltext                        text         000000
__Ltext0                       text0        000000
__Ltext1                       text1        000000
__Ltext10                      text10       000000
__Ltext11                      text11       000000
__Ltext12                      text12       000000
__Ltext13                      text13       000000
__Ltext14                      text14       000000
__Ltext15                      text15       000000
__Ltext16                      text16       000000
__Ltext17                      text17       000000
__Ltext18                      text18       000000
__Ltext19                      text19       000000
__Ltext2                       text2        000000
__Ltext20                      text20       000000
__Ltext21                      text21       000000
__Ltext22                      text22       000000
__Ltext23                      text23       000000
__Ltext24                      text24       000000
__Ltext25                      text25       000000
__Ltext26                      text26       000000
__Ltext27                      text27       000000
__Ltext28                      text28       000000
__Ltext29                      text29       000000
__Ltext3                       text3        000000
__Ltext30                      text30       000000
__Ltext31                      text31       000000
__Ltext32                      text32       000000
__Ltext33                      text33       000000
__Ltext34                      text34       000000
__Ltext35                      text35       000000
__Ltext36                      text36       000000
__Ltext37                      text37       000000
__Ltext38                      text38       000000
__Ltext39                      text39       000000
__Ltext4                       text4        000000
__Ltext40                      text40       000000
__Ltext41                      text41       000000
__Ltext42                      text42       000000
__Ltext43                      text43       000000
__Ltext44                      text44       000000
__Ltext45                      text45       000000
__Ltext46                      text46       000000
__Ltext47                      text47       000000
__Ltext48                      text48       000000
__Ltext49                      text49       000000
__Ltext5                       text5        000000
__Ltext50                      text50       000000
__Ltext51                      text51       000000
__Ltext52                      text52       000000
__Ltext53                      text53       000000
__Ltext54                      text54       000000
__Ltext55                      text55       000000
__Ltext56                      text56       000000
__Ltext57                      text57       000000
__Ltext58                      text58       000000
__Ltext59                      text59       000000
__Ltext6                       text6        000000
__Ltext60                      text60       000000
__Ltext61                      text61       000000
__Ltext62                      text62       000000
__Ltext63                      text63       000000
__Ltext65                      text65       000000
__Ltext66                      text66       000000
__Ltext68                      text68       000000
__Ltext69                      text69       000000
__Ltext7                       text7        000000
__Ltext70                      text70       000000
__Ltext8                       text8        000000
__Ltext9                       text9        000000
__S0                           (abs)        30000E
__S1                           (abs)        000800
__S2                           (abs)        000000
___aodiv                       text27       0020C0
___aodiv@counter               cstackCOMRAM 000018
___aodiv@dividend              cstackCOMRAM 000008
___aodiv@divisor               cstackCOMRAM 000010
___aodiv@quotient              cstackCOMRAM 00001A
___aodiv@sign                  cstackCOMRAM 000019
___aomod                       text26       002470
___aomod@counter               cstackCOMRAM 000018
___aomod@dividend              cstackCOMRAM 000008
___aomod@divisor               cstackCOMRAM 000010
___aomod@sign                  cstackCOMRAM 000019
___inthi_sp                    stack        000000
___intlo_sp                    stack        000000
___lldiv                       text4        002F26
___lldiv@counter               cstackCOMRAM 000014
___lldiv@dividend              cstackCOMRAM 000008
___lldiv@divisor               cstackCOMRAM 00000C
___lldiv@quotient              cstackCOMRAM 000010
___lodiv                       text20       002A88
___lodiv@counter               cstackCOMRAM 000020
___lodiv@dividend              cstackCOMRAM 000008
___lodiv@divisor               cstackCOMRAM 000010
___lodiv@quotient              cstackCOMRAM 000018
___lomod                       text19       002C10
___lomod@counter               cstackCOMRAM 000018
___lomod@dividend              cstackCOMRAM 000008
___lomod@divisor               cstackCOMRAM 000010
___lwdiv                       text40       0032E0
___lwdiv@counter               cstackCOMRAM 00000E
___lwdiv@dividend              cstackCOMRAM 000008
___lwdiv@divisor               cstackCOMRAM 00000A
___lwdiv@quotient              cstackCOMRAM 00000C
___param_bank                  (abs)        000000
___rparam_used                 (abs)        000001
___sp                          stack        000000
___temp_wreg                   bssBANK0     0000C3
___wmul                        text37       003732
___wmul@multiplicand           cstackCOMRAM 00000A
___wmul@multiplier             cstackCOMRAM 000008
___wmul@product                cstackCOMRAM 00000C
__accesstop                    (abs)        000060
__activetblptr                 (abs)        000002
__end_of_Scheduler_check       text55       002C10
__end_of_Scheduler_createTask  text60       0027BA
__end_of_Scheduler_init        text57       00349C
__end_of_Scheduler_sort        text54       003874
__end_of_Scheduler_start       text48       0028BA
__end_of_Scheduler_suspend     text7        003382
__end_of_Scheduler_wait        text47       00316C
__end_of_T1FREQ                smallconst   000805
__end_of_Task0                 text8        003092
__end_of_Task1                 text6        00381A
__end_of_Timer1_ISR            text65       00379C
__end_of_Timer1_enable         text53       00380A
__end_of_Timer1_init           text59       003868
__end_of_Timer1_reload         text52       00384A
__end_of_Timer1_start          text51       003870
__end_of_Timer3_capture        text45       0037F0
__end_of_Timer3_enable         text44       0037D6
__end_of_Timer3_init           text2        003836
__end_of_Timer3_reload         text43       003840
__end_of_Timer3_start          text42       00386C
__end_of_Timer3_stop           text41       003862
__end_of_UART_ISR              text69       003100
__end_of_UART_Transmit         text46       0035EE
__end_of_UART_init             text5        003732
__end_of_UART_open             text3        001F42
__end_of_USensor_ISR           text68       00382A
__end_of_USensor_init          text1        003234
__end_of_USensor_measure       text39       0026AC
__end_of_USensor_read          text38       003514
__end_of___aodiv               text27       002208
__end_of___aomod               text26       002594
__end_of___lldiv               text4        002FA8
__end_of___lodiv               text20       002B56
__end_of___lomod               text19       002CBE
__end_of___lwdiv               text40       003332
__end_of___wmul                text37       003758
__end_of__initialization       cinit        0031C4
__end_of_abs                   text25       003620
__end_of_atoi                  text34       002348
__end_of_ctoa                  text28       0033D0
__end_of_dtoa                  text24       0017FA
__end_of_fputc                 text32       002E08
__end_of_fputs                 text31       003586
__end_of_high_isr              intcode_body 0037BA
__end_of_isalpha               text17       0035BA
__end_of_isdigit               text36       0036E0
__end_of_islower               text15       003680
__end_of_isspace               text35       0034DA
__end_of_isupper               text16       0036B0
__end_of_low_isr               intcodelo    00003A
__end_of_main                  text0        002F26
__end_of_malloc                text63       003024
__end_of_otoa                  text23       0020C0
__end_of_pad                   text29       002E9E
__end_of_putch                 text33       003872
__end_of_snprintf              text9        003650
__end_of_stoa                  text22       002470
__end_of_strlen                text30       00370A
__end_of_strncmp               text21       002D68
__end_of_toupper               text14       00341A
__end_of_utoa                  text18       001DB6
__end_of_uxListInsertEnd       text62       0029B4
__end_of_uxListRemove          text56       001C08
__end_of_vListInitialise       text58       00345C
__end_of_vListInitialiseItem   text61       0032E0
__end_of_vTaskEXEC_TASK        text50       00377E
__end_of_vTaskSwitchContext    text49       00354E
__end_of_vfpfcnvrt             text12       0015B8
__end_of_vfprintf              text11       00328A
__end_of_vsnprintf             text10       002A88
__end_of_xtoa                  text13       001A26
__end_ofi1_Timer1_reload       text66       003854
__initialization               cinit        00316C
__mediumconst                  mediumconst  000000
__pbssBANK0                    bssBANK0     0000AB
__pbssBANK1                    bssBANK1     000100
__pbssBIGRAM_1                 bssBIGRAM_1  000400
__pbssCOMRAM                   bssCOMRAM    00004E
__pcinit                       cinit        00316C
__pcstackBANK0                 cstackBANK0  000060
__pcstackCOMRAM                cstackCOMRAM 000001
__pdataBANK0                   dataBANK0    0000F4
__pidataBANK0                  idataBANK0   003854
__pintcode                     intcode      000008
__pintcode_body                intcode_body 00379C
__pintcodelo                   intcodelo    000018
__psmallconst                  smallconst   000800
__ptext0                       text0        002E9E
__ptext1                       text1        0031D2
__ptext10                      text10       0029B4
__ptext11                      text11       003234
__ptext12                      text12       00083E
__ptext13                      text13       0017FA
__ptext14                      text14       0033D0
__ptext15                      text15       003650
__ptext16                      text16       003680
__ptext17                      text17       003586
__ptext18                      text18       001C08
__ptext19                      text19       002C10
__ptext2                       text2        00382A
__ptext20                      text20       002A88
__ptext21                      text21       002CBE
__ptext22                      text22       002348
__ptext23                      text23       001F42
__ptext24                      text24       0015B8
__ptext25                      text25       0035EE
__ptext26                      text26       002470
__ptext27                      text27       0020C0
__ptext28                      text28       003382
__ptext29                      text29       002E08
__ptext3                       text3        001DB6
__ptext30                      text30       0036E0
__ptext31                      text31       00354E
__ptext32                      text32       002D68
__ptext33                      text33       003870
__ptext34                      text34       002208
__ptext35                      text35       00349C
__ptext36                      text36       0036B0
__ptext37                      text37       003732
__ptext38                      text38       0034DA
__ptext39                      text39       002594
__ptext4                       text4        002F26
__ptext40                      text40       0032E0
__ptext41                      text41       00385C
__ptext42                      text42       003868
__ptext43                      text43       003836
__ptext44                      text44       0037BA
__ptext45                      text45       0037D6
__ptext46                      text46       0035BA
__ptext47                      text47       003100
__ptext48                      text48       0027BA
__ptext49                      text49       003514
__ptext5                       text5        00370A
__ptext50                      text50       003758
__ptext51                      text51       00386C
__ptext52                      text52       003840
__ptext53                      text53       0037F0
__ptext54                      text54       003872
__ptext55                      text55       002B56
__ptext56                      text56       001A26
__ptext57                      text57       00345C
__ptext58                      text58       00341A
__ptext59                      text59       003862
__ptext6                       text6        00380A
__ptext60                      text60       0026AC
__ptext61                      text61       00328A
__ptext62                      text62       0028BA
__ptext63                      text63       002FA8
__ptext65                      text65       00377E
__ptext66                      text66       00384A
__ptext68                      text68       00381A
__ptext69                      text69       003092
__ptext7                       text7        003332
__ptext70                      text70       000000
__ptext8                       text8        003024
__ptext9                       text9        003620
__ramtop                       ramtop       000800
__size_of_Scheduler_check      (abs)        000000
__size_of_Scheduler_createTask (abs)        000000
__size_of_Scheduler_init       (abs)        000000
__size_of_Scheduler_sort       (abs)        000000
__size_of_Scheduler_start      (abs)        000000
__size_of_Scheduler_suspend    (abs)        000000
__size_of_Scheduler_wait       (abs)        000000
__size_of_Task0                (abs)        000000
__size_of_Task1                (abs)        000000
__size_of_Timer1_ISR           (abs)        000000
__size_of_Timer1_enable        (abs)        000000
__size_of_Timer1_init          (abs)        000000
__size_of_Timer1_reload        (abs)        000000
__size_of_Timer1_start         (abs)        000000
__size_of_Timer3_capture       (abs)        000000
__size_of_Timer3_enable        (abs)        000000
__size_of_Timer3_init          (abs)        000000
__size_of_Timer3_reload        (abs)        000000
__size_of_Timer3_start         (abs)        000000
__size_of_Timer3_stop          (abs)        000000
__size_of_UART_ISR             (abs)        000000
__size_of_UART_Transmit        (abs)        000000
__size_of_UART_init            (abs)        000000
__size_of_UART_open            (abs)        000000
__size_of_USensor_ISR          (abs)        000000
__size_of_USensor_init         (abs)        000000
__size_of_USensor_measure      (abs)        000000
__size_of_USensor_read         (abs)        000000
__size_of___aodiv              (abs)        000000
__size_of___aomod              (abs)        000000
__size_of___lldiv              (abs)        000000
__size_of___lodiv              (abs)        000000
__size_of___lomod              (abs)        000000
__size_of___lwdiv              (abs)        000000
__size_of___wmul               (abs)        000000
__size_of_abs                  (abs)        000000
__size_of_atoi                 (abs)        000000
__size_of_ctoa                 (abs)        000000
__size_of_dtoa                 (abs)        000000
__size_of_fputc                (abs)        000000
__size_of_fputs                (abs)        000000
__size_of_high_isr             (abs)        000000
__size_of_isalpha              (abs)        000000
__size_of_isdigit              (abs)        000000
__size_of_islower              (abs)        000000
__size_of_isspace              (abs)        000000
__size_of_isupper              (abs)        000000
__size_of_low_isr              (abs)        000000
__size_of_main                 (abs)        000000
__size_of_malloc               (abs)        000000
__size_of_otoa                 (abs)        000000
__size_of_pad                  (abs)        000000
__size_of_putch                (abs)        000000
__size_of_snprintf             (abs)        000000
__size_of_stoa                 (abs)        000000
__size_of_strlen               (abs)        000000
__size_of_strncmp              (abs)        000000
__size_of_toupper              (abs)        000000
__size_of_utoa                 (abs)        000000
__size_of_uxListInsertEnd      (abs)        000000
__size_of_uxListRemove         (abs)        000000
__size_of_vListInitialise      (abs)        000000
__size_of_vListInitialiseItem  (abs)        000000
__size_of_vTaskEXEC_TASK       (abs)        000000
__size_of_vTaskSwitchContext   (abs)        000000
__size_of_vfpfcnvrt            (abs)        000000
__size_of_vfprintf             (abs)        000000
__size_of_vsnprintf            (abs)        000000
__size_of_xtoa                 (abs)        000000
__size_ofi1_Timer1_reload      (abs)        000000
__smallconst                   smallconst   000800
_abs                           text25       0035EE
_atoi                          text34       002208
_atoi$2287                     cstackCOMRAM 000017
_atoi$2288                     cstackCOMRAM 00001B
_atoi$2289                     cstackCOMRAM 000019
_ctoa                          text28       003382
_dbuf                          bssBANK1     000120
_dtoa                          text24       0015B8
_dtoa$1675                     cstackCOMRAM 000035
_errno                         bssBANK0     0000AF
_flags                         bssCOMRAM    000052
_fputc                         text32       002D68
_fputs                         text31       00354E
_high_isr                      intcode      000008
_iRx                           bssBANK0     0000CF
_iTx                           bssBANK0     0000D1
_isalpha                       text17       003586
_isdigit                       text36       0036B0
_islower                       text15       003650
_isspace                       text35       00349C
_isspace$2314                  cstackCOMRAM 00000E
_isupper                       text16       003680
_low_isr                       intcodelo    000018
_main                          text0        002E9E
_malloc                        text63       002FA8
_measure                       bssBANK1     000100
_msg                           bssBANK1     000140
_nout                          bssBANK0     0000B1
_otoa                          text23       001F42
_pRx                           bssBANK0     0000D3
_pTx                           bssBANK0     0000D5
_pad                           text29       002E08
_prec                          bssCOMRAM    000050
_putch                         text33       003870
_snprintf                      text9        003620
_status                        bssCOMRAM    000056
_stoa                          text22       002348
_strlen                        text30       0036E0
_strncmp                       text21       002CBE
_toupper                       text14       0033D0
_toupper$2394                  cstackCOMRAM 000014
_tskBlockedQueue               bssBANK0     0000DE
_tskDoneQueue                  bssBANK0     0000D8
_tskReadyQueue                 bssBANK0     0000EA
_tskRunning                    bssCOMRAM    000054
_tskSysTick                    bssBANK0     0000C9
_tskWaitingQueue               bssBANK0     0000E4
_utoa                          text18       001C08
_uxListInsertEnd               text62       0028BA
_uxListRemove                  text56       001A26
_vListInitialise               text58       00341A
_vListInitialiseItem           text61       00328A
_vTaskEXEC_TASK                text50       003758
_vTaskSwitchContext            text49       003514
_vfpfcnvrt                     text12       00083E
_vfpfcnvrt$1725                cstackBANK0  00006A
_vfpfcnvrt$1726                cstackBANK0  00006C
_vfprintf                      text11       003234
_vsnprintf                     text10       0029B4
_vsnprintf$2426                cstackBANK0  000095
_width                         bssCOMRAM    00004E
_xtoa                          text13       0017FA
_xtoa$1710                     cstackCOMRAM 000036
_xtoa$1711                     cstackCOMRAM 000038
abs@a                          cstackCOMRAM 00001A
atoi@n                         cstackCOMRAM 00001C
atoi@neg                       cstackCOMRAM 000015
atoi@s                         cstackCOMRAM 00000F
btemp                          temp         000057
ctoa@c                         cstackCOMRAM 000025
ctoa@fp                        cstackCOMRAM 000023
ctoa@w                         cstackCOMRAM 000026
dtoa@d                         cstackCOMRAM 000025
dtoa@fp                        cstackCOMRAM 000023
dtoa@i                         cstackCOMRAM 000045
dtoa@n                         cstackCOMRAM 00003D
dtoa@p                         cstackCOMRAM 000037
dtoa@s                         cstackCOMRAM 00003B
dtoa@w                         cstackCOMRAM 000039
end_of_initialization          cinit        0031C4
fputc@c                        cstackCOMRAM 000008
fputc@fp                       cstackCOMRAM 00000A
fputs@c                        cstackCOMRAM 000015
fputs@fp                       cstackCOMRAM 000013
fputs@i                        cstackCOMRAM 000016
fputs@s                        cstackCOMRAM 000011
i1Timer1_reload@value          cstackCOMRAM 000003
i1_Timer1_reload               text66       00384A
int$flags                      temp         000057
int_func                       intcode_body 00379C
intlevel0                      text         000000
intlevel1                      text         000000
intlevel2                      text         000000
intlevel3                      text         000000
isalpha@c                      cstackCOMRAM 000008
isdigit@c                      cstackCOMRAM 000008
islower@c                      cstackCOMRAM 000008
isspace@c                      cstackCOMRAM 000008
isupper@c                      cstackCOMRAM 000008
malloc@pvTemp                  cstackCOMRAM 000010
malloc@size                    cstackCOMRAM 000008
otoa@d                         cstackCOMRAM 000025
otoa@fp                        cstackCOMRAM 000023
otoa@i                         cstackCOMRAM 000043
otoa@n                         cstackCOMRAM 00003B
otoa@p                         cstackCOMRAM 000035
otoa@t                         cstackCOMRAM 000037
otoa@w                         cstackCOMRAM 000039
pad@buf                        cstackCOMRAM 00001A
pad@fp                         cstackCOMRAM 000018
pad@i                          cstackCOMRAM 00001F
pad@p                          cstackCOMRAM 00001C
pad@w                          cstackCOMRAM 000021
snprintf@ap                    cstackBANK0  0000A9
snprintf@fmt                   cstackBANK0  0000A3
snprintf@n                     cstackBANK0  0000A1
snprintf@s                     cstackBANK0  00009F
stackhi                        (abs)        0003F3
stacklo                        (abs)        00014F
start                          init         00003A
start_initialization           cinit        00316C
stoa@F1152                     dataBANK0    0000F4
stoa@cp                        cstackCOMRAM 000021
stoa@fp                        cstackCOMRAM 000011
stoa@i                         cstackCOMRAM 00001D
stoa@l                         cstackCOMRAM 000025
stoa@nuls                      cstackCOMRAM 000016
stoa@p                         cstackCOMRAM 000023
stoa@s                         cstackCOMRAM 000013
stoa@w                         cstackCOMRAM 00001F
strlen@a                       cstackCOMRAM 00000A
strlen@s                       cstackCOMRAM 000008
strncmp@_l                     cstackCOMRAM 000008
strncmp@_r                     cstackCOMRAM 00000A
strncmp@l                      cstackCOMRAM 00000F
strncmp@n                      cstackCOMRAM 00000C
strncmp@r                      cstackCOMRAM 000011
toupper@c                      cstackCOMRAM 00000E
ttemp5                         temp         000058
ttemp6                         temp         00005B
ttemp7                         temp         00005F
utoa@d                         cstackCOMRAM 000025
utoa@fp                        cstackCOMRAM 000023
utoa@i                         cstackCOMRAM 000041
utoa@n                         cstackCOMRAM 000039
utoa@p                         cstackCOMRAM 000035
utoa@w                         cstackCOMRAM 000037
uxListInsertEnd@pxList         cstackCOMRAM 000008
uxListInsertEnd@pxNewListItem  cstackCOMRAM 00000A
uxListRemove@pxItemToRemove    cstackCOMRAM 000008
vListInitialise@pxList         cstackCOMRAM 000008
vListInitialiseItem@pxItem     cstackCOMRAM 000008
vfpfcnvrt@ap                   cstackBANK0  000064
vfpfcnvrt@c                    cstackBANK0  000078
vfpfcnvrt@cp                   cstackBANK0  000066
vfpfcnvrt@done                 cstackBANK0  000068
vfpfcnvrt@fmt                  cstackBANK0  000062
vfpfcnvrt@fp                   cstackBANK0  000060
vfpfcnvrt@ll                   cstackBANK0  00006E
vfpfcnvrt@llu                  cstackBANK0  000079
vfpfcnvrt@vp                   cstackBANK0  000076
vfprintf@ap                    cstackBANK0  000085
vfprintf@cfmt                  cstackBANK0  000087
vfprintf@fmt                   cstackBANK0  000083
vfprintf@fp                    cstackBANK0  000081
vsnprintf@ap                   cstackBANK0  00008F
vsnprintf@cnt                  cstackBANK0  000097
vsnprintf@f                    cstackBANK0  000099
vsnprintf@fmt                  cstackBANK0  00008D
vsnprintf@n                    cstackBANK0  00008B
vsnprintf@s                    cstackBANK0  000089
wtemp8                         temp         000058
xtoa@c                         cstackCOMRAM 000048
xtoa@d                         cstackCOMRAM 000025
xtoa@fp                        cstackCOMRAM 000023
xtoa@i                         cstackCOMRAM 000046
xtoa@n                         cstackCOMRAM 00003E
xtoa@p                         cstackCOMRAM 00003A
xtoa@w                         cstackCOMRAM 00003C
xtoa@x                         cstackCOMRAM 00002D


FUNCTION INFORMATION:

 *************** function _main *****************
 Defined at:
		line 23 in file "main.c"
 Parameters:    Size  Location     Type
		None
 Auto vars:     Size  Location     Type
		None
 Return value:  Size  Location     Type
                  1    wreg      void 
 Registers used:
		wreg, fsr0l, fsr0h, fsr1l, fsr1h, fsr2l, fsr2h, status,2, status,0, tblptrl, tblptrh, tblptru, prodl, prodh, cstack
 Tracked objects:
		On entry : 
		On exit  : 
		Unchanged: 
 Data sizes:     COMRAM   BANK0   BANK1   BANK2   BANK3   BANK4   BANK5   BANK6   BANK7
      Params:         0       0       0       0       0       0       0       0       0
      Locals:         0       0       0       0       0       0       0       0       0
      Temps:          0       0       0       0       0       0       0       0       0
      Totals:         0       0       0       0       0       0       0       0       0
Total ram usage:        0 bytes
 Hardware stack levels required when called:   15
 This function calls:
		_Scheduler_createTask
		_Scheduler_init
		_Scheduler_start
		_Task0
		_Task1
		_UART_init
		_UART_open
		_USensor_init
 This function is called by:
		Startup code after reset
 This function uses a non-reentrant model


 *************** function _USensor_init *****************
 Defined at:
		line 10 in file "Drivers/USensor.c"
 Parameters:    Size  Location     Type
		None
 Auto vars:     Size  Location     Type
  counter         1    9[COMRAM] unsigned char 
 Return value:  Size  Location     Type
                  1    wreg      void 
 Registers used:
		wreg, fsr2l, fsr2h, status,2, status,0, prodl, prodh, cstack
 Tracked objects:
		On entry : 
		On exit  : 
		Unchanged: 
 Data sizes:     COMRAM   BANK0   BANK1   BANK2   BANK3   BANK4   BANK5   BANK6   BANK7
      Params:         0       0       0       0       0       0       0       0       0
      Locals:         1       0       0       0       0       0       0       0       0
      Temps:          0       0       0       0       0       0       0       0       0
      Totals:         1       0       0       0       0       0       0       0       0
Total ram usage:        1 bytes
 Hardware stack levels used:    1
 Hardware stack levels required when called:    6
 This function calls:
		_Timer3_init
		_Timer3_reload
 This function is called by:
		_main
 This function uses a non-reentrant model


 *************** function _Timer3_init *****************
 Defined at:
		line 4 in file "Drivers/Timer3.c"
 Parameters:    Size  Location     Type
		None
 Auto vars:     Size  Location     Type
		None
 Return value:  Size  Location     Type
                  1    wreg      void 
 Registers used:
		wreg, status,2
 Tracked objects:
		On entry : 
		On exit  : 
		Unchanged: 
 Data sizes:     COMRAM   BANK0   BANK1   BANK2   BANK3   BANK4   BANK5   BANK6   BANK7
      Params:         0       0       0       0       0       0       0       0       0
      Locals:         0       0       0       0       0       0       0       0       0
      Temps:          0       0       0       0       0       0       0       0       0
      Totals:         0       0       0       0       0       0       0       0       0
Total ram usage:        0 bytes
 Hardware stack levels used:    1
 Hardware stack levels required when called:    5
 This function calls:
		Nothing
 This function is called by:
		_USensor_init
 This function uses a non-reentrant model


 *************** function _UART_open *****************
 Defined at:
		line 17 in file "Drivers/UART.c"
 Parameters:    Size  Location     Type
  baud            4   20[COMRAM] unsigned long 
  priority        1   24[COMRAM] unsigned char 
 Auto vars:     Size  Location     Type
  buffer          2   26[COMRAM] unsigned short 
 Return value:  Size  Location     Type
                  1    wreg      void 
 Registers used:
		wreg, status,2, status,0, cstack
 Tracked objects:
		On entry : 
		On exit  : 
		Unchanged: 
 Data sizes:     COMRAM   BANK0   BANK1   BANK2   BANK3   BANK4   BANK5   BANK6   BANK7
      Params:         5       0       0       0       0       0       0       0       0
      Locals:         2       0       0       0       0       0       0       0       0
      Temps:          1       0       0       0       0       0       0       0       0
      Totals:         8       0       0       0       0       0       0       0       0
Total ram usage:        8 bytes
 Hardware stack levels used:    1
 Hardware stack levels required when called:    6
 This function calls:
		___lldiv
 This function is called by:
		_main
 This function uses a non-reentrant model


 *************** function ___lldiv *****************
 Defined at:
		line 7 in file "/opt/microchip/xc8/v2.05/pic/sources/c99/common/__lldiv.c"
 Parameters:    Size  Location     Type
  dividend        4    7[COMRAM] unsigned long 
  divisor         4   11[COMRAM] unsigned long 
 Auto vars:     Size  Location     Type
  quotient        4   15[COMRAM] unsigned long 
  counter         1   19[COMRAM] unsigned char 
 Return value:  Size  Location     Type
                  4    7[COMRAM] unsigned long 
 Registers used:
		wreg, status,2, status,0
 Tracked objects:
		On entry : 
		On exit  : 
		Unchanged: 
 Data sizes:     COMRAM   BANK0   BANK1   BANK2   BANK3   BANK4   BANK5   BANK6   BANK7
      Params:         8       0       0       0       0       0       0       0       0
      Locals:         5       0       0       0       0       0       0       0       0
      Temps:          0       0       0       0       0       0       0       0       0
      Totals:        13       0       0       0       0       0       0       0       0
Total ram usage:       13 bytes
 Hardware stack levels used:    1
 Hardware stack levels required when called:    5
 This function calls:
		Nothing
 This function is called by:
		_UART_open
 This function uses a non-reentrant model


 *************** function _UART_init *****************
 Defined at:
		line 11 in file "Drivers/UART.c"
 Parameters:    Size  Location     Type
		None
 Auto vars:     Size  Location     Type
		None
 Return value:  Size  Location     Type
                  1    wreg      void 
 Registers used:
		wreg, status,2, status,0
 Tracked objects:
		On entry : 
		On exit  : 
		Unchanged: 
 Data sizes:     COMRAM   BANK0   BANK1   BANK2   BANK3   BANK4   BANK5   BANK6   BANK7
      Params:         0       0       0       0       0       0       0       0       0
      Locals:         0       0       0       0       0       0       0       0       0
      Temps:          0       0       0       0       0       0       0       0       0
      Totals:         0       0       0       0       0       0       0       0       0
Total ram usage:        0 bytes
 Hardware stack levels used:    1
 Hardware stack levels required when called:    5
 This function calls:
		Nothing
 This function is called by:
		_main
 This function uses a non-reentrant model


 *************** function _Task1 *****************
 Defined at:
		line 60 in file "main.c"
 Parameters:    Size  Location     Type
		None
 Auto vars:     Size  Location     Type
		None
 Return value:  Size  Location     Type
                  1    wreg      void 
 Registers used:
		wreg, fsr0l, fsr0h, fsr1l, fsr1h, fsr2l, fsr2h, status,2, status,0, cstack
 Tracked objects:
		On entry : 
		On exit  : 
		Unchanged: 
 Data sizes:     COMRAM   BANK0   BANK1   BANK2   BANK3   BANK4   BANK5   BANK6   BANK7
      Params:         0       0       0       0       0       0       0       0       0
      Locals:         0       0       0       0       0       0       0       0       0
      Temps:          0       0       0       0       0       0       0       0       0
      Totals:         0       0       0       0       0       0       0       0       0
Total ram usage:        0 bytes
 Hardware stack levels used:    1
 Hardware stack levels required when called:    7
 This function calls:
		_Scheduler_suspend
 This function is called by:
		_main
 This function uses a non-reentrant model


 *************** function _Scheduler_suspend *****************
 Defined at:
		line 74 in file "System/Scheduler.c"
 Parameters:    Size  Location     Type
  taskH           2   13[COMRAM] PTR struct SchedulerTask
		 -> HEAP(1024), NULL(0), 
 Auto vars:     Size  Location     Type
		None
 Return value:  Size  Location     Type
                  1    wreg      void 
 Registers used:
		wreg, fsr0l, fsr0h, fsr1l, fsr1h, fsr2l, fsr2h, status,2, status,0, cstack
 Tracked objects:
		On entry : 
		On exit  : 
		Unchanged: 
 Data sizes:     COMRAM   BANK0   BANK1   BANK2   BANK3   BANK4   BANK5   BANK6   BANK7
      Params:         2       0       0       0       0       0       0       0       0
      Locals:         0       0       0       0       0       0       0       0       0
      Temps:          0       0       0       0       0       0       0       0       0
      Totals:         2       0       0       0       0       0       0       0       0
Total ram usage:        2 bytes
 Hardware stack levels used:    1
 Hardware stack levels required when called:    6
 This function calls:
		_uxListInsertEnd
		_uxListRemove
 This function is called by:
		_Task1
 This function uses a non-reentrant model


 *************** function _Task0 *****************
 Defined at:
		line 51 in file "main.c"
 Parameters:    Size  Location     Type
		None
 Auto vars:     Size  Location     Type
		None
 Return value:  Size  Location     Type
                  1    wreg      void 
 Registers used:
		wreg, fsr1l, fsr1h, fsr2l, fsr2h, status,2, status,0, tblptrl, tblptrh, tblptru, prodl, prodh, cstack
 Tracked objects:
		On entry : 
		On exit  : 
		Unchanged: 
 Data sizes:     COMRAM   BANK0   BANK1   BANK2   BANK3   BANK4   BANK5   BANK6   BANK7
      Params:         0       0       0       0       0       0       0       0       0
      Locals:         0       0       0       0       0       0       0       0       0
      Temps:          0       0       0       0       0       0       0       0       0
      Totals:         0       0       0       0       0       0       0       0       0
Total ram usage:        0 bytes
 Hardware stack levels used:    1
 Hardware stack levels required when called:   14
 This function calls:
		_Scheduler_wait
		_UART_Transmit
		_USensor_measure
		_USensor_read
		_snprintf
		_strlen
 This function is called by:
		_main
 This function uses a non-reentrant model


 *************** function _snprintf *****************
 Defined at:
		line 4 in file "/opt/microchip/xc8/v2.05/pic/sources/c99/common/snprintf.c"
 Parameters:    Size  Location     Type
  s               2   63[BANK0 ] PTR unsigned char 
		 -> msg(15), 
  n               2   65[BANK0 ] unsigned int 
  fmt             2   67[BANK0 ] PTR const unsigned char 
		 -> STR_1(7), 
 Auto vars:     Size  Location     Type
  ap              2   73[BANK0 ] PTR void [1]
		 -> ?_snprintf(2), 
  ret             2    0        int 
 Return value:  Size  Location     Type
                  2   63[BANK0 ] int 
 Registers used:
		wreg, fsr1l, fsr1h, fsr2l, fsr2h, status,2, status,0, tblptrl, tblptrh, tblptru, prodl, prodh, cstack
 Tracked objects:
		On entry : 
		On exit  : 
		Unchanged: 
 Data sizes:     COMRAM   BANK0   BANK1   BANK2   BANK3   BANK4   BANK5   BANK6   BANK7
      Params:         0       8       0       0       0       0       0       0       0
      Locals:         0       4       0       0       0       0       0       0       0
      Temps:          0       0       0       0       0       0       0       0       0
      Totals:         0      12       0       0       0       0       0       0       0
Total ram usage:       12 bytes
 Hardware stack levels used:    1
 Hardware stack levels required when called:   13
 This function calls:
		_vsnprintf
 This function is called by:
		_Task0
 This function uses a non-reentrant model


 *************** function _vsnprintf *****************
 Defined at:
		line 11 in file "/opt/microchip/xc8/v2.05/pic/sources/c99/common/nf_vsnprintf.c"
 Parameters:    Size  Location     Type
  s               2   41[BANK0 ] PTR unsigned char 
		 -> msg(15), 
  n               2   43[BANK0 ] unsigned int 
  fmt             2   45[BANK0 ] PTR const unsigned char 
		 -> STR_1(7), 
  ap              2   47[BANK0 ] PTR PTR void 
		 -> snprintf@ap(2), 
 Auto vars:     Size  Location     Type
  f               6   57[BANK0 ] struct _IO_FILE
  cnt             2   55[BANK0 ] int 
 Return value:  Size  Location     Type
                  2   41[BANK0 ] int 
 Registers used:
		wreg, fsr1l, fsr1h, fsr2l, fsr2h, status,2, status,0, tblptrl, tblptrh, tblptru, prodl, prodh, cstack
 Tracked objects:
		On entry : 
		On exit  : 
		Unchanged: 
 Data sizes:     COMRAM   BANK0   BANK1   BANK2   BANK3   BANK4   BANK5   BANK6   BANK7
      Params:         0       8       0       0       0       0       0       0       0
      Locals:         0      10       0       0       0       0       0       0       0
      Temps:          0       4       0       0       0       0       0       0       0
      Totals:         0      22       0       0       0       0       0       0       0
Total ram usage:       22 bytes
 Hardware stack levels used:    1
 Hardware stack levels required when called:   12
 This function calls:
		_vfprintf
 This function is called by:
		_snprintf
 This function uses a non-reentrant model


 *************** function _vfprintf *****************
 Defined at:
		line 1368 in file "/opt/microchip/xc8/v2.05/pic/sources/c99/common/doprnt.c"
 Parameters:    Size  Location     Type
  fp              2   33[BANK0 ] PTR struct _IO_FILE
		 -> vsnprintf@f(6), 
  fmt             2   35[BANK0 ] PTR const unsigned char 
		 -> STR_1(7), 
  ap              2   37[BANK0 ] PTR PTR void 
		 -> snprintf@ap(2), 
 Auto vars:     Size  Location     Type
  cfmt            2   39[BANK0 ] PTR unsigned char 
		 -> STR_1(7), 
 Return value:  Size  Location     Type
                  2   33[BANK0 ] int 
 Registers used:
		wreg, fsr1l, fsr1h, fsr2l, fsr2h, status,2, status,0, tblptrl, tblptrh, tblptru, prodl, prodh, cstack
 Tracked objects:
		On entry : 
		On exit  : 
		Unchanged: 
 Data sizes:     COMRAM   BANK0   BANK1   BANK2   BANK3   BANK4   BANK5   BANK6   BANK7
      Params:         0       6       0       0       0       0       0       0       0
      Locals:         0       2       0       0       0       0       0       0       0
      Temps:          0       0       0       0       0       0       0       0       0
      Totals:         0       8       0       0       0       0       0       0       0
Total ram usage:        8 bytes
 Hardware stack levels used:    1
 Hardware stack levels required when called:   11
 This function calls:
		_vfpfcnvrt
 This function is called by:
		_vsnprintf
 This function uses a non-reentrant model


 *************** function _vfpfcnvrt *****************
 Defined at:
		line 670 in file "/opt/microchip/xc8/v2.05/pic/sources/c99/common/doprnt.c"
 Parameters:    Size  Location     Type
  fp              2    0[BANK0 ] PTR struct _IO_FILE
		 -> vsnprintf@f(6), 
  fmt             2    2[BANK0 ] PTR PTR unsigned char 
		 -> vfprintf@cfmt(2), 
  ap              2    4[BANK0 ] PTR PTR void 
		 -> snprintf@ap(2), 
 Auto vars:     Size  Location     Type
  llu             8   25[BANK0 ] unsigned long long 
  ll              8   14[BANK0 ] long long 
  f               4    0        long long 
  ct              3    0        unsigned char [3]
  vp              2   22[BANK0 ] PTR void 
		 -> ?_snprintf(2), 
  done            2    8[BANK0 ] int 
  cp              2    6[BANK0 ] PTR unsigned char 
		 -> ?_snprintf(2), 
  i               2    0        int 
  c               1   24[BANK0 ] unsigned char 
 Return value:  Size  Location     Type
                  2    0[BANK0 ] int 
 Registers used:
		wreg, fsr1l, fsr1h, fsr2l, fsr2h, status,2, status,0, tblptrl, tblptrh, tblptru, prodl, prodh, cstack
 Tracked objects:
		On entry : 
		On exit  : 
		Unchanged: 
 Data sizes:     COMRAM   BANK0   BANK1   BANK2   BANK3   BANK4   BANK5   BANK6   BANK7
      Params:         0       6       0       0       0       0       0       0       0
      Locals:         0      27       0       0       0       0       0       0       0
      Temps:          4       0       0       0       0       0       0       0       0
      Totals:         4      33       0       0       0       0       0       0       0
Total ram usage:       37 bytes
 Hardware stack levels used:    1
 Hardware stack levels required when called:   10
 This function calls:
		_atoi
		_ctoa
		_dtoa
		_fputc
		_isdigit
		_otoa
		_stoa
		_strncmp
		_utoa
		_xtoa
 This function is called by:
		_vfprintf
 This function uses a non-reentrant model


 *************** function _xtoa *****************
 Defined at:
		line 623 in file "/opt/microchip/xc8/v2.05/pic/sources/c99/common/doprnt.c"
 Parameters:    Size  Location     Type
  fp              2   34[COMRAM] PTR struct _IO_FILE
		 -> vsnprintf@f(6), 
  d               8   36[COMRAM] unsigned long long 
  x               1   44[COMRAM] unsigned char 
 Auto vars:     Size  Location     Type
  n               8   61[COMRAM] unsigned long long 
  c               2   71[COMRAM] int 
  i               2   69[COMRAM] int 
  w               2   59[COMRAM] int 
  p               2   57[COMRAM] int 
 Return value:  Size  Location     Type
                  2   34[COMRAM] int 
 Registers used:
		wreg, fsr1l, fsr1h, fsr2l, fsr2h, status,2, status,0, cstack
 Tracked objects:
		On entry : 
		On exit  : 
		Unchanged: 
 Data sizes:     COMRAM   BANK0   BANK1   BANK2   BANK3   BANK4   BANK5   BANK6   BANK7
      Params:        11       0       0       0       0       0       0       0       0
      Locals:        20       0       0       0       0       0       0       0       0
      Temps:          8       0       0       0       0       0       0       0       0
      Totals:        39       0       0       0       0       0       0       0       0
Total ram usage:       39 bytes
 Hardware stack levels used:    1
 Hardware stack levels required when called:    9
 This function calls:
		_isalpha
		_isupper
		_pad
		_toupper
 This function is called by:
		_vfpfcnvrt
 This function uses a non-reentrant model


 *************** function _toupper *****************
 Defined at:
		line 4 in file "/opt/microchip/xc8/v2.05/pic/sources/c99/common/toupper.c"
 Parameters:    Size  Location     Type
  c               2   13[COMRAM] int 
 Auto vars:     Size  Location     Type
		None
 Return value:  Size  Location     Type
                  2   13[COMRAM] int 
 Registers used:
		wreg, status,2, status,0
 Tracked objects:
		On entry : 
		On exit  : 
		Unchanged: 
 Data sizes:     COMRAM   BANK0   BANK1   BANK2   BANK3   BANK4   BANK5   BANK6   BANK7
      Params:         2       0       0       0       0       0       0       0       0
      Locals:         2       0       0       0       0       0       0       0       0
      Temps:          4       0       0       0       0       0       0       0       0
      Totals:         8       0       0       0       0       0       0       0       0
Total ram usage:        8 bytes
 Hardware stack levels used:    1
 Hardware stack levels required when called:    6
 This function calls:
		_islower
 This function is called by:
		_xtoa
 This function uses a non-reentrant model


 *************** function _islower *****************
 Defined at:
		line 5 in file "/opt/microchip/xc8/v2.05/pic/sources/c99/common/islower.c"
 Parameters:    Size  Location     Type
  c               2    7[COMRAM] int 
 Auto vars:     Size  Location     Type
		None
 Return value:  Size  Location     Type
                  2    7[COMRAM] int 
 Registers used:
		wreg, status,2, status,0
 Tracked objects:
		On entry : 
		On exit  : 
		Unchanged: 
 Data sizes:     COMRAM   BANK0   BANK1   BANK2   BANK3   BANK4   BANK5   BANK6   BANK7
      Params:         2       0       0       0       0       0       0       0       0
      Locals:         0       0       0       0       0       0       0       0       0
      Temps:          4       0       0       0       0       0       0       0       0
      Totals:         6       0       0       0       0       0       0       0       0
Total ram usage:        6 bytes
 Hardware stack levels used:    1
 Hardware stack levels required when called:    5
 This function calls:
		Nothing
 This function is called by:
		_toupper
 This function uses a non-reentrant model


 *************** function _isupper *****************
 Defined at:
		line 5 in file "/opt/microchip/xc8/v2.05/pic/sources/c99/common/isupper.c"
 Parameters:    Size  Location     Type
  c               2    7[COMRAM] int 
 Auto vars:     Size  Location     Type
		None
 Return value:  Size  Location     Type
                  2    7[COMRAM] int 
 Registers used:
		wreg, status,2, status,0
 Tracked objects:
		On entry : 
		On exit  : 
		Unchanged: 
 Data sizes:     COMRAM   BANK0   BANK1   BANK2   BANK3   BANK4   BANK5   BANK6   BANK7
      Params:         2       0       0       0       0       0       0       0       0
      Locals:         0       0       0       0       0       0       0       0       0
      Temps:          4       0       0       0       0       0       0       0       0
      Totals:         6       0       0       0       0       0       0       0       0
Total ram usage:        6 bytes
 Hardware stack levels used:    1
 Hardware stack levels required when called:    5
 This function calls:
		Nothing
 This function is called by:
		_xtoa
 This function uses a non-reentrant model


 *************** function _isalpha *****************
 Defined at:
		line 5 in file "/opt/microchip/xc8/v2.05/pic/sources/c99/common/isalpha.c"
 Parameters:    Size  Location     Type
  c               2    7[COMRAM] int 
 Auto vars:     Size  Location     Type
		None
 Return value:  Size  Location     Type
                  2    7[COMRAM] int 
 Registers used:
		wreg, status,2, status,0
 Tracked objects:
		On entry : 
		On exit  : 
		Unchanged: 
 Data sizes:     COMRAM   BANK0   BANK1   BANK2   BANK3   BANK4   BANK5   BANK6   BANK7
      Params:         2       0       0       0       0       0       0       0       0
      Locals:         0       0       0       0       0       0       0       0       0
      Temps:          4       0       0       0       0       0       0       0       0
      Totals:         6       0       0       0       0       0       0       0       0
Total ram usage:        6 bytes
 Hardware stack levels used:    1
 Hardware stack levels required when called:    5
 This function calls:
		Nothing
 This function is called by:
		_xtoa
 This function uses a non-reentrant model


 *************** function _utoa *****************
 Defined at:
		line 593 in file "/opt/microchip/xc8/v2.05/pic/sources/c99/common/doprnt.c"
 Parameters:    Size  Location     Type
  fp              2   34[COMRAM] PTR struct _IO_FILE
		 -> vsnprintf@f(6), 
  d               8   36[COMRAM] unsigned long long 
 Auto vars:     Size  Location     Type
  n               8   56[COMRAM] unsigned long long 
  i               2   64[COMRAM] int 
  w               2   54[COMRAM] int 
  p               2   52[COMRAM] int 
 Return value:  Size  Location     Type
                  2   34[COMRAM] int 
 Registers used:
		wreg, fsr1l, fsr1h, fsr2l, fsr2h, status,2, status,0, cstack
 Tracked objects:
		On entry : 
		On exit  : 
		Unchanged: 
 Data sizes:     COMRAM   BANK0   BANK1   BANK2   BANK3   BANK4   BANK5   BANK6   BANK7
      Params:        10       0       0       0       0       0       0       0       0
      Locals:        14       0       0       0       0       0       0       0       0
      Temps:          8       0       0       0       0       0       0       0       0
      Totals:        32       0       0       0       0       0       0       0       0
Total ram usage:       32 bytes
 Hardware stack levels used:    1
 Hardware stack levels required when called:    9
 This function calls:
		___lodiv
		___lomod
		_pad
 This function is called by:
		_vfpfcnvrt
 This function uses a non-reentrant model


 *************** function ___lomod *****************
 Defined at:
		line 9 in file "/opt/microchip/xc8/v2.05/pic/sources/c99/common/lomod.c"
 Parameters:    Size  Location     Type
  dividend        8    7[COMRAM] unsigned long long 
  divisor         8   15[COMRAM] unsigned long long 
 Auto vars:     Size  Location     Type
  counter         1   23[COMRAM] unsigned char 
 Return value:  Size  Location     Type
                  8    7[COMRAM] unsigned long long 
 Registers used:
		wreg, status,2, status,0
 Tracked objects:
		On entry : 
		On exit  : 
		Unchanged: 
 Data sizes:     COMRAM   BANK0   BANK1   BANK2   BANK3   BANK4   BANK5   BANK6   BANK7
      Params:        16       0       0       0       0       0       0       0       0
      Locals:         1       0       0       0       0       0       0       0       0
      Temps:          0       0       0       0       0       0       0       0       0
      Totals:        17       0       0       0       0       0       0       0       0
Total ram usage:       17 bytes
 Hardware stack levels used:    1
 Hardware stack levels required when called:    5
 This function calls:
		Nothing
 This function is called by:
		_utoa
 This function uses a non-reentrant model


 *************** function ___lodiv *****************
 Defined at:
		line 9 in file "/opt/microchip/xc8/v2.05/pic/sources/c99/common/lodiv.c"
 Parameters:    Size  Location     Type
  dividend        8    7[COMRAM] unsigned long long 
  divisor         8   15[COMRAM] unsigned long long 
 Auto vars:     Size  Location     Type
  quotient        8   23[COMRAM] unsigned long long 
  counter         1   31[COMRAM] unsigned char 
 Return value:  Size  Location     Type
                  8    7[COMRAM] unsigned long long 
 Registers used:
		wreg, fsr2l, fsr2h, status,2, status,0
 Tracked objects:
		On entry : 
		On exit  : 
		Unchanged: 
 Data sizes:     COMRAM   BANK0   BANK1   BANK2   BANK3   BANK4   BANK5   BANK6   BANK7
      Params:        16       0       0       0       0       0       0       0       0
      Locals:         9       0       0       0       0       0       0       0       0
      Temps:          0       0       0       0       0       0       0       0       0
      Totals:        25       0       0       0       0       0       0       0       0
Total ram usage:       25 bytes
 Hardware stack levels used:    1
 Hardware stack levels required when called:    5
 This function calls:
		Nothing
 This function is called by:
		_utoa
 This function uses a non-reentrant model


 *************** function _strncmp *****************
 Defined at:
		line 3 in file "/opt/microchip/xc8/v2.05/pic/sources/c99/common/strncmp.c"
 Parameters:    Size  Location     Type
  _l              2    7[COMRAM] PTR const unsigned char 
		 -> STR_1(7), 
  _r              2    9[COMRAM] PTR const unsigned char 
		 -> STR_98(3), STR_94(3), STR_89(3), STR_85(3), 
		 -> STR_80(4), STR_76(4), STR_71(3), STR_66(3), 
		 -> STR_61(4), STR_56(3), STR_51(3), STR_46(4), 
		 -> STR_41(3), STR_36(3), STR_31(4), STR_26(3), 
		 -> STR_22(3), STR_17(3), STR_13(3), STR_8(4), 
		 -> STR_4(4), 
  n               2   11[COMRAM] unsigned int 
 Auto vars:     Size  Location     Type
  r               2   16[COMRAM] PTR const unsigned char 
		 -> STR_98(3), STR_94(3), STR_89(3), STR_85(3), 
		 -> STR_80(4), STR_76(4), STR_71(3), STR_66(3), 
		 -> STR_61(4), STR_56(3), STR_51(3), STR_46(4), 
		 -> STR_41(3), STR_36(3), STR_31(4), STR_26(3), 
		 -> STR_22(3), STR_17(3), STR_13(3), STR_8(4), 
		 -> STR_4(4), 
  l               2   14[COMRAM] PTR const unsigned char 
		 -> STR_1(7), 
 Return value:  Size  Location     Type
                  2    7[COMRAM] int 
 Registers used:
		wreg, status,2, status,0, tblptrl, tblptrh, tblptru
 Tracked objects:
		On entry : 
		On exit  : 
		Unchanged: 
 Data sizes:     COMRAM   BANK0   BANK1   BANK2   BANK3   BANK4   BANK5   BANK6   BANK7
      Params:         6       0       0       0       0       0       0       0       0
      Locals:         4       0       0       0       0       0       0       0       0
      Temps:          1       0       0       0       0       0       0       0       0
      Totals:        11       0       0       0       0       0       0       0       0
Total ram usage:       11 bytes
 Hardware stack levels used:    1
 Hardware stack levels required when called:    5
 This function calls:
		Nothing
 This function is called by:
		_vfpfcnvrt
 This function uses a non-reentrant model


 *************** function _stoa *****************
 Defined at:
		line 546 in file "/opt/microchip/xc8/v2.05/pic/sources/c99/common/doprnt.c"
 Parameters:    Size  Location     Type
  fp              2   16[COMRAM] PTR struct _IO_FILE
		 -> vsnprintf@f(6), 
  s               2   18[COMRAM] PTR unsigned char 
		 -> ?_snprintf(2), 
 Auto vars:     Size  Location     Type
  nuls            7   21[COMRAM] unsigned char [7]
  l               2   36[COMRAM] int 
  p               2   34[COMRAM] int 
  cp              2   32[COMRAM] PTR unsigned char 
		 -> ?_snprintf(2), stoa@nuls(7), 
  w               2   30[COMRAM] int 
  i               2   28[COMRAM] int 
 Return value:  Size  Location     Type
                  2   16[COMRAM] int 
 Registers used:
		wreg, fsr1l, fsr1h, fsr2l, fsr2h, status,2, status,0, cstack
 Tracked objects:
		On entry : 
		On exit  : 
		Unchanged: 
 Data sizes:     COMRAM   BANK0   BANK1   BANK2   BANK3   BANK4   BANK5   BANK6   BANK7
      Params:         4       0       0       0       0       0       0       0       0
      Locals:        17       0       0       0       0       0       0       0       0
      Temps:          1       0       0       0       0       0       0       0       0
      Totals:        22       0       0       0       0       0       0       0       0
Total ram usage:       22 bytes
 Hardware stack levels used:    1
 Hardware stack levels required when called:    7
 This function calls:
		_fputc
		_strlen
 This function is called by:
		_vfpfcnvrt
 This function uses a non-reentrant model


 *************** function _otoa *****************
 Defined at:
		line 507 in file "/opt/microchip/xc8/v2.05/pic/sources/c99/common/doprnt.c"
 Parameters:    Size  Location     Type
  fp              2   34[COMRAM] PTR struct _IO_FILE
		 -> vsnprintf@f(6), 
  d               8   36[COMRAM] unsigned long long 
 Auto vars:     Size  Location     Type
  n               8   58[COMRAM] unsigned long long 
  i               2   66[COMRAM] int 
  w               2   56[COMRAM] int 
  t               2   54[COMRAM] int 
  p               2   52[COMRAM] int 
 Return value:  Size  Location     Type
                  2   34[COMRAM] int 
 Registers used:
		wreg, fsr1l, fsr1h, fsr2l, fsr2h, status,2, status,0, cstack
 Tracked objects:
		On entry : 
		On exit  : 
		Unchanged: 
 Data sizes:     COMRAM   BANK0   BANK1   BANK2   BANK3   BANK4   BANK5   BANK6   BANK7
      Params:        10       0       0       0       0       0       0       0       0
      Locals:        16       0       0       0       0       0       0       0       0
      Temps:          8       0       0       0       0       0       0       0       0
      Totals:        34       0       0       0       0       0       0       0       0
Total ram usage:       34 bytes
 Hardware stack levels used:    1
 Hardware stack levels required when called:    9
 This function calls:
		_pad
 This function is called by:
		_vfpfcnvrt
 This function uses a non-reentrant model


 *************** function _dtoa *****************
 Defined at:
		line 274 in file "/opt/microchip/xc8/v2.05/pic/sources/c99/common/doprnt.c"
 Parameters:    Size  Location     Type
  fp              2   34[COMRAM] PTR struct _IO_FILE
		 -> vsnprintf@f(6), 
  d               8   36[COMRAM] long long 
 Auto vars:     Size  Location     Type
  n               8   60[COMRAM] long long 
  i               2   68[COMRAM] int 
  s               2   58[COMRAM] int 
  w               2   56[COMRAM] int 
  p               2   54[COMRAM] int 
 Return value:  Size  Location     Type
                  2   34[COMRAM] int 
 Registers used:
		wreg, fsr1l, fsr1h, fsr2l, fsr2h, status,2, status,0, cstack
 Tracked objects:
		On entry : 
		On exit  : 
		Unchanged: 
 Data sizes:     COMRAM   BANK0   BANK1   BANK2   BANK3   BANK4   BANK5   BANK6   BANK7
      Params:        10       0       0       0       0       0       0       0       0
      Locals:        18       0       0       0       0       0       0       0       0
      Temps:          8       0       0       0       0       0       0       0       0
      Totals:        36       0       0       0       0       0       0       0       0
Total ram usage:       36 bytes
 Hardware stack levels used:    1
 Hardware stack levels required when called:    9
 This function calls:
		___aodiv
		___aomod
		_abs
		_pad
 This function is called by:
		_vfpfcnvrt
 This function uses a non-reentrant model


 *************** function _abs *****************
 Defined at:
		line 1 in file "/opt/microchip/xc8/v2.05/pic/sources/c99/common/abs.c"
 Parameters:    Size  Location     Type
  a               2   25[COMRAM] int 
 Auto vars:     Size  Location     Type
		None
 Return value:  Size  Location     Type
                  2   25[COMRAM] int 
 Registers used:
		wreg, status,2, status,0
 Tracked objects:
		On entry : 
		On exit  : 
		Unchanged: 
 Data sizes:     COMRAM   BANK0   BANK1   BANK2   BANK3   BANK4   BANK5   BANK6   BANK7
      Params:         2       0       0       0       0       0       0       0       0
      Locals:         0       0       0       0       0       0       0       0       0
      Temps:          2       0       0       0       0       0       0       0       0
      Totals:         4       0       0       0       0       0       0       0       0
Total ram usage:        4 bytes
 Hardware stack levels used:    1
 Hardware stack levels required when called:    5
 This function calls:
		Nothing
 This function is called by:
		_dtoa
 This function uses a non-reentrant model


 *************** function ___aomod *****************
 Defined at:
		line 9 in file "/opt/microchip/xc8/v2.05/pic/sources/c99/common/aomod.c"
 Parameters:    Size  Location     Type
  dividend        8    7[COMRAM] long long 
  divisor         8   15[COMRAM] long long 
 Auto vars:     Size  Location     Type
  sign            1   24[COMRAM] unsigned char 
  counter         1   23[COMRAM] unsigned char 
 Return value:  Size  Location     Type
                  8    7[COMRAM] long long 
 Registers used:
		wreg, status,2, status,0
 Tracked objects:
		On entry : 
		On exit  : 
		Unchanged: 
 Data sizes:     COMRAM   BANK0   BANK1   BANK2   BANK3   BANK4   BANK5   BANK6   BANK7
      Params:        16       0       0       0       0       0       0       0       0
      Locals:         2       0       0       0       0       0       0       0       0
      Temps:          0       0       0       0       0       0       0       0       0
      Totals:        18       0       0       0       0       0       0       0       0
Total ram usage:       18 bytes
 Hardware stack levels used:    1
 Hardware stack levels required when called:    5
 This function calls:
		Nothing
 This function is called by:
		_dtoa
 This function uses a non-reentrant model


 *************** function ___aodiv *****************
 Defined at:
		line 9 in file "/opt/microchip/xc8/v2.05/pic/sources/c99/common/aodiv.c"
 Parameters:    Size  Location     Type
  dividend        8    7[COMRAM] long long 
  divisor         8   15[COMRAM] long long 
 Auto vars:     Size  Location     Type
  quotient        8   25[COMRAM] long long 
  sign            1   24[COMRAM] unsigned char 
  counter         1   23[COMRAM] unsigned char 
 Return value:  Size  Location     Type
                  8    7[COMRAM] long long 
 Registers used:
		wreg, fsr2l, fsr2h, status,2, status,0
 Tracked objects:
		On entry : 
		On exit  : 
		Unchanged: 
 Data sizes:     COMRAM   BANK0   BANK1   BANK2   BANK3   BANK4   BANK5   BANK6   BANK7
      Params:        16       0       0       0       0       0       0       0       0
      Locals:        10       0       0       0       0       0       0       0       0
      Temps:          0       0       0       0       0       0       0       0       0
      Totals:        26       0       0       0       0       0       0       0       0
Total ram usage:       26 bytes
 Hardware stack levels used:    1
 Hardware stack levels required when called:    5
 This function calls:
		Nothing
 This function is called by:
		_dtoa
 This function uses a non-reentrant model


 *************** function _ctoa *****************
 Defined at:
		line 259 in file "/opt/microchip/xc8/v2.05/pic/sources/c99/common/doprnt.c"
 Parameters:    Size  Location     Type
  fp              2   34[COMRAM] PTR struct _IO_FILE
		 -> vsnprintf@f(6), 
  c               1   36[COMRAM] unsigned char 
 Auto vars:     Size  Location     Type
  w               2   37[COMRAM] int 
  l               2    0        int 
 Return value:  Size  Location     Type
                  2   34[COMRAM] int 
 Registers used:
		wreg, fsr1l, fsr1h, fsr2l, fsr2h, status,2, status,0, cstack
 Tracked objects:
		On entry : 
		On exit  : 
		Unchanged: 
 Data sizes:     COMRAM   BANK0   BANK1   BANK2   BANK3   BANK4   BANK5   BANK6   BANK7
      Params:         3       0       0       0       0       0       0       0       0
      Locals:         2       0       0       0       0       0       0       0       0
      Temps:          0       0       0       0       0       0       0       0       0
      Totals:         5       0       0       0       0       0       0       0       0
Total ram usage:        5 bytes
 Hardware stack levels used:    1
 Hardware stack levels required when called:    9
 This function calls:
		_pad
 This function is called by:
		_vfpfcnvrt
 This function uses a non-reentrant model


 *************** function _pad *****************
 Defined at:
		line 72 in file "/opt/microchip/xc8/v2.05/pic/sources/c99/common/doprnt.c"
 Parameters:    Size  Location     Type
  fp              2   23[COMRAM] PTR struct _IO_FILE
		 -> vsnprintf@f(6), 
  buf             2   25[COMRAM] PTR unsigned char 
		 -> dbuf(32), 
  p               2   27[COMRAM] int 
 Auto vars:     Size  Location     Type
  w               2   32[COMRAM] int 
  i               2   30[COMRAM] int 
 Return value:  Size  Location     Type
                  2   23[COMRAM] int 
 Registers used:
		wreg, fsr1l, fsr1h, fsr2l, fsr2h, status,2, status,0, cstack
 Tracked objects:
		On entry : 
		On exit  : 
		Unchanged: 
 Data sizes:     COMRAM   BANK0   BANK1   BANK2   BANK3   BANK4   BANK5   BANK6   BANK7
      Params:         6       0       0       0       0       0       0       0       0
      Locals:         4       0       0       0       0       0       0       0       0
      Temps:          1       0       0       0       0       0       0       0       0
      Totals:        11       0       0       0       0       0       0       0       0
Total ram usage:       11 bytes
 Hardware stack levels used:    1
 Hardware stack levels required when called:    8
 This function calls:
		_fputc
		_fputs
		_strlen
 This function is called by:
		_ctoa
		_dtoa
		_otoa
		_utoa
		_xtoa
 This function uses a non-reentrant model


 *************** function _strlen *****************
 Defined at:
		line 12 in file "/opt/microchip/xc8/v2.05/pic/sources/c99/common/strlen.c"
 Parameters:    Size  Location     Type
  s               2    7[COMRAM] PTR const unsigned char 
		 -> ?_snprintf(2), stoa@nuls(7), dbuf(32), msg(15), 
 Auto vars:     Size  Location     Type
  a               2    9[COMRAM] PTR const unsigned char 
		 -> ?_snprintf(2), stoa@nuls(7), dbuf(32), msg(15), 
 Return value:  Size  Location     Type
                  2    7[COMRAM] unsigned int 
 Registers used:
		wreg, fsr2l, fsr2h, status,2, status,0
 Tracked objects:
		On entry : 
		On exit  : 
		Unchanged: 
 Data sizes:     COMRAM   BANK0   BANK1   BANK2   BANK3   BANK4   BANK5   BANK6   BANK7
      Params:         2       0       0       0       0       0       0       0       0
      Locals:         2       0       0       0       0       0       0       0       0
      Temps:          0       0       0       0       0       0       0       0       0
      Totals:         4       0       0       0       0       0       0       0       0
Total ram usage:        4 bytes
 Hardware stack levels used:    1
 Hardware stack levels required when called:    5
 This function calls:
		Nothing
 This function is called by:
		_Task0
		_pad
		_stoa
 This function uses a non-reentrant model


 *************** function _fputs *****************
 Defined at:
		line 8 in file "/opt/microchip/xc8/v2.05/pic/sources/c99/common/nf_fputs.c"
 Parameters:    Size  Location     Type
  s               2   16[COMRAM] PTR const unsigned char 
		 -> dbuf(32), 
  fp              2   18[COMRAM] PTR struct _IO_FILE
		 -> vsnprintf@f(6), 
 Auto vars:     Size  Location     Type
  i               2   21[COMRAM] int 
  c               1   20[COMRAM] unsigned char 
 Return value:  Size  Location     Type
                  2   16[COMRAM] int 
 Registers used:
		wreg, fsr1l, fsr1h, fsr2l, fsr2h, status,2, status,0, cstack
 Tracked objects:
		On entry : 
		On exit  : 
		Unchanged: 
 Data sizes:     COMRAM   BANK0   BANK1   BANK2   BANK3   BANK4   BANK5   BANK6   BANK7
      Params:         4       0       0       0       0       0       0       0       0
      Locals:         3       0       0       0       0       0       0       0       0
      Temps:          0       0       0       0       0       0       0       0       0
      Totals:         7       0       0       0       0       0       0       0       0
Total ram usage:        7 bytes
 Hardware stack levels used:    1
 Hardware stack levels required when called:    7
 This function calls:
		_fputc
 This function is called by:
		_pad
 This function uses a non-reentrant model


 *************** function _fputc *****************
 Defined at:
		line 8 in file "/opt/microchip/xc8/v2.05/pic/sources/c99/common/nf_fputc.c"
 Parameters:    Size  Location     Type
  c               2    7[COMRAM] int 
  fp              2    9[COMRAM] PTR struct _IO_FILE
		 -> vsnprintf@f(6), 
 Auto vars:     Size  Location     Type
		None
 Return value:  Size  Location     Type
                  2    7[COMRAM] int 
 Registers used:
		wreg, fsr1l, fsr1h, fsr2l, fsr2h, status,2, status,0, cstack
 Tracked objects:
		On entry : 
		On exit  : 
		Unchanged: 
 Data sizes:     COMRAM   BANK0   BANK1   BANK2   BANK3   BANK4   BANK5   BANK6   BANK7
      Params:         4       0       0       0       0       0       0       0       0
      Locals:         0       0       0       0       0       0       0       0       0
      Temps:          5       0       0       0       0       0       0       0       0
      Totals:         9       0       0       0       0       0       0       0       0
Total ram usage:        9 bytes
 Hardware stack levels used:    1
 Hardware stack levels required when called:    6
 This function calls:
		_putch
 This function is called by:
		_pad
		_stoa
		_vfpfcnvrt
		_fputs
 This function uses a non-reentrant model


 *************** function _putch *****************
 Defined at:
		line 7 in file "/opt/microchip/xc8/v2.05/pic/sources/c99/common/putch.c"
 Parameters:    Size  Location     Type
  c               1    wreg     unsigned char 
 Auto vars:     Size  Location     Type
  c               1    0[COMRAM] unsigned char 
 Return value:  Size  Location     Type
                  1    wreg      void 
 Registers used:
		wreg
 Tracked objects:
		On entry : 
		On exit  : 
		Unchanged: 
 Data sizes:     COMRAM   BANK0   BANK1   BANK2   BANK3   BANK4   BANK5   BANK6   BANK7
      Params:         0       0       0       0       0       0       0       0       0
      Locals:         0       0       0       0       0       0       0       0       0
      Temps:          0       0       0       0       0       0       0       0       0
      Totals:         0       0       0       0       0       0       0       0       0
Total ram usage:        0 bytes
 Hardware stack levels used:    1
 Hardware stack levels required when called:    5
 This function calls:
		Nothing
 This function is called by:
		_fputc
 This function uses a non-reentrant model


 *************** function _atoi *****************
 Defined at:
		line 4 in file "/opt/microchip/xc8/v2.05/pic/sources/c99/common/atoi.c"
 Parameters:    Size  Location     Type
  s               2   14[COMRAM] PTR const unsigned char 
		 -> STR_1(7), 
 Auto vars:     Size  Location     Type
  n               2   27[COMRAM] int 
  neg             2   20[COMRAM] int 
 Return value:  Size  Location     Type
                  2   14[COMRAM] int 
 Registers used:
		wreg, status,2, status,0, tblptrl, tblptrh, tblptru, prodl, prodh, cstack
 Tracked objects:
		On entry : 
		On exit  : 
		Unchanged: 
 Data sizes:     COMRAM   BANK0   BANK1   BANK2   BANK3   BANK4   BANK5   BANK6   BANK7
      Params:         2       0       0       0       0       0       0       0       0
      Locals:         9       0       0       0       0       0       0       0       0
      Temps:          4       0       0       0       0       0       0       0       0
      Totals:        15       0       0       0       0       0       0       0       0
Total ram usage:       15 bytes
 Hardware stack levels used:    1
 Hardware stack levels required when called:    6
 This function calls:
		___wmul
		_isdigit
		_isspace
 This function is called by:
		_vfpfcnvrt
 This function uses a non-reentrant model


 *************** function _isspace *****************
 Defined at:
		line 5 in file "/opt/microchip/xc8/v2.05/pic/sources/c99/common/isspace.c"
 Parameters:    Size  Location     Type
  c               2    7[COMRAM] int 
 Auto vars:     Size  Location     Type
		None
 Return value:  Size  Location     Type
                  2    7[COMRAM] int 
 Registers used:
		wreg, status,2, status,0
 Tracked objects:
		On entry : 
		On exit  : 
		Unchanged: 
 Data sizes:     COMRAM   BANK0   BANK1   BANK2   BANK3   BANK4   BANK5   BANK6   BANK7
      Params:         2       0       0       0       0       0       0       0       0
      Locals:         1       0       0       0       0       0       0       0       0
      Temps:          4       0       0       0       0       0       0       0       0
      Totals:         7       0       0       0       0       0       0       0       0
Total ram usage:        7 bytes
 Hardware stack levels used:    1
 Hardware stack levels required when called:    5
 This function calls:
		Nothing
 This function is called by:
		_atoi
 This function uses a non-reentrant model


 *************** function _isdigit *****************
 Defined at:
		line 5 in file "/opt/microchip/xc8/v2.05/pic/sources/c99/common/isdigit.c"
 Parameters:    Size  Location     Type
  c               2    7[COMRAM] int 
 Auto vars:     Size  Location     Type
		None
 Return value:  Size  Location     Type
                  2    7[COMRAM] int 
 Registers used:
		wreg, status,2, status,0
 Tracked objects:
		On entry : 
		On exit  : 
		Unchanged: 
 Data sizes:     COMRAM   BANK0   BANK1   BANK2   BANK3   BANK4   BANK5   BANK6   BANK7
      Params:         2       0       0       0       0       0       0       0       0
      Locals:         0       0       0       0       0       0       0       0       0
      Temps:          4       0       0       0       0       0       0       0       0
      Totals:         6       0       0       0       0       0       0       0       0
Total ram usage:        6 bytes
 Hardware stack levels used:    1
 Hardware stack levels required when called:    5
 This function calls:
		Nothing
 This function is called by:
		_vfpfcnvrt
		_atoi
 This function uses a non-reentrant model


 *************** function ___wmul *****************
 Defined at:
		line 15 in file "/opt/microchip/xc8/v2.05/pic/sources/c99/common/Umul16.c"
 Parameters:    Size  Location     Type
  multiplier      2    7[COMRAM] unsigned int 
  multiplicand    2    9[COMRAM] unsigned int 
 Auto vars:     Size  Location     Type
  product         2   11[COMRAM] unsigned int 
 Return value:  Size  Location     Type
                  2    7[COMRAM] unsigned int 
 Registers used:
		wreg, status,2, status,0, prodl, prodh
 Tracked objects:
		On entry : 
		On exit  : 
		Unchanged: 
 Data sizes:     COMRAM   BANK0   BANK1   BANK2   BANK3   BANK4   BANK5   BANK6   BANK7
      Params:         4       0       0       0       0       0       0       0       0
      Locals:         2       0       0       0       0       0       0       0       0
      Temps:          0       0       0       0       0       0       0       0       0
      Totals:         6       0       0       0       0       0       0       0       0
Total ram usage:        6 bytes
 Hardware stack levels used:    1
 Hardware stack levels required when called:    5
 This function calls:
		Nothing
 This function is called by:
		_atoi
 This function uses a non-reentrant model


 *************** function _USensor_read *****************
 Defined at:
		line 54 in file "Drivers/USensor.c"
 Parameters:    Size  Location     Type
  buf             2    7[COMRAM] PTR struct USensorData
		 -> Task0@data(4), 
  index           1    9[COMRAM] unsigned char 
 Auto vars:     Size  Location     Type
		None
 Return value:  Size  Location     Type
                  1    wreg      void 
 Registers used:
		wreg, fsr1l, fsr1h, fsr2l, fsr2h, status,2, status,0, prodl, prodh
 Tracked objects:
		On entry : 
		On exit  : 
		Unchanged: 
 Data sizes:     COMRAM   BANK0   BANK1   BANK2   BANK3   BANK4   BANK5   BANK6   BANK7
      Params:         3       0       0       0       0       0       0       0       0
      Locals:         0       0       0       0       0       0       0       0       0
      Temps:          0       0       0       0       0       0       0       0       0
      Totals:         3       0       0       0       0       0       0       0       0
Total ram usage:        3 bytes
 Hardware stack levels used:    1
 Hardware stack levels required when called:    5
 This function calls:
		Nothing
 This function is called by:
		_Task0
 This function uses a non-reentrant model


 *************** function _USensor_measure *****************
 Defined at:
		line 25 in file "Drivers/USensor.c"
 Parameters:    Size  Location     Type
  mode            1    wreg     unsigned char 
 Auto vars:     Size  Location     Type
  mode            1   16[COMRAM] unsigned char 
 Return value:  Size  Location     Type
                  1    wreg      void 
 Registers used:
		wreg, fsr2l, fsr2h, status,2, status,0, prodl, prodh, cstack
 Tracked objects:
		On entry : 
		On exit  : 
		Unchanged: 
 Data sizes:     COMRAM   BANK0   BANK1   BANK2   BANK3   BANK4   BANK5   BANK6   BANK7
      Params:         0       0       0       0       0       0       0       0       0
      Locals:         1       0       0       0       0       0       0       0       0
      Temps:          2       0       0       0       0       0       0       0       0
      Totals:         3       0       0       0       0       0       0       0       0
Total ram usage:        3 bytes
 Hardware stack levels used:    1
 Hardware stack levels required when called:    6
 This function calls:
		_Timer3_capture
		_Timer3_enable
		_Timer3_reload
		_Timer3_start
		_Timer3_stop
		___lwdiv
 This function is called by:
		_Task0
 This function uses a non-reentrant model


 *************** function ___lwdiv *****************
 Defined at:
		line 7 in file "/opt/microchip/xc8/v2.05/pic/sources/c99/common/lwdiv.c"
 Parameters:    Size  Location     Type
  dividend        2    7[COMRAM] unsigned int 
  divisor         2    9[COMRAM] unsigned int 
 Auto vars:     Size  Location     Type
  quotient        2   11[COMRAM] unsigned int 
  counter         1   13[COMRAM] unsigned char 
 Return value:  Size  Location     Type
                  2    7[COMRAM] unsigned int 
 Registers used:
		wreg, status,2, status,0
 Tracked objects:
		On entry : 
		On exit  : 
		Unchanged: 
 Data sizes:     COMRAM   BANK0   BANK1   BANK2   BANK3   BANK4   BANK5   BANK6   BANK7
      Params:         4       0       0       0       0       0       0       0       0
      Locals:         3       0       0       0       0       0       0       0       0
      Temps:          0       0       0       0       0       0       0       0       0
      Totals:         7       0       0       0       0       0       0       0       0
Total ram usage:        7 bytes
 Hardware stack levels used:    1
 Hardware stack levels required when called:    5
 This function calls:
		Nothing
 This function is called by:
		_USensor_measure
 This function uses a non-reentrant model


 *************** function _Timer3_stop *****************
 Defined at:
		line 20 in file "Drivers/Timer3.c"
 Parameters:    Size  Location     Type
		None
 Auto vars:     Size  Location     Type
		None
 Return value:  Size  Location     Type
                  1    wreg      void 
 Registers used:
		status,2, status,0
 Tracked objects:
		On entry : 
		On exit  : 
		Unchanged: 
 Data sizes:     COMRAM   BANK0   BANK1   BANK2   BANK3   BANK4   BANK5   BANK6   BANK7
      Params:         0       0       0       0       0       0       0       0       0
      Locals:         0       0       0       0       0       0       0       0       0
      Temps:          0       0       0       0       0       0       0       0       0
      Totals:         0       0       0       0       0       0       0       0       0
Total ram usage:        0 bytes
 Hardware stack levels used:    1
 Hardware stack levels required when called:    5
 This function calls:
		Nothing
 This function is called by:
		_USensor_measure
 This function uses a non-reentrant model


 *************** function _Timer3_start *****************
 Defined at:
		line 17 in file "Drivers/Timer3.c"
 Parameters:    Size  Location     Type
		None
 Auto vars:     Size  Location     Type
		None
 Return value:  Size  Location     Type
                  1    wreg      void 
 Registers used:
		status,2, status,0
 Tracked objects:
		On entry : 
		On exit  : 
		Unchanged: 
 Data sizes:     COMRAM   BANK0   BANK1   BANK2   BANK3   BANK4   BANK5   BANK6   BANK7
      Params:         0       0       0       0       0       0       0       0       0
      Locals:         0       0       0       0       0       0       0       0       0
      Temps:          0       0       0       0       0       0       0       0       0
      Totals:         0       0       0       0       0       0       0       0       0
Total ram usage:        0 bytes
 Hardware stack levels used:    1
 Hardware stack levels required when called:    5
 This function calls:
		Nothing
 This function is called by:
		_USensor_measure
 This function uses a non-reentrant model


 *************** function _Timer3_reload *****************
 Defined at:
		line 24 in file "Drivers/Timer3.c"
 Parameters:    Size  Location     Type
  value           2    7[COMRAM] unsigned short 
 Auto vars:     Size  Location     Type
		None
 Return value:  Size  Location     Type
                  1    wreg      void 
 Registers used:
		wreg, status,2
 Tracked objects:
		On entry : 
		On exit  : 
		Unchanged: 
 Data sizes:     COMRAM   BANK0   BANK1   BANK2   BANK3   BANK4   BANK5   BANK6   BANK7
      Params:         2       0       0       0       0       0       0       0       0
      Locals:         0       0       0       0       0       0       0       0       0
      Temps:          0       0       0       0       0       0       0       0       0
      Totals:         2       0       0       0       0       0       0       0       0
Total ram usage:        2 bytes
 Hardware stack levels used:    1
 Hardware stack levels required when called:    5
 This function calls:
		Nothing
 This function is called by:
		_USensor_init
		_USensor_measure
 This function uses a non-reentrant model


 *************** function _Timer3_enable *****************
 Defined at:
		line 9 in file "Drivers/Timer3.c"
 Parameters:    Size  Location     Type
  priority        1    wreg     unsigned char 
 Auto vars:     Size  Location     Type
  priority        1    8[COMRAM] unsigned char 
 Return value:  Size  Location     Type
                  1    wreg      void 
 Registers used:
		wreg, status,2, status,0
 Tracked objects:
		On entry : 
		On exit  : 
		Unchanged: 
 Data sizes:     COMRAM   BANK0   BANK1   BANK2   BANK3   BANK4   BANK5   BANK6   BANK7
      Params:         0       0       0       0       0       0       0       0       0
      Locals:         1       0       0       0       0       0       0       0       0
      Temps:          1       0       0       0       0       0       0       0       0
      Totals:         2       0       0       0       0       0       0       0       0
Total ram usage:        2 bytes
 Hardware stack levels used:    1
 Hardware stack levels required when called:    5
 This function calls:
		Nothing
 This function is called by:
		_USensor_measure
 This function uses a non-reentrant model


 *************** function _Timer3_capture *****************
 Defined at:
		line 28 in file "Drivers/Timer3.c"
 Parameters:    Size  Location     Type
		None
 Auto vars:     Size  Location     Type
		None
 Return value:  Size  Location     Type
                  2    7[COMRAM] unsigned short 
 Registers used:
		None
 Tracked objects:
		On entry : 
		On exit  : 
		Unchanged: 
 Data sizes:     COMRAM   BANK0   BANK1   BANK2   BANK3   BANK4   BANK5   BANK6   BANK7
      Params:         2       0       0       0       0       0       0       0       0
      Locals:         0       0       0       0       0       0       0       0       0
      Temps:          0       0       0       0       0       0       0       0       0
      Totals:         2       0       0       0       0       0       0       0       0
Total ram usage:        2 bytes
 Hardware stack levels used:    1
 Hardware stack levels required when called:    5
 This function calls:
		Nothing
 This function is called by:
		_USensor_measure
 This function uses a non-reentrant model


 *************** function _UART_Transmit *****************
 Defined at:
		line 70 in file "Drivers/UART.c"
 Parameters:    Size  Location     Type
  buffer          2   11[COMRAM] PTR void 
		 -> msg(15), 
  size            2   13[COMRAM] unsigned int 
 Auto vars:     Size  Location     Type
		None
 Return value:  Size  Location     Type
                  1    wreg      unsigned char 
 Registers used:
		wreg, status,2, status,0
 Tracked objects:
		On entry : 
		On exit  : 
		Unchanged: 
 Data sizes:     COMRAM   BANK0   BANK1   BANK2   BANK3   BANK4   BANK5   BANK6   BANK7
      Params:         4       0       0       0       0       0       0       0       0
      Locals:         0       0       0       0       0       0       0       0       0
      Temps:          0       0       0       0       0       0       0       0       0
      Totals:         4       0       0       0       0       0       0       0       0
Total ram usage:        4 bytes
 Hardware stack levels used:    1
 Hardware stack levels required when called:    5
 This function calls:
		Nothing
 This function is called by:
		_Task0
 This function uses a non-reentrant model


 *************** function _Scheduler_wait *****************
 Defined at:
		line 58 in file "System/Scheduler.c"
 Parameters:    Size  Location     Type
  time            2    7[COMRAM] unsigned short 
 Auto vars:     Size  Location     Type
		None
 Return value:  Size  Location     Type
                  1    wreg      void 
 Registers used:
		wreg, fsr2l, fsr2h, status,2, status,0
 Tracked objects:
		On entry : 
		On exit  : 
		Unchanged: 
 Data sizes:     COMRAM   BANK0   BANK1   BANK2   BANK3   BANK4   BANK5   BANK6   BANK7
      Params:         2       0       0       0       0       0       0       0       0
      Locals:         0       0       0       0       0       0       0       0       0
      Temps:          0       0       0       0       0       0       0       0       0
      Totals:         2       0       0       0       0       0       0       0       0
Total ram usage:        2 bytes
 Hardware stack levels used:    1
 Hardware stack levels required when called:    5
 This function calls:
		Nothing
 This function is called by:
		_Task0
 This function uses a non-reentrant model


 *************** function _Scheduler_start *****************
 Defined at:
		line 191 in file "System/Scheduler.c"
 Parameters:    Size  Location     Type
		None
 Auto vars:     Size  Location     Type
		None
 Return value:  Size  Location     Type
                  1    wreg      void 
 Registers used:
		wreg, fsr0l, fsr0h, fsr1l, fsr1h, fsr2l, fsr2h, status,2, status,0, cstack
 Tracked objects:
		On entry : 
		On exit  : 
		Unchanged: 
 Data sizes:     COMRAM   BANK0   BANK1   BANK2   BANK3   BANK4   BANK5   BANK6   BANK7
      Params:         0       0       0       0       0       0       0       0       0
      Locals:         0       0       0       0       0       0       0       0       0
      Temps:          1       0       0       0       0       0       0       0       0
      Totals:         1       0       0       0       0       0       0       0       0
Total ram usage:        1 bytes
 Hardware stack levels used:    1
 Hardware stack levels required when called:    7
 This function calls:
		_Scheduler_check
		_Scheduler_sort
		_Timer1_enable
		_Timer1_reload
		_Timer1_start
		_uxListInsertEnd
		_vTaskEXEC_TASK
		_vTaskSwitchContext
 This function is called by:
		_main
 This function uses a non-reentrant model


 *************** function _vTaskSwitchContext *****************
 Defined at:
		line 126 in file "System/Scheduler.c"
 Parameters:    Size  Location     Type
		None
 Auto vars:     Size  Location     Type
		None
 Return value:  Size  Location     Type
                  1    wreg      void 
 Registers used:
		wreg, fsr0l, fsr0h, fsr1l, fsr1h, fsr2l, fsr2h, status,2, status,0, cstack
 Tracked objects:
		On entry : 
		On exit  : 
		Unchanged: 
 Data sizes:     COMRAM   BANK0   BANK1   BANK2   BANK3   BANK4   BANK5   BANK6   BANK7
      Params:         0       0       0       0       0       0       0       0       0
      Locals:         0       0       0       0       0       0       0       0       0
      Temps:          0       0       0       0       0       0       0       0       0
      Totals:         0       0       0       0       0       0       0       0       0
Total ram usage:        0 bytes
 Hardware stack levels used:    1
 Hardware stack levels required when called:    6
 This function calls:
		_uxListRemove
 This function is called by:
		_Scheduler_start
 This function uses a non-reentrant model


 *************** function _vTaskEXEC_TASK *****************
 Defined at:
		line 138 in file "System/Scheduler.c"
 Parameters:    Size  Location     Type
		None
 Auto vars:     Size  Location     Type
		None
 Return value:  Size  Location     Type
                  1    wreg      void 
 Registers used:
		fsr2l, fsr2h
 Tracked objects:
		On entry : 
		On exit  : 
		Unchanged: 
 Data sizes:     COMRAM   BANK0   BANK1   BANK2   BANK3   BANK4   BANK5   BANK6   BANK7
      Params:         0       0       0       0       0       0       0       0       0
      Locals:         0       0       0       0       0       0       0       0       0
      Temps:          0       0       0       0       0       0       0       0       0
      Totals:         0       0       0       0       0       0       0       0       0
Total ram usage:        0 bytes
 Hardware stack levels used:    1
 Hardware stack levels required when called:    5
 This function calls:
		Nothing
 This function is called by:
		_Scheduler_start
 This function uses a non-reentrant model


 *************** function _Timer1_start *****************
 Defined at:
		line 18 in file "Drivers/Timer1.c"
 Parameters:    Size  Location     Type
		None
 Auto vars:     Size  Location     Type
		None
 Return value:  Size  Location     Type
                  1    wreg      void 
 Registers used:
		status,2, status,0
 Tracked objects:
		On entry : 
		On exit  : 
		Unchanged: 
 Data sizes:     COMRAM   BANK0   BANK1   BANK2   BANK3   BANK4   BANK5   BANK6   BANK7
      Params:         0       0       0       0       0       0       0       0       0
      Locals:         0       0       0       0       0       0       0       0       0
      Temps:          0       0       0       0       0       0       0       0       0
      Totals:         0       0       0       0       0       0       0       0       0
Total ram usage:        0 bytes
 Hardware stack levels used:    1
 Hardware stack levels required when called:    5
 This function calls:
		Nothing
 This function is called by:
		_Scheduler_start
 This function uses a non-reentrant model


 *************** function _Timer1_reload *****************
 Defined at:
		line 24 in file "Drivers/Timer1.c"
 Parameters:    Size  Location     Type
  value           2    7[COMRAM] unsigned short 
 Auto vars:     Size  Location     Type
		None
 Return value:  Size  Location     Type
                  1    wreg      void 
 Registers used:
		None
 Tracked objects:
		On entry : 
		On exit  : 
		Unchanged: 
 Data sizes:     COMRAM   BANK0   BANK1   BANK2   BANK3   BANK4   BANK5   BANK6   BANK7
      Params:         2       0       0       0       0       0       0       0       0
      Locals:         0       0       0       0       0       0       0       0       0
      Temps:          0       0       0       0       0       0       0       0       0
      Totals:         2       0       0       0       0       0       0       0       0
Total ram usage:        2 bytes
 Hardware stack levels used:    1
 Hardware stack levels required when called:    5
 This function calls:
		Nothing
 This function is called by:
		_Scheduler_start
 This function uses a non-reentrant model


 *************** function _Timer1_enable *****************
 Defined at:
		line 10 in file "Drivers/Timer1.c"
 Parameters:    Size  Location     Type
  priority        1    wreg     unsigned char 
 Auto vars:     Size  Location     Type
  priority        1    8[COMRAM] unsigned char 
 Return value:  Size  Location     Type
                  1    wreg      void 
 Registers used:
		wreg, status,2, status,0
 Tracked objects:
		On entry : 
		On exit  : 
		Unchanged: 
 Data sizes:     COMRAM   BANK0   BANK1   BANK2   BANK3   BANK4   BANK5   BANK6   BANK7
      Params:         0       0       0       0       0       0       0       0       0
      Locals:         1       0       0       0       0       0       0       0       0
      Temps:          1       0       0       0       0       0       0       0       0
      Totals:         2       0       0       0       0       0       0       0       0
Total ram usage:        2 bytes
 Hardware stack levels used:    1
 Hardware stack levels required when called:    5
 This function calls:
		Nothing
 This function is called by:
		_Scheduler_start
 This function uses a non-reentrant model


 *************** function _Scheduler_sort *****************
 Defined at:
		line 24 in file "System/Scheduler.c"
 Parameters:    Size  Location     Type
		None
 Auto vars:     Size  Location     Type
		None
 Return value:  Size  Location     Type
                  1    wreg      void 
 Registers used:
		None
 Tracked objects:
		On entry : 
		On exit  : 
		Unchanged: 
 Data sizes:     COMRAM   BANK0   BANK1   BANK2   BANK3   BANK4   BANK5   BANK6   BANK7
      Params:         0       0       0       0       0       0       0       0       0
      Locals:         0       0       0       0       0       0       0       0       0
      Temps:          0       0       0       0       0       0       0       0       0
      Totals:         0       0       0       0       0       0       0       0       0
Total ram usage:        0 bytes
 Hardware stack levels used:    1
 Hardware stack levels required when called:    5
 This function calls:
		Nothing
 This function is called by:
		_Scheduler_start
 This function uses a non-reentrant model


 *************** function _Scheduler_check *****************
 Defined at:
		line 154 in file "System/Scheduler.c"
 Parameters:    Size  Location     Type
		None
 Auto vars:     Size  Location     Type
		None
 Return value:  Size  Location     Type
                  1    wreg      void 
 Registers used:
		wreg, fsr0l, fsr0h, fsr1l, fsr1h, fsr2l, fsr2h, status,2, status,0, cstack
 Tracked objects:
		On entry : 
		On exit  : 
		Unchanged: 
 Data sizes:     COMRAM   BANK0   BANK1   BANK2   BANK3   BANK4   BANK5   BANK6   BANK7
      Params:         0       0       0       0       0       0       0       0       0
      Locals:         0       0       0       0       0       0       0       0       0
      Temps:          2       0       0       0       0       0       0       0       0
      Totals:         2       0       0       0       0       0       0       0       0
Total ram usage:        2 bytes
 Hardware stack levels used:    1
 Hardware stack levels required when called:    6
 This function calls:
		_uxListInsertEnd
		_uxListRemove
 This function is called by:
		_Scheduler_start
 This function uses a non-reentrant model


 *************** function _uxListRemove *****************
 Defined at:
		line 113 in file "System/list.c"
 Parameters:    Size  Location     Type
  pxItemToRemo    2    7[COMRAM] PTR struct ListItem_t
		 -> HEAP(1024), NULL(0), 
 Auto vars:     Size  Location     Type
  left            2    0        unsigned short 
 Return value:  Size  Location     Type
                  2    7[COMRAM] unsigned short 
 Registers used:
		wreg, fsr0l, fsr0h, fsr1l, fsr1h, fsr2l, fsr2h, status,2, status,0
 Tracked objects:
		On entry : 
		On exit  : 
		Unchanged: 
 Data sizes:     COMRAM   BANK0   BANK1   BANK2   BANK3   BANK4   BANK5   BANK6   BANK7
      Params:         2       0       0       0       0       0       0       0       0
      Locals:         2       0       0       0       0       0       0       0       0
      Temps:          2       0       0       0       0       0       0       0       0
      Totals:         6       0       0       0       0       0       0       0       0
Total ram usage:        6 bytes
 Hardware stack levels used:    1
 Hardware stack levels required when called:    5
 This function calls:
		Nothing
 This function is called by:
		_Scheduler_suspend
		_vTaskSwitchContext
		_Scheduler_check
		_Scheduler_resume
 This function uses a non-reentrant model


 *************** function _Scheduler_init *****************
 Defined at:
		line 116 in file "System/Scheduler.c"
 Parameters:    Size  Location     Type
		None
 Auto vars:     Size  Location     Type
		None
 Return value:  Size  Location     Type
                  1    wreg      void 
 Registers used:
		wreg, fsr1l, fsr1h, fsr2l, fsr2h, status,2, status,0, cstack
 Tracked objects:
		On entry : 
		On exit  : 
		Unchanged: 
 Data sizes:     COMRAM   BANK0   BANK1   BANK2   BANK3   BANK4   BANK5   BANK6   BANK7
      Params:         0       0       0       0       0       0       0       0       0
      Locals:         0       0       0       0       0       0       0       0       0
      Temps:          0       0       0       0       0       0       0       0       0
      Totals:         0       0       0       0       0       0       0       0       0
Total ram usage:        0 bytes
 Hardware stack levels used:    1
 Hardware stack levels required when called:    6
 This function calls:
		_Timer1_init
		_vListInitialise
 This function is called by:
		_main
 This function uses a non-reentrant model


 *************** function _vListInitialise *****************
 Defined at:
		line 10 in file "System/list.c"
 Parameters:    Size  Location     Type
  pxList          2    7[COMRAM] PTR struct List_t
		 -> tskDoneQueue(6), tskReadyQueue(6), tskWaitingQueue(6), tskBlockedQueue(6), 
 Auto vars:     Size  Location     Type
		None
 Return value:  Size  Location     Type
                  1    wreg      void 
 Registers used:
		wreg, fsr1l, fsr1h, fsr2l, fsr2h, status,2, status,0
 Tracked objects:
		On entry : 
		On exit  : 
		Unchanged: 
 Data sizes:     COMRAM   BANK0   BANK1   BANK2   BANK3   BANK4   BANK5   BANK6   BANK7
      Params:         2       0       0       0       0       0       0       0       0
      Locals:         0       0       0       0       0       0       0       0       0
      Temps:          0       0       0       0       0       0       0       0       0
      Totals:         2       0       0       0       0       0       0       0       0
Total ram usage:        2 bytes
 Hardware stack levels used:    1
 Hardware stack levels required when called:    5
 This function calls:
		Nothing
 This function is called by:
		_Scheduler_init
 This function uses a non-reentrant model


 *************** function _Timer1_init *****************
 Defined at:
		line 6 in file "Drivers/Timer1.c"
 Parameters:    Size  Location     Type
		None
 Auto vars:     Size  Location     Type
		None
 Return value:  Size  Location     Type
                  1    wreg      void 
 Registers used:
		wreg, status,2
 Tracked objects:
		On entry : 
		On exit  : 
		Unchanged: 
 Data sizes:     COMRAM   BANK0   BANK1   BANK2   BANK3   BANK4   BANK5   BANK6   BANK7
      Params:         0       0       0       0       0       0       0       0       0
      Locals:         0       0       0       0       0       0       0       0       0
      Temps:          0       0       0       0       0       0       0       0       0
      Totals:         0       0       0       0       0       0       0       0       0
Total ram usage:        0 bytes
 Hardware stack levels used:    1
 Hardware stack levels required when called:    5
 This function calls:
		Nothing
 This function is called by:
		_Scheduler_init
 This function uses a non-reentrant model


 *************** function _Scheduler_createTask *****************
 Defined at:
		line 31 in file "System/Scheduler.c"
 Parameters:    Size  Location     Type
  taskFxn         2   17[COMRAM] PTR FTN()void 
		 -> Task1(1), Task0(1), 
  timeout         2   19[COMRAM] unsigned short 
 Auto vars:     Size  Location     Type
  temp            2   21[COMRAM] PTR struct SchedulerTask
		 -> HEAP(1024), NULL(0), 
 Return value:  Size  Location     Type
                  2   17[COMRAM] PTR struct SchedulerTask
 Registers used:
		wreg, fsr1l, fsr1h, fsr2l, fsr2h, status,2, status,0, cstack
 Tracked objects:
		On entry : 
		On exit  : 
		Unchanged: 
 Data sizes:     COMRAM   BANK0   BANK1   BANK2   BANK3   BANK4   BANK5   BANK6   BANK7
      Params:         4       0       0       0       0       0       0       0       0
      Locals:         2       0       0       0       0       0       0       0       0
      Temps:          0       0       0       0       0       0       0       0       0
      Totals:         6       0       0       0       0       0       0       0       0
Total ram usage:        6 bytes
 Hardware stack levels used:    1
 Hardware stack levels required when called:    6
 This function calls:
		_malloc
		_uxListInsertEnd
		_vListInitialiseItem
 This function is called by:
		_main
 This function uses a non-reentrant model


 *************** function _vListInitialiseItem *****************
 Defined at:
		line 23 in file "System/list.c"
 Parameters:    Size  Location     Type
  pxItem          2    7[COMRAM] PTR struct ListItem_t
		 -> HEAP(1024), NULL(0), 
 Auto vars:     Size  Location     Type
		None
 Return value:  Size  Location     Type
                  1    wreg      void 
 Registers used:
		wreg, fsr2l, fsr2h, status,2, status,0
 Tracked objects:
		On entry : 
		On exit  : 
		Unchanged: 
 Data sizes:     COMRAM   BANK0   BANK1   BANK2   BANK3   BANK4   BANK5   BANK6   BANK7
      Params:         2       0       0       0       0       0       0       0       0
      Locals:         0       0       0       0       0       0       0       0       0
      Temps:          0       0       0       0       0       0       0       0       0
      Totals:         2       0       0       0       0       0       0       0       0
Total ram usage:        2 bytes
 Hardware stack levels used:    1
 Hardware stack levels required when called:    5
 This function calls:
		Nothing
 This function is called by:
		_Scheduler_createTask
 This function uses a non-reentrant model


 *************** function _uxListInsertEnd *****************
 Defined at:
		line 75 in file "System/list.c"
 Parameters:    Size  Location     Type
  pxList          2    7[COMRAM] PTR struct List_t
		 -> tskDoneQueue(6), tskReadyQueue(6), tskWaitingQueue(6), tskBlockedQueue(6), 
  pxNewListIte    2    9[COMRAM] PTR struct ListItem_t
		 -> HEAP(1024), NULL(0), 
 Auto vars:     Size  Location     Type
		None
 Return value:  Size  Location     Type
                  2    7[COMRAM] unsigned short 
 Registers used:
		wreg, fsr1l, fsr1h, fsr2l, fsr2h, status,2, status,0
 Tracked objects:
		On entry : 
		On exit  : 
		Unchanged: 
 Data sizes:     COMRAM   BANK0   BANK1   BANK2   BANK3   BANK4   BANK5   BANK6   BANK7
      Params:         4       0       0       0       0       0       0       0       0
      Locals:         0       0       0       0       0       0       0       0       0
      Temps:          2       0       0       0       0       0       0       0       0
      Totals:         6       0       0       0       0       0       0       0       0
Total ram usage:        6 bytes
 Hardware stack levels used:    1
 Hardware stack levels required when called:    5
 This function calls:
		Nothing
 This function is called by:
		_Scheduler_createTask
		_Scheduler_suspend
		_Scheduler_check
		_Scheduler_start
		_Scheduler_resume
 This function uses a non-reentrant model


 *************** function _malloc *****************
 Defined at:
		line 7 in file "System/mem.c"
 Parameters:    Size  Location     Type
  size            4    7[COMRAM] unsigned long 
 Auto vars:     Size  Location     Type
  pvTemp          2   15[COMRAM] PTR void 
		 -> HEAP(1024), NULL(0), 
 Return value:  Size  Location     Type
                  2    7[COMRAM] PTR void 
 Registers used:
		wreg, status,2, status,0
 Tracked objects:
		On entry : 
		On exit  : 
		Unchanged: 
 Data sizes:     COMRAM   BANK0   BANK1   BANK2   BANK3   BANK4   BANK5   BANK6   BANK7
      Params:         4       0       0       0       0       0       0       0       0
      Locals:         2       0       0       0       0       0       0       0       0
      Temps:          4       0       0       0       0       0       0       0       0
      Totals:        10       0       0       0       0       0       0       0       0
Total ram usage:       10 bytes
 Hardware stack levels used:    1
 Hardware stack levels required when called:    5
 This function calls:
		Nothing
 This function is called by:
		_Scheduler_createTask
 This function uses a non-reentrant model


 *************** function _low_isr *****************
 Defined at:
		line 70 in file "main.c"
 Parameters:    Size  Location     Type
		None
 Auto vars:     Size  Location     Type
		None
 Return value:  Size  Location     Type
                  1    wreg      void 
 Registers used:
		wreg, status,2, status,0, cstack
 Tracked objects:
		On entry : 
		On exit  : 
		Unchanged: 
 Data sizes:     COMRAM   BANK0   BANK1   BANK2   BANK3   BANK4   BANK5   BANK6   BANK7
      Params:         0       0       0       0       0       0       0       0       0
      Locals:         0       0       0       0       0       0       0       0       0
      Temps:          3       0       0       0       0       0       0       0       0
      Totals:         3       0       0       0       0       0       0       0       0
Total ram usage:        3 bytes
 Hardware stack levels used:    1
 Hardware stack levels required when called:    4
 This function calls:
		_Timer1_ISR
 This function is called by:
		Interrupt level 1
 This function uses a non-reentrant model


 *************** function _Timer1_ISR *****************
 Defined at:
		line 246 in file "System/Scheduler.c"
 Parameters:    Size  Location     Type
		None
 Auto vars:     Size  Location     Type
		None
 Return value:  Size  Location     Type
                  1    wreg      void 
 Registers used:
		wreg, status,2, status,0, cstack
 Tracked objects:
		On entry : 
		On exit  : 
		Unchanged: 
 Data sizes:     COMRAM   BANK0   BANK1   BANK2   BANK3   BANK4   BANK5   BANK6   BANK7
      Params:         0       0       0       0       0       0       0       0       0
      Locals:         0       0       0       0       0       0       0       0       0
      Temps:          0       0       0       0       0       0       0       0       0
      Totals:         0       0       0       0       0       0       0       0       0
Total ram usage:        0 bytes
 Hardware stack levels used:    1
 Hardware stack levels required when called:    3
 This function calls:
		i1_Timer1_reload
 This function is called by:
		_low_isr
 This function uses a non-reentrant model


 *************** function i1_Timer1_reload *****************
 Defined at:
		line 24 in file "Drivers/Timer1.c"
 Parameters:    Size  Location     Type
  value           2    2[COMRAM] unsigned short 
 Auto vars:     Size  Location     Type
		None
 Return value:  Size  Location     Type
                  1    wreg      void 
 Registers used:
		None
 Tracked objects:
		On entry : 
		On exit  : 
		Unchanged: 
 Data sizes:     COMRAM   BANK0   BANK1   BANK2   BANK3   BANK4   BANK5   BANK6   BANK7
      Params:         2       0       0       0       0       0       0       0       0
      Locals:         0       0       0       0       0       0       0       0       0
      Temps:          0       0       0       0       0       0       0       0       0
      Totals:         2       0       0       0       0       0       0       0       0
Total ram usage:        2 bytes
 Hardware stack levels used:    1
 Hardware stack levels required when called:    2
 This function calls:
		Nothing
 This function is called by:
		_Timer1_ISR
 This function uses a non-reentrant model


 *************** function _high_isr *****************
 Defined at:
		line 65 in file "main.c"
 Parameters:    Size  Location     Type
		None
 Auto vars:     Size  Location     Type
		None
 Return value:  Size  Location     Type
                  1    wreg      void 
 Registers used:
		wreg, fsr2l, fsr2h, status,2, status,0, cstack
 Tracked objects:
		On entry : 
		On exit  : 
		Unchanged: 
 Data sizes:     COMRAM   BANK0   BANK1   BANK2   BANK3   BANK4   BANK5   BANK6   BANK7
      Params:         0       0       0       0       0       0       0       0       0
      Locals:         0       0       0       0       0       0       0       0       0
      Temps:          2       0       0       0       0       0       0       0       0
      Totals:         2       0       0       0       0       0       0       0       0
Total ram usage:        2 bytes
 Hardware stack levels used:    1
 Hardware stack levels required when called:    1
 This function calls:
		_UART_ISR
		_USensor_ISR
 This function is called by:
		Interrupt level 2
 This function uses a non-reentrant model


 *************** function _USensor_ISR *****************
 Defined at:
		line 61 in file "Drivers/USensor.c"
 Parameters:    Size  Location     Type
		None
 Auto vars:     Size  Location     Type
		None
 Return value:  Size  Location     Type
                  1    wreg      void 
 Registers used:
		wreg, status,2, status,0
 Tracked objects:
		On entry : 
		On exit  : 
		Unchanged: 
 Data sizes:     COMRAM   BANK0   BANK1   BANK2   BANK3   BANK4   BANK5   BANK6   BANK7
      Params:         0       0       0       0       0       0       0       0       0
      Locals:         0       0       0       0       0       0       0       0       0
      Temps:          0       0       0       0       0       0       0       0       0
      Totals:         0       0       0       0       0       0       0       0       0
Total ram usage:        0 bytes
 Hardware stack levels used:    1
 This function calls:
		Nothing
 This function is called by:
		_high_isr
 This function uses a non-reentrant model


 *************** function _UART_ISR *****************
 Defined at:
		line 128 in file "Drivers/UART.c"
 Parameters:    Size  Location     Type
		None
 Auto vars:     Size  Location     Type
		None
 Return value:  Size  Location     Type
                  1    wreg      void 
 Registers used:
		wreg, fsr2l, fsr2h, status,2, status,0
 Tracked objects:
		On entry : 
		On exit  : 
		Unchanged: 
 Data sizes:     COMRAM   BANK0   BANK1   BANK2   BANK3   BANK4   BANK5   BANK6   BANK7
      Params:         0       0       0       0       0       0       0       0       0
      Locals:         0       0       0       0       0       0       0       0       0
      Temps:          0       0       0       0       0       0       0       0       0
      Totals:         0       0       0       0       0       0       0       0       0
Total ram usage:        0 bytes
 Hardware stack levels used:    1
 This function calls:
		Nothing
 This function is called by:
		_high_isr
 This function uses a non-reentrant model



MODULE INFORMATION

Module		Function		Class		Link	Load	Size
/opt/microchip/xc8/v2.05/pic/sources/c99/common/strncmp.c
		_strncmp       		CODE           	2CBE	0000	171

/opt/microchip/xc8/v2.05/pic/sources/c99/common/strncmp.c estimated size: 171

/opt/microchip/xc8/v2.05/pic/sources/c99/common/Umul16.c
		___wmul        		CODE           	3732	0000	39

/opt/microchip/xc8/v2.05/pic/sources/c99/common/Umul16.c estimated size: 39

/opt/microchip/xc8/v2.05/pic/sources/c99/common/__lldiv.c
		___lldiv       		CODE           	2F26	0000	131

/opt/microchip/xc8/v2.05/pic/sources/c99/common/__lldiv.c estimated size: 131

/opt/microchip/xc8/v2.05/pic/sources/c99/common/nf_fputc.c
		_fputc         		CODE           	2D68	0000	161

/opt/microchip/xc8/v2.05/pic/sources/c99/common/nf_fputc.c estimated size: 161

/opt/microchip/xc8/v2.05/pic/sources/c99/common/lomod.c
		___lomod       		CODE           	2C10	0000	175

/opt/microchip/xc8/v2.05/pic/sources/c99/common/lomod.c estimated size: 175

System/Scheduler.c
		_vTaskEXEC_TASK		CODE           	3758	0000	39
		_Scheduler_suspend		CODE           	3332	0000	81
		_Scheduler_createTask		CODE           	26AC	0000	271
		_Scheduler_wait		CODE           	3100	0000	109
		_Scheduler_init		CODE           	345C	0000	65
		_Scheduler_sort		CODE           	3872	0000	3
		_Timer1_ISR    		CODE           	377E	0000	31
		_Scheduler_check		CODE           	2B56	0000	187
		_Scheduler_start		CODE           	27BA	0000	257
		_vTaskSwitchContext		CODE           	3514	0000	59

System/Scheduler.c estimated size: 1102

/opt/microchip/xc8/v2.05/pic/sources/c99/common/putch.c
		_putch         		CODE           	3870	0000	3

/opt/microchip/xc8/v2.05/pic/sources/c99/common/putch.c estimated size: 3

Drivers/USensor.c
		_USensor_read  		CODE           	34DA	0000	59
		_USensor_init  		CODE           	31D2	0000	99
		_USensor_measure		CODE           	2594	0000	281
		_USensor_ISR   		CODE           	381A	0000	17

Drivers/USensor.c estimated size: 456

/opt/microchip/xc8/v2.05/pic/sources/c99/common/aomod.c
		___aomod       		CODE           	2470	0000	293

/opt/microchip/xc8/v2.05/pic/sources/c99/common/aomod.c estimated size: 293

/opt/microchip/xc8/v2.05/pic/sources/c99/common/isdigit.c
		_isdigit       		CODE           	36B0	0000	49

/opt/microchip/xc8/v2.05/pic/sources/c99/common/isdigit.c estimated size: 49

/opt/microchip/xc8/v2.05/pic/sources/c99/common/atoi.c
		_atoi          		CODE           	2208	0000	321

/opt/microchip/xc8/v2.05/pic/sources/c99/common/atoi.c estimated size: 321

/opt/microchip/xc8/v2.05/pic/sources/c99/common/strlen.c
		_strlen        		CODE           	36E0	0000	43

/opt/microchip/xc8/v2.05/pic/sources/c99/common/strlen.c estimated size: 43

/opt/microchip/xc8/v2.05/pic/sources/c99/common/lodiv.c
		___lodiv       		CODE           	2A88	0000	207

/opt/microchip/xc8/v2.05/pic/sources/c99/common/lodiv.c estimated size: 207

/opt/microchip/xc8/v2.05/pic/sources/c99/common/nf_vsnprintf.c
		_vsnprintf     		CODE           	29B4	0000	213

/opt/microchip/xc8/v2.05/pic/sources/c99/common/nf_vsnprintf.c estimated size: 213

/opt/microchip/xc8/v2.05/pic/sources/c99/common/isupper.c
		_isupper       		CODE           	3680	0000	49

/opt/microchip/xc8/v2.05/pic/sources/c99/common/isupper.c estimated size: 49

shared
		__initialization		CODE           	316C	0000	89
		i1_Timer1_reload		CODE           	384A	0000	11
		_T1FREQ        		SMALLCONST     	0801	0000	5

shared estimated size: 105

/opt/microchip/xc8/v2.05/pic/sources/c99/common/lwdiv.c
		___lwdiv       		CODE           	32E0	0000	83

/opt/microchip/xc8/v2.05/pic/sources/c99/common/lwdiv.c estimated size: 83

/opt/microchip/xc8/v2.05/pic/sources/c99/common/nf_fputs.c
		_fputs         		CODE           	354E	0000	57

/opt/microchip/xc8/v2.05/pic/sources/c99/common/nf_fputs.c estimated size: 57

/opt/microchip/xc8/v2.05/pic/sources/c99/common/abs.c
		_abs           		CODE           	35EE	0000	51

/opt/microchip/xc8/v2.05/pic/sources/c99/common/abs.c estimated size: 51

/opt/microchip/xc8/v2.05/pic/sources/c99/common/aodiv.c
		___aodiv       		CODE           	20C0	0000	329

/opt/microchip/xc8/v2.05/pic/sources/c99/common/aodiv.c estimated size: 329

Drivers/Timer3.c
		_Timer3_init   		CODE           	382A	0000	13
		_Timer3_stop   		CODE           	385C	0000	7
		_Timer3_start  		CODE           	3868	0000	5
		_Timer3_reload 		CODE           	3836	0000	11
		_Timer3_enable 		CODE           	37BA	0000	29
		_Timer3_capture		CODE           	37D6	0000	27

Drivers/Timer3.c estimated size: 92

/opt/microchip/xc8/v2.05/pic/sources/c99/common/islower.c
		_islower       		CODE           	3650	0000	49

/opt/microchip/xc8/v2.05/pic/sources/c99/common/islower.c estimated size: 49

Drivers/Timer1.c
		_Timer1_init   		CODE           	3862	0000	7
		_Timer1_start  		CODE           	386C	0000	5
		_Timer1_reload 		CODE           	3840	0000	11
		_Timer1_enable 		CODE           	37F0	0000	27

Drivers/Timer1.c estimated size: 50

/opt/microchip/xc8/v2.05/pic/sources/c99/common/toupper.c
		_toupper       		CODE           	33D0	0000	75

/opt/microchip/xc8/v2.05/pic/sources/c99/common/toupper.c estimated size: 75

System/list.c
		_vListInitialiseItem		CODE           	328A	0000	87
		_uxListRemove  		CODE           	1A26	0000	483
		_uxListInsertEnd		CODE           	28BA	0000	251
		_vListInitialise		CODE           	341A	0000	67

System/list.c estimated size: 888

/opt/microchip/xc8/v2.05/pic/sources/c99/common/isalpha.c
		_isalpha       		CODE           	3586	0000	53

/opt/microchip/xc8/v2.05/pic/sources/c99/common/isalpha.c estimated size: 53

main.c
		_main          		CODE           	2E9E	0000	137
		_high_isr      		CODE           	0008	0000	37
		_Task0         		CODE           	3024	0000	111
		_Task1         		CODE           	380A	0000	17
		_low_isr       		CODE           	0018	0000	35

main.c estimated size: 337

/opt/microchip/xc8/v2.05/pic/sources/c99/common/isspace.c
		_isspace       		CODE           	349C	0000	63

/opt/microchip/xc8/v2.05/pic/sources/c99/common/isspace.c estimated size: 63

Drivers/UART.c
		_UART_init     		CODE           	370A	0000	41
		_UART_ISR      		CODE           	3092	0000	111
		_UART_open     		CODE           	1DB6	0000	397
		_UART_Transmit 		CODE           	35BA	0000	53

Drivers/UART.c estimated size: 602

System/mem.c
		_malloc        		CODE           	2FA8	0000	125

System/mem.c estimated size: 125

/opt/microchip/xc8/v2.05/pic/sources/c99/common/doprnt.c
		_vfpfcnvrt     		CODE           	083E	0000	3451
		_pad           		CODE           	2E08	0000	151
		_ctoa          		CODE           	3382	0000	79
		_dtoa          		CODE           	15B8	0000	579
		_vfprintf      		CODE           	3234	0000	87
		_otoa          		CODE           	1F42	0000	383
		_stoa          		CODE           	2348	0000	297
		_utoa          		CODE           	1C08	0000	431
		_xtoa          		CODE           	17FA	0000	557

/opt/microchip/xc8/v2.05/pic/sources/c99/common/doprnt.c estimated size: 6015

/opt/microchip/xc8/v2.05/pic/sources/c99/common/snprintf.c
		_snprintf      		CODE           	3620	0000	49

/opt/microchip/xc8/v2.05/pic/sources/c99/common/snprintf.c estimated size: 49

