

Microchip MPLAB XC8 Assembler V2.05 build -831301201 
                                                                                               Sat Jul 27 23:23:52 2019

Microchip MPLAB XC8 C Compiler v2.05 (Free license) build 20181220022703 Og1 
     1                           	processor	18F4550
     2                           	fnconf	rparam,??,?,0
     3                           	opt	pw 120
     4                           	opt	flic
     5                           	psect	idataBANK0,global,class=CODE,delta=1,noexec
     6                           	psect	smallconst,global,reloc=2,class=SMALLCONST,delta=1,noexec
     7                           	psect	cinit,global,reloc=2,class=CODE,delta=1
     8                           	psect	bssCOMRAM,global,class=COMRAM,space=1,delta=1,noexec
     9                           	psect	bssBANK0,global,class=BANK0,space=1,delta=1,lowdata,noexec
    10                           	psect	dataBANK0,global,class=BANK0,space=1,delta=1,lowdata,noexec
    11                           	psect	bssBANK1,global,class=BANK1,space=1,delta=1,lowdata,noexec
    12                           	psect	bssBIGRAM,global,class=BIGRAM,space=1,delta=1,lowdata,noexec
    13                           	psect	cstackBANK0,global,class=BANK0,space=1,delta=1,noexec
    14                           	psect	cstackCOMRAM,global,class=COMRAM,space=1,delta=1,noexec
    15                           	psect	text0,global,reloc=2,class=CODE,delta=1
    16                           	psect	text1,global,reloc=2,class=CODE,delta=1
    17                           	psect	text2,global,reloc=2,class=CODE,delta=1
    18                           	psect	text3,global,reloc=2,class=CODE,delta=1
    19                           	psect	text4,global,reloc=2,class=CODE,delta=1,group=1
    20                           	psect	text5,global,reloc=2,class=CODE,delta=1
    21                           	psect	text6,global,reloc=2,class=CODE,delta=1
    22                           	psect	text7,global,reloc=2,class=CODE,delta=1
    23                           	psect	text8,global,reloc=2,class=CODE,delta=1
    24                           	psect	text9,global,reloc=2,class=CODE,delta=1,group=2
    25                           	psect	text10,global,reloc=2,class=CODE,delta=1,group=2
    26                           	psect	text11,global,reloc=2,class=CODE,delta=1
    27                           	psect	text12,global,reloc=2,class=CODE,delta=1
    28                           	psect	text13,global,reloc=2,class=CODE,delta=1
    29                           	psect	text14,global,reloc=2,class=CODE,delta=1,group=2
    30                           	psect	text15,global,reloc=2,class=CODE,delta=1,group=2
    31                           	psect	text16,global,reloc=2,class=CODE,delta=1,group=2
    32                           	psect	text17,global,reloc=2,class=CODE,delta=1,group=2
    33                           	psect	text18,global,reloc=2,class=CODE,delta=1
    34                           	psect	text19,global,reloc=2,class=CODE,delta=1,group=1
    35                           	psect	text20,global,reloc=2,class=CODE,delta=1,group=1
    36                           	psect	text21,global,reloc=2,class=CODE,delta=1,group=2
    37                           	psect	text22,global,reloc=2,class=CODE,delta=1
    38                           	psect	text23,global,reloc=2,class=CODE,delta=1
    39                           	psect	text24,global,reloc=2,class=CODE,delta=1
    40                           	psect	text25,global,reloc=2,class=CODE,delta=1,group=2
    41                           	psect	text26,global,reloc=2,class=CODE,delta=1,group=1
    42                           	psect	text27,global,reloc=2,class=CODE,delta=1,group=1
    43                           	psect	text28,global,reloc=2,class=CODE,delta=1
    44                           	psect	text29,global,reloc=2,class=CODE,delta=1
    45                           	psect	text30,global,reloc=2,class=CODE,delta=1,group=2
    46                           	psect	text31,global,reloc=2,class=CODE,delta=1,group=2
    47                           	psect	text32,global,reloc=2,class=CODE,delta=1,group=2
    48                           	psect	text33,global,reloc=2,class=CODE,delta=1,group=2
    49                           	psect	text34,global,reloc=2,class=CODE,delta=1,group=2
    50                           	psect	text35,global,reloc=2,class=CODE,delta=1,group=2
    51                           	psect	text36,global,reloc=2,class=CODE,delta=1,group=2
    52                           	psect	text37,global,reloc=2,class=CODE,delta=1,group=1
    53                           	psect	text38,global,reloc=2,class=CODE,delta=1
    54                           	psect	text39,global,reloc=2,class=CODE,delta=1
    55                           	psect	text40,global,reloc=2,class=CODE,delta=1
    56                           	psect	text41,global,reloc=2,class=CODE,delta=1
    57                           	psect	text42,global,reloc=2,class=CODE,delta=1,inline
    58                           	psect	text43,global,reloc=2,class=CODE,delta=1
    59                           	psect	text44,global,reloc=2,class=CODE,delta=1,inline
    60                           	psect	text45,global,reloc=2,class=CODE,delta=1
    61                           	psect	text46,global,reloc=2,class=CODE,delta=1
    62                           	psect	text47,global,reloc=2,class=CODE,delta=1
    63                           	psect	text48,global,reloc=2,class=CODE,delta=1
    64                           	psect	text49,global,reloc=2,class=CODE,delta=1
    65                           	psect	text50,global,reloc=2,class=CODE,delta=1
    66                           	psect	text51,global,reloc=2,class=CODE,delta=1,inline
    67                           	psect	text52,global,reloc=2,class=CODE,delta=1
    68                           	psect	text53,global,reloc=2,class=CODE,delta=1
    69                           	psect	text54,global,reloc=2,class=CODE,delta=1,inline
    70                           	psect	text55,global,reloc=2,class=CODE,delta=1
    71                           	psect	text56,global,reloc=2,class=CODE,delta=1
    72                           	psect	text57,global,reloc=2,class=CODE,delta=1
    73                           	psect	text58,global,reloc=2,class=CODE,delta=1
    74                           	psect	text59,global,reloc=2,class=CODE,delta=1
    75                           	psect	text60,global,reloc=2,class=CODE,delta=1
    76                           	psect	text61,global,reloc=2,class=CODE,delta=1
    77                           	psect	text62,global,reloc=2,class=CODE,delta=1
    78                           	psect	intcodelo,global,reloc=2,class=CODE,delta=1
    79                           	psect	text64,global,reloc=2,class=CODE,delta=1,inline
    80                           	psect	text65,global,reloc=2,class=CODE,delta=1,inline
    81                           	psect	intcode,global,reloc=2,class=CODE,delta=1
    82                           	psect	intcode_body,global,reloc=2,class=CODE,delta=1
    83                           	psect	text67,global,reloc=2,class=CODE,delta=1,inline
    84                           	psect	text68,global,reloc=2,class=CODE,delta=1,inline
    85                           	psect	intsave_regs,global,class=BIGRAM,space=1,delta=1,noexec
    86                           	psect	text69,global,reloc=2,class=CODE,delta=1,inline
    87                           	psect	rparam,global,class=COMRAM,space=1,delta=1,noexec
    88                           	psect	temp,global,ovrld,common,class=COMRAM,space=1,delta=1
    89  0000                     
    90                           ; Version 2.05
    91                           ; Generated 20/12/2018 GMT
    92                           ; 
    93                           ; Copyright © 2018, Microchip Technology Inc. and its subsidiaries ("Microchip")
    94                           ; All rights reserved.
    95                           ; 
    96                           ; This software is developed by Microchip Technology Inc. and its subsidiaries ("Microch
      +                          ip").
    97                           ; 
    98                           ; Redistribution and use in source and binary forms, with or without modification, are
    99                           ; permitted provided that the following conditions are met:
   100                           ; 
   101                           ;     1. Redistributions of source code must retain the above copyright notice, this lis
      +                          t of
   102                           ;        conditions and the following disclaimer.
   103                           ; 
   104                           ;     2. Redistributions in binary form must reproduce the above copyright notice, this 
      +                          list
   105                           ;        of conditions and the following disclaimer in the documentation and/or other
   106                           ;        materials provided with the distribution.
   107                           ; 
   108                           ;     3. Microchip's name may not be used to endorse or promote products derived from th
      +                          is
   109                           ;        software without specific prior written permission.
   110                           ; 
   111                           ; THIS SOFTWARE IS PROVIDED BY MICROCHIP "AS IS" AND ANY EXPRESS OR IMPLIED WARRANTIES,
   112                           ; INCLUDING, BUT NOT LIMITED TO, THE IMPLIED WARRANTIES OF MERCHANTABILITY AND FITNESS F
      +                          OR
   113                           ; PURPOSE ARE DISCLAIMED.  IN NO EVENT SHALL MICROCHIP BE LIABLE FOR ANY DIRECT, INDIREC
      +                          T,
   114                           ; INCIDENTAL, SPECIAL, EXEMPLARY, OR CONSEQUENTIAL DAMAGES (INCLUDING BUT NOT LIMITED TO
   115                           ; PROCUREMENT OF SUBSTITUTE GOODS OR SERVICES; LOSS OF USE, DATA OR PROFITS; OR BUSINESS
   116                           ; INTERRUPTION) HOWSOEVER CAUSED AND ON ANY THEORY OF LIABILITY, WHETHER IN CONTRACT, ST
      +                          RICT
   117                           ; LIABILITY, OR TORT (INCLUDING NEGLIGENCE OR OTHERWISE) ARISING IN ANY WAY OUT OF THE U
      +                          SE OF
   118                           ; THIS SOFTWARE, EVEN IF ADVISED OF THE POSSIBILITY OF SUCH DAMAGE.
   119                           ; 
   120                           ; 
   121                           ; Code-generator required, PIC18F4550 Definitions
   122                           ; 
   123                           ; SFR Addresses
   124  0000                     
   125                           	psect	idataBANK0
   126  003804                     __pidataBANK0:
   127                           	opt callstack 0
   128                           
   129                           ;initializer for stoa@F1152
   130  003804  28                 	db	40
   131  003805  6E                 	db	110
   132  003806  75                 	db	117
   133  003807  6C                 	db	108
   134  003808  6C                 	db	108
   135  003809  29                 	db	41
   136  00380A  00                 	db	0
   137                           
   138                           ;initializer for _SchedulerState
   139  00380B  02                 	db	2
   140                           
   141                           	psect	smallconst
   142  000800                     __psmallconst:
   143                           	opt callstack 0
   144  000800  00                 	db	0
   145  000801                     _T1FREQ:
   146                           	opt callstack 0
   147  000801  1B00               	dw	6912
   148  000803  00B7               	dw	183
   149  000805                     __end_of_T1FREQ:
   150                           	opt callstack 0
   151  0000                     _TMR3	set	4018
   152  0000                     _TMR1	set	4046
   153  0000                     _RCONbits	set	4048
   154  0000                     _INTCONbits	set	4082
   155  0000                     _PORTBbits	set	3969
   156  0000                     _CMCON	set	4020
   157  0000                     _ADCON1	set	4033
   158  0000                     _TRISB	set	3987
   159  0000                     _LATB	set	3978
   160  0000                     _PORTB	set	3969
   161  0000                     _TMR3L	set	4018
   162  0000                     _TMR3H	set	4019
   163  0000                     _T3CON	set	4017
   164  0000                     _PIE2bits	set	4000
   165  0000                     _IPR2bits	set	4002
   166  0000                     _PIR2bits	set	4001
   167  0000                     _T3CONbits	set	4017
   168  0000                     _T1CON	set	4045
   169  0000                     _TXREG	set	4013
   170  0000                     _RCREG	set	4014
   171  0000                     _PIR1bits	set	3998
   172  0000                     _PIE1bits	set	3997
   173  0000                     _RCSTAbits	set	4011
   174  0000                     _IPR1bits	set	3999
   175  0000                     _SPBRGH	set	4016
   176  0000                     _SPBRG	set	4015
   177  0000                     _BAUDCONbits	set	4024
   178  0000                     _TXSTAbits	set	4012
   179  0000                     _RCSTA	set	4011
   180  0000                     _TXSTA	set	4012
   181  0000                     _BAUDCON	set	4024
   182  0000                     _TRISC	set	3988
   183  0000                     _LATC	set	3979
   184  0000                     _PORTC	set	3970
   185  000805                     STR_1:
   186  000805  25                 	db	37
   187  000806  64                 	db	100	;'d'
   188  000807  20                 	db	32
   189  000808  6D                 	db	109	;'m'
   190  000809  6D                 	db	109	;'m'
   191  00080A  0A                 	db	10
   192  00080B  00                 	db	0
   193  00080C                     STR_78:
   194  00080C  68                 	db	104	;'h'
   195  00080D  68                 	db	104	;'h'
   196  00080E  58                 	db	88	;'X'
   197  00080F  00                 	db	0
   198  000810                     STR_2:
   199  000810  68                 	db	104	;'h'
   200  000811  68                 	db	104	;'h'
   201  000812  64                 	db	100	;'d'
   202  000813  00                 	db	0
   203  000814                     STR_6:
   204  000814  68                 	db	104	;'h'
   205  000815  68                 	db	104	;'h'
   206  000816  69                 	db	105	;'i'
   207  000817  00                 	db	0
   208  000818                     STR_44:
   209  000818  68                 	db	104	;'h'
   210  000819  68                 	db	104	;'h'
   211  00081A  6E                 	db	110	;'n'
   212  00081B  00                 	db	0
   213  00081C                     STR_29:
   214  00081C  68                 	db	104	;'h'
   215  00081D  68                 	db	104	;'h'
   216  00081E  6F                 	db	111	;'o'
   217  00081F  00                 	db	0
   218  000820                     STR_59:
   219  000820  68                 	db	104	;'h'
   220  000821  68                 	db	104	;'h'
   221  000822  75                 	db	117	;'u'
   222  000823  00                 	db	0
   223  000824                     STR_74:
   224  000824  68                 	db	104	;'h'
   225  000825  68                 	db	104	;'h'
   226  000826  78                 	db	120	;'x'
   227  000827  00                 	db	0
   228  000828                     STR_96:
   229  000828  7A                 	db	122	;'z'
   230  000829  58                 	db	88	;'X'
   231  00082A  00                 	db	0
   232  00082B                     STR_20:
   233  00082B  7A                 	db	122	;'z'
   234  00082C  64                 	db	100	;'d'
   235  00082D  00                 	db	0
   236  00082E                     STR_24:
   237  00082E  7A                 	db	122	;'z'
   238  00082F  69                 	db	105	;'i'
   239  000830  00                 	db	0
   240  000831                     STR_54:
   241  000831  7A                 	db	122	;'z'
   242  000832  6E                 	db	110	;'n'
   243  000833  00                 	db	0
   244  000834                     STR_39:
   245  000834  7A                 	db	122	;'z'
   246  000835  6F                 	db	111	;'o'
   247  000836  00                 	db	0
   248  000837                     STR_69:
   249  000837  7A                 	db	122	;'z'
   250  000838  75                 	db	117	;'u'
   251  000839  00                 	db	0
   252  00083A                     STR_92:
   253  00083A  7A                 	db	122	;'z'
   254  00083B  78                 	db	120	;'x'
   255  00083C  00                 	db	0
   256  0000                     
   257                           ; #config settings
   258  00083D  00                 	db	0	; dummy byte at the end
   259  0000                     
   260                           	psect	cinit
   261  00316E                     __pcinit:
   262                           	opt callstack 0
   263  00316E                     start_initialization:
   264                           	opt callstack 0
   265  00316E                     __initialization:
   266                           	opt callstack 0
   267                           
   268                           ; Initialize objects allocated to BANK0 (8 bytes)
   269                           ; load TBLPTR registers with __pidataBANK0
   270  00316E  0E04               	movlw	low __pidataBANK0
   271  003170  6EF6               	movwf	tblptrl,c
   272  003172  0E38               	movlw	high __pidataBANK0
   273  003174  6EF7               	movwf	tblptrh,c
   274  003176  0E00               	movlw	low (__pidataBANK0 shr (0+16))
   275  003178  6EF8               	movwf	tblptru,c
   276  00317A  EE00  F0F4         	lfsr	0,__pdataBANK0
   277  00317E  EE10 F008          	lfsr	1,8
   278  003182                     copy_data0:
   279  003182  0009               	tblrd		*+
   280  003184  CFF5 FFEE          	movff	tablat,postinc0
   281  003188  50E5               	movf	postdec1,w,c
   282  00318A  50E1               	movf	fsr1l,w,c
   283  00318C  E1FA               	bnz	copy_data0
   284                           
   285                           ; Clear objects allocated to BIGRAM (1024 bytes)
   286  00318E  EE01  F04F         	lfsr	0,__pbssBIGRAM
   287  003192  EE14 F000          	lfsr	1,1024
   288  003196                     clear_0:
   289  003196  6AEE               	clrf	postinc0,c
   290  003198  50E5               	movf	postdec1,w,c
   291  00319A  50E1               	movf	fsr1l,w,c
   292  00319C  E1FC               	bnz	clear_0
   293  00319E  50E2               	movf	fsr1h,w,c
   294  0031A0  E1FA               	bnz	clear_0
   295                           
   296                           ; Clear objects allocated to BANK1 (79 bytes)
   297  0031A2  EE01  F000         	lfsr	0,__pbssBANK1
   298  0031A6  0E4F               	movlw	79
   299  0031A8                     clear_1:
   300  0031A8  6AEE               	clrf	postinc0,c
   301  0031AA  06E8               	decf	wreg,f,c
   302  0031AC  E1FD               	bnz	clear_1
   303                           
   304                           ; Clear objects allocated to BANK0 (73 bytes)
   305  0031AE  EE00  F0AB         	lfsr	0,__pbssBANK0
   306  0031B2  0E49               	movlw	73
   307  0031B4                     clear_2:
   308  0031B4  6AEE               	clrf	postinc0,c
   309  0031B6  06E8               	decf	wreg,f,c
   310  0031B8  E1FD               	bnz	clear_2
   311                           
   312                           ; Clear objects allocated to COMRAM (9 bytes)
   313  0031BA  EE00  F04E         	lfsr	0,__pbssCOMRAM
   314  0031BE  0E09               	movlw	9
   315  0031C0                     clear_3:
   316  0031C0  6AEE               	clrf	postinc0,c
   317  0031C2  06E8               	decf	wreg,f,c
   318  0031C4  E1FD               	bnz	clear_3
   319  0031C6                     end_of_initialization:
   320                           	opt callstack 0
   321  0031C6                     __end_of__initialization:
   322                           	opt callstack 0
   323  0031C6  9057               	bcf	int$flags,0,c	;clear compiler interrupt flag (level 1)
   324  0031C8  9257               	bcf	int$flags,1,c	;clear compiler interrupt flag (level 2)
   325  0031CA  0E00               	movlw	low (__Lmediumconst shr (0+16))
   326  0031CC  6EF8               	movwf	tblptru,c
   327  0031CE  0100               	movlb	0
   328  0031D0  EF50  F017         	goto	_main	;jump to C main() function
   329                           
   330                           	psect	bssCOMRAM
   331  00004E                     __pbssCOMRAM:
   332                           	opt callstack 0
   333  00004E                     _width:
   334                           	opt callstack 0
   335  00004E                     	ds	2
   336  000050                     _prec:
   337                           	opt callstack 0
   338  000050                     	ds	2
   339  000052                     _flags:
   340                           	opt callstack 0
   341  000052                     	ds	2
   342  000054                     _tskRunning:
   343                           	opt callstack 0
   344  000054                     	ds	2
   345  000056                     _status:
   346                           	opt callstack 0
   347  000056                     	ds	1
   348                           
   349                           	psect	bssBANK0
   350  0000AB                     __pbssBANK0:
   351                           	opt callstack 0
   352  0000AB                     _HEAP_counter:
   353                           	opt callstack 0
   354  0000AB                     	ds	4
   355  0000AF                     _errno:
   356                           	opt callstack 0
   357  0000AF                     	ds	2
   358  0000B1                     _nout:
   359                           	opt callstack 0
   360  0000B1                     	ds	2
   361  0000B3                     _Task1Handler:
   362                           	opt callstack 0
   363  0000B3                     	ds	2
   364  0000B5                     _Task0Handler:
   365                           	opt callstack 0
   366  0000B5                     	ds	2
   367  0000B7                     	ds	2
   368  0000B9                     Scheduler_check@delta:
   369                           	opt callstack 0
   370  0000B9                     	ds	2
   371  0000BB                     Scheduler_check@actual:
   372                           	opt callstack 0
   373  0000BB                     	ds	2
   374  0000BD                     Scheduler_check@ptskNode:
   375                           	opt callstack 0
   376  0000BD                     	ds	2
   377  0000BF                     Scheduler_check@pNode_temp:
   378                           	opt callstack 0
   379  0000BF                     	ds	2
   380  0000C1                     Scheduler_check@pNode:
   381                           	opt callstack 0
   382  0000C1                     	ds	2
   383  0000C3                     ___temp_wreg:
   384                           	opt callstack 0
   385  0000C3                     	ds	2
   386  0000C5                     	ds	2
   387  0000C7                     Scheduler_wait@actual:
   388                           	opt callstack 0
   389  0000C7                     	ds	2
   390  0000C9                     _tskSysTick:
   391                           	opt callstack 0
   392  0000C9                     	ds	2
   393  0000CB                     USensor_measure@tempTime:
   394                           	opt callstack 0
   395  0000CB                     	ds	2
   396  0000CD                     Timer3_capture@time:
   397                           	opt callstack 0
   398  0000CD                     	ds	2
   399  0000CF                     _iRx:
   400                           	opt callstack 0
   401  0000CF                     	ds	2
   402  0000D1                     _iTx:
   403                           	opt callstack 0
   404  0000D1                     	ds	2
   405  0000D3                     _pRx:
   406                           	opt callstack 0
   407  0000D3                     	ds	2
   408  0000D5                     _pTx:
   409                           	opt callstack 0
   410  0000D5                     	ds	2
   411  0000D7                     _USensorMEASFlag:
   412                           	opt callstack 0
   413  0000D7                     	ds	1
   414  0000D8                     _tskDoneQueue:
   415                           	opt callstack 0
   416  0000D8                     	ds	6
   417  0000DE                     _tskBlockedQueue:
   418                           	opt callstack 0
   419  0000DE                     	ds	6
   420  0000E4                     _tskWaitingQueue:
   421                           	opt callstack 0
   422  0000E4                     	ds	6
   423  0000EA                     _tskReadyQueue:
   424                           	opt callstack 0
   425  0000EA                     	ds	6
   426  0000F0                     Task0@data:
   427                           	opt callstack 0
   428  0000F0                     	ds	4
   429                           
   430                           	psect	dataBANK0
   431  0000F4                     __pdataBANK0:
   432                           	opt callstack 0
   433  0000F4                     stoa@F1152:
   434                           	opt callstack 0
   435  0000F4                     	ds	7
   436  0000FB                     _SchedulerState:
   437                           	opt callstack 0
   438  0000FB                     	ds	1
   439                           
   440                           	psect	bssBANK1
   441  000100                     __pbssBANK1:
   442                           	opt callstack 0
   443  000100                     _measure:
   444                           	opt callstack 0
   445  000100                     	ds	32
   446  000120                     _dbuf:
   447                           	opt callstack 0
   448  000120                     	ds	32
   449  000140                     _msg:
   450                           	opt callstack 0
   451  000140                     	ds	15
   452                           
   453                           	psect	bssBIGRAM
   454  00014F                     __pbssBIGRAM:
   455                           	opt callstack 0
   456  00014F                     _HEAP:
   457                           	opt callstack 0
   458  00014F                     	ds	1024
   459                           
   460                           	psect	cstackBANK0
   461  000060                     __pcstackBANK0:
   462                           	opt callstack 0
   463  000060                     ?_vfpfcnvrt:
   464                           	opt callstack 0
   465  000060                     vfpfcnvrt@fp:
   466                           	opt callstack 0
   467                           
   468                           ; 2 bytes @ 0x0
   469  000060                     	ds	2
   470  000062                     vfpfcnvrt@fmt:
   471                           	opt callstack 0
   472                           
   473                           ; 2 bytes @ 0x2
   474  000062                     	ds	2
   475  000064                     vfpfcnvrt@ap:
   476                           	opt callstack 0
   477                           
   478                           ; 2 bytes @ 0x4
   479  000064                     	ds	2
   480  000066                     vfpfcnvrt@cp:
   481                           	opt callstack 0
   482                           
   483                           ; 2 bytes @ 0x6
   484  000066                     	ds	2
   485  000068                     vfpfcnvrt@done:
   486                           	opt callstack 0
   487                           
   488                           ; 2 bytes @ 0x8
   489  000068                     	ds	2
   490  00006A                     _vfpfcnvrt$1725:
   491                           	opt callstack 0
   492                           
   493                           ; 2 bytes @ 0xA
   494  00006A                     	ds	2
   495  00006C                     _vfpfcnvrt$1726:
   496                           	opt callstack 0
   497                           
   498                           ; 2 bytes @ 0xC
   499  00006C                     	ds	2
   500  00006E                     vfpfcnvrt@ll:
   501                           	opt callstack 0
   502                           
   503                           ; 8 bytes @ 0xE
   504  00006E                     	ds	8
   505  000076                     vfpfcnvrt@vp:
   506                           	opt callstack 0
   507                           
   508                           ; 2 bytes @ 0x16
   509  000076                     	ds	2
   510  000078                     vfpfcnvrt@c:
   511                           	opt callstack 0
   512                           
   513                           ; 1 bytes @ 0x18
   514  000078                     	ds	1
   515  000079                     vfpfcnvrt@llu:
   516                           	opt callstack 0
   517                           
   518                           ; 8 bytes @ 0x19
   519  000079                     	ds	8
   520  000081                     ?_vfprintf:
   521                           	opt callstack 0
   522  000081                     vfprintf@fp:
   523                           	opt callstack 0
   524                           
   525                           ; 2 bytes @ 0x21
   526  000081                     	ds	2
   527  000083                     vfprintf@fmt:
   528                           	opt callstack 0
   529                           
   530                           ; 2 bytes @ 0x23
   531  000083                     	ds	2
   532  000085                     vfprintf@ap:
   533                           	opt callstack 0
   534                           
   535                           ; 2 bytes @ 0x25
   536  000085                     	ds	2
   537  000087                     vfprintf@cfmt:
   538                           	opt callstack 0
   539                           
   540                           ; 2 bytes @ 0x27
   541  000087                     	ds	2
   542  000089                     ?_vsnprintf:
   543                           	opt callstack 0
   544  000089                     vsnprintf@s:
   545                           	opt callstack 0
   546                           
   547                           ; 2 bytes @ 0x29
   548  000089                     	ds	2
   549  00008B                     vsnprintf@n:
   550                           	opt callstack 0
   551                           
   552                           ; 2 bytes @ 0x2B
   553  00008B                     	ds	2
   554  00008D                     vsnprintf@fmt:
   555                           	opt callstack 0
   556                           
   557                           ; 2 bytes @ 0x2D
   558  00008D                     	ds	2
   559  00008F                     vsnprintf@ap:
   560                           	opt callstack 0
   561                           
   562                           ; 2 bytes @ 0x2F
   563  00008F                     	ds	2
   564  000091                     ??_vsnprintf:
   565                           
   566                           ; 1 bytes @ 0x31
   567  000091                     	ds	4
   568  000095                     _vsnprintf$2426:
   569                           	opt callstack 0
   570                           
   571                           ; 2 bytes @ 0x35
   572  000095                     	ds	2
   573  000097                     vsnprintf@cnt:
   574                           	opt callstack 0
   575                           
   576                           ; 2 bytes @ 0x37
   577  000097                     	ds	2
   578  000099                     vsnprintf@f:
   579                           	opt callstack 0
   580                           
   581                           ; 6 bytes @ 0x39
   582  000099                     	ds	6
   583  00009F                     ?_snprintf:
   584                           	opt callstack 0
   585  00009F                     snprintf@s:
   586                           	opt callstack 0
   587                           
   588                           ; 2 bytes @ 0x3F
   589  00009F                     	ds	2
   590  0000A1                     snprintf@n:
   591                           	opt callstack 0
   592                           
   593                           ; 2 bytes @ 0x41
   594  0000A1                     	ds	2
   595  0000A3                     snprintf@fmt:
   596                           	opt callstack 0
   597                           
   598                           ; 2 bytes @ 0x43
   599  0000A3                     	ds	6
   600  0000A9                     snprintf@ap:
   601                           	opt callstack 0
   602                           
   603                           ; 2 bytes @ 0x49
   604  0000A9                     	ds	2
   605                           
   606                           	psect	cstackCOMRAM
   607  000001                     __pcstackCOMRAM:
   608                           	opt callstack 0
   609  000001                     ??_high_isr:
   610  000001                     
   611                           ; 1 bytes @ 0x0
   612  000001                     	ds	2
   613  000003                     i1Timer1_reload@value:
   614                           	opt callstack 0
   615                           
   616                           ; 2 bytes @ 0x2
   617  000003                     	ds	2
   618  000005                     ??_low_isr:
   619  000005                     
   620                           ; 1 bytes @ 0x4
   621  000005                     	ds	3
   622  000008                     ??_Timer1_enable:
   623  000008                     ??_Timer3_enable:
   624  000008                     ?_malloc:
   625                           	opt callstack 0
   626  000008                     ?_strlen:
   627                           	opt callstack 0
   628  000008                     ?_isupper:
   629                           	opt callstack 0
   630  000008                     ?_isalpha:
   631                           	opt callstack 0
   632  000008                     ?_isdigit:
   633                           	opt callstack 0
   634  000008                     ?_strncmp:
   635                           	opt callstack 0
   636  000008                     ?_isspace:
   637                           	opt callstack 0
   638  000008                     ?_islower:
   639                           	opt callstack 0
   640  000008                     ?_Timer3_capture:
   641                           	opt callstack 0
   642  000008                     ?___wmul:
   643                           	opt callstack 0
   644  000008                     ?___lldiv:
   645                           	opt callstack 0
   646  000008                     ?___aodiv:
   647                           	opt callstack 0
   648  000008                     ?___aomod:
   649                           	opt callstack 0
   650  000008                     ?___lodiv:
   651                           	opt callstack 0
   652  000008                     ?___lomod:
   653                           	opt callstack 0
   654  000008                     Timer1_reload@value:
   655                           	opt callstack 0
   656  000008                     Timer3_reload@value:
   657                           	opt callstack 0
   658  000008                     USensor_read@buf:
   659                           	opt callstack 0
   660  000008                     Scheduler_wait@time:
   661                           	opt callstack 0
   662  000008                     vListInitialise@pxList:
   663                           	opt callstack 0
   664  000008                     vListInitialiseItem@pxItem:
   665                           	opt callstack 0
   666  000008                     uxListInsertEnd@pxList:
   667                           	opt callstack 0
   668  000008                     uxListRemove@pxItemToRemove:
   669                           	opt callstack 0
   670  000008                     ___wmul@multiplier:
   671                           	opt callstack 0
   672  000008                     isalpha@c:
   673                           	opt callstack 0
   674  000008                     isdigit@c:
   675                           	opt callstack 0
   676  000008                     isspace@c:
   677                           	opt callstack 0
   678  000008                     isupper@c:
   679                           	opt callstack 0
   680  000008                     fputc@c:
   681                           	opt callstack 0
   682  000008                     strlen@s:
   683                           	opt callstack 0
   684  000008                     strncmp@_l:
   685                           	opt callstack 0
   686  000008                     islower@c:
   687                           	opt callstack 0
   688  000008                     malloc@size:
   689                           	opt callstack 0
   690  000008                     ___lldiv@dividend:
   691                           	opt callstack 0
   692  000008                     ___aodiv@dividend:
   693                           	opt callstack 0
   694  000008                     ___aomod@dividend:
   695                           	opt callstack 0
   696  000008                     ___lodiv@dividend:
   697                           	opt callstack 0
   698  000008                     ___lomod@dividend:
   699                           	opt callstack 0
   700                           
   701                           ; 8 bytes @ 0x7
   702  000008                     	ds	1
   703  000009                     Timer1_enable@priority:
   704                           	opt callstack 0
   705  000009                     Timer3_enable@priority:
   706                           	opt callstack 0
   707                           
   708                           ; 1 bytes @ 0x8
   709  000009                     	ds	1
   710  00000A                     ??_uxListRemove:
   711  00000A                     ??_isupper:
   712  00000A                     ??_isalpha:
   713  00000A                     ??_isdigit:
   714  00000A                     ??_isspace:
   715  00000A                     ??_islower:
   716  00000A                     ??_USensor_measure:
   717  00000A                     USensor_init@counter:
   718                           	opt callstack 0
   719  00000A                     USensor_read@index:
   720                           	opt callstack 0
   721  00000A                     uxListInsertEnd@pxNewListItem:
   722                           	opt callstack 0
   723  00000A                     ___wmul@multiplicand:
   724                           	opt callstack 0
   725  00000A                     fputc@fp:
   726                           	opt callstack 0
   727  00000A                     strlen@a:
   728                           	opt callstack 0
   729  00000A                     strncmp@_r:
   730                           	opt callstack 0
   731                           
   732                           ; 2 bytes @ 0x9
   733  00000A                     	ds	1
   734  00000B                     
   735                           ; 1 bytes @ 0xA
   736  00000B                     	ds	1
   737  00000C                     ??_malloc:
   738  00000C                     ??_fputc:
   739  00000C                     UART_Transmit@buffer:
   740                           	opt callstack 0
   741  00000C                     ___wmul@product:
   742                           	opt callstack 0
   743  00000C                     strncmp@n:
   744                           	opt callstack 0
   745  00000C                     ___lldiv@divisor:
   746                           	opt callstack 0
   747                           
   748                           ; 4 bytes @ 0xB
   749  00000C                     	ds	1
   750  00000D                     USensor_measure@mode:
   751                           	opt callstack 0
   752                           
   753                           ; 1 bytes @ 0xC
   754  00000D                     	ds	1
   755  00000E                     ??_strncmp:
   756  00000E                     ??_Scheduler_check:
   757  00000E                     ?_toupper:
   758                           	opt callstack 0
   759  00000E                     _isspace$2314:
   760                           	opt callstack 0
   761  00000E                     UART_Transmit@size:
   762                           	opt callstack 0
   763  00000E                     Scheduler_suspend@taskH:
   764                           	opt callstack 0
   765  00000E                     toupper@c:
   766                           	opt callstack 0
   767                           
   768                           ; 2 bytes @ 0xD
   769  00000E                     	ds	1
   770  00000F                     ?_atoi:
   771                           	opt callstack 0
   772  00000F                     atoi@s:
   773                           	opt callstack 0
   774  00000F                     strncmp@l:
   775                           	opt callstack 0
   776                           
   777                           ; 2 bytes @ 0xE
   778  00000F                     	ds	1
   779  000010                     ??_toupper:
   780  000010                     malloc@pvTemp:
   781                           	opt callstack 0
   782  000010                     ___lldiv@quotient:
   783                           	opt callstack 0
   784  000010                     ___aodiv@divisor:
   785                           	opt callstack 0
   786  000010                     ___aomod@divisor:
   787                           	opt callstack 0
   788  000010                     ___lodiv@divisor:
   789                           	opt callstack 0
   790  000010                     ___lomod@divisor:
   791                           	opt callstack 0
   792                           
   793                           ; 8 bytes @ 0xF
   794  000010                     	ds	1
   795  000011                     ??_atoi:
   796  000011                     ?_stoa:
   797                           	opt callstack 0
   798  000011                     stoa@fp:
   799                           	opt callstack 0
   800  000011                     fputs@s:
   801                           	opt callstack 0
   802  000011                     strncmp@r:
   803                           	opt callstack 0
   804                           
   805                           ; 2 bytes @ 0x10
   806  000011                     	ds	1
   807  000012                     ?_Scheduler_createTask:
   808                           	opt callstack 0
   809  000012                     Scheduler_createTask@taskFxn:
   810                           	opt callstack 0
   811                           
   812                           ; 2 bytes @ 0x11
   813  000012                     	ds	1
   814  000013                     stoa@s:
   815                           	opt callstack 0
   816  000013                     fputs@fp:
   817                           	opt callstack 0
   818                           
   819                           ; 2 bytes @ 0x12
   820  000013                     	ds	1
   821  000014                     ___lldiv@counter:
   822                           	opt callstack 0
   823  000014                     Scheduler_createTask@timeout:
   824                           	opt callstack 0
   825  000014                     _toupper$2394:
   826                           	opt callstack 0
   827                           
   828                           ; 2 bytes @ 0x13
   829  000014                     	ds	1
   830  000015                     ??_stoa:
   831  000015                     fputs@c:
   832                           	opt callstack 0
   833  000015                     atoi@neg:
   834                           	opt callstack 0
   835  000015                     UART_open@baud:
   836                           	opt callstack 0
   837                           
   838                           ; 4 bytes @ 0x14
   839  000015                     	ds	1
   840  000016                     Scheduler_createTask@temp:
   841                           	opt callstack 0
   842  000016                     fputs@i:
   843                           	opt callstack 0
   844  000016                     stoa@nuls:
   845                           	opt callstack 0
   846                           
   847                           ; 7 bytes @ 0x15
   848  000016                     	ds	1
   849  000017                     _atoi$2287:
   850                           	opt callstack 0
   851                           
   852                           ; 2 bytes @ 0x16
   853  000017                     	ds	1
   854  000018                     ?_pad:
   855                           	opt callstack 0
   856  000018                     ___aodiv@counter:
   857                           	opt callstack 0
   858  000018                     ___aomod@counter:
   859                           	opt callstack 0
   860  000018                     ___lomod@counter:
   861                           	opt callstack 0
   862  000018                     pad@fp:
   863                           	opt callstack 0
   864  000018                     ___lodiv@quotient:
   865                           	opt callstack 0
   866                           
   867                           ; 8 bytes @ 0x17
   868  000018                     	ds	1
   869  000019                     UART_open@priority:
   870                           	opt callstack 0
   871  000019                     ___aodiv@sign:
   872                           	opt callstack 0
   873  000019                     ___aomod@sign:
   874                           	opt callstack 0
   875  000019                     _atoi$2289:
   876                           	opt callstack 0
   877                           
   878                           ; 2 bytes @ 0x18
   879  000019                     	ds	1
   880  00001A                     ??_UART_open:
   881  00001A                     ?_abs:
   882                           	opt callstack 0
   883  00001A                     pad@buf:
   884                           	opt callstack 0
   885  00001A                     abs@a:
   886                           	opt callstack 0
   887  00001A                     ___aodiv@quotient:
   888                           	opt callstack 0
   889                           
   890                           ; 8 bytes @ 0x19
   891  00001A                     	ds	1
   892  00001B                     _atoi$2288:
   893                           	opt callstack 0
   894  00001B                     UART_open@buffer:
   895                           	opt callstack 0
   896                           
   897                           ; 2 bytes @ 0x1A
   898  00001B                     	ds	1
   899  00001C                     ??_abs:
   900  00001C                     pad@p:
   901                           	opt callstack 0
   902  00001C                     atoi@n:
   903                           	opt callstack 0
   904                           
   905                           ; 2 bytes @ 0x1B
   906  00001C                     	ds	1
   907  00001D                     stoa@i:
   908                           	opt callstack 0
   909                           
   910                           ; 2 bytes @ 0x1C
   911  00001D                     	ds	1
   912  00001E                     ??_pad:
   913                           
   914                           ; 1 bytes @ 0x1D
   915  00001E                     	ds	1
   916  00001F                     pad@i:
   917                           	opt callstack 0
   918  00001F                     stoa@w:
   919                           	opt callstack 0
   920                           
   921                           ; 2 bytes @ 0x1E
   922  00001F                     	ds	1
   923  000020                     ___lodiv@counter:
   924                           	opt callstack 0
   925                           
   926                           ; 1 bytes @ 0x1F
   927  000020                     	ds	1
   928  000021                     pad@w:
   929                           	opt callstack 0
   930  000021                     stoa@cp:
   931                           	opt callstack 0
   932                           
   933                           ; 2 bytes @ 0x20
   934  000021                     	ds	2
   935  000023                     ?_ctoa:
   936                           	opt callstack 0
   937  000023                     ?_dtoa:
   938                           	opt callstack 0
   939  000023                     ?_otoa:
   940                           	opt callstack 0
   941  000023                     ?_utoa:
   942                           	opt callstack 0
   943  000023                     ?_xtoa:
   944                           	opt callstack 0
   945  000023                     ctoa@fp:
   946                           	opt callstack 0
   947  000023                     dtoa@fp:
   948                           	opt callstack 0
   949  000023                     otoa@fp:
   950                           	opt callstack 0
   951  000023                     stoa@p:
   952                           	opt callstack 0
   953  000023                     utoa@fp:
   954                           	opt callstack 0
   955  000023                     xtoa@fp:
   956                           	opt callstack 0
   957                           
   958                           ; 2 bytes @ 0x22
   959  000023                     	ds	2
   960  000025                     ctoa@c:
   961                           	opt callstack 0
   962  000025                     stoa@l:
   963                           	opt callstack 0
   964  000025                     dtoa@d:
   965                           	opt callstack 0
   966  000025                     otoa@d:
   967                           	opt callstack 0
   968  000025                     utoa@d:
   969                           	opt callstack 0
   970  000025                     xtoa@d:
   971                           	opt callstack 0
   972                           
   973                           ; 8 bytes @ 0x24
   974  000025                     	ds	1
   975  000026                     ctoa@w:
   976                           	opt callstack 0
   977                           
   978                           ; 2 bytes @ 0x25
   979  000026                     	ds	7
   980  00002D                     ??_dtoa:
   981  00002D                     ??_otoa:
   982  00002D                     ??_utoa:
   983  00002D                     xtoa@x:
   984                           	opt callstack 0
   985                           
   986                           ; 1 bytes @ 0x2C
   987  00002D                     	ds	1
   988  00002E                     ??_xtoa:
   989                           
   990                           ; 1 bytes @ 0x2D
   991  00002E                     	ds	7
   992  000035                     _dtoa$1675:
   993                           	opt callstack 0
   994  000035                     otoa@p:
   995                           	opt callstack 0
   996  000035                     utoa@p:
   997                           	opt callstack 0
   998                           
   999                           ; 2 bytes @ 0x34
  1000  000035                     	ds	1
  1001  000036                     _xtoa$1710:
  1002                           	opt callstack 0
  1003                           
  1004                           ; 2 bytes @ 0x35
  1005  000036                     	ds	1
  1006  000037                     dtoa@p:
  1007                           	opt callstack 0
  1008  000037                     otoa@t:
  1009                           	opt callstack 0
  1010  000037                     utoa@w:
  1011                           	opt callstack 0
  1012                           
  1013                           ; 2 bytes @ 0x36
  1014  000037                     	ds	1
  1015  000038                     _xtoa$1711:
  1016                           	opt callstack 0
  1017                           
  1018                           ; 2 bytes @ 0x37
  1019  000038                     	ds	1
  1020  000039                     dtoa@w:
  1021                           	opt callstack 0
  1022  000039                     otoa@w:
  1023                           	opt callstack 0
  1024  000039                     utoa@n:
  1025                           	opt callstack 0
  1026                           
  1027                           ; 8 bytes @ 0x38
  1028  000039                     	ds	1
  1029  00003A                     xtoa@p:
  1030                           	opt callstack 0
  1031                           
  1032                           ; 2 bytes @ 0x39
  1033  00003A                     	ds	1
  1034  00003B                     dtoa@s:
  1035                           	opt callstack 0
  1036  00003B                     otoa@n:
  1037                           	opt callstack 0
  1038                           
  1039                           ; 8 bytes @ 0x3A
  1040  00003B                     	ds	1
  1041  00003C                     xtoa@w:
  1042                           	opt callstack 0
  1043                           
  1044                           ; 2 bytes @ 0x3B
  1045  00003C                     	ds	1
  1046  00003D                     dtoa@n:
  1047                           	opt callstack 0
  1048                           
  1049                           ; 8 bytes @ 0x3C
  1050  00003D                     	ds	1
  1051  00003E                     xtoa@n:
  1052                           	opt callstack 0
  1053                           
  1054                           ; 8 bytes @ 0x3D
  1055  00003E                     	ds	3
  1056  000041                     utoa@i:
  1057                           	opt callstack 0
  1058                           
  1059                           ; 2 bytes @ 0x40
  1060  000041                     	ds	2
  1061  000043                     otoa@i:
  1062                           	opt callstack 0
  1063                           
  1064                           ; 2 bytes @ 0x42
  1065  000043                     	ds	2
  1066  000045                     dtoa@i:
  1067                           	opt callstack 0
  1068                           
  1069                           ; 2 bytes @ 0x44
  1070  000045                     	ds	1
  1071  000046                     xtoa@i:
  1072                           	opt callstack 0
  1073                           
  1074                           ; 2 bytes @ 0x45
  1075  000046                     	ds	2
  1076  000048                     xtoa@c:
  1077                           	opt callstack 0
  1078                           
  1079                           ; 2 bytes @ 0x47
  1080  000048                     	ds	2
  1081  00004A                     ??_vfpfcnvrt:
  1082                           
  1083                           ; 1 bytes @ 0x49
  1084  00004A                     	ds	4
  1085  00004E                     
  1086                           ; 1 bytes @ 0x4D
  1087 ;;
  1088 ;;Main: autosize = 0, tempsize = 0, incstack = 0, save=0
  1089 ;;
  1090 ;; *************** function _main *****************
  1091 ;; Defined at:
  1092 ;;		line 23 in file "main.c"
  1093 ;; Parameters:    Size  Location     Type
  1094 ;;		None
  1095 ;; Auto vars:     Size  Location     Type
  1096 ;;		None
  1097 ;; Return value:  Size  Location     Type
  1098 ;;                  1    wreg      void 
  1099 ;; Registers used:
  1100 ;;		wreg, fsr0l, fsr0h, fsr1l, fsr1h, fsr2l, fsr2h, status,2, status,0, tblptrl, tblptrh, tblptru, prodl, prodh, cstack
  1101 ;; Tracked objects:
  1102 ;;		On entry : 0/0
  1103 ;;		On exit  : 0/0
  1104 ;;		Unchanged: 0/0
  1105 ;; Data sizes:     COMRAM   BANK0   BANK1   BANK2   BANK3   BANK4   BANK5   BANK6   BANK7
  1106 ;;      Params:         0       0       0       0       0       0       0       0       0
  1107 ;;      Locals:         0       0       0       0       0       0       0       0       0
  1108 ;;      Temps:          0       0       0       0       0       0       0       0       0
  1109 ;;      Totals:         0       0       0       0       0       0       0       0       0
  1110 ;;Total ram usage:        0 bytes
  1111 ;; Hardware stack levels required when called:   15
  1112 ;; This function calls:
  1113 ;;		_Scheduler_createTask
  1114 ;;		_Scheduler_init
  1115 ;;		_Scheduler_start
  1116 ;;		_Task0
  1117 ;;		_Task1
  1118 ;;		_UART_init
  1119 ;;		_UART_open
  1120 ;;		_USensor_init
  1121 ;; This function is called by:
  1122 ;;		Startup code after reset
  1123 ;; This function uses a non-reentrant model
  1124 ;;
  1125                           
  1126                           	psect	text0
  1127  002EA0                     __ptext0:
  1128                           	opt callstack 0
  1129  002EA0                     _main:
  1130                           	opt callstack 16
  1131                           
  1132                           ;main.c: 24:  INTCONbits.GIE = 1;
  1133                           
  1134                           ;incstack = 0
  1135  002EA0  8EF2               	bsf	4082,7,c	;volatile
  1136                           
  1137                           ;main.c: 25:  INTCONbits.GIEL = 1;
  1138  002EA2  8CF2               	bsf	4082,6,c	;volatile
  1139                           
  1140                           ;main.c: 26:  RCONbits.IPEN = 1;
  1141  002EA4  8ED0               	bsf	4048,7,c	;volatile
  1142                           
  1143                           ;main.c: 28:  UART_init();
  1144  002EA6  EC5D  F01B         	call	_UART_init	;wreg free
  1145                           
  1146                           ;main.c: 29:  UART_open(115200 , 1 );
  1147  002EAA  0E00               	movlw	0
  1148  002EAC  6E15               	movwf	UART_open@baud,c
  1149  002EAE  0EC2               	movlw	194
  1150  002EB0  6E16               	movwf	UART_open@baud+1,c
  1151  002EB2  0E01               	movlw	1
  1152  002EB4  6E17               	movwf	UART_open@baud+2,c
  1153  002EB6  0E00               	movlw	0
  1154  002EB8  6E18               	movwf	UART_open@baud+3,c
  1155  002EBA  0E01               	movlw	1
  1156  002EBC  6E19               	movwf	UART_open@priority,c
  1157  002EBE  ECDB  F00E         	call	_UART_open	;wreg free
  1158                           
  1159                           ;main.c: 31:  USensor_init();
  1160  002EC2  ECEA  F018         	call	_USensor_init	;wreg free
  1161                           
  1162                           ;main.c: 33:  Scheduler_init();
  1163  002EC6  EC06  F01A         	call	_Scheduler_init	;wreg free
  1164                           
  1165                           ;main.c: 34:  Task0Handler = Scheduler_createTask( Task0 , 0 );
  1166  002ECA  0E26               	movlw	low _Task0
  1167  002ECC  6E12               	movwf	Scheduler_createTask@taskFxn,c
  1168  002ECE  0E30               	movlw	high _Task0
  1169  002ED0  6E13               	movwf	Scheduler_createTask@taskFxn+1,c
  1170  002ED2  0E00               	movlw	0
  1171  002ED4  6E15               	movwf	Scheduler_createTask@timeout+1,c
  1172  002ED6  0E00               	movlw	0
  1173  002ED8  6E14               	movwf	Scheduler_createTask@timeout,c
  1174  002EDA  EC57  F013         	call	_Scheduler_createTask	;wreg free
  1175  002EDE  C012  F0B5         	movff	?_Scheduler_createTask,_Task0Handler
  1176  002EE2  C013  F0B6         	movff	?_Scheduler_createTask+1,_Task0Handler+1
  1177                           
  1178                           ;main.c: 35:  if(! Task0Handler ){
  1179  002EE6  0100               	movlb	0	; () banked
  1180  002EE8  51B5               	movf	_Task0Handler& (0+255),w,b
  1181  002EEA  11B6               	iorwf	(_Task0Handler+1)& (0+255),w,b
  1182  002EEC  B4D8               	btfsc	status,2,c
  1183  002EEE                     u6920:
  1184                           
  1185                           ;main.c: 36:   {while(1);};
  1186  002EEE  D7FF               	goto	u6920
  1187                           
  1188                           ; BSR set to: 0
  1189                           ;main.c: 38:  Task1Handler = Scheduler_createTask( Task1 , 0xFFFF );
  1190  002EF0  0EBA               	movlw	low _Task1
  1191  002EF2  6E12               	movwf	Scheduler_createTask@taskFxn,c
  1192  002EF4  0E37               	movlw	high _Task1
  1193  002EF6  6E13               	movwf	Scheduler_createTask@taskFxn+1,c
  1194  002EF8  0EFF               	movlw	255
  1195  002EFA  6E15               	movwf	Scheduler_createTask@timeout+1,c
  1196  002EFC  6814               	setf	Scheduler_createTask@timeout,c
  1197  002EFE  EC57  F013         	call	_Scheduler_createTask	;wreg free
  1198  002F02  C012  F0B3         	movff	?_Scheduler_createTask,_Task1Handler
  1199  002F06  C013  F0B4         	movff	?_Scheduler_createTask+1,_Task1Handler+1
  1200                           
  1201                           ;main.c: 39:  if(! Task1Handler ){
  1202  002F0A  0100               	movlb	0	; () banked
  1203  002F0C  51B3               	movf	_Task1Handler& (0+255),w,b
  1204  002F0E  11B4               	iorwf	(_Task1Handler+1)& (0+255),w,b
  1205  002F10  B4D8               	btfsc	status,2,c
  1206  002F12                     u6930:
  1207                           
  1208                           ;main.c: 40:   {while(1);};
  1209  002F12  D7FF               	goto	u6930
  1210                           
  1211                           ; BSR set to: 0
  1212                           
  1213                           ;main.c: 41:  }
  1214  002F14  8EF2               	bsf	4082,7,c	;# 
  1215  002F16  8CF2               	bsf	4082,6,c	;# 
  1216                           
  1217                           ;main.c: 44:  Scheduler_start();
  1218  002F18  ECDE  F013         	call	_Scheduler_start	;wreg free
  1219                           
  1220                           ;main.c: 46:  Task0();
  1221  002F1C  EC13  F018         	call	_Task0	;wreg free
  1222                           
  1223                           ;main.c: 47:  Task1();
  1224  002F20  ECDD  F01B         	call	_Task1	;wreg free
  1225  002F24  EF1D  F000         	goto	start
  1226  002F28                     __end_of_main:
  1227                           	opt callstack 0
  1228                           
  1229 ;; *************** function _USensor_init *****************
  1230 ;; Defined at:
  1231 ;;		line 10 in file "Drivers/USensor.c"
  1232 ;; Parameters:    Size  Location     Type
  1233 ;;		None
  1234 ;; Auto vars:     Size  Location     Type
  1235 ;;  counter         1    9[COMRAM] unsigned char 
  1236 ;; Return value:  Size  Location     Type
  1237 ;;                  1    wreg      void 
  1238 ;; Registers used:
  1239 ;;		wreg, fsr2l, fsr2h, status,2, status,0, prodl, prodh, cstack
  1240 ;; Tracked objects:
  1241 ;;		On entry : 0/0
  1242 ;;		On exit  : 0/0
  1243 ;;		Unchanged: 0/0
  1244 ;; Data sizes:     COMRAM   BANK0   BANK1   BANK2   BANK3   BANK4   BANK5   BANK6   BANK7
  1245 ;;      Params:         0       0       0       0       0       0       0       0       0
  1246 ;;      Locals:         1       0       0       0       0       0       0       0       0
  1247 ;;      Temps:          0       0       0       0       0       0       0       0       0
  1248 ;;      Totals:         1       0       0       0       0       0       0       0       0
  1249 ;;Total ram usage:        1 bytes
  1250 ;; Hardware stack levels used:    1
  1251 ;; Hardware stack levels required when called:    6
  1252 ;; This function calls:
  1253 ;;		_Timer3_init
  1254 ;;		_Timer3_reload
  1255 ;; This function is called by:
  1256 ;;		_main
  1257 ;; This function uses a non-reentrant model
  1258 ;;
  1259                           
  1260                           	psect	text1
  1261  0031D4                     __ptext1:
  1262                           	opt callstack 0
  1263  0031D4                     _USensor_init:
  1264                           	opt callstack 24
  1265                           
  1266                           ;Drivers/USensor.c: 11:  register uint8_t counter;;Drivers/USensor.c: 12:  PORTB = LATB 
      +                          = 0;
  1267                           
  1268                           ;incstack = 0
  1269  0031D4  0E00               	movlw	0
  1270  0031D6  6E8A               	movwf	3978,c	;volatile
  1271  0031D8  CF8A FF81          	movff	3978,3969	;volatile
  1272                           
  1273                           ;Drivers/USensor.c: 13:     TRISB = 0x01;
  1274  0031DC  0E01               	movlw	1
  1275  0031DE  6E93               	movwf	3987,c	;volatile
  1276                           
  1277                           ;Drivers/USensor.c: 14:     ADCON1 = 0x0F;
  1278  0031E0  0E0F               	movlw	15
  1279  0031E2  6EC1               	movwf	4033,c	;volatile
  1280                           
  1281                           ;Drivers/USensor.c: 15:     CMCON = 0x07;
  1282  0031E4  0E07               	movlw	7
  1283  0031E6  6EB4               	movwf	4020,c	;volatile
  1284                           
  1285                           ;Drivers/USensor.c: 17:  Timer3_init();
  1286  0031E8  ECED  F01B         	call	_Timer3_init	;wreg free
  1287                           
  1288                           ;Drivers/USensor.c: 18:  Timer3_reload( 0 );
  1289  0031EC  0E00               	movlw	0
  1290  0031EE  6E09               	movwf	Timer3_reload@value+1,c
  1291  0031F0  0E00               	movlw	0
  1292  0031F2  6E08               	movwf	Timer3_reload@value,c
  1293  0031F4  ECF3  F01B         	call	_Timer3_reload	;wreg free
  1294                           
  1295                           ;Drivers/USensor.c: 19:  for( counter=0;counter<8;counter++ ){
  1296  0031F8  0E00               	movlw	0
  1297  0031FA  6E0A               	movwf	USensor_init@counter,c
  1298  0031FC                     l4637:
  1299                           
  1300                           ;Drivers/USensor.c: 20:   measure[counter].time = 0xFF;
  1301  0031FC  500A               	movf	USensor_init@counter,w,c
  1302  0031FE  0D04               	mullw	4
  1303  003200  0E00               	movlw	low _measure
  1304  003202  24F3               	addwf	prodl,w,c
  1305  003204  6ED9               	movwf	fsr2l,c
  1306  003206  0E01               	movlw	high _measure
  1307  003208  20F4               	addwfc	prodh,w,c
  1308  00320A  6EDA               	movwf	fsr2h,c
  1309  00320C  0EFF               	movlw	255
  1310  00320E  6EDE               	movwf	postinc2,c
  1311  003210  0E00               	movlw	0
  1312  003212  6EDD               	movwf	postdec2,c
  1313                           
  1314                           ;Drivers/USensor.c: 21:   measure[counter].mm = 0xFF;
  1315  003214  500A               	movf	USensor_init@counter,w,c
  1316  003216  0D04               	mullw	4
  1317  003218  0E02               	movlw	low (_measure+2)
  1318  00321A  24F3               	addwf	prodl,w,c
  1319  00321C  6ED9               	movwf	fsr2l,c
  1320  00321E  0E01               	movlw	high (_measure+2)
  1321  003220  20F4               	addwfc	prodh,w,c
  1322  003222  6EDA               	movwf	fsr2h,c
  1323  003224  0EFF               	movlw	255
  1324  003226  6EDE               	movwf	postinc2,c
  1325  003228  0E00               	movlw	0
  1326  00322A  6EDD               	movwf	postdec2,c
  1327                           
  1328                           ;Drivers/USensor.c: 22:  }
  1329  00322C  2A0A               	incf	USensor_init@counter,f,c
  1330  00322E  0E07               	movlw	7
  1331  003230  640A               	cpfsgt	USensor_init@counter,c
  1332  003232  D7E4               	goto	l4637
  1333  003234  0012               	return	
  1334  003236                     __end_of_USensor_init:
  1335                           	opt callstack 0
  1336                           
  1337 ;; *************** function _Timer3_init *****************
  1338 ;; Defined at:
  1339 ;;		line 4 in file "Drivers/Timer3.c"
  1340 ;; Parameters:    Size  Location     Type
  1341 ;;		None
  1342 ;; Auto vars:     Size  Location     Type
  1343 ;;		None
  1344 ;; Return value:  Size  Location     Type
  1345 ;;                  1    wreg      void 
  1346 ;; Registers used:
  1347 ;;		wreg, status,2
  1348 ;; Tracked objects:
  1349 ;;		On entry : 0/0
  1350 ;;		On exit  : 0/0
  1351 ;;		Unchanged: 0/0
  1352 ;; Data sizes:     COMRAM   BANK0   BANK1   BANK2   BANK3   BANK4   BANK5   BANK6   BANK7
  1353 ;;      Params:         0       0       0       0       0       0       0       0       0
  1354 ;;      Locals:         0       0       0       0       0       0       0       0       0
  1355 ;;      Temps:          0       0       0       0       0       0       0       0       0
  1356 ;;      Totals:         0       0       0       0       0       0       0       0       0
  1357 ;;Total ram usage:        0 bytes
  1358 ;; Hardware stack levels used:    1
  1359 ;; Hardware stack levels required when called:    5
  1360 ;; This function calls:
  1361 ;;		Nothing
  1362 ;; This function is called by:
  1363 ;;		_USensor_init
  1364 ;; This function uses a non-reentrant model
  1365 ;;
  1366                           
  1367                           	psect	text2
  1368  0037DA                     __ptext2:
  1369                           	opt callstack 0
  1370  0037DA                     _Timer3_init:
  1371                           	opt callstack 24
  1372                           
  1373                           ;Drivers/Timer3.c: 6:  T3CONbits.RD16 = 0b01;
  1374                           
  1375                           ;incstack = 0
  1376  0037DA  8EB1               	bsf	4017,7,c	;volatile
  1377                           
  1378                           ;Drivers/Timer3.c: 7:     T3CONbits.T3CKPS = 0b10;
  1379  0037DC  50B1               	movf	4017,w,c	;volatile
  1380  0037DE  0BCF               	andlw	-49
  1381  0037E0  0920               	iorlw	32
  1382  0037E2  6EB1               	movwf	4017,c	;volatile
  1383  0037E4  0012               	return		;funcret
  1384  0037E6                     __end_of_Timer3_init:
  1385                           	opt callstack 0
  1386                           
  1387 ;; *************** function _UART_open *****************
  1388 ;; Defined at:
  1389 ;;		line 17 in file "Drivers/UART.c"
  1390 ;; Parameters:    Size  Location     Type
  1391 ;;  baud            4   20[COMRAM] unsigned long 
  1392 ;;  priority        1   24[COMRAM] unsigned char 
  1393 ;; Auto vars:     Size  Location     Type
  1394 ;;  buffer          2   26[COMRAM] unsigned short 
  1395 ;; Return value:  Size  Location     Type
  1396 ;;                  1    wreg      void 
  1397 ;; Registers used:
  1398 ;;		wreg, status,2, status,0, cstack
  1399 ;; Tracked objects:
  1400 ;;		On entry : 0/0
  1401 ;;		On exit  : 0/0
  1402 ;;		Unchanged: 0/0
  1403 ;; Data sizes:     COMRAM   BANK0   BANK1   BANK2   BANK3   BANK4   BANK5   BANK6   BANK7
  1404 ;;      Params:         5       0       0       0       0       0       0       0       0
  1405 ;;      Locals:         2       0       0       0       0       0       0       0       0
  1406 ;;      Temps:          1       0       0       0       0       0       0       0       0
  1407 ;;      Totals:         8       0       0       0       0       0       0       0       0
  1408 ;;Total ram usage:        8 bytes
  1409 ;; Hardware stack levels used:    1
  1410 ;; Hardware stack levels required when called:    6
  1411 ;; This function calls:
  1412 ;;		___lldiv
  1413 ;; This function is called by:
  1414 ;;		_main
  1415 ;; This function uses a non-reentrant model
  1416 ;;
  1417                           
  1418                           	psect	text3
  1419  001DB6                     __ptext3:
  1420                           	opt callstack 0
  1421  001DB6                     _UART_open:
  1422                           	opt callstack 24
  1423                           
  1424                           ;Drivers/UART.c: 18:     unsigned short buffer;;Drivers/UART.c: 21:     PORTC = 0;LATC =
      +                           0;TRISC = 0xC0;
  1425                           
  1426                           ;incstack = 0
  1427  001DB6  0E00               	movlw	0
  1428  001DB8  6E82               	movwf	3970,c	;volatile
  1429  001DBA  0E00               	movlw	0
  1430  001DBC  6E8B               	movwf	3979,c	;volatile
  1431  001DBE  0EC0               	movlw	192
  1432  001DC0  6E94               	movwf	3988,c	;volatile
  1433                           
  1434                           ;Drivers/UART.c: 24:     BAUDCON = 0b00001010;
  1435  001DC2  0E0A               	movlw	10
  1436  001DC4  6EB8               	movwf	4024,c	;volatile
  1437                           
  1438                           ;Drivers/UART.c: 26:     TXSTA = 0b00000000;
  1439  001DC6  0E00               	movlw	0
  1440  001DC8  6EAC               	movwf	4012,c	;volatile
  1441                           
  1442                           ;Drivers/UART.c: 28:     RCSTA = 0b00000000;
  1443  001DCA  0E00               	movlw	0
  1444  001DCC  6EAB               	movwf	4011,c	;volatile
  1445                           
  1446                           ;Drivers/UART.c: 34:     if( !TXSTAbits.SYNC ){
  1447  001DCE  B8AC               	btfsc	4012,4,c	;volatile
  1448  001DD0  D080               	goto	l48
  1449                           
  1450                           ;Drivers/UART.c: 35:         if( !BAUDCONbits.BRG16 ){
  1451  001DD2  B6B8               	btfsc	4024,3,c	;volatile
  1452  001DD4  D03A               	goto	l49
  1453                           
  1454                           ;Drivers/UART.c: 36:             if( TXSTAbits.BRGH ){
  1455  001DD6  A4AC               	btfss	4012,2,c	;volatile
  1456  001DD8  D01C               	goto	l4559
  1457                           
  1458                           ;Drivers/UART.c: 37:                 SPBRG = (unsigned char)((48000000/baud/16)-1);
  1459  001DDA  0E00               	movlw	0
  1460  001DDC  6E08               	movwf	___lldiv@dividend,c
  1461  001DDE  0E6C               	movlw	108
  1462  001DE0  6E09               	movwf	___lldiv@dividend+1,c
  1463  001DE2  0EDC               	movlw	220
  1464  001DE4  6E0A               	movwf	___lldiv@dividend+2,c
  1465  001DE6  0E02               	movlw	2
  1466  001DE8  6E0B               	movwf	___lldiv@dividend+3,c
  1467  001DEA  C015  F00C         	movff	UART_open@baud,___lldiv@divisor
  1468  001DEE  C016  F00D         	movff	UART_open@baud+1,___lldiv@divisor+1
  1469  001DF2  C017  F00E         	movff	UART_open@baud+2,___lldiv@divisor+2
  1470  001DF6  C018  F00F         	movff	UART_open@baud+3,___lldiv@divisor+3
  1471  001DFA  EC94  F017         	call	___lldiv	;wreg free
  1472  001DFE  0E05               	movlw	5
  1473  001E00  D005               	goto	u4800
  1474  001E02                     u4805:
  1475  001E02  90D8               	bcf	status,0,c
  1476  001E04  320B               	rrcf	?___lldiv+3,f,c
  1477  001E06  320A               	rrcf	?___lldiv+2,f,c
  1478  001E08  3209               	rrcf	?___lldiv+1,f,c
  1479  001E0A  3208               	rrcf	?___lldiv,f,c
  1480  001E0C                     u4800:
  1481  001E0C  2EE8               	decfsz	wreg,f,c
  1482  001E0E  D7F9               	goto	u4805
  1483  001E10  D07D               	goto	L1
  1484  001E12                     l4559:
  1485                           
  1486                           ;Drivers/UART.c: 39:                 SPBRG = (unsigned char)((48000000/baud/64)-1);
  1487  001E12  0E00               	movlw	0
  1488  001E14  6E08               	movwf	___lldiv@dividend,c
  1489  001E16  0E6C               	movlw	108
  1490  001E18  6E09               	movwf	___lldiv@dividend+1,c
  1491  001E1A  0EDC               	movlw	220
  1492  001E1C  6E0A               	movwf	___lldiv@dividend+2,c
  1493  001E1E  0E02               	movlw	2
  1494  001E20  6E0B               	movwf	___lldiv@dividend+3,c
  1495  001E22  C015  F00C         	movff	UART_open@baud,___lldiv@divisor
  1496  001E26  C016  F00D         	movff	UART_open@baud+1,___lldiv@divisor+1
  1497  001E2A  C017  F00E         	movff	UART_open@baud+2,___lldiv@divisor+2
  1498  001E2E  C018  F00F         	movff	UART_open@baud+3,___lldiv@divisor+3
  1499  001E32  EC94  F017         	call	___lldiv	;wreg free
  1500  001E36  0E07               	movlw	7
  1501  001E38  D005               	goto	u4810
  1502  001E3A                     u4815:
  1503  001E3A  90D8               	bcf	status,0,c
  1504  001E3C  320B               	rrcf	?___lldiv+3,f,c
  1505  001E3E  320A               	rrcf	?___lldiv+2,f,c
  1506  001E40  3209               	rrcf	?___lldiv+1,f,c
  1507  001E42  3208               	rrcf	?___lldiv,f,c
  1508  001E44                     u4810:
  1509  001E44  2EE8               	decfsz	wreg,f,c
  1510  001E46  D7F9               	goto	u4815
  1511  001E48  D061               	goto	L1
  1512  001E4A                     l49:
  1513                           
  1514                           ;Drivers/UART.c: 42:             if( TXSTAbits.BRGH ){
  1515  001E4A  A4AC               	btfss	4012,2,c	;volatile
  1516  001E4C  D026               	goto	l4567
  1517  001E4E                     u4820:
  1518                           
  1519                           ;Drivers/UART.c: 43:                 buffer = (48000000/baud/4)-1;
  1520  001E4E  0E00               	movlw	0
  1521  001E50  6E08               	movwf	___lldiv@dividend,c
  1522  001E52  0E6C               	movlw	108
  1523  001E54  6E09               	movwf	___lldiv@dividend+1,c
  1524  001E56  0EDC               	movlw	220
  1525  001E58  6E0A               	movwf	___lldiv@dividend+2,c
  1526  001E5A  0E02               	movlw	2
  1527  001E5C  6E0B               	movwf	___lldiv@dividend+3,c
  1528  001E5E  C015  F00C         	movff	UART_open@baud,___lldiv@divisor
  1529  001E62  C016  F00D         	movff	UART_open@baud+1,___lldiv@divisor+1
  1530  001E66  C017  F00E         	movff	UART_open@baud+2,___lldiv@divisor+2
  1531  001E6A  C018  F00F         	movff	UART_open@baud+3,___lldiv@divisor+3
  1532  001E6E  EC94  F017         	call	___lldiv	;wreg free
  1533  001E72  0E03               	movlw	3
  1534  001E74  D005               	goto	u4830
  1535  001E76                     u4835:
  1536  001E76  90D8               	bcf	status,0,c
  1537  001E78  320B               	rrcf	?___lldiv+3,f,c
  1538  001E7A  320A               	rrcf	?___lldiv+2,f,c
  1539  001E7C  3209               	rrcf	?___lldiv+1,f,c
  1540  001E7E  3208               	rrcf	?___lldiv,f,c
  1541  001E80                     u4830:
  1542  001E80  2EE8               	decfsz	wreg,f,c
  1543  001E82  D7F9               	goto	u4835
  1544  001E84  0EFF               	movlw	255
  1545  001E86  2408               	addwf	?___lldiv,w,c
  1546  001E88  6E1B               	movwf	UART_open@buffer,c
  1547  001E8A  0EFF               	movlw	255
  1548  001E8C  2009               	addwfc	?___lldiv+1,w,c
  1549  001E8E  6E1C               	movwf	UART_open@buffer+1,c
  1550                           
  1551                           ;Drivers/UART.c: 44:                 SPBRG = buffer & 0xFF;
  1552  001E90  C01B  FFAF         	movff	UART_open@buffer,4015	;volatile
  1553                           
  1554                           ;Drivers/UART.c: 45:                 SPBRGH = buffer >> 8;
  1555  001E94  501C               	movf	UART_open@buffer+1,w,c
  1556  001E96  6EB0               	movwf	4016,c	;volatile
  1557                           
  1558                           ;Drivers/UART.c: 46:             }else{
  1559  001E98  D03B               	goto	l4581
  1560  001E9A                     l4567:
  1561                           
  1562                           ;Drivers/UART.c: 47:                 buffer = (48000000/baud/16)-1;
  1563  001E9A  0E00               	movlw	0
  1564  001E9C  6E08               	movwf	___lldiv@dividend,c
  1565  001E9E  0E6C               	movlw	108
  1566  001EA0  6E09               	movwf	___lldiv@dividend+1,c
  1567  001EA2  0EDC               	movlw	220
  1568  001EA4  6E0A               	movwf	___lldiv@dividend+2,c
  1569  001EA6  0E02               	movlw	2
  1570  001EA8  6E0B               	movwf	___lldiv@dividend+3,c
  1571  001EAA  C015  F00C         	movff	UART_open@baud,___lldiv@divisor
  1572  001EAE  C016  F00D         	movff	UART_open@baud+1,___lldiv@divisor+1
  1573  001EB2  C017  F00E         	movff	UART_open@baud+2,___lldiv@divisor+2
  1574  001EB6  C018  F00F         	movff	UART_open@baud+3,___lldiv@divisor+3
  1575  001EBA  EC94  F017         	call	___lldiv	;wreg free
  1576  001EBE  0E05               	movlw	5
  1577  001EC0  D005               	goto	u4840
  1578  001EC2                     u4845:
  1579  001EC2  90D8               	bcf	status,0,c
  1580  001EC4  320B               	rrcf	?___lldiv+3,f,c
  1581  001EC6  320A               	rrcf	?___lldiv+2,f,c
  1582  001EC8  3209               	rrcf	?___lldiv+1,f,c
  1583  001ECA  3208               	rrcf	?___lldiv,f,c
  1584  001ECC                     u4840:
  1585  001ECC  2EE8               	decfsz	wreg,f,c
  1586  001ECE  D7F9               	goto	u4845
  1587  001ED0  D7D9               	goto	L2
  1588  001ED2                     l48:
  1589                           
  1590                           ;Drivers/UART.c: 53:         if( !BAUDCONbits.BRG16 ){
  1591  001ED2  B6B8               	btfsc	4024,3,c	;volatile
  1592  001ED4  D7BC               	goto	u4820
  1593                           
  1594                           ;Drivers/UART.c: 54:                 SPBRG = (unsigned char)((48000000/baud/4)-1);
  1595  001ED6  0E00               	movlw	0
  1596  001ED8  6E08               	movwf	___lldiv@dividend,c
  1597  001EDA  0E6C               	movlw	108
  1598  001EDC  6E09               	movwf	___lldiv@dividend+1,c
  1599  001EDE  0EDC               	movlw	220
  1600  001EE0  6E0A               	movwf	___lldiv@dividend+2,c
  1601  001EE2  0E02               	movlw	2
  1602  001EE4  6E0B               	movwf	___lldiv@dividend+3,c
  1603  001EE6  C015  F00C         	movff	UART_open@baud,___lldiv@divisor
  1604  001EEA  C016  F00D         	movff	UART_open@baud+1,___lldiv@divisor+1
  1605  001EEE  C017  F00E         	movff	UART_open@baud+2,___lldiv@divisor+2
  1606  001EF2  C018  F00F         	movff	UART_open@baud+3,___lldiv@divisor+3
  1607  001EF6  EC94  F017         	call	___lldiv	;wreg free
  1608  001EFA  0E03               	movlw	3
  1609  001EFC  D005               	goto	u4860
  1610  001EFE                     u4865:
  1611  001EFE  90D8               	bcf	status,0,c
  1612  001F00  320B               	rrcf	?___lldiv+3,f,c
  1613  001F02  320A               	rrcf	?___lldiv+2,f,c
  1614  001F04  3209               	rrcf	?___lldiv+1,f,c
  1615  001F06  3208               	rrcf	?___lldiv,f,c
  1616  001F08                     u4860:
  1617  001F08  2EE8               	decfsz	wreg,f,c
  1618  001F0A  D7F9               	goto	u4865
  1619  001F0C                     L1:
  1620  001F0C  0408               	decf	?___lldiv,w,c
  1621  001F0E  6EAF               	movwf	4015,c	;volatile
  1622  001F10                     l4581:
  1623                           
  1624                           ;Drivers/UART.c: 63:     IPR1bits.TX1IP = priority & 0x01;
  1625  001F10  C019  F01A         	movff	UART_open@priority,??_UART_open
  1626  001F14  0E01               	movlw	1
  1627  001F16  161A               	andwf	??_UART_open,f,c
  1628  001F18  3A1A               	swapf	??_UART_open,f,c
  1629  001F1A  509F               	movf	3999,w,c	;volatile
  1630  001F1C  181A               	xorwf	??_UART_open,w,c
  1631  001F1E  0BEF               	andlw	-17
  1632  001F20  181A               	xorwf	??_UART_open,w,c
  1633  001F22  6E9F               	movwf	3999,c	;volatile
  1634                           
  1635                           ;Drivers/UART.c: 64:     IPR1bits.RC1IP = priority & 0x01;
  1636  001F24  C019  F01A         	movff	UART_open@priority,??_UART_open
  1637  001F28  0E01               	movlw	1
  1638  001F2A  161A               	andwf	??_UART_open,f,c
  1639  001F2C  3A1A               	swapf	??_UART_open,f,c
  1640  001F2E  461A               	rlncf	??_UART_open,f,c
  1641  001F30  509F               	movf	3999,w,c	;volatile
  1642  001F32  181A               	xorwf	??_UART_open,w,c
  1643  001F34  0BDF               	andlw	-33
  1644  001F36  181A               	xorwf	??_UART_open,w,c
  1645  001F38  6E9F               	movwf	3999,c	;volatile
  1646                           
  1647                           ;Drivers/UART.c: 65:     TXSTAbits.TXEN = 1;
  1648  001F3A  8AAC               	bsf	4012,5,c	;volatile
  1649                           
  1650                           ;Drivers/UART.c: 66:     RCSTAbits.CREN = 1;
  1651  001F3C  88AB               	bsf	4011,4,c	;volatile
  1652                           
  1653                           ;Drivers/UART.c: 67:     RCSTAbits.SPEN = 1;
  1654  001F3E  8EAB               	bsf	4011,7,c	;volatile
  1655  001F40  0012               	return		;funcret
  1656  001F42                     __end_of_UART_open:
  1657                           	opt callstack 0
  1658                           
  1659 ;; *************** function ___lldiv *****************
  1660 ;; Defined at:
  1661 ;;		line 7 in file "/opt/microchip/xc8/v2.05/pic/sources/c99/common/__lldiv.c"
  1662 ;; Parameters:    Size  Location     Type
  1663 ;;  dividend        4    7[COMRAM] unsigned long 
  1664 ;;  divisor         4   11[COMRAM] unsigned long 
  1665 ;; Auto vars:     Size  Location     Type
  1666 ;;  quotient        4   15[COMRAM] unsigned long 
  1667 ;;  counter         1   19[COMRAM] unsigned char 
  1668 ;; Return value:  Size  Location     Type
  1669 ;;                  4    7[COMRAM] unsigned long 
  1670 ;; Registers used:
  1671 ;;		wreg, status,2, status,0
  1672 ;; Tracked objects:
  1673 ;;		On entry : 0/0
  1674 ;;		On exit  : 0/0
  1675 ;;		Unchanged: 0/0
  1676 ;; Data sizes:     COMRAM   BANK0   BANK1   BANK2   BANK3   BANK4   BANK5   BANK6   BANK7
  1677 ;;      Params:         8       0       0       0       0       0       0       0       0
  1678 ;;      Locals:         5       0       0       0       0       0       0       0       0
  1679 ;;      Temps:          0       0       0       0       0       0       0       0       0
  1680 ;;      Totals:        13       0       0       0       0       0       0       0       0
  1681 ;;Total ram usage:       13 bytes
  1682 ;; Hardware stack levels used:    1
  1683 ;; Hardware stack levels required when called:    5
  1684 ;; This function calls:
  1685 ;;		Nothing
  1686 ;; This function is called by:
  1687 ;;		_UART_open
  1688 ;; This function uses a non-reentrant model
  1689 ;;
  1690                           
  1691                           	psect	text4
  1692  002F28                     __ptext4:
  1693                           	opt callstack 0
  1694  002F28                     ___lldiv:
  1695                           	opt callstack 24
  1696                           
  1697                           ;incstack = 0
  1698  002F28  0E00               	movlw	0
  1699  002F2A  6E10               	movwf	___lldiv@quotient,c
  1700  002F2C  0E00               	movlw	0
  1701  002F2E  6E11               	movwf	___lldiv@quotient+1,c
  1702  002F30  0E00               	movlw	0
  1703  002F32  6E12               	movwf	___lldiv@quotient+2,c
  1704  002F34  0E00               	movlw	0
  1705  002F36  6E13               	movwf	___lldiv@quotient+3,c
  1706  002F38  500C               	movf	___lldiv@divisor,w,c
  1707  002F3A  100D               	iorwf	___lldiv@divisor+1,w,c
  1708  002F3C  100E               	iorwf	___lldiv@divisor+2,w,c
  1709  002F3E  100F               	iorwf	___lldiv@divisor+3,w,c
  1710  002F40  B4D8               	btfsc	status,2,c
  1711  002F42  D02A               	goto	l818
  1712  002F44  0E01               	movlw	1
  1713  002F46  6E14               	movwf	___lldiv@counter,c
  1714  002F48  D006               	goto	l4525
  1715  002F4A                     l4523:
  1716  002F4A  90D8               	bcf	status,0,c
  1717  002F4C  360C               	rlcf	___lldiv@divisor,f,c
  1718  002F4E  360D               	rlcf	___lldiv@divisor+1,f,c
  1719  002F50  360E               	rlcf	___lldiv@divisor+2,f,c
  1720  002F52  360F               	rlcf	___lldiv@divisor+3,f,c
  1721  002F54  2A14               	incf	___lldiv@counter,f,c
  1722  002F56                     l4525:
  1723  002F56  AE0F               	btfss	___lldiv@divisor+3,7,c
  1724  002F58  D7F8               	goto	l4523
  1725  002F5A                     u4750:
  1726  002F5A  90D8               	bcf	status,0,c
  1727  002F5C  3610               	rlcf	___lldiv@quotient,f,c
  1728  002F5E  3611               	rlcf	___lldiv@quotient+1,f,c
  1729  002F60  3612               	rlcf	___lldiv@quotient+2,f,c
  1730  002F62  3613               	rlcf	___lldiv@quotient+3,f,c
  1731  002F64  500C               	movf	___lldiv@divisor,w,c
  1732  002F66  5C08               	subwf	___lldiv@dividend,w,c
  1733  002F68  500D               	movf	___lldiv@divisor+1,w,c
  1734  002F6A  5809               	subwfb	___lldiv@dividend+1,w,c
  1735  002F6C  500E               	movf	___lldiv@divisor+2,w,c
  1736  002F6E  580A               	subwfb	___lldiv@dividend+2,w,c
  1737  002F70  500F               	movf	___lldiv@divisor+3,w,c
  1738  002F72  580B               	subwfb	___lldiv@dividend+3,w,c
  1739  002F74  A0D8               	btfss	status,0,c
  1740  002F76  D009               	goto	l4535
  1741  002F78  500C               	movf	___lldiv@divisor,w,c
  1742  002F7A  5E08               	subwf	___lldiv@dividend,f,c
  1743  002F7C  500D               	movf	___lldiv@divisor+1,w,c
  1744  002F7E  5A09               	subwfb	___lldiv@dividend+1,f,c
  1745  002F80  500E               	movf	___lldiv@divisor+2,w,c
  1746  002F82  5A0A               	subwfb	___lldiv@dividend+2,f,c
  1747  002F84  500F               	movf	___lldiv@divisor+3,w,c
  1748  002F86  5A0B               	subwfb	___lldiv@dividend+3,f,c
  1749  002F88  8010               	bsf	___lldiv@quotient,0,c
  1750  002F8A                     l4535:
  1751  002F8A  90D8               	bcf	status,0,c
  1752  002F8C  320F               	rrcf	___lldiv@divisor+3,f,c
  1753  002F8E  320E               	rrcf	___lldiv@divisor+2,f,c
  1754  002F90  320D               	rrcf	___lldiv@divisor+1,f,c
  1755  002F92  320C               	rrcf	___lldiv@divisor,f,c
  1756  002F94  2E14               	decfsz	___lldiv@counter,f,c
  1757  002F96  D7E1               	goto	u4750
  1758  002F98                     l818:
  1759  002F98  C010  F008         	movff	___lldiv@quotient,?___lldiv
  1760  002F9C  C011  F009         	movff	___lldiv@quotient+1,?___lldiv+1
  1761  002FA0  C012  F00A         	movff	___lldiv@quotient+2,?___lldiv+2
  1762  002FA4  C013  F00B         	movff	___lldiv@quotient+3,?___lldiv+3
  1763  002FA8  0012               	return		;funcret
  1764  002FAA                     __end_of___lldiv:
  1765                           	opt callstack 0
  1766                           
  1767 ;; *************** function _UART_init *****************
  1768 ;; Defined at:
  1769 ;;		line 11 in file "Drivers/UART.c"
  1770 ;; Parameters:    Size  Location     Type
  1771 ;;		None
  1772 ;; Auto vars:     Size  Location     Type
  1773 ;;		None
  1774 ;; Return value:  Size  Location     Type
  1775 ;;                  1    wreg      void 
  1776 ;; Registers used:
  1777 ;;		wreg, status,2, status,0
  1778 ;; Tracked objects:
  1779 ;;		On entry : 0/0
  1780 ;;		On exit  : 0/0
  1781 ;;		Unchanged: 0/0
  1782 ;; Data sizes:     COMRAM   BANK0   BANK1   BANK2   BANK3   BANK4   BANK5   BANK6   BANK7
  1783 ;;      Params:         0       0       0       0       0       0       0       0       0
  1784 ;;      Locals:         0       0       0       0       0       0       0       0       0
  1785 ;;      Temps:          0       0       0       0       0       0       0       0       0
  1786 ;;      Totals:         0       0       0       0       0       0       0       0       0
  1787 ;;Total ram usage:        0 bytes
  1788 ;; Hardware stack levels used:    1
  1789 ;; Hardware stack levels required when called:    5
  1790 ;; This function calls:
  1791 ;;		Nothing
  1792 ;; This function is called by:
  1793 ;;		_main
  1794 ;; This function uses a non-reentrant model
  1795 ;;
  1796                           
  1797                           	psect	text5
  1798  0036BA                     __ptext5:
  1799                           	opt callstack 0
  1800  0036BA                     _UART_init:
  1801                           	opt callstack 25
  1802                           
  1803                           ;Drivers/UART.c: 12:     status = 0x00;
  1804                           
  1805                           ;incstack = 0
  1806  0036BA  0E00               	movlw	0
  1807  0036BC  6E56               	movwf	_status,c	;volatile
  1808                           
  1809                           ;Drivers/UART.c: 13:     pTx = pRx = 0x00;
  1810  0036BE  0E00               	movlw	0
  1811  0036C0  0100               	movlb	0	; () banked
  1812  0036C2  6FD3               	movwf	_pRx& (0+255),b
  1813  0036C4  0E00               	movlw	0
  1814  0036C6  6FD4               	movwf	(_pRx+1)& (0+255),b
  1815  0036C8  C0D3  F0D5         	movff	_pRx,_pTx
  1816  0036CC  C0D4  F0D6         	movff	_pRx+1,_pTx+1
  1817                           
  1818                           ; BSR set to: 0
  1819                           ;Drivers/UART.c: 14:     iTx = iRx = 0x00;
  1820  0036D0  0E00               	movlw	0
  1821  0036D2  6FD0               	movwf	(_iRx+1)& (0+255),b	;volatile
  1822  0036D4  0E00               	movlw	0
  1823  0036D6  6FCF               	movwf	_iRx& (0+255),b	;volatile
  1824  0036D8  C0CF  F0D1         	movff	_iRx,_iTx	;volatile
  1825  0036DC  C0D0  F0D2         	movff	_iRx+1,_iTx+1	;volatile
  1826                           
  1827                           ; BSR set to: 0
  1828  0036E0  0012               	return		;funcret
  1829  0036E2                     __end_of_UART_init:
  1830                           	opt callstack 0
  1831                           
  1832 ;; *************** function _Task1 *****************
  1833 ;; Defined at:
  1834 ;;		line 60 in file "main.c"
  1835 ;; Parameters:    Size  Location     Type
  1836 ;;		None
  1837 ;; Auto vars:     Size  Location     Type
  1838 ;;		None
  1839 ;; Return value:  Size  Location     Type
  1840 ;;                  1    wreg      void 
  1841 ;; Registers used:
  1842 ;;		wreg, fsr0l, fsr0h, fsr1l, fsr1h, fsr2l, fsr2h, status,2, status,0, cstack
  1843 ;; Tracked objects:
  1844 ;;		On entry : 0/0
  1845 ;;		On exit  : 0/0
  1846 ;;		Unchanged: 0/0
  1847 ;; Data sizes:     COMRAM   BANK0   BANK1   BANK2   BANK3   BANK4   BANK5   BANK6   BANK7
  1848 ;;      Params:         0       0       0       0       0       0       0       0       0
  1849 ;;      Locals:         0       0       0       0       0       0       0       0       0
  1850 ;;      Temps:          0       0       0       0       0       0       0       0       0
  1851 ;;      Totals:         0       0       0       0       0       0       0       0       0
  1852 ;;Total ram usage:        0 bytes
  1853 ;; Hardware stack levels used:    1
  1854 ;; Hardware stack levels required when called:    7
  1855 ;; This function calls:
  1856 ;;		_Scheduler_suspend
  1857 ;; This function is called by:
  1858 ;;		_main
  1859 ;; This function uses a non-reentrant model
  1860 ;;
  1861                           
  1862                           	psect	text6
  1863  0037BA                     __ptext6:
  1864                           	opt callstack 0
  1865  0037BA                     _Task1:
  1866                           	opt callstack 23
  1867                           
  1868                           ;main.c: 61:  Scheduler_suspend( Task1Handler );
  1869                           
  1870                           ; BSR set to: 0
  1871                           ;incstack = 0
  1872  0037BA  C0B3  F00E         	movff	_Task1Handler,Scheduler_suspend@taskH
  1873  0037BE  C0B4  F00F         	movff	_Task1Handler+1,Scheduler_suspend@taskH+1
  1874  0037C2  EC71  F019         	call	_Scheduler_suspend	;wreg free
  1875  0037C6  7889               	btg	3977,4,c	;# 
  1876  0037C8  0012               	return		;funcret
  1877  0037CA                     __end_of_Task1:
  1878                           	opt callstack 0
  1879                           
  1880 ;; *************** function _Scheduler_suspend *****************
  1881 ;; Defined at:
  1882 ;;		line 74 in file "System/Scheduler.c"
  1883 ;; Parameters:    Size  Location     Type
  1884 ;;  taskH           2   13[COMRAM] PTR struct SchedulerTask
  1885 ;;		 -> HEAP(1024), NULL(0), 
  1886 ;; Auto vars:     Size  Location     Type
  1887 ;;		None
  1888 ;; Return value:  Size  Location     Type
  1889 ;;                  1    wreg      void 
  1890 ;; Registers used:
  1891 ;;		wreg, fsr0l, fsr0h, fsr1l, fsr1h, fsr2l, fsr2h, status,2, status,0, cstack
  1892 ;; Tracked objects:
  1893 ;;		On entry : 0/0
  1894 ;;		On exit  : 0/0
  1895 ;;		Unchanged: 0/0
  1896 ;; Data sizes:     COMRAM   BANK0   BANK1   BANK2   BANK3   BANK4   BANK5   BANK6   BANK7
  1897 ;;      Params:         2       0       0       0       0       0       0       0       0
  1898 ;;      Locals:         0       0       0       0       0       0       0       0       0
  1899 ;;      Temps:          0       0       0       0       0       0       0       0       0
  1900 ;;      Totals:         2       0       0       0       0       0       0       0       0
  1901 ;;Total ram usage:        2 bytes
  1902 ;; Hardware stack levels used:    1
  1903 ;; Hardware stack levels required when called:    6
  1904 ;; This function calls:
  1905 ;;		_uxListInsertEnd
  1906 ;;		_uxListRemove
  1907 ;; This function is called by:
  1908 ;;		_Task1
  1909 ;; This function uses a non-reentrant model
  1910 ;;
  1911                           
  1912                           	psect	text7
  1913  0032E2                     __ptext7:
  1914                           	opt callstack 0
  1915  0032E2                     _Scheduler_suspend:
  1916                           	opt callstack 23
  1917                           
  1918                           ;System/Scheduler.c: 75:  if( !taskH ){return;}
  1919                           
  1920                           ;incstack = 0
  1921  0032E2  500E               	movf	Scheduler_suspend@taskH,w,c
  1922  0032E4  100F               	iorwf	Scheduler_suspend@taskH+1,w,c
  1923  0032E6  B4D8               	btfsc	status,2,c
  1924  0032E8  0012               	return	
  1925                           
  1926                           ;System/Scheduler.c: 76:  taskH->state = TaskBlock;
  1927  0032EA  EE20 F002          	lfsr	2,2
  1928  0032EE  500E               	movf	Scheduler_suspend@taskH,w,c
  1929  0032F0  26D9               	addwf	fsr2l,f,c
  1930  0032F2  500F               	movf	Scheduler_suspend@taskH+1,w,c
  1931  0032F4  22DA               	addwfc	fsr2h,f,c
  1932  0032F6  0E04               	movlw	4
  1933  0032F8  6EDF               	movwf	indf2,c
  1934                           
  1935                           ;System/Scheduler.c: 78:  if( tskRunning != taskH ){
  1936  0032FA  500E               	movf	Scheduler_suspend@taskH,w,c
  1937  0032FC  1854               	xorwf	_tskRunning,w,c	;volatile
  1938  0032FE  E104               	bnz	u4690
  1939  003300  500F               	movf	Scheduler_suspend@taskH+1,w,c
  1940  003302  1855               	xorwf	_tskRunning+1,w,c	;volatile
  1941  003304  B4D8               	btfsc	status,2,c
  1942  003306  0012               	return	
  1943  003308                     u4690:
  1944                           
  1945                           ;System/Scheduler.c: 79:      uxListRemove( &taskH->node );
  1946  003308  0E07               	movlw	7
  1947  00330A  240E               	addwf	Scheduler_suspend@taskH,w,c
  1948  00330C  6E08               	movwf	uxListRemove@pxItemToRemove,c
  1949  00330E  0E00               	movlw	0
  1950  003310  200F               	addwfc	Scheduler_suspend@taskH+1,w,c
  1951  003312  6E09               	movwf	uxListRemove@pxItemToRemove+1,c
  1952  003314  EC13  F00D         	call	_uxListRemove	;wreg free
  1953                           
  1954                           ;System/Scheduler.c: 80:      uxListInsertEnd( (List_Handle) &tskBlockedQueue , &taskH->
      +                          node );
  1955  003318  0EDE               	movlw	low _tskBlockedQueue
  1956  00331A  6E08               	movwf	uxListInsertEnd@pxList,c
  1957  00331C  0E00               	movlw	high _tskBlockedQueue
  1958  00331E  6E09               	movwf	uxListInsertEnd@pxList+1,c
  1959  003320  0E07               	movlw	7
  1960  003322  240E               	addwf	Scheduler_suspend@taskH,w,c
  1961  003324  6E0A               	movwf	uxListInsertEnd@pxNewListItem,c
  1962  003326  0E00               	movlw	0
  1963  003328  200F               	addwfc	Scheduler_suspend@taskH+1,w,c
  1964  00332A  6E0B               	movwf	uxListInsertEnd@pxNewListItem+1,c
  1965  00332C  EC5E  F014         	call	_uxListInsertEnd	;wreg free
  1966  003330  0012               	return		;funcret
  1967  003332                     __end_of_Scheduler_suspend:
  1968                           	opt callstack 0
  1969                           
  1970 ;; *************** function _Task0 *****************
  1971 ;; Defined at:
  1972 ;;		line 51 in file "main.c"
  1973 ;; Parameters:    Size  Location     Type
  1974 ;;		None
  1975 ;; Auto vars:     Size  Location     Type
  1976 ;;		None
  1977 ;; Return value:  Size  Location     Type
  1978 ;;                  1    wreg      void 
  1979 ;; Registers used:
  1980 ;;		wreg, fsr1l, fsr1h, fsr2l, fsr2h, status,2, status,0, tblptrl, tblptrh, tblptru, prodl, prodh, cstack
  1981 ;; Tracked objects:
  1982 ;;		On entry : 0/0
  1983 ;;		On exit  : 0/0
  1984 ;;		Unchanged: 0/0
  1985 ;; Data sizes:     COMRAM   BANK0   BANK1   BANK2   BANK3   BANK4   BANK5   BANK6   BANK7
  1986 ;;      Params:         0       0       0       0       0       0       0       0       0
  1987 ;;      Locals:         0       0       0       0       0       0       0       0       0
  1988 ;;      Temps:          0       0       0       0       0       0       0       0       0
  1989 ;;      Totals:         0       0       0       0       0       0       0       0       0
  1990 ;;Total ram usage:        0 bytes
  1991 ;; Hardware stack levels used:    1
  1992 ;; Hardware stack levels required when called:   14
  1993 ;; This function calls:
  1994 ;;		_Scheduler_wait
  1995 ;;		_UART_Transmit
  1996 ;;		_USensor_measure
  1997 ;;		_USensor_read
  1998 ;;		_snprintf
  1999 ;;		_strlen
  2000 ;; This function is called by:
  2001 ;;		_main
  2002 ;; This function uses a non-reentrant model
  2003 ;;
  2004                           
  2005                           	psect	text8
  2006  003026                     __ptext8:
  2007                           	opt callstack 0
  2008  003026                     _Task0:
  2009                           	opt callstack 16
  2010                           
  2011                           ;main.c: 52:  static USensorData data;;main.c: 53:  Scheduler_wait(500);
  2012                           
  2013                           ;incstack = 0
  2014  003026  0E01               	movlw	1
  2015  003028  6E09               	movwf	Scheduler_wait@time+1,c
  2016  00302A  0EF4               	movlw	244
  2017  00302C  6E08               	movwf	Scheduler_wait@time,c
  2018  00302E  EC81  F018         	call	_Scheduler_wait	;wreg free
  2019                           
  2020                           ;main.c: 54:  USensor_measure( 0x00 );
  2021  003032  0E00               	movlw	0
  2022  003034  ECCA  F012         	call	_USensor_measure
  2023                           
  2024                           ;main.c: 55:  USensor_read( &data , 0x00 );
  2025  003038  0EF0               	movlw	low Task0@data
  2026  00303A  6E08               	movwf	USensor_read@buf,c
  2027  00303C  0E00               	movlw	high Task0@data
  2028  00303E  6E09               	movwf	USensor_read@buf+1,c
  2029  003040  0E00               	movlw	0
  2030  003042  6E0A               	movwf	USensor_read@index,c
  2031  003044  EC45  F01A         	call	_USensor_read	;wreg free
  2032                           
  2033                           ;main.c: 56:     snprintf( msg , sizeof(msg) , "%d mm\n" , data.mm );
  2034  003048  0E40               	movlw	low _msg
  2035  00304A  0100               	movlb	0	; () banked
  2036  00304C  6F9F               	movwf	snprintf@s& (0+255),b
  2037  00304E  0E01               	movlw	high _msg
  2038  003050  6FA0               	movwf	(snprintf@s+1)& (0+255),b
  2039  003052  0E00               	movlw	0
  2040  003054  6FA2               	movwf	(snprintf@n+1)& (0+255),b
  2041  003056  0E0F               	movlw	15
  2042  003058  6FA1               	movwf	snprintf@n& (0+255),b
  2043  00305A  0E05               	movlw	low STR_1
  2044  00305C  6FA3               	movwf	snprintf@fmt& (0+255),b
  2045  00305E  0E08               	movlw	high STR_1
  2046  003060  6FA4               	movwf	(snprintf@fmt+1)& (0+255),b
  2047  003062  C0F2  F0A5         	movff	Task0@data+2,?_snprintf+6
  2048  003066  C0F3  F0A6         	movff	Task0@data+3,?_snprintf+7
  2049  00306A  ECE8  F01A         	call	_snprintf	;wreg free
  2050                           
  2051                           ;main.c: 57:     UART_Transmit( msg , strlen(msg)+1 );
  2052  00306E  0E40               	movlw	low _msg
  2053  003070  6E0C               	movwf	UART_Transmit@buffer,c
  2054  003072  0E01               	movlw	high _msg
  2055  003074  6E0D               	movwf	UART_Transmit@buffer+1,c
  2056  003076  0E40               	movlw	low _msg
  2057  003078  6E08               	movwf	strlen@s,c
  2058  00307A  0E01               	movlw	high _msg
  2059  00307C  6E09               	movwf	strlen@s+1,c
  2060  00307E  EC48  F01B         	call	_strlen	;wreg free
  2061  003082  0E01               	movlw	1
  2062  003084  2408               	addwf	?_strlen,w,c
  2063  003086  6E0E               	movwf	UART_Transmit@size,c
  2064  003088  0E00               	movlw	0
  2065  00308A  2009               	addwfc	?_strlen+1,w,c
  2066  00308C  6E0F               	movwf	UART_Transmit@size+1,c
  2067  00308E  ECB5  F01A         	call	_UART_Transmit	;wreg free
  2068  003092  0012               	return		;funcret
  2069  003094                     __end_of_Task0:
  2070                           	opt callstack 0
  2071                           
  2072 ;; *************** function _snprintf *****************
  2073 ;; Defined at:
  2074 ;;		line 4 in file "/opt/microchip/xc8/v2.05/pic/sources/c99/common/snprintf.c"
  2075 ;; Parameters:    Size  Location     Type
  2076 ;;  s               2   63[BANK0 ] PTR unsigned char 
  2077 ;;		 -> msg(15), 
  2078 ;;  n               2   65[BANK0 ] unsigned int 
  2079 ;;  fmt             2   67[BANK0 ] PTR const unsigned char 
  2080 ;;		 -> STR_1(7), 
  2081 ;; Auto vars:     Size  Location     Type
  2082 ;;  ap              2   73[BANK0 ] PTR void [1]
  2083 ;;		 -> ?_snprintf(2), 
  2084 ;;  ret             2    0        int 
  2085 ;; Return value:  Size  Location     Type
  2086 ;;                  2   63[BANK0 ] int 
  2087 ;; Registers used:
  2088 ;;		wreg, fsr1l, fsr1h, fsr2l, fsr2h, status,2, status,0, tblptrl, tblptrh, tblptru, prodl, prodh, cstack
  2089 ;; Tracked objects:
  2090 ;;		On entry : 0/0
  2091 ;;		On exit  : 0/0
  2092 ;;		Unchanged: 0/0
  2093 ;; Data sizes:     COMRAM   BANK0   BANK1   BANK2   BANK3   BANK4   BANK5   BANK6   BANK7
  2094 ;;      Params:         0       8       0       0       0       0       0       0       0
  2095 ;;      Locals:         0       4       0       0       0       0       0       0       0
  2096 ;;      Temps:          0       0       0       0       0       0       0       0       0
  2097 ;;      Totals:         0      12       0       0       0       0       0       0       0
  2098 ;;Total ram usage:       12 bytes
  2099 ;; Hardware stack levels used:    1
  2100 ;; Hardware stack levels required when called:   13
  2101 ;; This function calls:
  2102 ;;		_vsnprintf
  2103 ;; This function is called by:
  2104 ;;		_Task0
  2105 ;; This function uses a non-reentrant model
  2106 ;;
  2107                           
  2108                           	psect	text9
  2109  0035D0                     __ptext9:
  2110                           	opt callstack 0
  2111  0035D0                     _snprintf:
  2112                           	opt callstack 16
  2113                           
  2114                           ;incstack = 0
  2115  0035D0  0EA5               	movlw	low (?_snprintf+6)
  2116  0035D2  0100               	movlb	0	; () banked
  2117  0035D4  6FA9               	movwf	snprintf@ap& (0+255),b
  2118  0035D6  0E00               	movlw	high (?_snprintf+6)
  2119  0035D8  6FAA               	movwf	(snprintf@ap+1)& (0+255),b
  2120                           
  2121                           ; BSR set to: 0
  2122  0035DA  C09F  F089         	movff	snprintf@s,vsnprintf@s
  2123  0035DE  C0A0  F08A         	movff	snprintf@s+1,vsnprintf@s+1
  2124  0035E2  C0A1  F08B         	movff	snprintf@n,vsnprintf@n
  2125  0035E6  C0A2  F08C         	movff	snprintf@n+1,vsnprintf@n+1
  2126  0035EA  C0A3  F08D         	movff	snprintf@fmt,vsnprintf@fmt
  2127  0035EE  C0A4  F08E         	movff	snprintf@fmt+1,vsnprintf@fmt+1
  2128  0035F2  0EA9               	movlw	low snprintf@ap
  2129  0035F4  6F8F               	movwf	vsnprintf@ap& (0+255),b
  2130  0035F6  0E00               	movlw	high snprintf@ap
  2131  0035F8  6F90               	movwf	(vsnprintf@ap+1)& (0+255),b
  2132  0035FA  ECDB  F014         	call	_vsnprintf	;wreg free
  2133  0035FE  0012               	return		;funcret
  2134  003600                     __end_of_snprintf:
  2135                           	opt callstack 0
  2136                           
  2137 ;; *************** function _vsnprintf *****************
  2138 ;; Defined at:
  2139 ;;		line 11 in file "/opt/microchip/xc8/v2.05/pic/sources/c99/common/nf_vsnprintf.c"
  2140 ;; Parameters:    Size  Location     Type
  2141 ;;  s               2   41[BANK0 ] PTR unsigned char 
  2142 ;;		 -> msg(15), 
  2143 ;;  n               2   43[BANK0 ] unsigned int 
  2144 ;;  fmt             2   45[BANK0 ] PTR const unsigned char 
  2145 ;;		 -> STR_1(7), 
  2146 ;;  ap              2   47[BANK0 ] PTR PTR void 
  2147 ;;		 -> snprintf@ap(2), 
  2148 ;; Auto vars:     Size  Location     Type
  2149 ;;  f               6   57[BANK0 ] struct _IO_FILE
  2150 ;;  cnt             2   55[BANK0 ] int 
  2151 ;; Return value:  Size  Location     Type
  2152 ;;                  2   41[BANK0 ] int 
  2153 ;; Registers used:
  2154 ;;		wreg, fsr1l, fsr1h, fsr2l, fsr2h, status,2, status,0, tblptrl, tblptrh, tblptru, prodl, prodh, cstack
  2155 ;; Tracked objects:
  2156 ;;		On entry : 0/0
  2157 ;;		On exit  : 0/0
  2158 ;;		Unchanged: 0/0
  2159 ;; Data sizes:     COMRAM   BANK0   BANK1   BANK2   BANK3   BANK4   BANK5   BANK6   BANK7
  2160 ;;      Params:         0       8       0       0       0       0       0       0       0
  2161 ;;      Locals:         0      10       0       0       0       0       0       0       0
  2162 ;;      Temps:          0       4       0       0       0       0       0       0       0
  2163 ;;      Totals:         0      22       0       0       0       0       0       0       0
  2164 ;;Total ram usage:       22 bytes
  2165 ;; Hardware stack levels used:    1
  2166 ;; Hardware stack levels required when called:   12
  2167 ;; This function calls:
  2168 ;;		_vfprintf
  2169 ;; This function is called by:
  2170 ;;		_snprintf
  2171 ;; This function uses a non-reentrant model
  2172 ;;
  2173                           
  2174                           	psect	text10
  2175  0029B6                     __ptext10:
  2176                           	opt callstack 0
  2177  0029B6                     _vsnprintf:
  2178                           	opt callstack 16
  2179                           
  2180                           ;incstack = 0
  2181  0029B6  0E80               	movlw	128
  2182  0029B8  0100               	movlb	0	; () banked
  2183  0029BA  5D8C               	subwf	(vsnprintf@n+1)& (0+255),w,b
  2184  0029BC  A0D8               	btfss	status,0,c
  2185  0029BE  D007               	goto	l5869
  2186                           
  2187                           ; BSR set to: 0
  2188  0029C0  0E00               	movlw	0
  2189  0029C2  6FB0               	movwf	(_errno+1)& (0+255),b
  2190  0029C4  0E4B               	movlw	75
  2191  0029C6  6FAF               	movwf	_errno& (0+255),b
  2192                           
  2193                           ; BSR set to: 0
  2194  0029C8  6989               	setf	?_vsnprintf& (0+255),b
  2195  0029CA  698A               	setf	(?_vsnprintf+1)& (0+255),b
  2196  0029CC  0012               	return	
  2197  0029CE                     l5869:
  2198                           
  2199                           ; BSR set to: 0
  2200  0029CE  C089  F099         	movff	vsnprintf@s,vsnprintf@f
  2201  0029D2  C08A  F09A         	movff	vsnprintf@s+1,vsnprintf@f+1
  2202  0029D6  518C               	movf	(vsnprintf@n+1)& (0+255),w,b
  2203  0029D8  E104               	bnz	u6880
  2204  0029DA  0E02               	movlw	2
  2205  0029DC  5D8B               	subwf	vsnprintf@n& (0+255),w,b
  2206  0029DE  A0D8               	btfss	status,0,c
  2207  0029E0  D00A               	goto	l5875
  2208  0029E2                     u6880:
  2209                           
  2210                           ; BSR set to: 0
  2211  0029E2  0EFF               	movlw	255
  2212  0029E4  258B               	addwf	vsnprintf@n& (0+255),w,b
  2213  0029E6  6F9D               	movwf	(vsnprintf@f+4)& (0+255),b
  2214  0029E8  0EFF               	movlw	255
  2215  0029EA  218C               	addwfc	(vsnprintf@n+1)& (0+255),w,b
  2216  0029EC  6F9E               	movwf	(vsnprintf@f+5)& (0+255),b
  2217                           
  2218                           ; BSR set to: 0
  2219  0029EE  0E00               	movlw	0
  2220  0029F0  6F9C               	movwf	(vsnprintf@f+3)& (0+255),b
  2221  0029F2  0E00               	movlw	0
  2222  0029F4  D007               	goto	L3
  2223  0029F6                     l5875:
  2224                           
  2225                           ; BSR set to: 0
  2226  0029F6  0E00               	movlw	0
  2227  0029F8  6F9E               	movwf	(vsnprintf@f+5)& (0+255),b
  2228  0029FA  0E01               	movlw	1
  2229  0029FC  6F9D               	movwf	(vsnprintf@f+4)& (0+255),b
  2230  0029FE  0E00               	movlw	0
  2231  002A00  6F9C               	movwf	(vsnprintf@f+3)& (0+255),b
  2232  002A02  0E01               	movlw	1
  2233  002A04                     L3:
  2234  002A04  6F9B               	movwf	(vsnprintf@f+2)& (0+255),b
  2235                           
  2236                           ; BSR set to: 0
  2237  002A06  0E99               	movlw	low vsnprintf@f
  2238  002A08  6F81               	movwf	vfprintf@fp& (0+255),b
  2239  002A0A  0E00               	movlw	high vsnprintf@f
  2240  002A0C  6F82               	movwf	(vfprintf@fp+1)& (0+255),b
  2241  002A0E  C08D  F083         	movff	vsnprintf@fmt,vfprintf@fmt
  2242  002A12  C08E  F084         	movff	vsnprintf@fmt+1,vfprintf@fmt+1
  2243  002A16  C08F  F085         	movff	vsnprintf@ap,vfprintf@ap
  2244  002A1A  C090  F086         	movff	vsnprintf@ap+1,vfprintf@ap+1
  2245  002A1E  EC1B  F019         	call	_vfprintf	;wreg free
  2246  002A22  C081  F097         	movff	?_vfprintf,vsnprintf@cnt
  2247  002A26  C082  F098         	movff	?_vfprintf+1,vsnprintf@cnt+1
  2248  002A2A  0100               	movlb	0	; () banked
  2249  002A2C  518B               	movf	vsnprintf@n& (0+255),w,b
  2250  002A2E  118C               	iorwf	(vsnprintf@n+1)& (0+255),w,b
  2251  002A30  A4D8               	btfss	status,2,c
  2252                           
  2253                           ; BSR set to: 0
  2254  002A32  BF98               	btfsc	(vsnprintf@cnt+1)& (0+255),7,b
  2255  002A34  D025               	goto	l5889
  2256                           
  2257                           ; BSR set to: 0
  2258  002A36  0EFF               	movlw	255
  2259  002A38  6F91               	movwf	??_vsnprintf& (0+255),b
  2260  002A3A  0EFF               	movlw	255
  2261  002A3C  6F92               	movwf	(??_vsnprintf+1)& (0+255),b
  2262  002A3E  C08B  F093         	movff	vsnprintf@n,??_vsnprintf+2
  2263  002A42  C08C  F094         	movff	vsnprintf@n+1,??_vsnprintf+3
  2264  002A46  5191               	movf	??_vsnprintf& (0+255),w,b
  2265  002A48  2793               	addwf	(??_vsnprintf+2)& (0+255),f,b
  2266  002A4A  5192               	movf	(??_vsnprintf+1)& (0+255),w,b
  2267  002A4C  2394               	addwfc	(??_vsnprintf+3)& (0+255),f,b
  2268  002A4E  5193               	movf	(??_vsnprintf+2)& (0+255),w,b
  2269  002A50  5D97               	subwf	vsnprintf@cnt& (0+255),w,b
  2270  002A52  5194               	movf	(??_vsnprintf+3)& (0+255),w,b
  2271  002A54  5998               	subwfb	(vsnprintf@cnt+1)& (0+255),w,b
  2272  002A56  A0D8               	btfss	status,0,c
  2273  002A58  D007               	goto	l1603
  2274                           
  2275                           ; BSR set to: 0
  2276  002A5A  0EFF               	movlw	255
  2277  002A5C  258B               	addwf	vsnprintf@n& (0+255),w,b
  2278  002A5E  6F95               	movwf	_vsnprintf$2426& (0+255),b
  2279  002A60  0EFF               	movlw	255
  2280  002A62  218C               	addwfc	(vsnprintf@n+1)& (0+255),w,b
  2281  002A64  6F96               	movwf	(_vsnprintf$2426+1)& (0+255),b
  2282  002A66  D004               	goto	l5887
  2283  002A68                     l1603:
  2284                           
  2285                           ; BSR set to: 0
  2286  002A68  C097  F095         	movff	vsnprintf@cnt,_vsnprintf$2426
  2287  002A6C  C098  F096         	movff	vsnprintf@cnt+1,_vsnprintf$2426+1
  2288  002A70                     l5887:
  2289                           
  2290                           ; BSR set to: 0
  2291  002A70  5195               	movf	_vsnprintf$2426& (0+255),w,b
  2292  002A72  2589               	addwf	vsnprintf@s& (0+255),w,b
  2293  002A74  6ED9               	movwf	fsr2l,c
  2294  002A76  5196               	movf	(_vsnprintf$2426+1)& (0+255),w,b
  2295  002A78  218A               	addwfc	(vsnprintf@s+1)& (0+255),w,b
  2296  002A7A  6EDA               	movwf	fsr2h,c
  2297  002A7C  0E00               	movlw	0
  2298  002A7E  6EDF               	movwf	indf2,c
  2299  002A80                     l5889:
  2300                           
  2301                           ; BSR set to: 0
  2302  002A80  C097  F089         	movff	vsnprintf@cnt,?_vsnprintf
  2303  002A84  C098  F08A         	movff	vsnprintf@cnt+1,?_vsnprintf+1
  2304                           
  2305                           ; BSR set to: 0
  2306  002A88  0012               	return		;funcret
  2307  002A8A                     __end_of_vsnprintf:
  2308                           	opt callstack 0
  2309                           
  2310 ;; *************** function _vfprintf *****************
  2311 ;; Defined at:
  2312 ;;		line 1368 in file "/opt/microchip/xc8/v2.05/pic/sources/c99/common/doprnt.c"
  2313 ;; Parameters:    Size  Location     Type
  2314 ;;  fp              2   33[BANK0 ] PTR struct _IO_FILE
  2315 ;;		 -> vsnprintf@f(6), 
  2316 ;;  fmt             2   35[BANK0 ] PTR const unsigned char 
  2317 ;;		 -> STR_1(7), 
  2318 ;;  ap              2   37[BANK0 ] PTR PTR void 
  2319 ;;		 -> snprintf@ap(2), 
  2320 ;; Auto vars:     Size  Location     Type
  2321 ;;  cfmt            2   39[BANK0 ] PTR unsigned char 
  2322 ;;		 -> STR_1(7), 
  2323 ;; Return value:  Size  Location     Type
  2324 ;;                  2   33[BANK0 ] int 
  2325 ;; Registers used:
  2326 ;;		wreg, fsr1l, fsr1h, fsr2l, fsr2h, status,2, status,0, tblptrl, tblptrh, tblptru, prodl, prodh, cstack
  2327 ;; Tracked objects:
  2328 ;;		On entry : 0/0
  2329 ;;		On exit  : 0/0
  2330 ;;		Unchanged: 0/0
  2331 ;; Data sizes:     COMRAM   BANK0   BANK1   BANK2   BANK3   BANK4   BANK5   BANK6   BANK7
  2332 ;;      Params:         0       6       0       0       0       0       0       0       0
  2333 ;;      Locals:         0       2       0       0       0       0       0       0       0
  2334 ;;      Temps:          0       0       0       0       0       0       0       0       0
  2335 ;;      Totals:         0       8       0       0       0       0       0       0       0
  2336 ;;Total ram usage:        8 bytes
  2337 ;; Hardware stack levels used:    1
  2338 ;; Hardware stack levels required when called:   11
  2339 ;; This function calls:
  2340 ;;		_vfpfcnvrt
  2341 ;; This function is called by:
  2342 ;;		_vsnprintf
  2343 ;; This function uses a non-reentrant model
  2344 ;;
  2345                           
  2346                           	psect	text11
  2347  003236                     __ptext11:
  2348                           	opt callstack 0
  2349  003236                     _vfprintf:
  2350                           	opt callstack 16
  2351                           
  2352                           ;/opt/microchip/xc8/v2.05/pic/sources/c99/common/doprnt.c: 1368: int vfprintf(FILE *fp, 
      +                          const char *fmt, va_list ap);/opt/microchip/xc8/v2.05/pic/sources/c99/common/doprnt.c: 1
      +                          369: {;/opt/microchip/xc8/v2.05/pic/sources/c99/common/doprnt.c: 1371:     char *cfmt;;/
      +                          opt/microchip/xc8/v2.05/pic/sources/c99/common/doprnt.c: 1373:     cfmt = (char *)fmt;
  2353                           
  2354                           ; BSR set to: 0
  2355                           ;incstack = 0
  2356  003236  C083  F087         	movff	vfprintf@fmt,vfprintf@cfmt
  2357  00323A  C084  F088         	movff	vfprintf@fmt+1,vfprintf@cfmt+1
  2358                           
  2359                           ;/opt/microchip/xc8/v2.05/pic/sources/c99/common/doprnt.c: 1374:     nout = 0;
  2360  00323E  0E00               	movlw	0
  2361  003240  0100               	movlb	0	; () banked
  2362  003242  6FB2               	movwf	(_nout+1)& (0+255),b
  2363  003244  0E00               	movlw	0
  2364  003246  6FB1               	movwf	_nout& (0+255),b
  2365                           
  2366                           ;/opt/microchip/xc8/v2.05/pic/sources/c99/common/doprnt.c: 1375:     while (*cfmt) {
  2367  003248  D013               	goto	l5859
  2368  00324A                     l5857:
  2369                           
  2370                           ; BSR set to: 0
  2371                           ;/opt/microchip/xc8/v2.05/pic/sources/c99/common/doprnt.c: 1376:         nout += vfpfcnv
      +                          rt(fp, &cfmt, ap);
  2372  00324A  C081  F060         	movff	vfprintf@fp,vfpfcnvrt@fp
  2373  00324E  C082  F061         	movff	vfprintf@fp+1,vfpfcnvrt@fp+1
  2374  003252  0E87               	movlw	low vfprintf@cfmt
  2375  003254  6F62               	movwf	vfpfcnvrt@fmt& (0+255),b
  2376  003256  0E00               	movlw	high vfprintf@cfmt
  2377  003258  6F63               	movwf	(vfpfcnvrt@fmt+1)& (0+255),b
  2378  00325A  C085  F064         	movff	vfprintf@ap,vfpfcnvrt@ap
  2379  00325E  C086  F065         	movff	vfprintf@ap+1,vfpfcnvrt@ap+1
  2380  003262  EC1F  F004         	call	_vfpfcnvrt	;wreg free
  2381  003266  0100               	movlb	0	; () banked
  2382  003268  5160               	movf	?_vfpfcnvrt& (0+255),w,b
  2383  00326A  27B1               	addwf	_nout& (0+255),f,b
  2384  00326C  5161               	movf	(?_vfpfcnvrt+1)& (0+255),w,b
  2385  00326E  23B2               	addwfc	(_nout+1)& (0+255),f,b
  2386  003270                     l5859:
  2387                           
  2388                           ; BSR set to: 0
  2389                           ;/opt/microchip/xc8/v2.05/pic/sources/c99/common/doprnt.c: 1375:     while (*cfmt) {
  2390  003270  C087  FFF6         	movff	vfprintf@cfmt,tblptrl
  2391  003274  C088  FFF7         	movff	vfprintf@cfmt+1,tblptrh
  2392  003278                     	if	0	;tblptru may be non-zero
  2393  003278                     	endif
  2394  003278                     	if	0	;tblptru may be non-zero
  2395  003278                     	endif
  2396  003278  0008               	tblrd		*
  2397  00327A  50F5               	movf	tablat,w,c
  2398  00327C  0900               	iorlw	0
  2399  00327E  A4D8               	btfss	status,2,c
  2400  003280  D7E4               	goto	l5857
  2401                           
  2402                           ; BSR set to: 0
  2403                           ;/opt/microchip/xc8/v2.05/pic/sources/c99/common/doprnt.c: 1378:     return nout;
  2404  003282  C0B1  F081         	movff	_nout,?_vfprintf
  2405  003286  C0B2  F082         	movff	_nout+1,?_vfprintf+1
  2406                           
  2407                           ; BSR set to: 0
  2408  00328A  0012               	return		;funcret
  2409  00328C                     __end_of_vfprintf:
  2410                           	opt callstack 0
  2411                           
  2412 ;; *************** function _vfpfcnvrt *****************
  2413 ;; Defined at:
  2414 ;;		line 670 in file "/opt/microchip/xc8/v2.05/pic/sources/c99/common/doprnt.c"
  2415 ;; Parameters:    Size  Location     Type
  2416 ;;  fp              2    0[BANK0 ] PTR struct _IO_FILE
  2417 ;;		 -> vsnprintf@f(6), 
  2418 ;;  fmt             2    2[BANK0 ] PTR PTR unsigned char 
  2419 ;;		 -> vfprintf@cfmt(2), 
  2420 ;;  ap              2    4[BANK0 ] PTR PTR void 
  2421 ;;		 -> snprintf@ap(2), 
  2422 ;; Auto vars:     Size  Location     Type
  2423 ;;  llu             8   25[BANK0 ] unsigned long long 
  2424 ;;  ll              8   14[BANK0 ] long long 
  2425 ;;  f               4    0        long long 
  2426 ;;  ct              3    0        unsigned char [3]
  2427 ;;  vp              2   22[BANK0 ] PTR void 
  2428 ;;		 -> ?_snprintf(2), 
  2429 ;;  done            2    8[BANK0 ] int 
  2430 ;;  cp              2    6[BANK0 ] PTR unsigned char 
  2431 ;;		 -> ?_snprintf(2), 
  2432 ;;  i               2    0        int 
  2433 ;;  c               1   24[BANK0 ] unsigned char 
  2434 ;; Return value:  Size  Location     Type
  2435 ;;                  2    0[BANK0 ] int 
  2436 ;; Registers used:
  2437 ;;		wreg, fsr1l, fsr1h, fsr2l, fsr2h, status,2, status,0, tblptrl, tblptrh, tblptru, prodl, prodh, cstack
  2438 ;; Tracked objects:
  2439 ;;		On entry : 0/0
  2440 ;;		On exit  : 0/0
  2441 ;;		Unchanged: 0/0
  2442 ;; Data sizes:     COMRAM   BANK0   BANK1   BANK2   BANK3   BANK4   BANK5   BANK6   BANK7
  2443 ;;      Params:         0       6       0       0       0       0       0       0       0
  2444 ;;      Locals:         0      27       0       0       0       0       0       0       0
  2445 ;;      Temps:          4       0       0       0       0       0       0       0       0
  2446 ;;      Totals:         4      33       0       0       0       0       0       0       0
  2447 ;;Total ram usage:       37 bytes
  2448 ;; Hardware stack levels used:    1
  2449 ;; Hardware stack levels required when called:   10
  2450 ;; This function calls:
  2451 ;;		_atoi
  2452 ;;		_ctoa
  2453 ;;		_dtoa
  2454 ;;		_fputc
  2455 ;;		_isdigit
  2456 ;;		_otoa
  2457 ;;		_stoa
  2458 ;;		_strncmp
  2459 ;;		_utoa
  2460 ;;		_xtoa
  2461 ;; This function is called by:
  2462 ;;		_vfprintf
  2463 ;; This function uses a non-reentrant model
  2464 ;;
  2465                           
  2466                           	psect	text12
  2467  00083E                     __ptext12:
  2468                           	opt callstack 0
  2469  00083E                     _vfpfcnvrt:
  2470                           	opt callstack 16
  2471                           
  2472                           ;/opt/microchip/xc8/v2.05/pic/sources/c99/common/doprnt.c: 670: static int vfpfcnvrt(FIL
      +                          E *fp, char *fmt[], va_list ap);/opt/microchip/xc8/v2.05/pic/sources/c99/common/doprnt.c
      +                          : 671: {;/opt/microchip/xc8/v2.05/pic/sources/c99/common/doprnt.c: 672:     char c, *cp,
      +                           ct[3];;/opt/microchip/xc8/v2.05/pic/sources/c99/common/doprnt.c: 673:     int done, i;;
      +                          /opt/microchip/xc8/v2.05/pic/sources/c99/common/doprnt.c: 674:     long long ll;;/opt/mi
      +                          crochip/xc8/v2.05/pic/sources/c99/common/doprnt.c: 675:     unsigned long long llu;
  2473                           
  2474                           ; BSR set to: 0
  2475                           ;incstack = 0
  2476  00083E  C062  FFD9         	movff	vfpfcnvrt@fmt,fsr2l
  2477  000842  C063  FFDA         	movff	vfpfcnvrt@fmt+1,fsr2h
  2478  000846  CFDE FFF6          	movff	postinc2,tblptrl
  2479  00084A  CFDD FFF7          	movff	postdec2,tblptrh
  2480  00084E                     	if	0	;tblptru may be non-zero
  2481  00084E                     	endif
  2482  00084E                     	if	0	;tblptru may be non-zero
  2483  00084E                     	endif
  2484  00084E  0008               	tblrd		*
  2485  000850  50F5               	movf	tablat,w,c
  2486  000852  0A25               	xorlw	37
  2487  000854  A4D8               	btfss	status,2,c
  2488  000856  EFC2  F00A         	goto	l5835
  2489                           
  2490                           ;/opt/microchip/xc8/v2.05/pic/sources/c99/common/doprnt.c: 681:         ++*fmt;
  2491  00085A  C062  FFD9         	movff	vfpfcnvrt@fmt,fsr2l
  2492  00085E  C063  FFDA         	movff	vfpfcnvrt@fmt+1,fsr2h
  2493  000862  2ADE               	incf	postinc2,f,c
  2494  000864  0E00               	movlw	0
  2495  000866  22DD               	addwfc	postdec2,f,c
  2496                           
  2497                           ;/opt/microchip/xc8/v2.05/pic/sources/c99/common/doprnt.c: 683:         flags = width = 
      +                          0;
  2498  000868  0E00               	movlw	0
  2499  00086A  6E4F               	movwf	_width+1,c
  2500  00086C  0E00               	movlw	0
  2501  00086E  6E4E               	movwf	_width,c
  2502  000870  C04E  F052         	movff	_width,_flags
  2503  000874  C04F  F053         	movff	_width+1,_flags+1
  2504                           
  2505                           ;/opt/microchip/xc8/v2.05/pic/sources/c99/common/doprnt.c: 684:         prec = -1;
  2506  000878  6850               	setf	_prec,c
  2507  00087A  6851               	setf	_prec+1,c
  2508                           
  2509                           ;/opt/microchip/xc8/v2.05/pic/sources/c99/common/doprnt.c: 688:         done = 0;
  2510  00087C  0E00               	movlw	0
  2511  00087E  0100               	movlb	0	; () banked
  2512  000880  6F69               	movwf	(vfpfcnvrt@done+1)& (0+255),b
  2513  000882  0E00               	movlw	0
  2514  000884  D014               	goto	L4
  2515  000886                     l5527:
  2516                           
  2517                           ; BSR set to: 0
  2518                           ;/opt/microchip/xc8/v2.05/pic/sources/c99/common/doprnt.c: 692:                     flag
      +                          s |= (1 << 0);
  2519  000886  8052               	bsf	_flags,0,c
  2520  000888                     l5529:
  2521                           
  2522                           ; BSR set to: 0
  2523                           ;/opt/microchip/xc8/v2.05/pic/sources/c99/common/doprnt.c: 693:                     ++*f
      +                          mt;
  2524  000888  C062  FFD9         	movff	vfpfcnvrt@fmt,fsr2l
  2525  00088C  C063  FFDA         	movff	vfpfcnvrt@fmt+1,fsr2h
  2526  000890  2ADE               	incf	postinc2,f,c
  2527  000892  0E00               	movlw	0
  2528  000894  22DD               	addwfc	postdec2,f,c
  2529                           
  2530                           ;/opt/microchip/xc8/v2.05/pic/sources/c99/common/doprnt.c: 694:                     brea
      +                          k;
  2531  000896  D02E               	goto	l5553
  2532  000898                     l5531:
  2533                           
  2534                           ; BSR set to: 0
  2535                           ;/opt/microchip/xc8/v2.05/pic/sources/c99/common/doprnt.c: 696:                     flag
      +                          s |= (1 << 1);
  2536  000898  8252               	bsf	_flags,1,c
  2537  00089A  D7F6               	goto	l5529
  2538  00089C                     l5535:
  2539                           
  2540                           ; BSR set to: 0
  2541                           ;/opt/microchip/xc8/v2.05/pic/sources/c99/common/doprnt.c: 700:                     flag
      +                          s |= (1 << 2);
  2542  00089C  8452               	bsf	_flags,2,c
  2543  00089E  D7F4               	goto	l5529
  2544  0008A0                     l5539:
  2545                           
  2546                           ; BSR set to: 0
  2547                           ;/opt/microchip/xc8/v2.05/pic/sources/c99/common/doprnt.c: 704:                     flag
      +                          s |= (1 << 3);
  2548  0008A0  8652               	bsf	_flags,3,c
  2549  0008A2  D7F2               	goto	l5529
  2550  0008A4                     l5543:
  2551                           
  2552                           ; BSR set to: 0
  2553                           ;/opt/microchip/xc8/v2.05/pic/sources/c99/common/doprnt.c: 708:                     flag
      +                          s |= (1 << 4);
  2554  0008A4  8852               	bsf	_flags,4,c
  2555  0008A6  D7F0               	goto	l5529
  2556  0008A8                     l5547:
  2557                           
  2558                           ; BSR set to: 0
  2559                           ;/opt/microchip/xc8/v2.05/pic/sources/c99/common/doprnt.c: 712:                     done
      +                           = 1;
  2560  0008A8  0E00               	movlw	0
  2561  0008AA  6F69               	movwf	(vfpfcnvrt@done+1)& (0+255),b
  2562  0008AC  0E01               	movlw	1
  2563  0008AE                     L4:
  2564  0008AE  6F68               	movwf	vfpfcnvrt@done& (0+255),b
  2565                           
  2566                           ;/opt/microchip/xc8/v2.05/pic/sources/c99/common/doprnt.c: 713:                     brea
      +                          k;
  2567  0008B0  D021               	goto	l5553
  2568  0008B2                     l5551:
  2569                           
  2570                           ; BSR set to: 0
  2571  0008B2  C062  FFD9         	movff	vfpfcnvrt@fmt,fsr2l
  2572  0008B6  C063  FFDA         	movff	vfpfcnvrt@fmt+1,fsr2h
  2573  0008BA  CFDE FFF6          	movff	postinc2,tblptrl
  2574  0008BE  CFDD FFF7          	movff	postdec2,tblptrh
  2575  0008C2                     	if	0	;tblptru may be non-zero
  2576  0008C2                     	endif
  2577  0008C2                     	if	0	;tblptru may be non-zero
  2578  0008C2                     	endif
  2579  0008C2  0008               	tblrd		*
  2580  0008C4  50F5               	movf	tablat,w,c
  2581  0008C6  6E4A               	movwf	??_vfpfcnvrt& (0+255),c
  2582  0008C8  6A4B               	clrf	(??_vfpfcnvrt+1)& (0+255),c
  2583                           
  2584                           ; Switch on 2 bytes has been partitioned into a top level switch of size 1, and 1 sub-sw
      +                          itches
  2585                           ; Switch size 1, requested type "simple"
  2586                           ; Number of cases is 1, Range of values is 0 to 0
  2587                           ; switch strategies available:
  2588                           ; Name         Instructions Cycles
  2589                           ; simple_byte            4     3 (average)
  2590                           ;	Chosen strategy is simple_byte
  2591  0008CA  504B               	movf	??_vfpfcnvrt+1,w,c
  2592  0008CC  0A00               	xorlw	0	; case 0
  2593  0008CE  A4D8               	btfss	status,2,c
  2594  0008D0  D7EB               	goto	l5547
  2595                           
  2596                           ; BSR set to: 0
  2597                           ; Switch size 1, requested type "simple"
  2598                           ; Number of cases is 5, Range of values is 32 to 48
  2599                           ; switch strategies available:
  2600                           ; Name         Instructions Cycles
  2601                           ; simple_byte           16     9 (average)
  2602                           ;	Chosen strategy is simple_byte
  2603  0008D2  504A               	movf	??_vfpfcnvrt,w,c
  2604  0008D4  0A20               	xorlw	32	; case 32
  2605  0008D6  B4D8               	btfsc	status,2,c
  2606  0008D8  D7E3               	goto	l5539
  2607  0008DA  0A03               	xorlw	3	; case 35
  2608  0008DC  B4D8               	btfsc	status,2,c
  2609  0008DE  D7E2               	goto	l5543
  2610  0008E0  0A08               	xorlw	8	; case 43
  2611  0008E2  B4D8               	btfsc	status,2,c
  2612  0008E4  D7DB               	goto	l5535
  2613  0008E6  0A06               	xorlw	6	; case 45
  2614  0008E8  B4D8               	btfsc	status,2,c
  2615  0008EA  D7CD               	goto	l5527
  2616  0008EC  0A1D               	xorlw	29	; case 48
  2617  0008EE  B4D8               	btfsc	status,2,c
  2618  0008F0  D7D3               	goto	l5531
  2619  0008F2  D7DA               	goto	l5547
  2620  0008F4                     l5553:
  2621                           
  2622                           ; BSR set to: 0
  2623                           ;/opt/microchip/xc8/v2.05/pic/sources/c99/common/doprnt.c: 689:         while (!done) {
  2624  0008F4  5168               	movf	vfpfcnvrt@done& (0+255),w,b
  2625  0008F6  1169               	iorwf	(vfpfcnvrt@done+1)& (0+255),w,b
  2626  0008F8  B4D8               	btfsc	status,2,c
  2627  0008FA  D7DB               	goto	l5551
  2628                           
  2629                           ; BSR set to: 0
  2630                           ;/opt/microchip/xc8/v2.05/pic/sources/c99/common/doprnt.c: 716:         if (flags & (1 <
      +                          < 0)) {
  2631  0008FC  B052               	btfsc	_flags,0,c
  2632                           
  2633                           ; BSR set to: 0
  2634                           ;/opt/microchip/xc8/v2.05/pic/sources/c99/common/doprnt.c: 717:             flags &= ~(1
      +                           << 1);
  2635  0008FE  9252               	bcf	_flags,1,c
  2636                           
  2637                           ; BSR set to: 0
  2638                           ;/opt/microchip/xc8/v2.05/pic/sources/c99/common/doprnt.c: 723:         if ((*fmt)[0] ==
      +                           '*') {
  2639  000900  C062  FFD9         	movff	vfpfcnvrt@fmt,fsr2l
  2640  000904  C063  FFDA         	movff	vfpfcnvrt@fmt+1,fsr2h
  2641  000908  CFDE FFF6          	movff	postinc2,tblptrl
  2642  00090C  CFDD FFF7          	movff	postdec2,tblptrh
  2643  000910                     	if	0	;tblptru may be non-zero
  2644  000910                     	endif
  2645  000910                     	if	0	;tblptru may be non-zero
  2646  000910                     	endif
  2647  000910  0008               	tblrd		*
  2648  000912  50F5               	movf	tablat,w,c
  2649  000914  0A2A               	xorlw	42
  2650  000916  A4D8               	btfss	status,2,c
  2651  000918  D023               	goto	l5565
  2652                           
  2653                           ; BSR set to: 0
  2654                           ;/opt/microchip/xc8/v2.05/pic/sources/c99/common/doprnt.c: 724:             ++*fmt;
  2655  00091A  C062  FFD9         	movff	vfpfcnvrt@fmt,fsr2l
  2656  00091E  C063  FFDA         	movff	vfpfcnvrt@fmt+1,fsr2h
  2657  000922  2ADE               	incf	postinc2,f,c
  2658  000924  0E00               	movlw	0
  2659  000926  22DD               	addwfc	postdec2,f,c
  2660                           
  2661                           ;/opt/microchip/xc8/v2.05/pic/sources/c99/common/doprnt.c: 725:             width = (*(i
      +                          nt *)__va_arg(*(int **)ap, (int)0));
  2662  000928  C064  FFD9         	movff	vfpfcnvrt@ap,fsr2l
  2663  00092C  C065  FFDA         	movff	vfpfcnvrt@ap+1,fsr2h
  2664  000930  CFDF F04A          	movff	indf2,??_vfpfcnvrt
  2665  000934  0E02               	movlw	2
  2666  000936  26DE               	addwf	postinc2,f,c
  2667  000938  CFDF F04B          	movff	indf2,??_vfpfcnvrt+1
  2668  00093C  0E00               	movlw	0
  2669  00093E  22DD               	addwfc	postdec2,f,c
  2670  000940  C04A  FFD9         	movff	??_vfpfcnvrt,fsr2l
  2671  000944  C04B  FFDA         	movff	??_vfpfcnvrt+1,fsr2h
  2672  000948  CFDE F04E          	movff	postinc2,_width
  2673  00094C  CFDD F04F          	movff	postdec2,_width+1
  2674                           
  2675                           ; BSR set to: 0
  2676                           ;/opt/microchip/xc8/v2.05/pic/sources/c99/common/doprnt.c: 726:             if (width < 
      +                          0) {
  2677  000950  AE4F               	btfss	_width+1,7,c
  2678  000952  D040               	goto	u6480
  2679                           
  2680                           ; BSR set to: 0
  2681                           ;/opt/microchip/xc8/v2.05/pic/sources/c99/common/doprnt.c: 727:                 flags |=
      +                           (1 << 0);
  2682  000954  8052               	bsf	_flags,0,c
  2683                           
  2684                           ;/opt/microchip/xc8/v2.05/pic/sources/c99/common/doprnt.c: 728:                 width = 
      +                          -width;
  2685  000956  6C4E               	negf	_width,c
  2686  000958  1E4F               	comf	_width+1,f,c
  2687  00095A  B0D8               	btfsc	status,0,c
  2688  00095C  2A4F               	incf	_width+1,f,c
  2689  00095E  D03A               	goto	u6480
  2690  000960                     l5565:
  2691                           
  2692                           ; BSR set to: 0
  2693                           ;/opt/microchip/xc8/v2.05/pic/sources/c99/common/doprnt.c: 731:             width = atoi
      +                          (*fmt);
  2694  000960  C062  FFD9         	movff	vfpfcnvrt@fmt,fsr2l
  2695  000964  C063  FFDA         	movff	vfpfcnvrt@fmt+1,fsr2h
  2696  000968  CFDE F00F          	movff	postinc2,atoi@s
  2697  00096C  CFDD F010          	movff	postdec2,atoi@s+1
  2698  000970  EC04  F011         	call	_atoi	;wreg free
  2699  000974  C00F  F04E         	movff	?_atoi,_width
  2700  000978  C010  F04F         	movff	?_atoi+1,_width+1
  2701                           
  2702                           ;/opt/microchip/xc8/v2.05/pic/sources/c99/common/doprnt.c: 732:             while ((0 ? 
      +                          isdigit((*fmt)[0]) : ((unsigned)((*fmt)[0])-'0') < 10)) {
  2703  00097C  D007               	goto	l5569
  2704  00097E                     l5567:
  2705                           
  2706                           ; BSR set to: 0
  2707                           ;/opt/microchip/xc8/v2.05/pic/sources/c99/common/doprnt.c: 733:                 ++*fmt;
  2708  00097E  C062  FFD9         	movff	vfpfcnvrt@fmt,fsr2l
  2709  000982  C063  FFDA         	movff	vfpfcnvrt@fmt+1,fsr2h
  2710  000986  2ADE               	incf	postinc2,f,c
  2711  000988  0E00               	movlw	0
  2712  00098A  22DD               	addwfc	postdec2,f,c
  2713  00098C                     l5569:
  2714  00098C  0ED0               	movlw	208
  2715  00098E  6E4A               	movwf	??_vfpfcnvrt& (0+255),c
  2716  000990  0EFF               	movlw	255
  2717  000992  6E4B               	movwf	(??_vfpfcnvrt+1)& (0+255),c
  2718  000994  C062  FFD9         	movff	vfpfcnvrt@fmt,fsr2l
  2719  000998  C063  FFDA         	movff	vfpfcnvrt@fmt+1,fsr2h
  2720  00099C  CFDE FFF6          	movff	postinc2,tblptrl
  2721  0009A0  CFDD FFF7          	movff	postdec2,tblptrh
  2722  0009A4                     	if	0	;tblptru may be non-zero
  2723  0009A4                     	endif
  2724  0009A4                     	if	0	;tblptru may be non-zero
  2725  0009A4                     	endif
  2726  0009A4  0008               	tblrd		*
  2727  0009A6  50F5               	movf	tablat,w,c
  2728  0009A8  6E4C               	movwf	(??_vfpfcnvrt+2)& (0+255),c
  2729  0009AA  6A4D               	clrf	(??_vfpfcnvrt+3)& (0+255),c
  2730  0009AC  504A               	movf	??_vfpfcnvrt,w,c
  2731  0009AE  264C               	addwf	??_vfpfcnvrt+2,f,c
  2732  0009B0  504B               	movf	??_vfpfcnvrt+1,w,c
  2733  0009B2  224D               	addwfc	??_vfpfcnvrt+3,f,c
  2734  0009B4  504D               	movf	??_vfpfcnvrt+3,w,c
  2735  0009B6  E106               	bnz	u6460
  2736  0009B8  0E0A               	movlw	10
  2737  0009BA  5C4C               	subwf	??_vfpfcnvrt+2,w,c
  2738  0009BC  B0D8               	btfsc	status,0,c
  2739  0009BE  D002               	goto	u6460
  2740  0009C0  0E01               	movlw	1
  2741  0009C2  D001               	goto	u6470
  2742  0009C4                     u6460:
  2743  0009C4  0E00               	movlw	0
  2744  0009C6                     u6470:
  2745  0009C6  0100               	movlb	0	; () banked
  2746  0009C8  6F6A               	movwf	_vfpfcnvrt$1725& (0+255),b
  2747  0009CA  6B6B               	clrf	(_vfpfcnvrt$1725+1)& (0+255),b
  2748                           
  2749                           ; BSR set to: 0
  2750  0009CC  516A               	movf	_vfpfcnvrt$1725& (0+255),w,b
  2751  0009CE  116B               	iorwf	(_vfpfcnvrt$1725+1)& (0+255),w,b
  2752  0009D0  A4D8               	btfss	status,2,c
  2753  0009D2  D7D5               	goto	l5567
  2754  0009D4                     u6480:
  2755                           
  2756                           ; BSR set to: 0
  2757                           ;/opt/microchip/xc8/v2.05/pic/sources/c99/common/doprnt.c: 740:         if ((*fmt)[0] ==
      +                           '.') {
  2758  0009D4  C062  FFD9         	movff	vfpfcnvrt@fmt,fsr2l
  2759  0009D8  C063  FFDA         	movff	vfpfcnvrt@fmt+1,fsr2h
  2760  0009DC  CFDE FFF6          	movff	postinc2,tblptrl
  2761  0009E0  CFDD FFF7          	movff	postdec2,tblptrh
  2762  0009E4                     	if	0	;tblptru may be non-zero
  2763  0009E4                     	endif
  2764  0009E4                     	if	0	;tblptru may be non-zero
  2765  0009E4                     	endif
  2766  0009E4  0008               	tblrd		*
  2767  0009E6  50F5               	movf	tablat,w,c
  2768  0009E8  0A2E               	xorlw	46
  2769  0009EA  A4D8               	btfss	status,2,c
  2770  0009EC  D06E               	goto	u6530
  2771                           
  2772                           ; BSR set to: 0
  2773                           ;/opt/microchip/xc8/v2.05/pic/sources/c99/common/doprnt.c: 741:             prec = 0;
  2774  0009EE  0E00               	movlw	0
  2775  0009F0  6E51               	movwf	_prec+1,c
  2776  0009F2  0E00               	movlw	0
  2777  0009F4  6E50               	movwf	_prec,c
  2778                           
  2779                           ; BSR set to: 0
  2780                           ;/opt/microchip/xc8/v2.05/pic/sources/c99/common/doprnt.c: 742:             ++*fmt;
  2781  0009F6  C062  FFD9         	movff	vfpfcnvrt@fmt,fsr2l
  2782  0009FA  C063  FFDA         	movff	vfpfcnvrt@fmt+1,fsr2h
  2783  0009FE  2ADE               	incf	postinc2,f,c
  2784  000A00  0E00               	movlw	0
  2785  000A02  22DD               	addwfc	postdec2,f,c
  2786                           
  2787                           ; BSR set to: 0
  2788                           ;/opt/microchip/xc8/v2.05/pic/sources/c99/common/doprnt.c: 743:             if ((*fmt)[0
      +                          ] == '*') {
  2789  000A04  C062  FFD9         	movff	vfpfcnvrt@fmt,fsr2l
  2790  000A08  C063  FFDA         	movff	vfpfcnvrt@fmt+1,fsr2h
  2791  000A0C  CFDE FFF6          	movff	postinc2,tblptrl
  2792  000A10  CFDD FFF7          	movff	postdec2,tblptrh
  2793  000A14                     	if	0	;tblptru may be non-zero
  2794  000A14                     	endif
  2795  000A14                     	if	0	;tblptru may be non-zero
  2796  000A14                     	endif
  2797  000A14  0008               	tblrd		*
  2798  000A16  50F5               	movf	tablat,w,c
  2799  000A18  0A2A               	xorlw	42
  2800  000A1A  A4D8               	btfss	status,2,c
  2801  000A1C  D01C               	goto	l5585
  2802                           
  2803                           ; BSR set to: 0
  2804                           ;/opt/microchip/xc8/v2.05/pic/sources/c99/common/doprnt.c: 744:                 ++*fmt;
  2805  000A1E  C062  FFD9         	movff	vfpfcnvrt@fmt,fsr2l
  2806  000A22  C063  FFDA         	movff	vfpfcnvrt@fmt+1,fsr2h
  2807  000A26  2ADE               	incf	postinc2,f,c
  2808  000A28  0E00               	movlw	0
  2809  000A2A  22DD               	addwfc	postdec2,f,c
  2810                           
  2811                           ;/opt/microchip/xc8/v2.05/pic/sources/c99/common/doprnt.c: 745:                 prec = (
      +                          *(int *)__va_arg(*(int **)ap, (int)0));
  2812  000A2C  C064  FFD9         	movff	vfpfcnvrt@ap,fsr2l
  2813  000A30  C065  FFDA         	movff	vfpfcnvrt@ap+1,fsr2h
  2814  000A34  CFDF F04A          	movff	indf2,??_vfpfcnvrt
  2815  000A38  0E02               	movlw	2
  2816  000A3A  26DE               	addwf	postinc2,f,c
  2817  000A3C  CFDF F04B          	movff	indf2,??_vfpfcnvrt+1
  2818  000A40  0E00               	movlw	0
  2819  000A42  22DD               	addwfc	postdec2,f,c
  2820  000A44  C04A  FFD9         	movff	??_vfpfcnvrt,fsr2l
  2821  000A48  C04B  FFDA         	movff	??_vfpfcnvrt+1,fsr2h
  2822  000A4C  CFDE F050          	movff	postinc2,_prec
  2823  000A50  CFDD F051          	movff	postdec2,_prec+1
  2824                           
  2825                           ;/opt/microchip/xc8/v2.05/pic/sources/c99/common/doprnt.c: 746:             } else {
  2826  000A54  D03A               	goto	u6530
  2827  000A56                     l5585:
  2828                           
  2829                           ; BSR set to: 0
  2830                           ;/opt/microchip/xc8/v2.05/pic/sources/c99/common/doprnt.c: 747:                 prec = a
      +                          toi(*fmt);
  2831  000A56  C062  FFD9         	movff	vfpfcnvrt@fmt,fsr2l
  2832  000A5A  C063  FFDA         	movff	vfpfcnvrt@fmt+1,fsr2h
  2833  000A5E  CFDE F00F          	movff	postinc2,atoi@s
  2834  000A62  CFDD F010          	movff	postdec2,atoi@s+1
  2835  000A66  EC04  F011         	call	_atoi	;wreg free
  2836  000A6A  C00F  F050         	movff	?_atoi,_prec
  2837  000A6E  C010  F051         	movff	?_atoi+1,_prec+1
  2838                           
  2839                           ;/opt/microchip/xc8/v2.05/pic/sources/c99/common/doprnt.c: 748:                 while ((
      +                          0 ? isdigit((*fmt)[0]) : ((unsigned)((*fmt)[0])-'0') < 10)) {
  2840  000A72  D007               	goto	l5589
  2841  000A74                     l5587:
  2842                           
  2843                           ; BSR set to: 0
  2844                           ;/opt/microchip/xc8/v2.05/pic/sources/c99/common/doprnt.c: 749:                     ++*f
      +                          mt;
  2845  000A74  C062  FFD9         	movff	vfpfcnvrt@fmt,fsr2l
  2846  000A78  C063  FFDA         	movff	vfpfcnvrt@fmt+1,fsr2h
  2847  000A7C  2ADE               	incf	postinc2,f,c
  2848  000A7E  0E00               	movlw	0
  2849  000A80  22DD               	addwfc	postdec2,f,c
  2850  000A82                     l5589:
  2851  000A82  0ED0               	movlw	208
  2852  000A84  6E4A               	movwf	??_vfpfcnvrt& (0+255),c
  2853  000A86  0EFF               	movlw	255
  2854  000A88  6E4B               	movwf	(??_vfpfcnvrt+1)& (0+255),c
  2855  000A8A  C062  FFD9         	movff	vfpfcnvrt@fmt,fsr2l
  2856  000A8E  C063  FFDA         	movff	vfpfcnvrt@fmt+1,fsr2h
  2857  000A92  CFDE FFF6          	movff	postinc2,tblptrl
  2858  000A96  CFDD FFF7          	movff	postdec2,tblptrh
  2859  000A9A                     	if	0	;tblptru may be non-zero
  2860  000A9A                     	endif
  2861  000A9A                     	if	0	;tblptru may be non-zero
  2862  000A9A                     	endif
  2863  000A9A  0008               	tblrd		*
  2864  000A9C  50F5               	movf	tablat,w,c
  2865  000A9E  6E4C               	movwf	(??_vfpfcnvrt+2)& (0+255),c
  2866  000AA0  6A4D               	clrf	(??_vfpfcnvrt+3)& (0+255),c
  2867  000AA2  504A               	movf	??_vfpfcnvrt,w,c
  2868  000AA4  264C               	addwf	??_vfpfcnvrt+2,f,c
  2869  000AA6  504B               	movf	??_vfpfcnvrt+1,w,c
  2870  000AA8  224D               	addwfc	??_vfpfcnvrt+3,f,c
  2871  000AAA  504D               	movf	??_vfpfcnvrt+3,w,c
  2872  000AAC  E106               	bnz	u6510
  2873  000AAE  0E0A               	movlw	10
  2874  000AB0  5C4C               	subwf	??_vfpfcnvrt+2,w,c
  2875  000AB2  B0D8               	btfsc	status,0,c
  2876  000AB4  D002               	goto	u6510
  2877  000AB6  0E01               	movlw	1
  2878  000AB8  D001               	goto	u6520
  2879  000ABA                     u6510:
  2880  000ABA  0E00               	movlw	0
  2881  000ABC                     u6520:
  2882  000ABC  0100               	movlb	0	; () banked
  2883  000ABE  6F6C               	movwf	_vfpfcnvrt$1726& (0+255),b
  2884  000AC0  6B6D               	clrf	(_vfpfcnvrt$1726+1)& (0+255),b
  2885                           
  2886                           ; BSR set to: 0
  2887  000AC2  516C               	movf	_vfpfcnvrt$1726& (0+255),w,b
  2888  000AC4  116D               	iorwf	(_vfpfcnvrt$1726+1)& (0+255),w,b
  2889  000AC6  A4D8               	btfss	status,2,c
  2890  000AC8  D7D5               	goto	l5587
  2891  000ACA                     u6530:
  2892                           
  2893                           ; BSR set to: 0
  2894                           ;/opt/microchip/xc8/v2.05/pic/sources/c99/common/doprnt.c: 792:         if (*fmt[0] == '
      +                          c') {
  2895  000ACA  C062  FFD9         	movff	vfpfcnvrt@fmt,fsr2l
  2896  000ACE  C063  FFDA         	movff	vfpfcnvrt@fmt+1,fsr2h
  2897  000AD2  CFDE FFF6          	movff	postinc2,tblptrl
  2898  000AD6  CFDD FFF7          	movff	postdec2,tblptrh
  2899  000ADA                     	if	0	;tblptru may be non-zero
  2900  000ADA                     	endif
  2901  000ADA                     	if	0	;tblptru may be non-zero
  2902  000ADA                     	endif
  2903  000ADA  0008               	tblrd		*
  2904  000ADC  50F5               	movf	tablat,w,c
  2905  000ADE  0A63               	xorlw	99
  2906  000AE0  A4D8               	btfss	status,2,c
  2907  000AE2  D026               	goto	l5603
  2908                           
  2909                           ; BSR set to: 0
  2910                           ;/opt/microchip/xc8/v2.05/pic/sources/c99/common/doprnt.c: 793:             ++*fmt;
  2911  000AE4  C062  FFD9         	movff	vfpfcnvrt@fmt,fsr2l
  2912  000AE8  C063  FFDA         	movff	vfpfcnvrt@fmt+1,fsr2h
  2913  000AEC  2ADE               	incf	postinc2,f,c
  2914  000AEE  0E00               	movlw	0
  2915  000AF0  22DD               	addwfc	postdec2,f,c
  2916                           
  2917                           ;/opt/microchip/xc8/v2.05/pic/sources/c99/common/doprnt.c: 794:             c = (unsigne
      +                          d char)(*(int *)__va_arg(*(int **)ap, (int)0));
  2918  000AF2  C064  FFD9         	movff	vfpfcnvrt@ap,fsr2l
  2919  000AF6  C065  FFDA         	movff	vfpfcnvrt@ap+1,fsr2h
  2920  000AFA  CFDF F04A          	movff	indf2,??_vfpfcnvrt
  2921  000AFE  0E02               	movlw	2
  2922  000B00  26DE               	addwf	postinc2,f,c
  2923  000B02  CFDF F04B          	movff	indf2,??_vfpfcnvrt+1
  2924  000B06  0E00               	movlw	0
  2925  000B08  22DD               	addwfc	postdec2,f,c
  2926  000B0A  C04A  FFD9         	movff	??_vfpfcnvrt,fsr2l
  2927  000B0E  C04B  FFDA         	movff	??_vfpfcnvrt+1,fsr2h
  2928  000B12  50DF               	movf	indf2,w,c
  2929  000B14  6F78               	movwf	vfpfcnvrt@c& (0+255),b
  2930                           
  2931                           ; BSR set to: 0
  2932                           ;/opt/microchip/xc8/v2.05/pic/sources/c99/common/doprnt.c: 795:             return ctoa(
      +                          fp, c);
  2933  000B16  C060  F023         	movff	vfpfcnvrt@fp,ctoa@fp
  2934  000B1A  C061  F024         	movff	vfpfcnvrt@fp+1,ctoa@fp+1
  2935  000B1E  C078  F025         	movff	vfpfcnvrt@c,ctoa@c
  2936  000B22  EC99  F019         	call	_ctoa	;wreg free
  2937  000B26  C023  F060         	movff	?_ctoa,?_vfpfcnvrt
  2938  000B2A  C024  F061         	movff	?_ctoa+1,?_vfpfcnvrt+1
  2939  000B2E  0012               	return	
  2940  000B30                     l5603:
  2941                           
  2942                           ; BSR set to: 0
  2943                           ;/opt/microchip/xc8/v2.05/pic/sources/c99/common/doprnt.c: 802:         if (!strncmp(*fm
      +                          t, "hhd", ((sizeof("hhd")/sizeof("hhd"[0]))-1)) || !strncmp(*fmt, "hhi", ((sizeof("hhi")
      +                          /sizeof("hhi"[0]))-1))) {
  2944  000B30  C062  FFD9         	movff	vfpfcnvrt@fmt,fsr2l
  2945  000B34  C063  FFDA         	movff	vfpfcnvrt@fmt+1,fsr2h
  2946  000B38  CFDE F008          	movff	postinc2,strncmp@_l
  2947  000B3C  CFDD F009          	movff	postdec2,strncmp@_l+1
  2948  000B40  0E10               	movlw	low STR_2
  2949  000B42  6E0A               	movwf	strncmp@_r,c
  2950  000B44  0E08               	movlw	high STR_2
  2951  000B46  6E0B               	movwf	strncmp@_r+1,c
  2952  000B48  0E00               	movlw	0
  2953  000B4A  6E0D               	movwf	strncmp@n+1,c
  2954  000B4C  0E03               	movlw	3
  2955  000B4E  6E0C               	movwf	strncmp@n,c
  2956  000B50  EC60  F016         	call	_strncmp	;wreg free
  2957  000B54  5008               	movf	?_strncmp,w,c
  2958  000B56  1009               	iorwf	?_strncmp+1,w,c
  2959  000B58  B4D8               	btfsc	status,2,c
  2960  000B5A  D016               	goto	u6560
  2961  000B5C  C062  FFD9         	movff	vfpfcnvrt@fmt,fsr2l
  2962  000B60  C063  FFDA         	movff	vfpfcnvrt@fmt+1,fsr2h
  2963  000B64  CFDE F008          	movff	postinc2,strncmp@_l
  2964  000B68  CFDD F009          	movff	postdec2,strncmp@_l+1
  2965  000B6C  0E14               	movlw	low STR_6
  2966  000B6E  6E0A               	movwf	strncmp@_r,c
  2967  000B70  0E08               	movlw	high STR_6
  2968  000B72  6E0B               	movwf	strncmp@_r+1,c
  2969  000B74  0E00               	movlw	0
  2970  000B76  6E0D               	movwf	strncmp@n+1,c
  2971  000B78  0E03               	movlw	3
  2972  000B7A  6E0C               	movwf	strncmp@n,c
  2973  000B7C  EC60  F016         	call	_strncmp	;wreg free
  2974  000B80  5008               	movf	?_strncmp,w,c
  2975  000B82  1009               	iorwf	?_strncmp+1,w,c
  2976  000B84  A4D8               	btfss	status,2,c
  2977  000B86  D040               	goto	l5613
  2978  000B88                     u6560:
  2979                           
  2980                           ;/opt/microchip/xc8/v2.05/pic/sources/c99/common/doprnt.c: 803: ;/opt/microchip/xc8/v2.0
      +                          5/pic/sources/c99/common/doprnt.c: 805:             *fmt += ((sizeof("hhd")/sizeof("hhd"
      +                          [0]))-1);
  2981  000B88  0E03               	movlw	3
  2982  000B8A  C062  FFD9         	movff	vfpfcnvrt@fmt,fsr2l
  2983  000B8E  C063  FFDA         	movff	vfpfcnvrt@fmt+1,fsr2h
  2984  000B92  26DE               	addwf	postinc2,f,c
  2985  000B94  0E00               	movlw	0
  2986  000B96  22DD               	addwfc	postdec2,f,c
  2987                           
  2988                           ;/opt/microchip/xc8/v2.05/pic/sources/c99/common/doprnt.c: 806:             ll = (long l
      +                          ong)(signed char)(*(int *)__va_arg(*(int **)ap, (int)0));
  2989  000B98  C064  FFD9         	movff	vfpfcnvrt@ap,fsr2l
  2990  000B9C  C065  FFDA         	movff	vfpfcnvrt@ap+1,fsr2h
  2991  000BA0  CFDF F04A          	movff	indf2,??_vfpfcnvrt
  2992  000BA4  0E02               	movlw	2
  2993  000BA6  26DE               	addwf	postinc2,f,c
  2994  000BA8  CFDF F04B          	movff	indf2,??_vfpfcnvrt+1
  2995  000BAC  0E00               	movlw	0
  2996  000BAE  22DD               	addwfc	postdec2,f,c
  2997  000BB0  C04A  FFD9         	movff	??_vfpfcnvrt,fsr2l
  2998  000BB4  C04B  FFDA         	movff	??_vfpfcnvrt+1,fsr2h
  2999  000BB8  50DF               	movf	indf2,w,c
  3000  000BBA  0100               	movlb	0	; () banked
  3001  000BBC  6F6E               	movwf	vfpfcnvrt@ll& (0+255),b
  3002  000BBE  0E00               	movlw	0
  3003  000BC0  BF6E               	btfsc	vfpfcnvrt@ll& (0+255),7,b
  3004  000BC2  0EFF               	movlw	-1
  3005  000BC4  6F6F               	movwf	(vfpfcnvrt@ll+1)& (0+255),b
  3006  000BC6                     L5:
  3007  000BC6  6F70               	movwf	(vfpfcnvrt@ll+2)& (0+255),b
  3008  000BC8  6F71               	movwf	(vfpfcnvrt@ll+3)& (0+255),b
  3009  000BCA  6F72               	movwf	(vfpfcnvrt@ll+4)& (0+255),b
  3010  000BCC  6F73               	movwf	(vfpfcnvrt@ll+5)& (0+255),b
  3011  000BCE  6F74               	movwf	(vfpfcnvrt@ll+6)& (0+255),b
  3012  000BD0  6F75               	movwf	(vfpfcnvrt@ll+7)& (0+255),b
  3013  000BD2                     l5609:
  3014                           
  3015                           ; BSR set to: 0
  3016                           ;/opt/microchip/xc8/v2.05/pic/sources/c99/common/doprnt.c: 808:             return dtoa(
      +                          fp, ll);
  3017  000BD2  C060  F023         	movff	vfpfcnvrt@fp,dtoa@fp
  3018  000BD6  C061  F024         	movff	vfpfcnvrt@fp+1,dtoa@fp+1
  3019  000BDA  C06E  F025         	movff	vfpfcnvrt@ll,dtoa@d
  3020  000BDE  C06F  F026         	movff	vfpfcnvrt@ll+1,dtoa@d+1
  3021  000BE2  C070  F027         	movff	vfpfcnvrt@ll+2,dtoa@d+2
  3022  000BE6  C071  F028         	movff	vfpfcnvrt@ll+3,dtoa@d+3
  3023  000BEA  C072  F029         	movff	vfpfcnvrt@ll+4,dtoa@d+4
  3024  000BEE  C073  F02A         	movff	vfpfcnvrt@ll+5,dtoa@d+5
  3025  000BF2  C074  F02B         	movff	vfpfcnvrt@ll+6,dtoa@d+6
  3026  000BF6  C075  F02C         	movff	vfpfcnvrt@ll+7,dtoa@d+7
  3027  000BFA  ECDC  F00A         	call	_dtoa	;wreg free
  3028  000BFE  C023  F060         	movff	?_dtoa,?_vfpfcnvrt
  3029  000C02  C024  F061         	movff	?_dtoa+1,?_vfpfcnvrt+1
  3030  000C06  0012               	return	
  3031  000C08                     l5613:
  3032                           
  3033                           ;/opt/microchip/xc8/v2.05/pic/sources/c99/common/doprnt.c: 814:         if (!strncmp(*fm
      +                          t, "hd", ((sizeof("hd")/sizeof("hd"[0]))-1)) || !strncmp(*fmt, "hi", ((sizeof("hi")/size
      +                          of("hi"[0]))-1))) {
  3034  000C08  C062  FFD9         	movff	vfpfcnvrt@fmt,fsr2l
  3035  000C0C  C063  FFDA         	movff	vfpfcnvrt@fmt+1,fsr2h
  3036  000C10  CFDE F008          	movff	postinc2,strncmp@_l
  3037  000C14  CFDD F009          	movff	postdec2,strncmp@_l+1
  3038  000C18  0E11               	movlw	low (STR_2+1)
  3039  000C1A  6E0A               	movwf	strncmp@_r,c
  3040  000C1C  0E08               	movlw	high (STR_2+1)
  3041  000C1E  6E0B               	movwf	strncmp@_r+1,c
  3042  000C20  0E00               	movlw	0
  3043  000C22  6E0D               	movwf	strncmp@n+1,c
  3044  000C24  0E02               	movlw	2
  3045  000C26  6E0C               	movwf	strncmp@n,c
  3046  000C28  EC60  F016         	call	_strncmp	;wreg free
  3047  000C2C  5008               	movf	?_strncmp,w,c
  3048  000C2E  1009               	iorwf	?_strncmp+1,w,c
  3049  000C30  B4D8               	btfsc	status,2,c
  3050  000C32  D016               	goto	u6580
  3051  000C34  C062  FFD9         	movff	vfpfcnvrt@fmt,fsr2l
  3052  000C38  C063  FFDA         	movff	vfpfcnvrt@fmt+1,fsr2h
  3053  000C3C  CFDE F008          	movff	postinc2,strncmp@_l
  3054  000C40  CFDD F009          	movff	postdec2,strncmp@_l+1
  3055  000C44  0E15               	movlw	low (STR_6+1)
  3056  000C46  6E0A               	movwf	strncmp@_r,c
  3057  000C48  0E08               	movlw	high (STR_6+1)
  3058  000C4A  6E0B               	movwf	strncmp@_r+1,c
  3059  000C4C  0E00               	movlw	0
  3060  000C4E  6E0D               	movwf	strncmp@n+1,c
  3061  000C50  0E02               	movlw	2
  3062  000C52  6E0C               	movwf	strncmp@n,c
  3063  000C54  EC60  F016         	call	_strncmp	;wreg free
  3064  000C58  5008               	movf	?_strncmp,w,c
  3065  000C5A  1009               	iorwf	?_strncmp+1,w,c
  3066  000C5C  A4D8               	btfss	status,2,c
  3067  000C5E  D007               	goto	l5623
  3068  000C60                     u6580:
  3069                           
  3070                           ;/opt/microchip/xc8/v2.05/pic/sources/c99/common/doprnt.c: 815: ;/opt/microchip/xc8/v2.0
      +                          5/pic/sources/c99/common/doprnt.c: 817:             *fmt += ((sizeof("hd")/sizeof("hd"[0
      +                          ]))-1);
  3071  000C60  0E02               	movlw	2
  3072  000C62  C062  FFD9         	movff	vfpfcnvrt@fmt,fsr2l
  3073  000C66  C063  FFDA         	movff	vfpfcnvrt@fmt+1,fsr2h
  3074  000C6A  26DE               	addwf	postinc2,f,c
  3075  000C6C  D01F               	goto	L10
  3076  000C6E                     l5623:
  3077                           
  3078                           ;/opt/microchip/xc8/v2.05/pic/sources/c99/common/doprnt.c: 825:         if ((*fmt[0] == 
      +                          'd') || (*fmt[0] == 'i')) {
  3079  000C6E  C062  FFD9         	movff	vfpfcnvrt@fmt,fsr2l
  3080  000C72  C063  FFDA         	movff	vfpfcnvrt@fmt+1,fsr2h
  3081  000C76  CFDE FFF6          	movff	postinc2,tblptrl
  3082  000C7A  CFDD FFF7          	movff	postdec2,tblptrh
  3083  000C7E                     	if	0	;tblptru may be non-zero
  3084  000C7E                     	endif
  3085  000C7E                     	if	0	;tblptru may be non-zero
  3086  000C7E                     	endif
  3087  000C7E  0008               	tblrd		*
  3088  000C80  50F5               	movf	tablat,w,c
  3089  000C82  0A64               	xorlw	100
  3090  000C84  B4D8               	btfsc	status,2,c
  3091  000C86  D00D               	goto	u6600
  3092  000C88  C062  FFD9         	movff	vfpfcnvrt@fmt,fsr2l
  3093  000C8C  C063  FFDA         	movff	vfpfcnvrt@fmt+1,fsr2h
  3094  000C90  CFDE FFF6          	movff	postinc2,tblptrl
  3095  000C94  CFDD FFF7          	movff	postdec2,tblptrh
  3096  000C98                     	if	0	;tblptru may be non-zero
  3097  000C98                     	endif
  3098  000C98                     	if	0	;tblptru may be non-zero
  3099  000C98                     	endif
  3100  000C98  0008               	tblrd		*
  3101  000C9A  50F5               	movf	tablat,w,c
  3102  000C9C  0A69               	xorlw	105
  3103  000C9E  A4D8               	btfss	status,2,c
  3104  000CA0  D020               	goto	l5633
  3105  000CA2                     u6600:
  3106                           
  3107                           ;/opt/microchip/xc8/v2.05/pic/sources/c99/common/doprnt.c: 827:             ++*fmt;
  3108  000CA2  C062  FFD9         	movff	vfpfcnvrt@fmt,fsr2l
  3109  000CA6  C063  FFDA         	movff	vfpfcnvrt@fmt+1,fsr2h
  3110  000CAA  2ADE               	incf	postinc2,f,c
  3111  000CAC                     L10:
  3112  000CAC  0E00               	movlw	0
  3113  000CAE  22DD               	addwfc	postdec2,f,c
  3114                           
  3115                           ;/opt/microchip/xc8/v2.05/pic/sources/c99/common/doprnt.c: 828:             ll = (long l
      +                          ong)(*(int *)__va_arg(*(int **)ap, (int)0));
  3116  000CB0  C064  FFD9         	movff	vfpfcnvrt@ap,fsr2l
  3117  000CB4  C065  FFDA         	movff	vfpfcnvrt@ap+1,fsr2h
  3118  000CB8  CFDF F04A          	movff	indf2,??_vfpfcnvrt
  3119  000CBC  0E02               	movlw	2
  3120  000CBE  26DE               	addwf	postinc2,f,c
  3121  000CC0  CFDF F04B          	movff	indf2,??_vfpfcnvrt+1
  3122  000CC4  0E00               	movlw	0
  3123  000CC6  22DD               	addwfc	postdec2,f,c
  3124  000CC8  C04A  FFD9         	movff	??_vfpfcnvrt,fsr2l
  3125  000CCC  C04B  FFDA         	movff	??_vfpfcnvrt+1,fsr2h
  3126  000CD0  CFDE F06E          	movff	postinc2,vfpfcnvrt@ll
  3127  000CD4  CFDD F06F          	movff	postdec2,vfpfcnvrt@ll+1
  3128  000CD8  0100               	movlb	0	; () banked
  3129  000CDA  0E00               	movlw	0
  3130  000CDC  BF6F               	btfsc	(vfpfcnvrt@ll+1)& (0+255),7,b
  3131  000CDE  0EFF               	movlw	-1
  3132  000CE0  D772               	goto	L5
  3133  000CE2                     l5633:
  3134                           
  3135                           ;/opt/microchip/xc8/v2.05/pic/sources/c99/common/doprnt.c: 883:         if (!strncmp(*fm
      +                          t, "zd", ((sizeof("zd")/sizeof("zd"[0]))-1)) || !strncmp(*fmt, "zi", ((sizeof("zi")/size
      +                          of("zi"[0]))-1))) {
  3136  000CE2  C062  FFD9         	movff	vfpfcnvrt@fmt,fsr2l
  3137  000CE6  C063  FFDA         	movff	vfpfcnvrt@fmt+1,fsr2h
  3138  000CEA  CFDE F008          	movff	postinc2,strncmp@_l
  3139  000CEE  CFDD F009          	movff	postdec2,strncmp@_l+1
  3140  000CF2  0E2B               	movlw	low STR_20
  3141  000CF4  6E0A               	movwf	strncmp@_r,c
  3142  000CF6  0E08               	movlw	high STR_20
  3143  000CF8  6E0B               	movwf	strncmp@_r+1,c
  3144  000CFA  0E00               	movlw	0
  3145  000CFC  6E0D               	movwf	strncmp@n+1,c
  3146  000CFE  0E02               	movlw	2
  3147  000D00  6E0C               	movwf	strncmp@n,c
  3148  000D02  EC60  F016         	call	_strncmp	;wreg free
  3149  000D06  5008               	movf	?_strncmp,w,c
  3150  000D08  1009               	iorwf	?_strncmp+1,w,c
  3151  000D0A  B4D8               	btfsc	status,2,c
  3152  000D0C  D016               	goto	u6620
  3153  000D0E  C062  FFD9         	movff	vfpfcnvrt@fmt,fsr2l
  3154  000D12  C063  FFDA         	movff	vfpfcnvrt@fmt+1,fsr2h
  3155  000D16  CFDE F008          	movff	postinc2,strncmp@_l
  3156  000D1A  CFDD F009          	movff	postdec2,strncmp@_l+1
  3157  000D1E  0E2E               	movlw	low STR_24
  3158  000D20  6E0A               	movwf	strncmp@_r,c
  3159  000D22  0E08               	movlw	high STR_24
  3160  000D24  6E0B               	movwf	strncmp@_r+1,c
  3161  000D26  0E00               	movlw	0
  3162  000D28  6E0D               	movwf	strncmp@n+1,c
  3163  000D2A  0E02               	movlw	2
  3164  000D2C  6E0C               	movwf	strncmp@n,c
  3165  000D2E  EC60  F016         	call	_strncmp	;wreg free
  3166  000D32  5008               	movf	?_strncmp,w,c
  3167  000D34  1009               	iorwf	?_strncmp+1,w,c
  3168  000D36  A4D8               	btfss	status,2,c
  3169  000D38  D028               	goto	l5643
  3170  000D3A                     u6620:
  3171                           
  3172                           ;/opt/microchip/xc8/v2.05/pic/sources/c99/common/doprnt.c: 884: ;/opt/microchip/xc8/v2.0
      +                          5/pic/sources/c99/common/doprnt.c: 886:             *fmt += ((sizeof("zd")/sizeof("zd"[0
      +                          ]))-1);
  3173  000D3A  0E02               	movlw	2
  3174  000D3C  C062  FFD9         	movff	vfpfcnvrt@fmt,fsr2l
  3175  000D40  C063  FFDA         	movff	vfpfcnvrt@fmt+1,fsr2h
  3176  000D44  26DE               	addwf	postinc2,f,c
  3177  000D46  0E00               	movlw	0
  3178  000D48  22DD               	addwfc	postdec2,f,c
  3179                           
  3180                           ;/opt/microchip/xc8/v2.05/pic/sources/c99/common/doprnt.c: 887:             ll = (long l
      +                          ong)(*(size_t *)__va_arg(*(size_t **)ap, (size_t)0));
  3181  000D4A  C064  FFD9         	movff	vfpfcnvrt@ap,fsr2l
  3182  000D4E  C065  FFDA         	movff	vfpfcnvrt@ap+1,fsr2h
  3183  000D52  CFDF F04A          	movff	indf2,??_vfpfcnvrt
  3184  000D56  0E02               	movlw	2
  3185  000D58  26DE               	addwf	postinc2,f,c
  3186  000D5A  CFDF F04B          	movff	indf2,??_vfpfcnvrt+1
  3187  000D5E  0E00               	movlw	0
  3188  000D60  22DD               	addwfc	postdec2,f,c
  3189  000D62  C04A  FFD9         	movff	??_vfpfcnvrt,fsr2l
  3190  000D66  C04B  FFDA         	movff	??_vfpfcnvrt+1,fsr2h
  3191  000D6A  CFDE F04C          	movff	postinc2,??_vfpfcnvrt+2
  3192  000D6E  CFDD F04D          	movff	postdec2,??_vfpfcnvrt+3
  3193  000D72  C04C  F06E         	movff	??_vfpfcnvrt+2,vfpfcnvrt@ll
  3194  000D76  C04D  F06F         	movff	??_vfpfcnvrt+3,vfpfcnvrt@ll+1
  3195  000D7A  0100               	movlb	0	; () banked
  3196  000D7C  6B70               	clrf	(vfpfcnvrt@ll+2)& (0+255),b
  3197  000D7E  6B71               	clrf	(vfpfcnvrt@ll+3)& (0+255),b
  3198  000D80  6B72               	clrf	(vfpfcnvrt@ll+4)& (0+255),b
  3199  000D82  6B73               	clrf	(vfpfcnvrt@ll+5)& (0+255),b
  3200  000D84  6B74               	clrf	(vfpfcnvrt@ll+6)& (0+255),b
  3201  000D86  6B75               	clrf	(vfpfcnvrt@ll+7)& (0+255),b
  3202  000D88  D724               	goto	l5609
  3203  000D8A                     l5643:
  3204                           
  3205                           ;/opt/microchip/xc8/v2.05/pic/sources/c99/common/doprnt.c: 969:         if (!strncmp(*fm
      +                          t, "hho", ((sizeof("hho")/sizeof("hho"[0]))-1))) {
  3206  000D8A  C062  FFD9         	movff	vfpfcnvrt@fmt,fsr2l
  3207  000D8E  C063  FFDA         	movff	vfpfcnvrt@fmt+1,fsr2h
  3208  000D92  CFDE F008          	movff	postinc2,strncmp@_l
  3209  000D96  CFDD F009          	movff	postdec2,strncmp@_l+1
  3210  000D9A  0E1C               	movlw	low STR_29
  3211  000D9C  6E0A               	movwf	strncmp@_r,c
  3212  000D9E  0E08               	movlw	high STR_29
  3213  000DA0  6E0B               	movwf	strncmp@_r+1,c
  3214  000DA2  0E00               	movlw	0
  3215  000DA4  6E0D               	movwf	strncmp@n+1,c
  3216  000DA6  0E03               	movlw	3
  3217  000DA8  6E0C               	movwf	strncmp@n,c
  3218  000DAA  EC60  F016         	call	_strncmp	;wreg free
  3219  000DAE  5008               	movf	?_strncmp,w,c
  3220  000DB0  1009               	iorwf	?_strncmp+1,w,c
  3221  000DB2  A4D8               	btfss	status,2,c
  3222  000DB4  D03F               	goto	l5651
  3223                           
  3224                           ;/opt/microchip/xc8/v2.05/pic/sources/c99/common/doprnt.c: 971:             *fmt += ((si
      +                          zeof("hho")/sizeof("hho"[0]))-1);
  3225  000DB6  0E03               	movlw	3
  3226  000DB8  C062  FFD9         	movff	vfpfcnvrt@fmt,fsr2l
  3227  000DBC  C063  FFDA         	movff	vfpfcnvrt@fmt+1,fsr2h
  3228  000DC0  26DE               	addwf	postinc2,f,c
  3229  000DC2  0E00               	movlw	0
  3230  000DC4  22DD               	addwfc	postdec2,f,c
  3231                           
  3232                           ;/opt/microchip/xc8/v2.05/pic/sources/c99/common/doprnt.c: 972:             llu = (unsig
      +                          ned long long)(unsigned char)(*(int *)__va_arg(*(int **)ap, (int)0));
  3233  000DC6  C064  FFD9         	movff	vfpfcnvrt@ap,fsr2l
  3234  000DCA  C065  FFDA         	movff	vfpfcnvrt@ap+1,fsr2h
  3235  000DCE  CFDF F04A          	movff	indf2,??_vfpfcnvrt
  3236  000DD2  0E02               	movlw	2
  3237  000DD4  26DE               	addwf	postinc2,f,c
  3238  000DD6  CFDF F04B          	movff	indf2,??_vfpfcnvrt+1
  3239  000DDA  0E00               	movlw	0
  3240  000DDC  22DD               	addwfc	postdec2,f,c
  3241  000DDE  C04A  FFD9         	movff	??_vfpfcnvrt,fsr2l
  3242  000DE2  C04B  FFDA         	movff	??_vfpfcnvrt+1,fsr2h
  3243  000DE6  50DF               	movf	indf2,w,c
  3244  000DE8  6E4C               	movwf	(??_vfpfcnvrt+2)& (0+255),c
  3245  000DEA  504C               	movf	??_vfpfcnvrt+2,w,c
  3246  000DEC  0100               	movlb	0	; () banked
  3247  000DEE  6F79               	movwf	vfpfcnvrt@llu& (0+255),b
  3248  000DF0  6B7A               	clrf	(vfpfcnvrt@llu+1)& (0+255),b
  3249  000DF2                     L6:
  3250  000DF2  6B7B               	clrf	(vfpfcnvrt@llu+2)& (0+255),b
  3251  000DF4  6B7C               	clrf	(vfpfcnvrt@llu+3)& (0+255),b
  3252  000DF6  6B7D               	clrf	(vfpfcnvrt@llu+4)& (0+255),b
  3253  000DF8  6B7E               	clrf	(vfpfcnvrt@llu+5)& (0+255),b
  3254  000DFA  6B7F               	clrf	(vfpfcnvrt@llu+6)& (0+255),b
  3255  000DFC  6B80               	clrf	(vfpfcnvrt@llu+7)& (0+255),b
  3256                           
  3257                           ; BSR set to: 0
  3258                           ;/opt/microchip/xc8/v2.05/pic/sources/c99/common/doprnt.c: 974:             return otoa(
      +                          fp, llu);
  3259  000DFE  C060  F023         	movff	vfpfcnvrt@fp,otoa@fp
  3260  000E02  C061  F024         	movff	vfpfcnvrt@fp+1,otoa@fp+1
  3261  000E06  C079  F025         	movff	vfpfcnvrt@llu,otoa@d
  3262  000E0A  C07A  F026         	movff	vfpfcnvrt@llu+1,otoa@d+1
  3263  000E0E  C07B  F027         	movff	vfpfcnvrt@llu+2,otoa@d+2
  3264  000E12  C07C  F028         	movff	vfpfcnvrt@llu+3,otoa@d+3
  3265  000E16  C07D  F029         	movff	vfpfcnvrt@llu+4,otoa@d+4
  3266  000E1A  C07E  F02A         	movff	vfpfcnvrt@llu+5,otoa@d+5
  3267  000E1E  C07F  F02B         	movff	vfpfcnvrt@llu+6,otoa@d+6
  3268  000E22  C080  F02C         	movff	vfpfcnvrt@llu+7,otoa@d+7
  3269  000E26  ECA1  F00F         	call	_otoa	;wreg free
  3270  000E2A  C023  F060         	movff	?_otoa,?_vfpfcnvrt
  3271  000E2E  C024  F061         	movff	?_otoa+1,?_vfpfcnvrt+1
  3272  000E32  0012               	return	
  3273  000E34                     l5651:
  3274                           
  3275                           ;/opt/microchip/xc8/v2.05/pic/sources/c99/common/doprnt.c: 980:         if (!strncmp(*fm
      +                          t, "ho", ((sizeof("ho")/sizeof("ho"[0]))-1))) {
  3276  000E34  C062  FFD9         	movff	vfpfcnvrt@fmt,fsr2l
  3277  000E38  C063  FFDA         	movff	vfpfcnvrt@fmt+1,fsr2h
  3278  000E3C  CFDE F008          	movff	postinc2,strncmp@_l
  3279  000E40  CFDD F009          	movff	postdec2,strncmp@_l+1
  3280  000E44  0E1D               	movlw	low (STR_29+1)
  3281  000E46  6E0A               	movwf	strncmp@_r,c
  3282  000E48  0E08               	movlw	high (STR_29+1)
  3283  000E4A  6E0B               	movwf	strncmp@_r+1,c
  3284  000E4C  0E00               	movlw	0
  3285  000E4E  6E0D               	movwf	strncmp@n+1,c
  3286  000E50  0E02               	movlw	2
  3287  000E52  6E0C               	movwf	strncmp@n,c
  3288  000E54  EC60  F016         	call	_strncmp	;wreg free
  3289  000E58  5008               	movf	?_strncmp,w,c
  3290  000E5A  1009               	iorwf	?_strncmp+1,w,c
  3291  000E5C  B4D8               	btfsc	status,2,c
  3292  000E5E  D029               	goto	u6660
  3293                           
  3294                           ;/opt/microchip/xc8/v2.05/pic/sources/c99/common/doprnt.c: 990:         if (*fmt[0] == '
      +                          o') {
  3295                           
  3296                           ;/opt/microchip/xc8/v2.05/pic/sources/c99/common/doprnt.c: 983:             llu = (unsig
      +                          ned long long)(unsigned short)(*(int *)__va_arg(*(int **)ap, (int)0));
  3297                           
  3298                           ;/opt/microchip/xc8/v2.05/pic/sources/c99/common/doprnt.c: 982:             *fmt += ((si
      +                          zeof("ho")/sizeof("ho"[0]))-1);
  3299  000E60  C062  FFD9         	movff	vfpfcnvrt@fmt,fsr2l
  3300  000E64  C063  FFDA         	movff	vfpfcnvrt@fmt+1,fsr2h
  3301  000E68  CFDE FFF6          	movff	postinc2,tblptrl
  3302  000E6C  CFDD FFF7          	movff	postdec2,tblptrh
  3303  000E70                     	if	0	;tblptru may be non-zero
  3304  000E70                     	endif
  3305  000E70                     	if	0	;tblptru may be non-zero
  3306  000E70                     	endif
  3307  000E70  0008               	tblrd		*
  3308  000E72  50F5               	movf	tablat,w,c
  3309  000E74  0A6F               	xorlw	111
  3310  000E76  A4D8               	btfss	status,2,c
  3311  000E78  D006               	goto	l5667
  3312                           
  3313                           ;/opt/microchip/xc8/v2.05/pic/sources/c99/common/doprnt.c: 992:             ++*fmt;
  3314  000E7A  C062  FFD9         	movff	vfpfcnvrt@fmt,fsr2l
  3315  000E7E  C063  FFDA         	movff	vfpfcnvrt@fmt+1,fsr2h
  3316  000E82  2ADE               	incf	postinc2,f,c
  3317  000E84  D01C               	goto	L12
  3318  000E86                     l5667:
  3319                           
  3320                           ;/opt/microchip/xc8/v2.05/pic/sources/c99/common/doprnt.c: 1044:         if (!strncmp(*f
      +                          mt, "zo", ((sizeof("zo")/sizeof("zo"[0]))-1))) {
  3321  000E86  C062  FFD9         	movff	vfpfcnvrt@fmt,fsr2l
  3322  000E8A  C063  FFDA         	movff	vfpfcnvrt@fmt+1,fsr2h
  3323  000E8E  CFDE F008          	movff	postinc2,strncmp@_l
  3324  000E92  CFDD F009          	movff	postdec2,strncmp@_l+1
  3325  000E96  0E34               	movlw	low STR_39
  3326  000E98  6E0A               	movwf	strncmp@_r,c
  3327  000E9A  0E08               	movlw	high STR_39
  3328  000E9C  6E0B               	movwf	strncmp@_r+1,c
  3329  000E9E  0E00               	movlw	0
  3330  000EA0  6E0D               	movwf	strncmp@n+1,c
  3331  000EA2  0E02               	movlw	2
  3332  000EA4  6E0C               	movwf	strncmp@n,c
  3333  000EA6  EC60  F016         	call	_strncmp	;wreg free
  3334  000EAA  5008               	movf	?_strncmp,w,c
  3335  000EAC  1009               	iorwf	?_strncmp+1,w,c
  3336  000EAE  A4D8               	btfss	status,2,c
  3337  000EB0  D022               	goto	l5675
  3338  000EB2                     u6660:
  3339                           
  3340                           ;/opt/microchip/xc8/v2.05/pic/sources/c99/common/doprnt.c: 1046:             *fmt += ((s
      +                          izeof("zo")/sizeof("zo"[0]))-1);
  3341  000EB2  0E02               	movlw	2
  3342  000EB4  C062  FFD9         	movff	vfpfcnvrt@fmt,fsr2l
  3343  000EB8  C063  FFDA         	movff	vfpfcnvrt@fmt+1,fsr2h
  3344  000EBC  26DE               	addwf	postinc2,f,c
  3345  000EBE                     L12:
  3346  000EBE  0E00               	movlw	0
  3347  000EC0  22DD               	addwfc	postdec2,f,c
  3348                           
  3349                           ;/opt/microchip/xc8/v2.05/pic/sources/c99/common/doprnt.c: 1047:             llu = (unsi
      +                          gned long long)(*(size_t *)__va_arg(*(size_t **)ap, (size_t)0));
  3350  000EC2  C064  FFD9         	movff	vfpfcnvrt@ap,fsr2l
  3351  000EC6  C065  FFDA         	movff	vfpfcnvrt@ap+1,fsr2h
  3352  000ECA  CFDF F04A          	movff	indf2,??_vfpfcnvrt
  3353  000ECE  0E02               	movlw	2
  3354  000ED0  26DE               	addwf	postinc2,f,c
  3355  000ED2  CFDF F04B          	movff	indf2,??_vfpfcnvrt+1
  3356  000ED6  0E00               	movlw	0
  3357  000ED8  22DD               	addwfc	postdec2,f,c
  3358  000EDA  C04A  FFD9         	movff	??_vfpfcnvrt,fsr2l
  3359  000EDE  C04B  FFDA         	movff	??_vfpfcnvrt+1,fsr2h
  3360  000EE2  CFDE F04C          	movff	postinc2,??_vfpfcnvrt+2
  3361  000EE6  CFDD F04D          	movff	postdec2,??_vfpfcnvrt+3
  3362  000EEA  C04C  F079         	movff	??_vfpfcnvrt+2,vfpfcnvrt@llu
  3363  000EEE  C04D  F07A         	movff	??_vfpfcnvrt+3,vfpfcnvrt@llu+1
  3364  000EF2  0100               	movlb	0	; () banked
  3365  000EF4  D77E               	goto	L6
  3366  000EF6                     l5675:
  3367                           
  3368                           ;/opt/microchip/xc8/v2.05/pic/sources/c99/common/doprnt.c: 1058:         if (!strncmp(*f
      +                          mt, "hhn", ((sizeof("hhn")/sizeof("hhn"[0]))-1))) {
  3369  000EF6  C062  FFD9         	movff	vfpfcnvrt@fmt,fsr2l
  3370  000EFA  C063  FFDA         	movff	vfpfcnvrt@fmt+1,fsr2h
  3371  000EFE  CFDE F008          	movff	postinc2,strncmp@_l
  3372  000F02  CFDD F009          	movff	postdec2,strncmp@_l+1
  3373  000F06  0E18               	movlw	low STR_44
  3374  000F08  6E0A               	movwf	strncmp@_r,c
  3375  000F0A  0E08               	movlw	high STR_44
  3376  000F0C  6E0B               	movwf	strncmp@_r+1,c
  3377  000F0E  0E00               	movlw	0
  3378  000F10  6E0D               	movwf	strncmp@n+1,c
  3379  000F12  0E03               	movlw	3
  3380  000F14  6E0C               	movwf	strncmp@n,c
  3381  000F16  EC60  F016         	call	_strncmp	;wreg free
  3382  000F1A  5008               	movf	?_strncmp,w,c
  3383  000F1C  1009               	iorwf	?_strncmp+1,w,c
  3384  000F1E  A4D8               	btfss	status,2,c
  3385  000F20  D028               	goto	l5685
  3386                           
  3387                           ;/opt/microchip/xc8/v2.05/pic/sources/c99/common/doprnt.c: 1060:             *fmt += ((s
      +                          izeof("hhn")/sizeof("hhn"[0]))-1);
  3388  000F22  0E03               	movlw	3
  3389  000F24  C062  FFD9         	movff	vfpfcnvrt@fmt,fsr2l
  3390  000F28  C063  FFDA         	movff	vfpfcnvrt@fmt+1,fsr2h
  3391  000F2C  26DE               	addwf	postinc2,f,c
  3392  000F2E  0E00               	movlw	0
  3393  000F30  22DD               	addwfc	postdec2,f,c
  3394                           
  3395                           ;/opt/microchip/xc8/v2.05/pic/sources/c99/common/doprnt.c: 1061:             vp = (void 
      +                          *)(*(char * *)__va_arg(*(char * **)ap, (char *)0));
  3396  000F32  C064  FFD9         	movff	vfpfcnvrt@ap,fsr2l
  3397  000F36  C065  FFDA         	movff	vfpfcnvrt@ap+1,fsr2h
  3398  000F3A  CFDF F04A          	movff	indf2,??_vfpfcnvrt
  3399  000F3E  0E02               	movlw	2
  3400  000F40  26DE               	addwf	postinc2,f,c
  3401  000F42  CFDF F04B          	movff	indf2,??_vfpfcnvrt+1
  3402  000F46  0E00               	movlw	0
  3403  000F48  22DD               	addwfc	postdec2,f,c
  3404  000F4A  C04A  FFD9         	movff	??_vfpfcnvrt,fsr2l
  3405  000F4E  C04B  FFDA         	movff	??_vfpfcnvrt+1,fsr2h
  3406  000F52  CFDE F076          	movff	postinc2,vfpfcnvrt@vp
  3407  000F56  CFDD F077          	movff	postdec2,vfpfcnvrt@vp+1
  3408                           
  3409                           ;/opt/microchip/xc8/v2.05/pic/sources/c99/common/doprnt.c: 1062:             *(char *)vp
      +                           = (char)nout;
  3410  000F5A  C076  FFD9         	movff	vfpfcnvrt@vp,fsr2l
  3411  000F5E  C077  FFDA         	movff	vfpfcnvrt@vp+1,fsr2h
  3412  000F62  C0B1  FFDF         	movff	_nout,indf2
  3413  000F66                     l5681:
  3414                           
  3415                           ;/opt/microchip/xc8/v2.05/pic/sources/c99/common/doprnt.c: 1063:             return 0;
  3416  000F66  0E00               	movlw	0
  3417  000F68  0100               	movlb	0	; () banked
  3418  000F6A  6F61               	movwf	(?_vfpfcnvrt+1)& (0+255),b
  3419  000F6C  0E00               	movlw	0
  3420  000F6E  6F60               	movwf	?_vfpfcnvrt& (0+255),b
  3421  000F70  0012               	return	
  3422  000F72                     l5685:
  3423                           
  3424                           ;/opt/microchip/xc8/v2.05/pic/sources/c99/common/doprnt.c: 1068:         if (!strncmp(*f
      +                          mt, "hn", ((sizeof("hn")/sizeof("hn"[0]))-1))) {
  3425  000F72  C062  FFD9         	movff	vfpfcnvrt@fmt,fsr2l
  3426  000F76  C063  FFDA         	movff	vfpfcnvrt@fmt+1,fsr2h
  3427  000F7A  CFDE F008          	movff	postinc2,strncmp@_l
  3428  000F7E  CFDD F009          	movff	postdec2,strncmp@_l+1
  3429  000F82  0E19               	movlw	low (STR_44+1)
  3430  000F84  6E0A               	movwf	strncmp@_r,c
  3431  000F86  0E08               	movlw	high (STR_44+1)
  3432  000F88  6E0B               	movwf	strncmp@_r+1,c
  3433  000F8A  0E00               	movlw	0
  3434  000F8C  6E0D               	movwf	strncmp@n+1,c
  3435  000F8E  0E02               	movlw	2
  3436  000F90  6E0C               	movwf	strncmp@n,c
  3437  000F92  EC60  F016         	call	_strncmp	;wreg free
  3438  000F96  5008               	movf	?_strncmp,w,c
  3439  000F98  1009               	iorwf	?_strncmp+1,w,c
  3440  000F9A  A4D8               	btfss	status,2,c
  3441  000F9C  D00A               	goto	l5695
  3442  000F9E  D032               	goto	u6700
  3443  000FA0                     l5689:
  3444                           
  3445                           ;/opt/microchip/xc8/v2.05/pic/sources/c99/common/doprnt.c: 1072:             *(short *)v
      +                          p = (short)nout;
  3446  000FA0  C076  FFD9         	movff	vfpfcnvrt@vp,fsr2l
  3447  000FA4  C077  FFDA         	movff	vfpfcnvrt@vp+1,fsr2h
  3448  000FA8  C0B1  FFDE         	movff	_nout,postinc2
  3449  000FAC  C0B2  FFDD         	movff	_nout+1,postdec2
  3450  000FB0  D7DA               	goto	l5681
  3451  000FB2                     l5695:
  3452                           
  3453                           ;/opt/microchip/xc8/v2.05/pic/sources/c99/common/doprnt.c: 1077:         if (*fmt[0] == 
      +                          'n') {
  3454  000FB2  C062  FFD9         	movff	vfpfcnvrt@fmt,fsr2l
  3455  000FB6  C063  FFDA         	movff	vfpfcnvrt@fmt+1,fsr2h
  3456  000FBA  CFDE FFF6          	movff	postinc2,tblptrl
  3457  000FBE  CFDD FFF7          	movff	postdec2,tblptrh
  3458  000FC2                     	if	0	;tblptru may be non-zero
  3459  000FC2                     	endif
  3460  000FC2                     	if	0	;tblptru may be non-zero
  3461  000FC2                     	endif
  3462  000FC2  0008               	tblrd		*
  3463  000FC4  50F5               	movf	tablat,w,c
  3464  000FC6  0A6E               	xorlw	110
  3465  000FC8  A4D8               	btfss	status,2,c
  3466  000FCA  D006               	goto	l5705
  3467                           
  3468                           ;/opt/microchip/xc8/v2.05/pic/sources/c99/common/doprnt.c: 1078:             ++*fmt;
  3469  000FCC  C062  FFD9         	movff	vfpfcnvrt@fmt,fsr2l
  3470  000FD0  C063  FFDA         	movff	vfpfcnvrt@fmt+1,fsr2h
  3471  000FD4  2ADE               	incf	postinc2,f,c
  3472  000FD6  D01C               	goto	L13
  3473  000FD8                     l5705:
  3474                           
  3475                           ;/opt/microchip/xc8/v2.05/pic/sources/c99/common/doprnt.c: 1125:         if (!strncmp(*f
      +                          mt, "zn", ((sizeof("zn")/sizeof("zn"[0]))-1))) {
  3476  000FD8  C062  FFD9         	movff	vfpfcnvrt@fmt,fsr2l
  3477  000FDC  C063  FFDA         	movff	vfpfcnvrt@fmt+1,fsr2h
  3478  000FE0  CFDE F008          	movff	postinc2,strncmp@_l
  3479  000FE4  CFDD F009          	movff	postdec2,strncmp@_l+1
  3480  000FE8  0E31               	movlw	low STR_54
  3481  000FEA  6E0A               	movwf	strncmp@_r,c
  3482  000FEC  0E08               	movlw	high STR_54
  3483  000FEE  6E0B               	movwf	strncmp@_r+1,c
  3484  000FF0  0E00               	movlw	0
  3485  000FF2  6E0D               	movwf	strncmp@n+1,c
  3486  000FF4  0E02               	movlw	2
  3487  000FF6  6E0C               	movwf	strncmp@n,c
  3488  000FF8  EC60  F016         	call	_strncmp	;wreg free
  3489  000FFC  5008               	movf	?_strncmp,w,c
  3490  000FFE  1009               	iorwf	?_strncmp+1,w,c
  3491  001000  A4D8               	btfss	status,2,c
  3492  001002  D01D               	goto	l5715
  3493  001004                     u6700:
  3494                           
  3495                           ;/opt/microchip/xc8/v2.05/pic/sources/c99/common/doprnt.c: 1127:             *fmt += ((s
      +                          izeof("zn")/sizeof("zn"[0]))-1);
  3496  001004  0E02               	movlw	2
  3497  001006  C062  FFD9         	movff	vfpfcnvrt@fmt,fsr2l
  3498  00100A  C063  FFDA         	movff	vfpfcnvrt@fmt+1,fsr2h
  3499  00100E  26DE               	addwf	postinc2,f,c
  3500  001010                     L13:
  3501  001010  0E00               	movlw	0
  3502  001012  22DD               	addwfc	postdec2,f,c
  3503                           
  3504                           ;/opt/microchip/xc8/v2.05/pic/sources/c99/common/doprnt.c: 1128:             vp = (void 
      +                          *)(*(size_t * *)__va_arg(*(size_t * **)ap, (size_t *)0));
  3505  001014  C064  FFD9         	movff	vfpfcnvrt@ap,fsr2l
  3506  001018  C065  FFDA         	movff	vfpfcnvrt@ap+1,fsr2h
  3507  00101C  CFDF F04A          	movff	indf2,??_vfpfcnvrt
  3508  001020  0E02               	movlw	2
  3509  001022  26DE               	addwf	postinc2,f,c
  3510  001024  CFDF F04B          	movff	indf2,??_vfpfcnvrt+1
  3511  001028  0E00               	movlw	0
  3512  00102A  22DD               	addwfc	postdec2,f,c
  3513  00102C  C04A  FFD9         	movff	??_vfpfcnvrt,fsr2l
  3514  001030  C04B  FFDA         	movff	??_vfpfcnvrt+1,fsr2h
  3515  001034  CFDE F076          	movff	postinc2,vfpfcnvrt@vp
  3516  001038  CFDD F077          	movff	postdec2,vfpfcnvrt@vp+1
  3517  00103C  D7B1               	goto	l5689
  3518  00103E                     l5715:
  3519                           
  3520                           ;/opt/microchip/xc8/v2.05/pic/sources/c99/common/doprnt.c: 1138:         if (*fmt[0] == 
      +                          'p') {
  3521  00103E  C062  FFD9         	movff	vfpfcnvrt@fmt,fsr2l
  3522  001042  C063  FFDA         	movff	vfpfcnvrt@fmt+1,fsr2h
  3523  001046  CFDE FFF6          	movff	postinc2,tblptrl
  3524  00104A  CFDD FFF7          	movff	postdec2,tblptrh
  3525  00104E                     	if	0	;tblptru may be non-zero
  3526  00104E                     	endif
  3527  00104E                     	if	0	;tblptru may be non-zero
  3528  00104E                     	endif
  3529  00104E  0008               	tblrd		*
  3530  001050  50F5               	movf	tablat,w,c
  3531  001052  0A70               	xorlw	112
  3532  001054  A4D8               	btfss	status,2,c
  3533  001056  D043               	goto	l5723
  3534                           
  3535                           ;/opt/microchip/xc8/v2.05/pic/sources/c99/common/doprnt.c: 1140:             ++*fmt;
  3536  001058  C062  FFD9         	movff	vfpfcnvrt@fmt,fsr2l
  3537  00105C  C063  FFDA         	movff	vfpfcnvrt@fmt+1,fsr2h
  3538  001060  2ADE               	incf	postinc2,f,c
  3539  001062  0E00               	movlw	0
  3540  001064  22DD               	addwfc	postdec2,f,c
  3541                           
  3542                           ;/opt/microchip/xc8/v2.05/pic/sources/c99/common/doprnt.c: 1141:             llu = (unsi
      +                          gned long long)(size_t)(*(void * *)__va_arg(*(void * **)ap, (void *)0));
  3543  001066  C064  FFD9         	movff	vfpfcnvrt@ap,fsr2l
  3544  00106A  C065  FFDA         	movff	vfpfcnvrt@ap+1,fsr2h
  3545  00106E  CFDF F04A          	movff	indf2,??_vfpfcnvrt
  3546  001072  0E02               	movlw	2
  3547  001074  26DE               	addwf	postinc2,f,c
  3548  001076  CFDF F04B          	movff	indf2,??_vfpfcnvrt+1
  3549  00107A  0E00               	movlw	0
  3550  00107C  22DD               	addwfc	postdec2,f,c
  3551  00107E  C04A  FFD9         	movff	??_vfpfcnvrt,fsr2l
  3552  001082  C04B  FFDA         	movff	??_vfpfcnvrt+1,fsr2h
  3553  001086  CFDE F04C          	movff	postinc2,??_vfpfcnvrt+2
  3554  00108A  CFDD F04D          	movff	postdec2,??_vfpfcnvrt+3
  3555  00108E  C04C  F079         	movff	??_vfpfcnvrt+2,vfpfcnvrt@llu
  3556  001092  C04D  F07A         	movff	??_vfpfcnvrt+3,vfpfcnvrt@llu+1
  3557  001096  0100               	movlb	0	; () banked
  3558  001098  6B7B               	clrf	(vfpfcnvrt@llu+2)& (0+255),b
  3559  00109A  6B7C               	clrf	(vfpfcnvrt@llu+3)& (0+255),b
  3560  00109C  6B7D               	clrf	(vfpfcnvrt@llu+4)& (0+255),b
  3561  00109E  6B7E               	clrf	(vfpfcnvrt@llu+5)& (0+255),b
  3562  0010A0  6B7F               	clrf	(vfpfcnvrt@llu+6)& (0+255),b
  3563  0010A2  6B80               	clrf	(vfpfcnvrt@llu+7)& (0+255),b
  3564                           
  3565                           ; BSR set to: 0
  3566                           ;/opt/microchip/xc8/v2.05/pic/sources/c99/common/doprnt.c: 1143:             return xtoa
      +                          (fp, llu, 'x');
  3567  0010A4  C060  F023         	movff	vfpfcnvrt@fp,xtoa@fp
  3568  0010A8  C061  F024         	movff	vfpfcnvrt@fp+1,xtoa@fp+1
  3569  0010AC  C079  F025         	movff	vfpfcnvrt@llu,xtoa@d
  3570  0010B0  C07A  F026         	movff	vfpfcnvrt@llu+1,xtoa@d+1
  3571  0010B4  C07B  F027         	movff	vfpfcnvrt@llu+2,xtoa@d+2
  3572  0010B8  C07C  F028         	movff	vfpfcnvrt@llu+3,xtoa@d+3
  3573  0010BC  C07D  F029         	movff	vfpfcnvrt@llu+4,xtoa@d+4
  3574  0010C0  C07E  F02A         	movff	vfpfcnvrt@llu+5,xtoa@d+5
  3575  0010C4  C07F  F02B         	movff	vfpfcnvrt@llu+6,xtoa@d+6
  3576  0010C8  C080  F02C         	movff	vfpfcnvrt@llu+7,xtoa@d+7
  3577  0010CC  0E78               	movlw	120
  3578  0010CE  6E2D               	movwf	xtoa@x,c
