:020000040000FA
:040000001DEF00F000
:060008005782A6ED1BF07B
:100018005780D8CF05F0E8CF06F0E0CF07F097EC8F
:100028001BF007C0E0FF06C0E8FF05C0D8FF5790E7
:060038001000B7EF18F004
:1008000000001BB7002564206D6D0A006868580061
:10081000686864006868690068686E0068686F00EE
:1008200068687500686878007A58007A64007A69A8
:10083000007A6E007A6F007A75007A78000062C0E4
:10084000D9FF63C0DAFFDECFF6FFDDCFF7FF080088
:10085000F550250AD8A4C2EF0AF062C0D9FF63C0E0
:10086000DAFFDE2A000EDD22000E4F6E000E4E6E05
:100870004EC052F04FC053F050685168000E000156
:10088000696F000E14D0528062C0D9FF63C0DAFFD6
:10089000DE2A000EDD222ED05282F6D75284F4D703
:1008A0005286F2D75288F0D7000E696F010E686F3A
:1008B00021D062C0D9FF63C0DAFFDECFF6FFDDCF03
:1008C000F7FF0800F5504A6E4B6A4B50000AD8A457
:1008D000EBD74A50200AD8B4E3D7030AD8B4E2D7FA
:1008E000080AD8B4DBD7060AD8B4CDD71D0AD8B4C5
:1008F000D3D7DAD768516911D8B4DBD752B0529246
:1009000062C0D9FF63C0DAFFDECFF6FFDDCFF7FFAD
:100910000800F5502A0AD8A423D062C0D9FF63C0CA
:10092000DAFFDE2A000EDD2264C0D9FF65C0DAFFDF
:10093000DFCF4AF0020EDE26DFCF4BF0000EDD22C5
:100940004AC0D9FF4BC0DAFFDECF4EF0DDCF4FF00B
:100950004FAE40D052804E6C4F1ED8B04F2A3AD086
:1009600062C0D9FF63C0DAFFDECF0FF0DDCF10F039
:1009700004EC11F00FC04EF010C04FF007D062C071
:10098000D9FF63C0DAFFDE2A000EDD22D00E4A6EE8
:10099000FF0E4B6E62C0D9FF63C0DAFFDECFF6FFF9
:1009A000DDCFF7FF0800F5504C6E4D6A4A504C26DB
:1009B0004B504D224D5006E10A0E4C5CD8B002D08F
:1009C000010E01D0000E00016A6F6B6B6A516B1152
:1009D000D8A4D5D762C0D9FF63C0DAFFDECFF6FF57
:1009E000DDCFF7FF0800F5502E0AD8A46ED0000E18
:1009F000516E000E506E62C0D9FF63C0DAFFDE2A6E
:100A0000000EDD2262C0D9FF63C0DAFFDECFF6FF41
:100A1000DDCFF7FF0800F5502A0AD8A41CD062C029
:100A2000D9FF63C0DAFFDE2A000EDD2264C0D9FFE1
:100A300065C0DAFFDFCF4AF0020EDE26DFCF4BF0D3
:100A4000000EDD224AC0D9FF4BC0DAFFDECF50F0E6
:100A5000DDCF51F03AD062C0D9FF63C0DAFFDECFFC
:100A60000FF0DDCF10F004EC11F00FC050F010C00B
:100A700051F007D062C0D9FF63C0DAFFDE2A000E52
:100A8000DD22D00E4A6EFF0E4B6E62C0D9FF63C0EE
:100A9000DAFFDECFF6FFDDCFF7FF0800F5504C6E32
:100AA0004D6A4A504C264B504D224D5006E10A0EDD
:100AB0004C5CD8B002D0010E01D0000E00016C6F6A
:100AC0006D6B6C516D11D8A4D5D762C0D9FF63C0CE
:100AD000DAFFDECFF6FFDDCFF7FF0800F550630A3F
:100AE000D8A426D062C0D9FF63C0DAFFDE2A000E88
:100AF000DD2264C0D9FF65C0DAFFDFCF4AF0020E05
:100B0000DE26DFCF4BF0000EDD224AC0D9FF4BC0FE
:100B1000DAFFDF50786F60C023F061C024F078C046
:100B200025F099EC19F023C060F024C061F01200A8
:100B300062C0D9FF63C0DAFFDECF08F0DDCF09F075
:100B4000100E0A6E080E0B6E000E0D6E030E0C6E6C
:100B500060EC16F008500910D8B416D062C0D9FF66
:100B600063C0DAFFDECF08F0DDCF09F0140E0A6EA5
:100B7000080E0B6E000E0D6E030E0C6E60EC16F080
:100B800008500910D8A440D0030E62C0D9FF63C03A
:100B9000DAFFDE26000EDD2264C0D9FF65C0DAFF71
:100BA000DFCF4AF0020EDE26DFCF4BF0000EDD2253
:100BB0004AC0D9FF4BC0DAFFDF5000016E6F000E54
:100BC0006EBFFF0E6F6F706F716F726F736F746FA8
:100BD000756F60C023F061C024F06EC025F06FC057
:100BE00026F070C027F071C028F072C029F073C0E1
:100BF0002AF074C02BF075C02CF0DCEC0AF023C096
:100C000060F024C061F0120062C0D9FF63C0DAFF57
:100C1000DECF08F0DDCF09F0110E0A6E080E0B6E64
:100C2000000E0D6E020E0C6E60EC16F008500910EE
:100C3000D8B416D062C0D9FF63C0DAFFDECF08F0A7
:100C4000DDCF09F0150E0A6E080E0B6E000E0D6E4C
:100C5000020E0C6E60EC16F008500910D8A407D0F4
:100C6000020E62C0D9FF63C0DAFFDE261FD062C069
:100C7000D9FF63C0DAFFDECFF6FFDDCFF7FF080054
:100C8000F550640AD8B40DD062C0D9FF63C0DAFF52
:100C9000DECFF6FFDDCFF7FF0800F550690AD8A4D4
:100CA00020D062C0D9FF63C0DAFFDE2A000EDD2249
:100CB00064C0D9FF65C0DAFFDFCF4AF0020EDE263E
:100CC000DFCF4BF0000EDD224AC0D9FF4BC0DAFF68
:100CD000DECF6EF0DDCF6FF00001000E6FBFFF0EB4
:100CE00072D762C0D9FF63C0DAFFDECF08F0DDCF74
:100CF00009F02B0E0A6E080E0B6E000E0D6E020E22
:100D00000C6E60EC16F008500910D8B416D062C012
:100D1000D9FF63C0DAFFDECF08F0DDCF09F02E0E79
:100D20000A6E080E0B6E000E0D6E020E0C6E60EC5D
:100D300016F008500910D8A428D0020E62C0D9FFBE
:100D400063C0DAFFDE26000EDD2264C0D9FF65C075
:100D5000DAFFDFCF4AF0020EDE26DFCF4BF0000EC7
:100D6000DD224AC0D9FF4BC0DAFFDECF4CF0DDCF29
:100D70004DF04CC06EF04DC06FF00001706B716BA8
:100D8000726B736B746B756B24D762C0D9FF63C0D1
:100D9000DAFFDECF08F0DDCF09F01C0E0A6E080E78
:100DA0000B6E000E0D6E030E0C6E60EC16F008500C
:100DB0000910D8A43FD0030E62C0D9FF63C0DAFF88
:100DC000DE26000EDD2264C0D9FF65C0DAFFDFCF6A
:100DD0004AF0020EDE26DFCF4BF0000EDD224AC0C5
:100DE000D9FF4BC0DAFFDF504C6E4C500001796FD9
:100DF0007A6B7B6B7C6B7D6B7E6B7F6B806B60C07B
:100E000023F061C024F079C025F07AC026F07BC0C1
:100E100027F07CC028F07DC029F07EC02AF07FC07A
:100E20002BF080C02CF0A1EC0FF023C060F024C0A8
:100E300061F0120062C0D9FF63C0DAFFDECF08F0B4
:100E4000DDCF09F01D0E0A6E080E0B6E000E0D6E42
:100E5000020E0C6E60EC16F008500910D8B429D0C0
:100E600062C0D9FF63C0DAFFDECFF6FFDDCFF7FF48
:100E70000800F5506F0AD8A406D062C0D9FF63C03D
:100E8000DAFFDE2A1CD062C0D9FF63C0DAFFDECFF2
:100E900008F0DDCF09F0340E0A6E080E0B6E000E5E
:100EA0000D6E020E0C6E60EC16F008500910D8A4FE
:100EB00022D0020E62C0D9FF63C0DAFFDE26000E28
:100EC000DD2264C0D9FF65C0DAFFDFCF4AF0020E31
:100ED000DE26DFCF4BF0000EDD224AC0D9FF4BC02B
:100EE000DAFFDECF4CF0DDCF4DF04CC079F04DC0D5
:100EF0007AF000017ED762C0D9FF63C0DAFFDECF8F
:100F000008F0DDCF09F0180E0A6E080E0B6E000E09
:100F10000D6E030E0C6E60EC16F008500910D8A48C
:100F200028D0030E62C0D9FF63C0DAFFDE26000EB0
:100F3000DD2264C0D9FF65C0DAFFDFCF4AF0020EC0
:100F4000DE26DFCF4BF0000EDD224AC0D9FF4BC0BA
:100F5000DAFFDECF76F0DDCF77F076C0D9FF77C04D
:100F6000DAFFB1C0DFFF000E0001616F000E606F9D
:100F7000120062C0D9FF63C0DAFFDECF08F0DDCF18
:100F800009F0190E0A6E080E0B6E000E0D6E020EA1
:100F90000C6E60EC16F008500910D8A40AD032D0BC
:100FA00076C0D9FF77C0DAFFB1C0DEFFB2C0DDFF87
:100FB000DAD762C0D9FF63C0DAFFDECFF6FFDDCF3C
:100FC000F7FF0800F5506E0AD8A406D062C0D9FF1A
:100FD00063C0DAFFDE2A1CD062C0D9FF63C0DAFF2B
:100FE000DECF08F0DDCF09F0310E0A6E080E0B6E71
:100FF000000E0D6E020E0C6E60EC16F0085009101B
:10100000D8A41DD0020E62C0D9FF63C0DAFFDE266D
:10101000000EDD2264C0D9FF65C0DAFFDFCF4AF0E1
:10102000020EDE26DFCF4BF0000EDD224AC0D9FFD4
:101030004BC0DAFFDECF76F0DDCF77F0B1D762C0FC
:10104000D9FF63C0DAFFDECFF6FFDDCFF7FF080080
:10105000F550700AD8A443D062C0D9FF63C0DAFF4C
:10106000DE2A000EDD2264C0D9FF65C0DAFFDFCFC3
:101070004AF0020EDE26DFCF4BF0000EDD224AC022
:10108000D9FF4BC0DAFFDECF4CF0DDCF4DF04CC0C6
:1010900079F04DC07AF000017B6B7C6B7D6B7E6BD1
:1010A0007F6B806B60C023F061C024F079C025F0B5
:1010B0007AC026F07BC027F07CC028F07DC029F0E4
:1010C0007EC02AF07FC02BF080C02CF0780E2D6EF1
:1010D000FDEC0BF023C060F024C061F0120062C090
:1010E000D9FF63C0DAFFDECFF6FFDDCFF7FF0800E0
:1010F000F550730AD8A42AD062C0D9FF63C0DAFFC2
:10110000DE2A000EDD2264C0D9FF65C0DAFFDFCF22
:101110004AF0020EDE26DFCF4BF0000EDD224AC081
:10112000D9FF4BC0DAFFDECF66F0DDCF67F060C0DD
:1011300011F061C012F066C013F067C014F0A4ECA7
:1011400011F011C060F012C061F0120062C0D9FF4E
:1011500063C0DAFFDECF08F0DDCF09F0200E0A6EA3
:10116000080E0B6E000E0D6E030E0C6E60EC16F08A
:1011700008500910D8A43FD0030E62C0D9FF63C045
:10118000DAFFDE26000EDD2264C0D9FF65C0DAFF7B
:10119000DFCF4AF0020EDE26DFCF4BF0000EDD225D
:1011A0004AC0D9FF4BC0DAFFDF504C6E4C500001F3
:1011B000796F7A6B7B6B7C6B7D6B7E6B7F6B806BEF
:1011C00060C023F061C024F079C025F07AC026F019
:1011D0007BC027F07CC028F07DC029F07EC02AF0BB
:1011E0007FC02BF080C02CF004EC0EF023C060F028
:1011F00024C061F0120062C0D9FF63C0DAFFDECF05
:1012000008F0DDCF09F0210E0A6E080E0B6E000EFD
:101210000D6E020E0C6E60EC16F008500910D8B47A
:1012200029D062C0D9FF63C0DAFFDECFF6FFDDCF81
:10123000F7FF0800F550750AD8A406D062C0D9FFA0
:1012400063C0DAFFDE2A1CD062C0D9FF63C0DAFFB8
:10125000DECF08F0DDCF09F0370E0A6E080E0B6EF8
:10126000000E0D6E020E0C6E60EC16F008500910A8
:10127000D8A422D0020E62C0D9FF63C0DAFFDE26F6
:10128000000EDD2264C0D9FF65C0DAFFDFCF4AF06F
:10129000020EDE26DFCF4BF0000EDD224AC0D9FF62
:1012A0004BC0DAFFDECF4CF0DDCF4DF04CC079F013
:1012B0004DC07AF000017ED762C0D9FF63C0DAFF6B
:1012C000DECF08F0DDCF09F0240E0A6E080E0B6E9B
:1012D000000E0D6E030E0C6E60EC16F00850091037
:1012E000D8B416D062C0D9FF63C0DAFFDECF08F0F1
:1012F000DDCF09F00C0E0A6E080E0B6E000E0D6E9F
:10130000030E0C6E60EC16F008500910D8A454D0EF
:1013100062C0D9FF63C0DAFFDECF4AF0DDCF4BF009
:10132000020E4A26000E4B224AC0F6FF4BC0F7FFC2
:101330000800F5CF78F0030E62C0D9FF63C0DAFF72
:10134000DE26000EDD2264C0D9FF65C0DAFFDFCFE4
:101350004AF0020EDE26DFCF4BF0000EDD224AC03F
:10136000D9FF4BC0DAFFDF504C6E4C500001796F53
:101370007A6B7B6B7C6B7D6B7E6B7F6B806B60C0F5
:1013800023F061C024F079C025F07AC026F07BC03C
:1013900027F07CC028F07DC029F07EC02AF07FC0F5
:1013A0002BF080C02CF078C02DF0FDEC0BF023C0AA
:1013B00060F024C061F0120062C0D9FF63C0DAFFA0
:1013C000DECF08F0DDCF09F0250E0A6E080E0B6E99
:1013D000000E0D6E020E0C6E60EC16F00850091037
:1013E000D8B488D062C0D9FF63C0DAFFDECF08F07E
:1013F000DDCF09F00D0E0A6E080E0B6E000E0D6E9D
:10140000020E0C6E60EC16F008500910D8A41BD028
:1014100071D064C0D9FF65C0DAFFDFCF4AF0020E99
:10142000DE26DFCF4BF0000EDD224AC0D9FF4BC0D5
:10143000DAFFDECF4CF0DDCF4DF04CC079F04DC07F
:101440007AF0000196D762C0D9FF63C0DAFFDECF21
:10145000F6FFDDCFF7FF0800F550780AD8B40DD0BD
:1014600062C0D9FF63C0DAFFDECFF6FFDDCFF7FF42
:101470000800F550580AD8A411D062C0D9FF63C043
:10148000DAFFDECFF6FFDDCFF7FF0800F5CF78F00B
:1014900062C0D9FF63C0DAFFDE2A45D062C0D9FF3F
:1014A00063C0DAFFDECF08F0DDCF09F03A0E0A6E36
:1014B000080E0B6E000E0D6E020E0C6E60EC16F038
:1014C00008500910D8B416D062C0D9FF63C0DAFF43
:1014D000DECF08F0DDCF09F0280E0A6E080E0B6E85
:1014E000000E0D6E020E0C6E60EC16F00850091026
:1014F000D8A41CD062C0D9FF63C0DAFFDECF4AF0A7
:10150000DDCF4BF0010E4A26000E4B224AC0F6FFFB
:101510004BC0F7FF0800F5CF78F0020E62C0D9FF8C
:1015200063C0DAFFDE26000EDD2273D762C0D9FF6A
:1015300063C0DAFFDECFF6FFDDCFF7FF0800F5501E
:10154000250AD8A417D062C0D9FF63C0DAFFDE2A0B
:10155000000EDD22000E096E250E086E60C00AF036
:1015600061C00BF0B5EC16F0000E0001616F010ECA
:10157000606F120062C0D9FF63C0DAFFDE2A000E7E
:10158000DD22F1D462C0D9FF63C0DAFFDECFF6FFFF
:10159000DDCFF7FF0800F550086E096A60C00AF059
:1015A00061C00BF0B5EC16F062C0D9FF63C0DAFF82
:1015B000DE2A000EDD22D8D725C03DF026C03EF041
:1015C00027C03FF028C040F029C041F02AC042F0B7
:1015D0002BC043F02CC044F044AE02D0010E01D029
:1015E000000E3B6E3C6A3B503C10D8B410D0441EF9
:1015F000431E421E411E401E3F1E3E1E3D6C000EFD
:101600003E223F224022412242224322442251AE26
:10161000529251BE05D0515008E15004D8B005D0C7
:10162000000E386E010E376E04D050C037F051C036
:1016300038F04EC039F04FC03AF03B503C10D8A4BF
:1016400002D052A403D03906D8A03A06000E466E46
:101650001F0E456E000E01013F6F7CD04506D8A0DD
:101660004606200E4524D96E010E4620DA6E3DC096
:1016700008F03EC009F03FC00AF040C00BF041C086
:101680000CF042C00DF043C00EF044C00FF00A0E43
:10169000106E000E116E000E126E000E136E000E14
:1016A000146E000E156E000E166E000E176E38ECDE
:1016B00012F008C02DF009C02EF00AC02FF00BC0A8
:1016C00030F00CC031F00DC032F00EC033F00FC05E
:1016D00034F02DC01AF02FC01BF0CFEC1AF01A50C6
:1016E000300FDF6E3706D8A038063906D8A03A0684
:1016F0003DC008F03EC009F03FC00AF040C00BF00A
:1017000041C00CF042C00DF043C00EF044C00FF0D9
:101710000A0E106E000E116E000E126E000E136E89
:10172000000E146E000E156E000E166E000E176E73
:1017300060EC10F008C03DF009C03EF00AC03FF078
:101740000BC040F00CC041F00DC042F00EC043F0A1
:101750000FC044F046BE1FD0465003E14504D8A058
:101760001AD03D503E103F1040104110421043101F
:101770004410D8A473D738BE05D0385002E13704DE
:10178000D8B06CD73ABE07D03A5003E13904D8A09C
:1017900002D052B263D73B503C10D8A402D052A41E
:1017A00017D04506D8A046063B503C10D8A404D01C
:1017B000000E366E2B0E03D0000E366E2D0E356EDB
:1017C000200E4524D96E010E4620DA6E35C0DFFFAB
:1017D00023C018F024C019F0200E45241A6E010E03
:1017E00046201B6E39C01CF03AC01DF005EC17F006
:1017F00018C023F019C024F0120051AE529251BE0D
:1018000005D0515008E15004D8B005D0000E3B6E11
:10181000010E3A6E04D050C03AF051C03BF04EC0B9
:101820003CF04FC03DF052A804D0FE0E3C26FF0E07
:101830003D2225C03EF026C03FF027C040F028C022
:1018400041F029C042F02AC043F02BC044F02CC024
:1018500045F0000E476E1F0E466E000E01013F6FF1
:1018600093D04606D8A047060F0E3E14486E496A2C
:1018700049BE08D0495004E10A0E485CD8A002D005
:10188000570E01D0300E4824486E000E4920496E94
:10189000BF0E2E6EFF0E2F6E2D50306E316A2E5001
:1018A00030262F503122315006E11A0E305CD8B06C
:1018B00002D0010E01D0000E366E376A3650371056
:1018C000D8B427D09F0E2E6EFF0E2F6E200E48101C
:1018D000306E000E4910316E2E5030262F503122BE
:1018E000315006E11A0E305CD8B002D0010E01D0A2
:1018F000000E386E396A38503910D8B40AD048C052
:101900000EF049C00FF0C0EC19F00EC048F00FC047
:1019100049F0200E4624D96E010E4720DA6E48C0E9
:10192000DFFF3A06D8A03B063C06D8A03D063EC0E5
:101930002EF03FC02FF040C030F041C031F042C027
:1019400032F043C033F044C034F045C035F0050EEA
:1019500009D0D890353234323332323231323032EB
:101960002F322E32E82EF5D72EC03EF02FC03FF09A
:1019700030C040F031C041F032C042F033C043F0DB
:1019800034C044F035C045F047BE20D0475004E194
:10199000020E465CD8A01AD03E503F1040104110B5
:1019A0004210431044104510D8A45BD73BBE05D06D
:1019B0003B5002E13A04D8B054D73DBE07D03D5069
:1019C00003E13C04D8A002D052B24BD752A816D0A3
:1019D0004606D8A04706200E4624D96E010E4720A1
:1019E000DA6E2DC0DFFF4606D8A04706200E46243B
:1019F000D96E010E4720DA6E300EDF6E23C018F06C
:101A000024C019F0200E46241A6E010E47201B6ECA
:101A10003CC01CF03DC01DF005EC17F018C023F0D1
:101A200019C024F0120008500910D8B4120020EE9A
:101A300004F00850D9260950DA22DE50DE10D8B45E
:101A4000120008C0D9FF09C0DAFFDE50DE10D8A4AA
:101A500025D020EE06F00850D9260950DA22DE50B3
:101A6000DE10D8A41BD020EE04F00850D92609506F
:101A7000DA22DECF0AF0DDCF0BF00AC0D9FF0BC0AF
:101A8000DAFF000EDE6E000EDD6E20EE04F0085070
:101A9000D9260950DA2210EE02F057D008C0D9FF3B
:101AA00009C0DAFFDE50DE10D8A42BD020EE06F0FD
:101AB0000850D9260950DA2210EE04F00850E12629
:101AC0000950E222E6CF0AF0E5CF0BF00AC0E1FFB1
:101AD0000BC0E2FFDECFE6FFDDCFE5FF20EE06F034
:101AE0000850D9260950DA22DECF0AF0DDCF0BF0FC
:101AF0000AC0D9FF0BC0DAFF000EDE6E000EDD6EED
:101B000057D020EE06F00850D9260950DA22DE50D0
:101B1000DE10D8A423D008C0D9FF09C0DAFF10EE28
:101B200004F00850E1260950E22200EE02F0E650EF
:101B3000E926E550EA22DECFEEFFDDCFEDFF08C05B
:101B4000D9FF09C0DAFF10EE06F0DE50E126DD50C5
:101B5000E222000EE66E000EE56E2AD020EE06F0C0
:101B60000850D9260950DA2208C0E1FF09C0E2FF77
:101B700000EE06F0E650E926E550EA22DECFEEFF61
:101B8000DDCFEDFF08C0D9FF09C0DAFF10EE06F087
:101B90000850E1260950E222E6CF0AF0E5CF0BF02B
:101BA0000AC0E1FF0BC0E2FFDECFE6FFDDCFE5FFBD
:101BB00020EE04F00850D9260950DA2210EE04F085
:101BC000DE50E126DD50E222E606000EE55A08C0AE
:101BD000D9FF09C0DAFF000EDE6E000EDD6E20EECA
:101BE00006F00850D9260950DA22000EDE6E000EEB
:101BF000DD6E20EE04F00850D9260950DA22000EDE
:101C0000DE6E000EDD6E120051AE529251BE05D056
:101C1000515008E15004D8B005D0000E366E010EC8
:101C2000356E04D050C035F051C036F04EC037F09C
:101C30004FC038F025C039F026C03AF027C03BF03D
:101C400028C03CF029C03DF02AC03EF02BC03FF038
:101C50002CC040F0000E426E1F0E416E000E0101BE
:101C60003F6F76D04106D8A04206200E4124D96E9F
:101C7000010E4220DA6E39C008F03AC009F03BC0CC
:101C80000AF03CC00BF03DC00CF03EC00DF03FC070
:101C90000EF040C00FF00A0E106E000E116E000E16
:101CA000126E000E136E000E146E000E156E000EF6
:101CB000166E000E176E09EC16F008C02DF009C064
:101CC0002EF00AC02FF00BC030F00CC031F00DC068
:101CD00032F00EC033F00FC034F02D50300FDF6EF5
:101CE0003506D8A036063706D8A0380639C008F021
:101CF0003AC009F03BC00AF03CC00BF03DC00CF00C
:101D00003EC00DF03FC00EF040C00FF00A0E106E46
:101D1000000E116E000E126E000E136E000E146E89
:101D2000000E156E000E166E000E176E45EC15F0C7
:101D300008C039F009C03AF00AC03BF00BC03CF0D3
:101D40000CC03DF00DC03EF00EC03FF00FC040F0A3
:101D500041504210D8B41AD039503A103B103C10C0
:101D60003D103E103F104010D8A47CD736BE05D0A1
:101D7000365002E13504D8B075D738BE07D0385098
:101D800003E13704D8A002D052B26CD723C018F0B8
:101D900024C019F0200E41241A6E010E42201B6E41
:101DA00037C01CF038C01DF005EC17F018C023F048
:101DB00019C024F01200000E826E000E8B6EC00E51
:101DC000946E0A0EB86E000EAC6E000EAB6EACB820
:101DD00080D0B8B63AD0ACA41CD0000E086E6C0E01
:101DE000096EDC0E0A6E020E0B6E15C00CF016C0EA
:101DF0000DF017C00EF018C00FF094EC17F0050EA0
:101E000005D0D8900B320A3209320832E82EF9D7C1
:101E10007DD0000E086E6C0E096EDC0E0A6E020E8E
:101E20000B6E15C00CF016C00DF017C00EF018C0E8
:101E30000FF094EC17F0070E05D0D8900B320A3251
:101E400009320832E82EF9D761D0ACA426D0000EB2
:101E5000086E6C0E096EDC0E0A6E020E0B6E15C05B
:101E60000CF016C00DF017C00EF018C00FF094EC77
:101E700017F0030E05D0D8900B320A32093208321F
:101E8000E82EF9D7FF0E08241B6EFF0E09201C6EEA
:101E90001BC0AFFF1C50B06E3BD0000E086E6C0E26
:101EA000096EDC0E0A6E020E0B6E15C00CF016C029
:101EB0000DF017C00EF018C00FF094EC17F0050EDF
:101EC00005D0D8900B320A3209320832E82EF9D701
:101ED000D9D7B8B6BCD7000E086E6C0E096EDC0EF2
:101EE0000A6E020E0B6E15C00CF016C00DF017C076
:101EF0000EF018C00FF094EC17F0030E05D0D89038
:101F00000B320A3209320832E82EF9D70804AF6ED4
:101F100019C01AF0010E1A161A3A9F501A18EF0B30
:101F20001A189F6E19C01AF0010E1A161A3A1A469C
:101F30009F501A18DF0B1A189F6EAC8AAB88AB8EB5
:101F4000120051AE529251BE05D0515008E15004DA
:101F5000D8B005D0000E366E010E356E04D050C0DC
:101F600035F051C036F04EC039F04FC03AF025C0C0
:101F70003BF026C03CF027C03DF028C03EF029C011
:101F80003FF02AC040F02BC041F02CC042F0000EC0
:101F9000446E1F0E436E000E01013F6F000E386E3F
:101FA000000E376E43D04306D8A04406070E3B14FC
:101FB000376E386A200E4324D96E010E4420DA6E43
:101FC0003750300FDF6E3506D8A036063906D8A058
:101FD0003A063BC02DF03CC02EF03DC02FF03EC075
:101FE00030F03FC031F040C032F041C033F042C069
:101FF00034F0040E09D0D8903432333232323132D8
:1020000030322F322E322D32E82EF5D72DC03BF054
:102010002EC03CF02FC03DF030C03EF031C03FF04C
:1020200032C040F033C041F034C042F044BE1FD053
:10203000445003E14304D8A01AD03B503C103D105B
:102040003E103F10401041104210D8A4ACD736BE0D
:1020500005D03650A8E13504D8B0A5D73ABE07D090
:102060003A5003E13904D8A002D052B29CD752A80A
:1020700012D037503810D8B40ED04306D8A044063A
:10208000200E4324D96E010E4420DA6E300EDF6E2E
:102090003906D8A03A0623C018F024C019F0200E43
:1020A00043241A6E010E44201B6E39C01CF03AC046
:1020B0001DF005EC17F018C023F019C024F0120031
:1020C000000E196E17AE12D0171E161E151E141E06
:1020D000131E121E111E106C000E1122122213224A
:1020E0001422152216221722010E196E0FAE12D0DD
:1020F0000F1E0E1E0D1E0C1E0B1E0A1E091E086C46
:10210000000E09220A220B220C220D220E220F227F
:10211000010E191A20EE1AF0070EDE6AE806FDE23B
:102120001050111012101310141015101610171053
:10213000D8B446D0010E186E0AD0D8901036113699
:10214000123613361436153616361736182A17AEC9
:10215000F4D7D8901A361B361C361D361E361F365D
:10216000203621361050085C1150095812500A5878
:1021700013500B5814500C5815500D5816500E583B
:1021800017500F58D8A011D01050085E1150095A9E
:1021900012500A5A13500B5A14500C5A15500D5A1B
:1021A00016500E5A17500F5A1A80D89017321632FE
:1021B000153214321332123211321032182EC9D79E
:1021C0001950D8B410D0211E201E1F1E1E1E1D1E09
:1021D0001C1E1B1E1A6C000E1B221C221D221E22FE
:1021E0001F22202221221AC008F01BC009F01CC0A7
:1021F0000AF01DC00BF01EC00CF01FC00DF020C077
:102200000EF021C00FF01200000E1D6E000E1C6EAD
:10221000000E166E000E156E02D00F4A102A010E27
:102220001B6E0FC0F6FF10C0F7FF0800F550200A24
:10223000D8B418D0F70E116EFF0E126E0FC0F6FF55
:1022400010C0F7FF0800F550136E146A11501326E2
:1022500012501422145004E1050E135CD8A002D0D1
:10226000000E1B6E1BC017F0186A17501810D8B458
:1022700008D0D3D7000E166E010E156E0F4A102A25
:102280002ED00FC0F6FF10C0F7FF0800F550116EFA
:10229000126A1250000AD8A422D011502B0AD8B4C6
:1022A000EDD7060AD8B4E6D71AD01CC008F01DC076
:1022B00009F0000E0B6E0A0E0A6E71EC1BF00FC0D7
:1022C000F6FF10C0F7FF0800F550085E000E095A2F
:1022D000300E08241C6E000E09201D6ECFD7D00EC4
:1022E000116EFF0E126E0FC0F6FF10C0F7FF080050
:1022F000F550136E146A1150132612501422145004
:1023000006E10A0E135CD8B002D0010E01D0000E17
:10231000196E1A6A19501A10D8A4C7D7155016107A
:10232000D8A40DD01CC011F01DC012F0111E121E39
:10233000114A122A11C00FF012C010F012001CC076
:102340000FF01DC010F0120020EEF4F010EE16F0A9
:10235000060EDBCFE3FFE806FCE213C021F014C059
:1023600022F021502210D8A404D0160E216E000EA7
:10237000226E21C008F022C009F048EC1BF008C012
:1023800025F009C026F050C023F051C024F024BE2F
:102390000ED02550235C2450800A156E2650800AEA
:1023A0001558D8B004D023C025F024C026F025C08D
:1023B00023F026C024F04EC01FF04FC020F052A0E2
:1023C0000DD016D0000E096E200E086E11C00AF056
:1023D00012C00BF0B5EC16F0254A262A1F50255CDA
:1023E0002650800A156E2050800A1558D8A0EAD7CA
:1023F000000E1E6E000E1D6E13D021C0D9FF22C02C
:10240000DAFFDF50156E1550086E096A11C00AF028
:1024100012C00BF0B5EC16F0214A222A1D4A1E2AE2
:1024200023501D5C1E50800A156E2450800A1558DA
:10243000D8A0E3D752B00DD016D0000E096E200EF2
:10244000086E11C00AF012C00BF0B5EC16F0254A68
:10245000262A1F50255C2650800A156E2050800ABF
:102460001558D8A0EAD725C011F026C012F01200E6
:10247000000E196E0FAE12D00F1E0E1E0D1E0C1E7A
:102480000B1E0A1E091E086C000E09220A220B22CE
:102490000C220D220E220F22010E196E17AE10D043
:1024A000171E161E151E141E131E121E111E106C52
:1024B000000E112212221322142215221622172294
:1024C00010501110121013101410151016101710B0
:1024D000D8B43CD0010E186E0AD0D8901036113600
:1024E000123613361436153616361736182A17AE26
:1024F000F4D71050085C1150095812500A58135064
:102500000B5814500C5815500D5816500E581750A3
:102510000F58D8A010D01050085E1150095A125010
:102520000A5A13500B5A14500C5A15500D5A165083
:102530000E5A17500F5AD8901732163215321432DD
:102540001332123211321032182ED3D71950D8B498
:1025500010D00F1E0E1E0D1E0C1E0B1E0A1E091E75
:10256000086C000E09220A220B220C220D220E22D8
:102570000F2208C008F009C009F00AC00AF00BC019
:102580000BF00CC00CF00DC00DF00EC00EF00FC023
:102590000FF012000D6E06EC1CF0000E096E000E1E
:1025A000086EF3EC1BF0010EB5EC1BF0080E0D6489
:1025B00001D01200010E0001D76F8A82280EE82E8A
:1025C000FED78A920CEC1CF00B0E0A6EE80EE82E79
:1025D000FED70A2EFCD781B002D0010E01D0000E2A
:1025E0000A6E0B6A0001D7510A16000E0B160A502C
:1025F0000B10D8A4F0D7C3EC1BF008C0CBF009C077
:10260000CCF081A002D0010E01D0000E0001D71540
:102610000009D8A4F6D706EC1CF00001D751D8B4B5
:102620002DD0C3EC1BF00001CB51085CCB6FCC511B
:102630000958CC6F0D50040D000EF324D96E010E15
:10264000F420DA6ECBC0DEFFCCC0DDFFCBC00AF0D9
:10265000CCC00BF0040E0C6ED8900B320A320C2E4C
:10266000FBD70D50040D020EF324D96E010EF42099
:10267000DA6E0AC0DEFF0BC0DDFF12000D50040D44
:10268000000EF324D96E010EF420DA6EFF0EDE6E1A
:10269000FF0EDD6E0D50040D020EF324D96E010EF7
:1026A000F420DA6EFF0EDE6EFF0EDD6E12000F0EEE
:1026B000086E000E096E000E0A6E000E0B6ED5EC51
:1026C00017F008C016F009C017F016501710D8A45C
:1026D00005D0000E126E000E136E120016C0D9FF48
:1026E00017C0DAFF12C0DEFF13C0DDFF070E16248D
:1026F000086E000E1720096E46EC19F020EE09F066
:102700001650D9261750DA2216C0DEFF17C0DDFF9B
:10271000142818E11528D8A415D020EE02F0165080
:10272000D9261750DA22040EDF6EDE0E086E000E78
:10273000096E070E16240A6E000E17200B6E5EEC53
:1027400014F037D014501510D8B41FD020EE03F079
:102750001650D9261750DA2214C0DEFF15C0DDFF4F
:1027600020EE02F01650D9261750DA22030EDF6E43
:10277000E40E086E000E096E070E16240A6E000E97
:1027800017200B6E5EEC14F014D020EE02F0165001
:10279000D9261750DA22010EDF6EEA0E086E000EFF
:1027A000096E070E16240A6E000E17200B6E5EECE3
:1027B00014F016C012F017C013F01200D10E096EFB
:1027C0001F0E086EF8EC1BF0000ED0EC1BF00EECA8
:1027D0001CF011EC1CF06DD0020EFB19D8B4ACEC5F
:1027E00015F062EC1AF054505510D8B462D020EEB7
:1027F00002F05450D9265550DA22020EDF6E84ECD6
:102800001BF020EE02F05450D9265550DA22030E68
:10281000DE18D8A40DD0E40E086E000E096E070E67
:1028200054240A6E000E55200B6E5EEC14F0D1D7C6
:1028300020EE02F05450D9265550DA22040EDE184C
:10284000D8A40DD0DE0E086E000E096E070E5424BB
:102850000A6E000E55200B6E5EEC14F02AD020EEAE
:1028600002F05450D9265550DA22DE04D8A40DD0F7
:10287000EA0E086E000E096E070E54240A6E000E52
:1028800055200B6E5EEC14F014D020EE02F0545084
:10289000D9265550DA22000EDF6ED80E086E000ED3
:1028A000096E070E54240A6E000E55200B6E5EEC66
:1028B00014F00001FB51D8B412008ED70850091053
:1028C000D8B412000A500B10D8B4120020EE04F055
:1028D0000850D9260950DA22DE50DE10D8B433D0A1
:1028E00020EE06F00A50D9260B50DA22000EDE6EDA
:1028F000000EDD6E20EE02F00850D9260950DA22D3
:102900000AC0E1FF0BC0E2FFDECFE6FFDDCFE5FF4F
:1029100020EE02F00850D9260950DA2210EE06F017
:10292000DE50E126DD50E2220AC0E6FF0BC0E5FFE3
:1029300020EE02F00850D9260950DA220AC0DEFF44
:102940000BC0DDFF24D008C0D9FF09C0DAFF0AC0E0
:10295000DEFF0BC0DDFF20EE02F00850D926095043
:10296000DA220AC0DEFF0BC0DDFF20EE06F00A50BF
:10297000D9260B50DA22000EDE6E000EDD6E0AC084
:10298000E1FF0BC0E2FFDECFE6FFDDCFE5FF20EE8B
:1029900004F00850D9260950DA22DE2A000EDD2282
:1029A00020EE04F00A50D9260B50DA2208C0DEFFD0
:1029B00009C0DDFF1200800E00018C5DD8A007D099
:1029C000000EB06F4B0EAF6F89698A69120089C023
:1029D00099F08AC09AF08C5104E1020E8B5DD8A068
:1029E0000AD0FF0E8B259D6FFF0E8C219E6F000E6F
:1029F0009C6F000E07D0000E9E6F010E9D6F000EA3
:102A00009C6F010E9B6F990E816F000E826F8DC0BF
:102A100083F08EC084F08FC085F090C086F01BECF0
:102A200019F081C097F082C098F000018B518C1191
:102A3000D8A498BF25D0FF0E916FFF0E926F8BC068
:102A400093F08CC094F09151932792519423935119
:102A5000975D94519859D8A007D0FF0E8B25956F9C
:102A6000FF0E8C21966F04D097C095F098C096F019
:102A700095518925D96E96518A21DA6E000EDF6E46
:102A800097C089F098C08AF0120020EE18F0070E67
:102A9000DE6AE806FDE21050111012101310141037
:102AA000151016101710D8B446D0010E206E0AD09B
:102AB000D8901036113612361336143615361636AF
:102AC0001736202A17AEF4D7D890183619361A368A
:102AD0001B361C361D361E361F361050085C115032
:102AE000095812500A5813500B5814500C581550CE
:102AF0000D5816500E5817500F58D8A011D010501E
:102B0000085E1150095A12500A5A13500B5A1450A9
:102B10000C5A15500D5A16500E5A17500F5A18804D
:102B2000D890173216321532143213321232113253
:102B30001032202EC9D718C008F019C009F01AC0E9
:102B40000AF01BC00BF01CC00CF01DC00DF01EC025
:102B50000EF01FC00FF01200F29EF29CC9C0BBF035
:102B6000CAC0BCF0F28EF28CE4C0C1F0E5C0C2F085
:102B7000E4C0BFF0E5C0C0F044D020EE02F0BF5189
:102B8000D926C051DA22DECFBDF0DDCFBEF020EE77
:102B900006F0BF51D926C051DA22DECFC1F0DDCF19
:102BA000C2F020EE05F0BD51D926BE51DA22DECFAB
:102BB0000EF0DDCF0FF00E50BB5DB96F0F50BC595A
:102BC000BA6F20EE03F0BD51D926BE51DA22DE5095
:102BD000B95DDE50BA59D8A010D0BFC008F0C0C04F
:102BE00009F013EC0DF0EA0E086E000E096EBFC07E
:102BF0000AF0C0C00BF05EEC14F0C1C0BFF0C2C060
:102C0000C0F00001BF51C011D8A4B7D7030EFB6FAD
:102C1000120010501110121013101410151016106D
:102C20001710D8B43CD0010E186E0AD0D8901036C8
:102C30001136123613361436153616361736182A4C
:102C400017AEF4D71050085C1150095812500A58AA
:102C500013500B5814500C5815500D5816500E5850
:102C600017500F58D8A010D01050085E1150095AB4
:102C700012500A5A13500B5A14500C5A15500D5A30
:102C800016500E5A17500F5AD89017321632153266
:102C900014321332123211321032182ED3D708C028
:102CA00008F009C009F00AC00AF00BC00BF00CC014
:102CB0000CF00DC00DF00EC00EF00FC00FF01200A2
:102CC00008C00FF009C010F00AC011F00BC012F0DC
:102CD0000C06D8A00D060C280FE10D28D8A40CD0A6
:102CE000000E096E000E086E12000F4A102A114ADB
:102CF000122A0C06D8A00D060FC0F6FF10C0F7FF71
:102D00000800F5500009D8B41DD011C0F6FF12C05C
:102D1000F7FF0800F5500009D8B414D00C500D107E
:102D2000D8B410D00FC0F6FF10C0F7FF0800F5CFE1
:102D30000EF011C0F6FF12C0F7FF0800F5500E1894
:102D4000D8B4D3D70FC0F6FF10C0F7FF0800F5CFF7
:102D50000EF011C0F6FF12C0F7FF0800F5500E5C30
:102D6000086E096AD8A0090612000A500B10D8B4E0
:102D700004D00A500B10D8A404D0085010EC1CF05A
:102D8000120020EE04F00A50D9260B50DA22DE5051
:102D9000DE10D8B416D020EE04F00A50D9260B501D
:102DA000DA2210EE02F00A50E1260B50E222DE5049
:102DB000E65CE650800A106EDE50800A1058D8B0EB
:102DC000120020EE02F00A50D9260B50DA22DECF94
:102DD0000CF0DDCF0DF00AC0D9FF0BC0DAFFDECF5B
:102DE0000EF0DDCF0FF00C500E24D96E0D500F20D9
:102DF000DA6E08C0DFFF20EE02F00A50D9260B5031
:102E0000DA22DE2A000EDD22120052A00AD01AC0F9
:102E100011F01BC012F018C013F019C014F07FECB1
:102E20001AF01DBE05D01CC021F01DC022F004D038
:102E3000000E226E000E216E000E206E000E1F6E20
:102E40000CD0000E096E200E086E18C00AF019C0D2
:102E50000BF0B5EC16F01F4A202A21501F5C2050C1
:102E6000800A1E6E2250800A1E58D8A0EAD752B09F
:102E70000AD01AC011F01BC012F018C013F019C00C
:102E800014F07FEC1AF01AC008F01BC009F048ECEF
:102E90001BF021500824186E22500920196E1200D0
:102EA000F28EF28CD08E5DEC1BF0000E156EC20E11
:102EB000166E010E176E000E186E010E196EDBEC09
:102EC0000EF0EAEC18F006EC1AF0260E126E300E38
:102ED000136E000E156E000E146E57EC13F012C038
:102EE000B5F013C0B6F00001B551B611D8B4FFD794
:102EF000BA0E126E370E136EFF0E156E146857EC75
:102F000013F012C0B3F013C0B4F00001B351B41108
:102F1000D8B4FFD7F28EF28CDEEC13F013EC18F07D
:102F2000DDEC1BF01DEF00F0000E106E000E116EB8
:102F3000000E126E000E136E0C500D100E100F10BE
:102F4000D8B42AD0010E146E06D0D8900C360D36A7
:102F50000E360F36142A0FAEF8D7D8901036113629
:102F6000123613360C50085C0D5009580E500A5892
:102F70000F500B58D8A009D00C50085E0D50095ABC
:102F80000E500A5A0F500B5A1080D8900F320E3242
:102F90000D320C32142EE1D710C008F011C009F028
:102FA00012C00AF013C00BF01200F29EF29C000E49
:102FB000106E000E116E08500001AB250C6E09500A
:102FC000AC210D6E0A50AD210E6E0B50AE210F6E6E
:102FD0000F500E1019E1040E0D5CD8B015D008503A
:102FE00009100A100B10D8B40FD04F0EAB25106E7D
:102FF000010EAC21116E0850AB270950AC230A50CA
:10300000AD230B50AE2308D00850AB5F0950AC5B2A
:103010000A50AD5B0B50AE5BF28EF28C10C008F024
:1030200011C009F01200010E096EF40E086E81EC59
:1030300018F0000ECAEC12F0F00E086E000E096EC9
:10304000000E0A6E45EC1AF0400E00019F6F010E53
:10305000A06F000EA26F0F0EA16F050EA36F080EDA
:10306000A46FF2C0A5F0F3C0A6F0E8EC1AF0400E91
:103070000C6E010E0D6E400E086E010E096E48ECCE
:103080001BF0010E08240E6E000E09200F6EB5EC29
:103090001AF012009EBA56A817D0D3C0D9FFD4C0D8
:1030A000DAFFAECFDFFFD3C0D9FFD4C0DAFF000113
:1030B000D34BD42BCF07D8A0D007CF51D011D8A451
:1030C00003D00F0E56169D9A9EA8120056A012000D
:1030D0000001D107D8A0D207D151D211D8B40DD058
:1030E000D5C0D9FFD6C0DAFFDF50AD6ED5C0D9FF4D
:1030F000D6C0DAFFD54BD62B1200F00E56169D988F
:10310000120054505510D8B4120008500910D8A419
:1031100009D020EE02F05450D9265550DA22010E83
:10312000DF6E1200F29EF29CC9C0C7F0CAC0C8F0A0
:10313000F28EF28C20EE03F05450D9265550DA224C
:1031400008C0DEFF09C0DDFF20EE05F05450D9268F
:103150005550DA22C7C0DEFFC8C0DDFF20EE02F006
:103160005450D9265550DA22030EDF6E1200040E99
:10317000F66E380EF76E000EF86E00EEF4F010EEFC
:1031800008F00900F5CFEEFFE550E150FAE101EE5D
:103190004FF014EE00F0EE6AE550E150FCE1E25031
:1031A000FAE101EE00F04F0EEE6AE806FDE100EEF6
:1031B000ABF0490EEE6AE806FDE100EE4EF0090EB6
:1031C000EE6AE806FDE157905792000EF86E000196
:1031D00050EF17F0000E8A6E8ACF81FF010E936EBA
:1031E0000F0EC16E070EB46EEDEC1BF0000E096EF3
:1031F000000E086EF3EC1BF0000E0A6E0A50040D70
:10320000000EF324D96E010EF420DA6EFF0EDE6E8E
:10321000000EDD6E0A50040D020EF324D96E010E6D
:10322000F420DA6EFF0EDE6E000EDD6E0A2A070E47
:103230000A64E4D7120083C087F084C088F0000ECF
:103240000001B26F000EB16F13D081C060F082C078
:1032500061F0870E626F000E636F85C064F086C0F8
:1032600065F01FEC04F000016051B1276151B223F9
:1032700087C0F6FF88C0F7FF0800F5500009D8A402
:10328000E4D7B1C081F0B2C082F01200085009103A
:10329000D8B4120020EE02F00850D9260950DA22E4
:1032A000000EDE6E000EDD6E08C0D9FF09C0DAFF29
:1032B000000EDE6E000EDD6E20EE06F00850D92600
:1032C0000950DA22000EDE6E000EDD6E20EE04F0F4
:1032D0000850D9260950DA22000EDE6E000EDD6E8F
:1032E00012000E500F10D8B4120020EE02F00E5053
:1032F000D9260F50DA22040EDF6E0E50541804E166
:103300000F505518D8B41200070E0E24086E000E88
:103310000F20096E13EC0DF0DE0E086E000E096E24
:10332000070E0E240A6E000E0F200B6E5EEC14F0DA
:1033300012004E504F10D8A405D04EC026F04FC0FA
:1033400027F006D0FF0E4E24266EFF0E4F20276E6C
:1033500025C020F1000E0101216F23C018F024C008
:1033600019F0200E1A6E010E1B6E26C01CF027C02D
:103370001DF005EC17F018C023F019C024F012005E
:103380009F0E106EFF0E116E0EC012F00FC013F0E4
:103390001050122611501322135006E11A0E125C1F
:1033A000D8B002D0010E01D0000E146E156A145070
:1033B0001510D8B405D05F0E0E140E6E0F6A1200F1
:1033C0000EC00EF00FC00FF0120008500910D8B454
:1033D000120008C0D9FF09C0DAFF000EDE6E000E31
:1033E000DD6E10EE02F00850E1260950E222DECF39
:1033F000E6FFDDCFE5FF20EE04F00850D9260950A6
:10340000DA22000EDE6E000EDD6E1200EA0E086E8D
:10341000000E096EE5EC19F0E40E086E000E096E60
:10342000E5EC19F0DE0E086E000E096EE5EC19F001
:10343000D80E086E000E096EE5EC19F009EC1CF0D0
:10344000000E0001CA6F000EC96F1200010E0E6E51
:10345000200E08180910D8B414D0F70E0A6EFF0E0B
:103460000B6E08C00CF009C00DF00A500C260B5072
:103470000D220D5004E1050E0C5CD8A002D0000E08
:103480000E6E0EC008F0096A120008500910D8B478
:103490001200080E0A6401D012000A50040D000E3A
:1034A000F324D96E010EF420DA6E08C0E1FF09C0E2
:1034B000E2FFDECFE6FFDECFE6FFDECFE6FFDECFC8
:1034C000E6FF12000001EE51EF11D8B413D020EE48
:1034D00002F0EA51D926EB51DA22DECF54F0DDCFEB
:1034E00055F0070E5424086E000E5520096E13EC9B
:1034F0000DF01200000E546E000E556E1200000EFC
:10350000176E000E166E0BD015C008F0096A13C0B6
:103510000AF014C00BF0B5EC16F0164A172A165034
:103520001124D96E17501220DA6EDF50156E155027
:10353000D8B41200E9D79F0E0A6EFF0E0B6E200E54
:1035400008100C6E000E09100D6E0A500C260B5060
:103550000D220D5006E11A0E0C5CD8B002D0010EFF
:1035600001D0000E086E096A12000C500D10D8B47C
:1035700012000E500F10D8B412000001D551D61110
:10358000D8B402D056B012000CC0D5F00DC0D6F0A1
:103590000EC0D1F00FC0D2F056809D8812001BBE25
:1035A00005D01B5010E11A04D8B00DD01AC01CF081
:1035B0001BC01DF01C1E1D1E1C4A1D2A1CC01AF01B
:1035C0001DC01BF012001AC01AF01BC01BF0120025
:1035D000A50E0001A96F000EAA6F9FC089F0A0C0C0
:1035E0008AF0A1C08BF0A2C08CF0A3C08DF0A4C063
:1035F0008EF0A90E8F6F000E906FDBEC14F01200AE
:103600009F0E0A6EFF0E0B6E08C00CF009C00DF085
:103610000A500C260B500D220D5006E11A0E0C5CC0
:10362000D8B002D0010E01D0000E086E096A120057
:10363000BF0E0A6EFF0E0B6E08C00CF009C00DF035
:103640000A500C260B500D220D5006E11A0E0C5C90
:10365000D8B002D0010E01D0000E086E096A120027
:10366000D00E0A6EFF0E0B6E08C00CF009C00DF0F4
:103670000A500C260B500D220D5006E10A0E0C5C70
:10368000D8B002D0010E01D0000E086E096A1200F7
:1036900008C00AF009C00BF002D0084A092A08C085
:1036A000D9FF09C0DAFFDF50D8A4F7D70A50085C69
:1036B000086E0B500958096E1200000E566E000E6F
:1036C0000001D36F000ED46FD3C0D5F0D4C0D6F0B4
:1036D000000ED06F000ECF6FCFC0D1F0D0C0D2F0AF
:1036E000120008500A02F3CF0CF0F4CF0DF008508E
:1036F0000B02F3500D2609500A02F3500D260CC0A0
:1037000008F00DC009F01200F29EF29C050054C0B2
:10371000D9FF55C0DAFFDECFC3F0DDCFC4F0C3510F
:10372000FD6EC451FE6EFF6AF28EF28C12009EA0F6
:103730001200D10E046E1F0E036EFDEC1BF09E9066
:103740000001C94BCA2B020EFB6F12000600D9CF35
:1037500001F0DACF02F0E5EC1BF04AEC18F002C001
:10376000DAFF01C0D9FF57921100096EA19209C07A
:1037700008F0010E08160846A2500818FD0B08189C
:10378000A26EA0821200F29EF29CB2CFCDF0B3CF17
:10379000CEF0F28EF28CCDC008F0CEC009F012004F
:1037A000096E9E9009C008F0010E08169F50081877
:1037B000FE0B08189F6E9D801200B3C00EF0B4C0BF
:1037C0000FF071EC19F089781200A1A21200B190EB
:1037D000A192000E0001D76F1200B18EB150CF0B35
:1037E0002009B16E12000950B36E08C0B2FF12007A
:1037F00008C0CEFF09C0CFFF120003C0CEFF04C037
:10380000CFFF1200286E756C6C290002B190A19256
:103810001200800ECD6E1200B1801200CD80120019
:043820001200120080
:020000040020DA
:08000000FFFFFFFFFFFFFFFF00
:020000040030CA
:0E000000040E1F1EFF8181FF0FC00FE00F4096
:00000001FF
